:020000040800F2
:10000000002000105D500308C5500308B9B801086E
:10001000C5500308C5500308C55003080000000080
:10002000000000000000000000000000C5500308B0
:10003000C550030800000000C550030825B10108A1
:10004000C5500308C5500308C5500308C550030830
:10005000C5500308C550030849B9010875BA01081D
:1000600039BA0108FDB90108C1B9010825F0010834
:1000700015F0010805F00108F5EF0108E5EF0108AA
:10008000D1EF0108BDEF0108C5500308C5500308B2
:10009000C5500308C5500308C550030885B90108B9
:1000A00001A001080DA30108359F010889A40108DA
:1000B00051A2010895A10108CDA00108C55003086F
:1000C000C5500308C5500308C5500308C5500308B0
:1000D000C55003085DB20108E1B1010865B101082E
:1000E0000DB90108C5500308C5500308C5500308E1
:1000F000C5500308C5500308C5500308C550030880
:10010000000000000000000000000000C5500308CF
:10011000C5500308C5500308A9620008956200088D
:10012000A9EF010895EF010881EF01086DEF0108C3
:1001300059EF0108C550030800000000000000004E
:10014000C5500308C5500308C5500308000000004F
:10015000000000000000000000000000000000009F
:100160000000000000000000C5500308C55003084F
:10017000C55003080000000000000000000000005F
:0801800000000000C550030857
:10018800174B9FED185A1B681844BFEE007A437A44
:1001980006EE103AC378A0EE007A07EE903A83791B
:1001A800B8EE466A05EE903A60EE850AF7EE006A08
:1001B800F2EE044AB0EE664A20EE240AA6EE204A81
:1001C80027EE057AF8EEE55AF8EEE77AE5EE876A63
:1001D80067EE807A24EE270A20EE260A704700BFD1
:1001E800B07F00200AD7233C2C4B1B681844837926
:1001F8009BB107EE903ADFED2A6AF8EEE77A20EE37
:10020800A07A67EEA67A27EE207AF7EE006AD7EE94
:10021800877A77EEA67A20EE270AC378DFED206A80
:1002280007EE903AF8EEE77AB0EE007A67EEA67A33
:10023800F4EEC77AF1EE10FA05DD37EEC77ADFED96
:10024800196AE7EE267A437A9FED177A20EE070AB5
:1002580020EE270A03B3DFED127A9FED147A06EE3B
:10026800903A60EEA77AF8EEE60A60EEA70AF4EE96
:10027800C70AF1EE10FA04DDDFED0D7A20EE270A49
:100288007047F5EEC00AF1EE10FA05D4F7EE007AE1
:1002980077EEE00A80EE200A704700BFB07F0020AA
:1002A8000AD7233CD7A3684100004843A4707D3F88
:1002B8000000C842D0E90920101AB0FA80F04009BD
:1002C800704700BF0171704703799B070AD5436ADD
:1002D8008269D154436A01690133B3FBF1F201FB2E
:1002E80012334362704700BF037913F0010317D03C
:1002F800D0E90731C26810B45B1A541E23400BD0F2
:1003080043694C1C5B5CB4FBF2F102FB11420262D4
:100318005DF8044BD8B2704718465DF8044B704737
:1003280018467047037913F0020308D0D0E9092171
:100338000369581E531A0340DBB2C01A70471846A7
:10034800704700BF037913F0010306D0D0E90731E5
:10035800C268581A531E184070471846704700BFA5
:1003680010F8113C0133DBB20A2B00F8113C07D915
:10037800044A10F8131C002322F8113000F8113C2D
:10038800704700BF342E0020F0B45D4E5D483278CF
:100398005D4B5E4DDC6B2D780132A0FB02700009CD
:1003A80000EB8000A2EB80001A683070914201EBEC
:1003B80004005C6811D293F84520002A4ED000F55D
:1003C8008030B0FBF5F084420BD2041B4FF480322E
:1003D80092FBF5F2A21A9A600AE0B0FBF5F08442AB
:1003E80044D34FF4803292FBF5F2121B02449A6018
:1003F80040F68C240025A242C3E9001083F845503A
:1004080017D993F8402093F942108A4256B241D046
:10041800002093F9411083F843008A4247D0012114
:10042800002283F8426083F8441083F84020F0BC2F
:10043800704793F844100029F9D0A2F2EF2040F257
:10044800DA5188421AD893F840100B2916D803EBD2
:1004580081000131C26083F84010E8E7B0FBF5F095
:100468008442BED2041BA21A9A60C1E793F84520C1
:10047800002AAAD1041BA21A9A60B9E7244A0021CB
:1004880002F1300083F8441042F8041F8242FBD185
:10049800F0BC7047111F0829BAD893F843101829DF
:1004A80026D8013183F8431093F94110B5E793F842
:1004B80044100029B3D0FAB11649154C0FFA82FC42
:1004C800084601EB4C0754F8045F20F8025BB84279
:1004D800F9D10B2A07DC104801EB4C02002122F865
:1004E800021B9042FBD10D490A7801320A7096E747
:1004F80083F84160314690E794460649EBE700BF30
:10050800301C0020CDCCCCCCF8520020DE190020C5
:1005180000530020342E00204C2E0020282E0020CE
:1005280030B40E4D0E4B2A780E4C0132A3FB020359
:100538001B09E06B03EB8303A2EB83034FF6FF7207
:10054800914200F101002B70084408BF0123E063C9
:1005580008BF84F8453030BC704700BF301C00200D
:10056800CDCCCCCCF8520020002800F04081B54B0F
:100578001A7CF0B4002A40F09D80196800220128F6
:100588000A6043D093F82810002941D199690022C4
:1005980002280A603AD093F84010002961D1196BFB
:1005A800002203280A6031D093F85810002940F03F
:1005B800AA80996C002204280A6027D093F870104A
:1005C800002940F01581196E002205280A601DD007
:1005D80093F88810002940F03F81996F002206287F
:1005E8000A6013D093F8A010002940F05D81D3F879
:1005F8009010002207280A6008D093F8B810002944
:1006080040F0CB80D3F8A83000221A60F0BC7047C5
:10061800DC698D4DA10AA9420ED040F2B0808B4A08
:10062800914200F0CF810132914200F0A981023A53
:10063800914200F0C981FE22EFF31181502585F324
:100648001288834E676A656902EB820206EBC20272
:10065800013745F001055762C9B2656181F3118818
:1006680094E75C6B784DA10AA9420ED000F2448150
:10067800784A914200F0AA810132914200F08481C7
:10068800B1F5801F40F041810122EFF3118150251F
:1006980085F312886E4E676A656902EB820206EB83
:1006A800C202013745F001055762C9B2656181F39D
:1006B800118874E75968644C8A0AA24200F076816E
:1006C80050D9624CA24200F079810134A24200F074
:1006D8007181023CA24200F05B81FE24EFF311829B
:1006E800502585F312885A4E4F6A4D6904EB8404ED
:1006F80006EBC404013745F001056762D2B24D61CB
:1007080082F3118839E7DC6C4F4DA10AA9420ED05B
:1007180000F2FD804F4A914200F05E810132914221
:1007280000F03881B1F5801F00F05881FE22EFF308
:100738001181502585F31288454E676A656902EB79
:10074800820206EBC202013745F001055762C9B2C1
:10075800656181F31188996C002204280A607FF48E
:100768002DAF53E74A3CA24200F026810134A24251
:1007780000F01E81B2F5801FAFD10124AEE7354AE3
:10078800914200F01D810132914200F0FB80B1F5E9
:10079800801F7FF450AF01224EE7D3F8AC002A4CFB
:1007A800810AA1420ED040F2E080284A914200F02E
:1007B80037810132914200F03181023A914240F092
:1007C800DD800422EFF31181502484F31288204D38
:1007D800466A446902EB820205EBC205013644F021
:1007E80001046E62CAB2446182F311880AE7704755
:1007F8005C6E154DA10AA9420ED000F29480154AEC
:10080800914200F0CD800132914200F0EF80B1F5C5
:10081800801F00F0E980FE22EFF31181502585F357
:1008280012880B4E676A656902EB820206EBC20208
:10083800013745F001055762C9B2656181F3118836
:10084800C1E600BF445300204B00100051001000C7
:10085800FC47002001001000DC6F724DA10AA9427C
:100868000DD06CD8704A914200F09C8001329142C0
:1008780000F0C080B1F5801F00F0BA80FE22EFF3CF
:100888001181502585F31288684E676A656902EB05
:10089800820206EBC202013745F001055762C9B270
:1008A800656181F3118898E6D3F894405D4DA10AFB
:1008B800A9420CD04ED95E4A914200F0A78001327D
:1008C800914200F0A180023A91424CD10422EFF308
:1008D8001181502585F31288544E676A656902EBC9
:1008E800820206EBC202013745F001055762C9B220
:1008F800656181F311887AE64D4A91426AD00132E6
:10090800914243D0023A914262D0FE22BDE6484A63
:10091800914265D0013291423ED0023A91427FF431
:1009280005AF042203E7424A914237D0013291428F
:1009380058D0023A91427FF46EAF04226CE73C4AE9
:10094800914231D00132914256D0023A914295D12A
:10095800042294E7344A914252D0013291424DD058
:10096800B1F5801F4ED0FE22B1E72F4A914253D0F5
:10097800013291424ED0B1F5801F49D0FE2221E7C5
:10098800062259E6032257E603227EE606227CE683
:100998000424A3E60322CAE60622C8E605223BE7AA
:1009A800022239E702226AE7052268E7002495E671
:1009B800032493E6062491E602248FE605248DE6B7
:1009C800022239E6052237E6042235E602225CE6F1
:1009D80004225AE6052258E60222A8E60122A6E6E3
:1009E8000522A4E6062217E7012215E7032213E7EA
:1009F800012244E7032242E7062240E7032266E792
:100A0800022264E7012262E7062260E705225EE728
:100A18000122D7E60322D5E60222D3E60622D1E652
:100A28000522CFE64B00100001001000FC47002013
:100A380051001000704700BF70B4150BC2F30324B7
:100A4800064605EB450504EB44044800C2F30313CE
:100A58001835183402F00F02356003EB430346F8EB
:100A6800214002EB420201441833183246F8203084
:100A7800062046F8212070BC704700BF2DE9F04FD2
:100A880012F4004F14BF4FF00E0B4FF0070B12F487
:100A9800804F14BF4FF00E0A4FF0070A12F4005FA0
:100AA80014BF4FF00E094FF0070912F4805F14BF0E
:100AB8004FF00E084FF007084FEA410C12F4006F90
:100AC80083B001EB0C0714BF4FF00E0E4FF0070E6A
:100AD80012F4806F01EB070614BF0E2307238D194C
:100AE8000193034612F4007F01EB0504C3F800B03C
:100AF80018BF0E2043F821A008BF072043F82C9008
:100B080012F4807F01EB040C43F8278043F826E0B9
:100B180001EB0C0714BF4FF00E084FF00708019EB9
:100B280043F8256012F0800F01EB070614BF4FF061
:100B38000E0E4FF0070E12F0400F43F8240001EBA1
:100B4800060514BF0E20072012F0200F43F82C8052
:100B580001EB050414BF4FF00E0C4FF0070C12F018
:100B6800100F43F827E043F8260018BF0E2701EBC3
:100B7800040008BF072712F0080F43F825C018BF64
:100B88000E2643F8247008BF07260C1812F0040F2D
:100B980043F8206018BF0E2501EB040008BF0725A5
:100BA80012F0020F43F82450014414BF0E24072406
:100BB80012F0010F43F8204014BF0E220722122022
:100BC80043F8212003B0BDE8F08F00BF704700BF95
:100BD80070B4044600F16C06064D0FCD2D882582B1
:100BE80020606160A260E3601234B442F4D170BC4A
:100BF800704700BF28550308034B33F8142F0280B1
:100C08009B788370704700BF2855030870B4104A5A
:100C1800104BB2F90060B2F902501C780E4940F648
:100C2800E44202FB00F2120B42F2107303FB02F3E0
:100C380093FBF6F32B4481FB0310222C4FEAE3735A
:100C4800C3EBA00002D1054B1A80588070BC7047D6
:100C58001A2A0020FD55002067666666085600209F
:100C680070B505466C0034F00FFC2849631901EB98
:100C780043131E7B06B970BD254A566880B21EB163
:100C8800167B0EB9567B66BB2C4401EB4414214BF2
:100C9800227D208142EA400290B2021282EA1012BA
:100CA800424002F00F0242EA00121B781A4800265E
:100CB800267592B20668DBB9602000FB0510183073
:100CC8000121B04721696368B1F82C216489DB6888
:100CD8002243A1F82C2158601A6842F001021A60D8
:100CE80070BD2A44907B0028CED001221A75CBE72C
:100CF800636820695B7903F0FC030C331844042112
:100D0800B04723698000188170BD00BF18620020B9
:100D1800301C0020146200200C62002038B500EB63
:100D28004000084DC4002B1993ED027AD3ED037AE5
:100D3800E7EE007AB0EE670A34F0A6FB2B5918608C
:100D480038BD00BF44530020F8B5A0F519742379C5
:100D58006179DB0746D594F84832206C0BBB94F8D0
:100D68004B32012B3FD0002B41D194F84A3294F8F2
:100D780049629E420CD9B4F85222012707FA03F5BA
:100D880001332A43DDB2AE4292B2F7D8A4F8522218
:100D98000123C94384F84B321940BDE8F84020F0DC
:100DA8009DB90268D36A5B08536294F85932012BE3
:100DB80007D094F84D3223B1B4F854320133A4F873
:100DC8005432C94301F0010120F088F900230122BF
:100DD80084F84B2284F8493284F84A32A4F8523213
:100DE80084F84832F8BD94F8493284F84A3200232E
:100DF80084F84B3201F00101BDE8F84020F06EB9EB
:100E080010B5437903F0200113F0010F036C044679
:100E18001A7A806B11D000290CBF4221022118F0E8
:100E280029FD236C012284F84C22A4F84822597920
:100E38001868BDE8104023F0BDBB00290CBF222173
:100E4800022118F017FDECE70F4AB2FBF1F3B3F5F6
:100E5800803F10B44FF01B0407D3013C0BD052085D
:100E6800B2FBF1F3B3F5803FF7D299B2064A5DF8C9
:100E7800044B19F007BC0123034AB3FBF1F35DF8F7
:100E8800044B99B219F0FEBB00A24A048160006CC1
:100E9800DAE700BF436CC06B1BB11A7A012118F066
:100EA800E9BC1EF0FFBC00BF4379C06BDB0748BF3D
:100EB80081F0010109B91AF091BC1AF095BC00BF84
:100EC80038B5A0F517742379990741D4D80700D409
:100ED80038BD94F84832002BFAD194F849320133DE
:100EE800DBB2092B84F849326AD00A2BF0D194F886
:100EF8004B52B4F85232002D00F09C80990503F053
:100F0800010200F19E80002A00F09B801A46E36AE5
:100F18005208002B00F09E80D0B2216B984794F8BD
:100F28004B5201220023954284F8493284F8482222
:100F3800CED1617984F84B321140206C20F0CEF884
:100F4800236C2A4659791868BDE8384023F032BB2B
:100F580094F84D226ABBD4E90950854294F84C12A2
:100F680045D0451CA369A5621B5C2069DBB285429C
:100F78004FEA430328BFA26243F400730A20012208
:100F8800A4F8503284F84E0284F84D2211B16279E7
:100F980015073ED45A08A4F8502203F00101204650
:100FA800FFF782FF94F84E222379013A84F84E2203
:100FB8008CE794F94E22002A5BD184F84D2285E70C
:100FC80094F84B32002B83D194F84A32082B3FF621
:100FD8007FAFB4F85222012000FA03F101330A432B
:100FE800D9B2082992B2F7D9A4F8522238BD0029FB
:100FF8007FF46CAF627912077FF568AF636CE06BC2
:101008002BB31A7A18F036FC2046FFF7F9FE23793D
:101018005CE7236C00225979186823F0CBFAA06B9F
:101028001EF0E0FC002384F84C322046FFF732FF24
:1010380023794BE743F001029B05A4F852227FF580
:1010480066AFB4F856320133A4F8563269E71EF099
:10105800C9FCD9E7E3696169D2B2CA54E369E168B6
:1010680094F84B520133B3FBF1F201FB1233E36105
:1010780057E7B4F850328DE7044B93F82C20D86921
:101088000AB91AF0ABBB1AF0AFBB00BF301C002086
:10109800044B93F82C20D8690AB91AF0A5BB1AF0AA
:1010A8009DBB00BF301C0020174810B50221024626
:1010B800002303E0112B08D092F8221011F0040F3E
:1010C80003F1010302F11C02F4D0C3EBC30300EBEC
:1010D8008303187918F002FF044618B1112200237F
:1010E8008271C371202120461AF0FEF90A2019F0F6
:1010F80013FF20461AF0FCFB044B00280CBF01220A
:1011080002221A7010BD00BF4465030874710020E4
:10111800734B1B7873B170B5724B734D9B792C6B05
:101128002863013B041B032B00F29580DFE803F0E2
:101138001C577F076D4AC2E9003393607047EB6F15
:10114800C31A002B09DD00F5C3340022A034114670
:1011580001236E20EC6712F0FDFCD5E92012634BE9
:10116800C3E901211A6070BD614A624BD27933F834
:101178001260B6B23046FFF749FD07EE906A286460
:10118800B8EE670A5C4816F0E1FFBCEEC00A10EE44
:10119800103A98B2FFF73AFD296CD5ED0E7ADFEDDB
:1011A800576A524BE86301FB04F207EE102AB8EEC7
:1011B800C77A534A1860E7EE267A107859602228D1
:1011C800BDEEE77AC5ED0E7A17EE102A83ED027AA6
:1011D80085ED0D7AC7D14B4B9980DA8070BD2DF023
:1011E800CBF8494B49491A784B8802F0010200288C
:1011F80037D047482B67D0ED037A002A45D103FB47
:1012080004F207EE902ADFED3D6A384AB8EEE77A35
:10121800D5ED1B7AE7EE267AC2E90033BDEEE77A10
:10122800C5ED1B7A85ED1A7A82ED027A70BD394BCD
:101238001B681B0197D5FF2030F0ECF918B1037833
:101248000A2B30D900200346284AC5E91D03C2E904
:101258000033906070BD254B0022C3E900229A60DC
:1012680070BD2C4E3668F606C3D52B67002AC6D04B
:10127800B1F90010284A00FB01F082FB0012C017E8
:10128800C0EBA21003442B67B9E7FDEEE77A234EC3
:1012980017EE900AA0F57A7000FB00F2A6FB026236
:1012A80000EB1210E4E71E4A1E4B51881A68D0ED75
:1012B800027ADFED1D6A1D4C436802FB01F207EE5E
:1012C800102AF8EEE77AB8EE477AA4FB0121E7EE98
:1012D800267A03EBD103FDEEE77A17EE900AB3E71F
:1012E8000E7D00204A7A0020301C0020C87C002097
:1012F800C4610020E4610020741C00202FE33E310B
:10130800FD5500200856002079580020222A002088
:10131800E07B002004520020D34D62101F85EB5162
:10132800A87D0020A03F00207D219534CDCCCCCCD9
:10133800F8B5454B5B79012B33D0022B0ED0434BCC
:1013480000221A60424B1B78022B00D0F8BD3F4A9E
:10135800404B5188128819805A80F8BD3E4B1B6853
:101368001B01EFD5FF2030F055F9002867D003782E
:101378000A2B56D99FED390A0023394C04F18C0009
:10138800A4F88A3016F0E2FEBCEEC00A10EE103A5D
:101398009BB2A4F888302D4AB4F88A105180138083
:1013A800D0E7304A304B92782D4C33F812102F4F3B
:1013B8008DB207EE905A04F1B400B8EE670A16F041
:1013C800C5FEBCEEC00A3978DFF8A8C07E781F4891
:1013D80010EE103A40F6E44202FB01F29BB202FB27
:1013E80005F102FB03F3ACFB0323ACFB011244F64B
:1013F800FB71BD7801EB531301EB5211C6EB0632BA
:10140800B3FBF2F3B1FBF2F2B3FBF5F3B2FBF5F287
:101418009BB292B2A4F8B030A4F8B2200380428004
:1014280090E7B0F902201249D31781FB0212C3EBEF
:10143800A2039BB207EE903AB8EE670A9DE7084C04
:10144800B4F88830A7E700BF4A7A0020087D00205A
:10145800FD5500200856002004520020000000001E
:10146800301C0020C4610020E4610020152A0020FF
:10147800676666661F85EB5170B5304D304C314953
:101488006A79314E314804230B7084F8D830002132
:101498006423012A84F8E130A4F8DA10A4F8DC10F7
:1014A80084F8E010C4F8E410317001602DD0022AED
:1014B8000ED0A979264A00230229136084F8E8305F
:1014C800C2E9013334D004292DD001290ED070BDD2
:1014D800282204F1880033F023FF44F620619FEDB1
:1014E8001D0A04F18C001BF0A3FFE2E71A4A6363AC
:1014F800C2E90133D3609FED190A02F1100044F6E6
:101508002061BDE870401BF093BF282204F1B000B1
:1015180033F006FF44F620619FED0E0A04F1B40093
:101528001BF086FFC5E70E4AC4F88030536070BDD3
:101538000C4AA366C2E9013370BD00BF4A7A002095
:10154800301C0020487A00200E7D0020087D0020F5
:10155800C87C0020CDCCCC3D641C0020CDCCCC3E3A
:10156800B01C0020981C00202DE9F8439A4D2C68E7
:10157800E60500F1C180994A994B92F80080994F8D
:1015880000221A70B8F1000F00F0C48009219648B3
:101598001DF0B4F8002800F0AA8044F01004934A23
:1015A800934B16682C6016F48056B3F9069065D1F3
:1015B800904B9B8A4B4574DC44F040048E4B2C6066
:1015C8001B78180706D41E2187481DF097F80028B5
:1015D80000F0B08024F08004884B1B88642B884B73
:1015E8001B688CBF44F4806424F48064590703D5D5
:1015F800B7F8EA20002A59D1B7F8EC20002A53D1CD
:10160800804BD3F8B030002B50D124F400647E4BCB
:101618002C6003F1780102E00633994216D01A785B
:101628001F2AF9D19878DA78904202D35A79002A99
:10163800F2D01F216C481DF061F820B1734B1B7864
:101648005B0740F1928044F400742C6022216648C4
:101658001DF054F868BBB8F1000F30D0002C44D10D
:10166800002387F8EE3019F005FCD7F8F030C01ADF
:1016780000283FDBBDE8F84312F096BA18215A4813
:101688001DF03CF8002893D1614B1A7B002A8FD1BA
:101698005849DA884B8A991A49458DDA13444B45DB
:1016A8008ADD24F0400489E79A07A9D544F4006448
:1016B800ADE744F400342C60B8F1000F15D1554B58
:1016C8001B78002B39D19846002E40D1002146487E
:1016D8001DF014F8002851D0002CC1D0B8F1000F2B
:1016E80003D1002E45D0002844D00223B9E724F0C6
:1016F800100454E7BDE8F883474A484B91791A68C3
:101708004FF47A7303FB01F393429CBF24F4807473
:101718002C6030E7424A97F8E93016780BBB0EB3D5
:10172800414631481CF0EAFF002842D124F0080461
:101738002C6017E044F080044EE724F4002828F4D5
:101748000068B8FA88F84FEA5818002EBED0182159
:1017580025481CF0D3FF00BB2D4B1B7B6BB3064603
:10176800B4E796BB87F8E96010E724F400742C60AE
:101778006CE7A0B924F400242C606FE724F020045F
:10178800014619482C601CF0B9FF64B900287FF4A1
:1017980067AF24F400242C6060E7002696E744F441
:1017A80000242C60A1E7B8F1000F9CD1002E9AD13B
:1017B800DFE744F008042C60D4E724F4002626F080
:1017C8004006B6FA86F6760980E7414606481CF0D8
:1017D80095FF0028C6D1A9E71C7C00200000002046
:1017E80018860020301C002090340020045200206D
:1017F800387D0020045400203C8600201E72002002
:10180800285800207C4B002084380020795800207C
:1018180004750020F434002001860020A03F002039
:10182800DD7B0020F8B5714A1378D80700D4F8BDDD
:1018380023F00103137019F01DFB6D4B6D4C9A7862
:10184800C4F8F400002A2CD16B4B1B88002B4FD115
:101858006A4A6B4B1178186881F0010119F0CAFFC8
:10186800684E694D33782BB12B781BB1674B1B68D9
:10187800D9045CD5664B1B6800222A709A06D6D418
:10188800644B1B689B0300F1A780634900220B4649
:101898001878042803F10C0333D00132182AF7D141
:1018A800C5E71B79022BCFD05C4D2B780B2B18D8B2
:1018B80001229A4040F6030112EA0106C4D112F44B
:1018C800C06F0ED0093B012B0BD845200DF0B4F9A1
:1018D800FF200DF0B1F952480DF020F930460DF017
:1018E800ABF9504A504B12685A600B232B70ABE788
:1018F8004E4B5A69002AB3D0196800220A605A74FC
:10190800AEE7D4F8F850530035B1981801EB8000D1
:101918006D784078A8428AD21A4401EB82010023EC
:10192800C4F8F810A4F8FC30C4F80031F8BD404BF6
:101938001F7819F09FFA3378002B9BD06268002A31
:1019480098D100F51C5010300A214FF47A7260606B
:101958006173A260002F3BD03A461421354833F01A
:10196800DFFC354A1389012FB3FA83F34FEA531387
:101978002ED0B2F86810002918BF0023022F27D0F4
:10198800B2F8C810002918BF0023032F20D0B2F8DE
:101998002811002918BF0023042F19D0B2F8881184
:1019A800002918BF0023052F12D0B2F8E81100292A
:1019B80018BF0023062F0BD0B2F84812002918BF11
:1019C8000023072F04D0B2F8A822002A18BF00234A
:1019D80083F0010323734DE7184B1B78032B7FF427
:1019E80054AFBDE8F84012F0F5BA00BF79580020AE
:1019F8003E860020301C0020783F00207A3F0020DF
:101A08007C3F002004620020188600200452002039
:101A18001C7C002004770020D07003080A2C0020CA
:101A2800BC880308A03F0020C4340020803F002069
:101A3800157900203E1C002018620020487A0020FA
:101A48002DE9F04FDFF8E8B2B14ADBF8041113686A
:101A5800B04CCBF804012DED048B411A8BB00B442C
:101A6800059013602046636806919847002800F0A7
:101A78006181D4F8B050002384F86030002D40F024
:101A88008880B4F9503094ED085AD4ED095A94ED91
:101A98000A6A94F85E10A04E06EE903AB4F95230F5
:101AA80007EE103AB4F9543007EE903AF8EEE66AC9
:101AB800B8EEC77AF8EEE77A76EEC56A37EE657A59
:101AC80077EEC67A814604F12C00C4ED0B6A84EDEA
:101AD8000C7AC4ED0D7A0EF063FE904B1B78002B48
:101AE80000F016828E4B04931A4633681778CDF8A7
:101AF800209003F0005A04F12C01B94604F5CC7883
:101B08002F4655468A46BAEC018AD4ED077AB9F1D0
:101B1800130F28EE278A00F0E883B9F1060F06D1E3
:101B2800B0EE480A33F0B0FC7E4B23F8170015B12D
:101B3800002F03F02080B0EE480AD4F894314046D4
:101B48009847D4F8043208F170009847D4F8B430B4
:101B5800A8F1E0009847D4F82431A8F1700098471C
:101B6800356805F00055B0EE408A01372B46002D48
:101B780040F0DC83049A92F80090B9F1030F00F06A
:101B8800BF83032F8AED028A00F0CC8308F1240872
:101B9800B9E7634B644A654E908B316804931F46DE
:101BA800604B97F800C092F8018042F2107707FB6B
:101BB80000F7B7FBF1F7B4F95010B3F90600BD42CE
:101BC80007EE901A00F0648294ED1A7AD4F884E053
:101BD800F8EEE77A0EF1010137EE277A0129C4F809
:101BE800841084ED1A7A01F08C85D4ED1D5AD4ED59
:101BF8001F6A07EE101A37EEE56AB8EEC75A012DCC
:101C080086EE057A37EE257A77EEC77A84ED1E7A66
:101C1800E7EE866A84ED1D7AF0EE667AC4ED206AF6
:101C2800C4ED1F6A02F05B82B4F9521094ED1B7A7E
:101C380007EE901AD4F89810F8EEE77A01F1010C43
:101C480037EE277ABCF1010FC4F898C084ED1B7AEF
:101C580002F0F080D4ED225AD4ED246A07EE10CABF
:101C680037EEE56AB8EEC75A012D86EE057A37EEEB
:101C7800257A77EEC77A84ED237AE7EE866A84EDD3
:101C8800227AF0EE667AC4ED256AC4ED246A02F081
:101C98003382B4F9541094ED1C7A07EE901AD4F8F4
:101CA800AC10F8EEE77A01F1010C37EE277ABCF1B7
:101CB800010FC4F8ACC084ED1C7A00F02382D4ED87
:101CC800275AD4ED296A07EE10CA37EEE56AB8EE4E
:101CD800C75A012D86EE057A37EE257A77EEC77A50
:101CE80084ED287AE6EE276A84ED277AF0EE667AA4
:101CF800C4ED2A6AC4ED296A02F02782D880D4F894
:101D0800B030049A013B1778C4F8B03016E000BF31
:101D1800AC7100207C4B002004520020F6320020D9
:101D2800FD550020085600204C4B00206C4B00202D
:101D3800301C0020BE4BBF4E1F780493D4ED0E7AA2
:101D4800D4ED0F6A94ED107A94F8E832BA48BB4A99
:101D580094F8F012C6ED017AC6ED026A86ED037AB0
:101D68000370117053BBDBED424AB54BCBED427AA1
:101D780077EEA47ADDED064ADBED433A9BED444A63
:101D880093ED005A93ED026AD3ED015ACBED436A05
:101D9800FAEEEF4A76EEA33A37EE044AA4EEA75AD3
:101DA800F0EE467AE4EEA35AE4EE247A83ED005A84
:101DB800C3ED015AC3ED027A8BED447A052F3FD06B
:101DC800A04ADBF814311178B3FBF1F201FB1232AF
:101DD8000133CBF8143142B1049B1B78012B22D07C
:101DE8000BB0BDEC048BBDE8F08F974B1B78002B34
:101DF8002DD0964B9649B3F906208B8A06919A42C4
:101E080027DC944B1B78012B00F0BC81192B00F0C8
:101E1800B9810E2B1DD0082B1BD08F498F4A002368
:101E28008B60936015E08E4B8E4A196812888E4B32
:101E3800C96919805A800BB0BDEC048BBDE8F08FDE
:101E480019F018F8059A884B801A1880B8E7804B63
:101E580006939BF81831002B40F09082834A079232
:101E6800069F97F82510012940F092819BF8482198
:101E78007F4C002A40F0F482002097F82A508BF813
:101E88004811C4F89C004FF6FF7197F8260022709D
:101E9800C4F89820C4F8A020C4F8A410A4F89400AA
:101EA800002D01F0E08197F82710A4F8961000287B
:101EB80042F08B83002942F06B816E4F01213D78FF
:101EC8008BF84911002B40F0D18205EA01030893F1
:101ED80045FA01F94FEAA50A4FEAE508069B089A70
:101EE80093F82930002A41F0378219F0010F01F0E8
:101EF8001C829BED547A584981ED017A1AF0010F42
:101F080042F0428118F0010F41F01E8201F020BA20
:101F18001D4604F12C0704F5CC7A04F1B808D4ED79
:101F2800077AB7EC010AD4F8943120EE270A0AEBB5
:101F380005009847504AD4F8043250199847D4F805
:101F4800B43008EB050098474C4AD4F824315019AE
:101F5800984733689A0000F1FE8124356C2D87ED8F
:101F6800020ADCD1324A0492177803F00053444A3B
:101F7800917D21B143490D78002D01F0B187517E43
:101F880011B99BBB2B4ED9E694F8E81249BBD4EDA6
:101F9800107AFDEEE77A17EE900A0028B8BF4042A3
:101FA80094F8F012B2F91A20002902F01A8107EE0B
:101FB800902ADFED356AB8EEE77A07EE900A37EE39
:101FC800667AF8EEE77AB4EEE77AF1EE10FA42F3C1
:101FD8007383D4F8EC22059844F62061821A8A4269
:101FE800CFDD002284F8F022002BCBD094F8F43215
:101FF80094F8F5220133DBB29A4284F8F43201F006
:10200800DF8794F8F834002BBCD0102F02F07384CB
:1020180094F8F9244FF0000A062A01F25585DFE802
:1020280012F0770DED0CFE0CB70B820CAB0E380ED0
:10203800FD5500206C4B002078580020FC550020EE
:10204800B0710020D434002000000020387D00202A
:1020580004540020B4360020E07B00209057002074
:10206800283C00201E72002008560020AC7F00206B
:10207800C054002068550020844D0020A44C002046
:102088004C4B0020300200200000C8420AD7233CF5
:10209800F8EEE77A01214FF0000E8D42C4ED1A7A6E
:1020A800C4ED1E7AC4ED1D7AC4F820E0C4F87CE0C3
:1020B800C4F8841001F02E83B4F9521007EE901A78
:1020C8004FF0010CF8EEE77A00216545C4ED1B7A64
:1020D800C4ED237AC4ED227A6162C4F89010C4F882
:1020E80098C001F0B186B4F9541007EE901AF8EED2
:1020F800E77A4FF0000C0121C4ED1C7AC4F828C01F
:10210800C4F8AC100021012DC4ED287AC4ED277A5B
:10211800C4F8A4107FF4F2AD07EE907AD4ED1C5AFF
:10212800B2F914205FED276ABC49D880B8EEE76A97
:1021380007EE102AC5EE867AB94A0B681178002294
:10214800B8EEC77AE7EE667AC4ED0A7A9A62C3E90E
:102158000B2229B1B34B1B6833F400637FF4CFAD76
:10216800B14B1B68990302F19E82B04900220B46CD
:102178001878012803F10C0302F014800132182AA0
:10218800F6D1BCE5AA4B9B7B002B7FF462AE44E6FC
:102198003D7E002D00F05D82022D02F01B80032D94
:1021A80041F06881BA7EC2EB421102EB8102D20093
:1021B80092B2002B01F05786002A01F054869D4BFD
:1021C8009D4F1B68B2FBF3F20FFA82FA07EE90AA52
:1021D8003C78ABF860A1B8EEE77AF7EE006A14F045
:1021E8000109C6EE877A0AD09449DBED5D6A91ED64
:1021F800007A37EE667A27EE277A8BED597A4FEA1E
:10220800640818F0010F0AD08C49DBED5E6A91ED85
:10221800017A37EE667A27EE277A8BED5A7AA5107F
:10222800EB070AD58549DBED5F6A91ED027A37EE57
:10223800667A27EE277A8BED5B7AE410E0070AD5F9
:102248007E49DBED606A91ED037A37EE667A67EED8
:10225800277ACBED5C7A049B1B78072B02F05D8311
:10226800BAF1000F40F3A5823C7804F001094FEA67
:102278006408A510E410B9F1000F0AD09BED5D7A4F
:10228800DBED597A6D4977EE877ACBED5D7AC1ED52
:10229800007A18F0010F0AD09BED5E7ADBED5A7ACE
:1022A800664977EE877ACBED5E7AC1ED017AE90768
:1022B8000AD59BED5F7ADBED5B7A604977EE877A2A
:1022C800CBED5F7AC1ED027AE2070AD5DBED607AE1
:1022D8009BED5C7A594977EE877ACBED607AC1ED50
:1022E800037A9BF818310425B5E104EB4703544AF7
:1022F800B3F8503022F8173019E405F000552B4692
:10230800B0EE480A079333F0BFF84D4B8AED028AC6
:1023180003EB470C032F4FF003092CF8020C079B23
:102328007FF434AC4F46DDF8209020E6DAEDB37A3E
:10233800D4F8743237EE808A08F1E0008AEDB38A67
:102348009847012FB0EE408A02F0AC84356805F05A
:1023580000552B460EE497EDB37A3A4AD4F8743216
:1023680077EE007A5019C7EDB37A984724356C2D6B
:1023780087ED020A7FF4D3AD3368F3E5324A127869
:10238800002A3FF46BAD314A314C32491088324A49
:10239800079424680D68618EA2FB002082096420DE
:1023A80090FBF2F01428A8BF1420ED044CBF4D0890
:1023B8000DB22249DBF81C21D1ED037ABDEEE77A94
:1023C8000BEB420117EE107A01328242A1F820711C
:1023D80094F83010CBF81C21A4BF0022CBF81C21A4
:1023E80001297FF43DAD0BEB4202B2F9202107EE43
:1023F800102AB8EEC77A77EEC77AFDEEE77A17EEBD
:10240800902A12B2002AB8BF5242AA4202F3458368
:10241800124A4FF07E51116022E500BF283C00208F
:10242800F73200201C7C002004770020D0700308BD
:1024380044490020BC54002068550020E07B00205F
:1024480008560020F44D0020FF5500201C72002083
:10245800AC7F002004520020D34D6210E019002008
:10246800BE4F22783D78002B00F0E9809BF8493177
:1024780015F00101089103D0B9490968CBF84C114E
:102488004FEA650919F0010F03D0B5494968CBF83F
:1024980050114FEAA50A1AF0010F03D0B049896814
:1024A800CBF854114FEAE50818F0010F03D0AC49F6
:1024B800C968CBF85811002B40F0AF80002A3FF4D0
:1024C8000DAD049B1B78282B00F0C487069B089A47
:1024D80093F82930002A00F023879BED537AD4ED36
:1024E800016AD4ED027A002B02F02C80D4ED065A52
:1024F80094ED073AD4ED033A94ED086A94ED044A52
:10250800D4ED094A94ED055A954984ED067A65EEAD
:10251800A77AC4ED075AE7EE267A84ED096AE3EE56
:10252800237AE6EE447AE4EEC57AC4ED087AC1ED82
:10253800007A19F0010F01F02E859BED547AD4ED45
:102548000A6AD4ED0B7A002B02F00780D4ED0F5AFB
:1025580094ED103AD4ED0C3A94ED116A94ED0D4ACD
:10256800D4ED124A94ED0E5A84ED0F7A65EEA77AEF
:10257800C4ED105AE7EE267A84ED126AE3EE237A68
:10258800E6EE447AE4EEC57AC4ED117AC1ED017A3B
:102598001AF0010F2AD09BED557AD4ED136AD4EDC9
:1025A800147A002B01F0E387D4ED185A94ED193A08
:1025B800D4ED153A94ED1A6A94ED164AD4ED1B4AF7
:1025C80094ED175A84ED187A65EEA77AC4ED195A76
:1025D800E7EE267A84ED1B6AE3EE237AE6EE447A88
:1025E800E4EEC57AC4ED1A7AC1ED027A18F0010F4B
:1025F80000F0AE869BED567AD4ED1C6AD4ED1D7AB8
:10260800002B41F0BE8737EE667AE7EE276AC4ED05
:102618001C6AC1ED036A00F09BBE524B186841F278
:102628008833984242F238804F4B1968002942F0AB
:102638004D82049B1B782A2B02F043803D7805F0DD
:10264800010308934FEA65094FEAA50A4FEAE5082E
:1026580034E7ABF86051049A1278072A00F0A28098
:10266800002B40F0A680002D40F01381049B1F78BA
:10267800052F00F0CE820024079B0599186820F0EA
:10268800FBFE049B1B78052B00F0BD82374C23789A
:10269800DF0708D5364B1B78DD0604D4354B5B784D
:1026A800002B40F0F585344D049B1B780022202B2D
:1026B800CBF8902100F0F280012B00F09582052BD9
:1026C80000F04983002306932B78002B40F0D2803A
:1026D800079B05981B6893F8461028F061FC274B68
:1026E8001B68002B40F0DD80254B1B7893B1254FEC
:1026F800387860B1DFF8A880234E0025E8B2336847
:10270800B8EC010A9847387801358542F6DB1F4B4B
:102718001B689847049B1B78052B00F05682002500
:102728001B4B1B681F0700F1AF811A4B1B7833B98D
:10273800194E96F802A0BAF1000F40F0BB82049B34
:102748001B78052B7FF44AAB18F094FB134A049BC3
:10275800401B1B78D080FFF741BB00BF68550020A5
:10276800E07B0020A03F0020BC54002079580020C6
:102778003C860020D434002018860020E474002011
:102788009C6E00201579002008620020106200204D
:10279800285800209C7D00203E86002008560020F6
:1027A80004380020A34ABBF860119180002B3FF445
:1027B8005AAF02231A46DFF8C0A2DFF8C0829E4B48
:1027C800DFF8B0929D4D9FED9E9ADFED9E8A9FEDBA
:1027D8009E8A0896099346460024D04617469A468C
:1027E800B9EC010A2B6820EE090A2046F0EEC00A6F
:1027F800A8EC010AE6EC010A9847B4EEE80AF1EE03
:1028080010FA049B8CBFF0EE687AF0EE407AF4EE92
:10281800C87A1B78F1EE10FAB8BFF0EE487A0AEBE6
:102828008400082BC0ED007A06D1BDEEC00A8148AD
:1028380010EE102A20F814200134BC42D0DD072BFA
:102848001F46089E08D1099BD3ED007A794BFDEE0F
:10285800E77A17EE902ADA80069BDC7E002C40F09F
:102868006C819BF81831002B3FF402AF00238BF8E2
:102878001831FDE62378754AD907127800F19E824F
:10288800002A3FF42CAF92007149724832F0E8FCFC
:1028980025E7022DA8BF02252A468CE7654B1A605A
:1028A80010E76D4B1B78192B0AD801226B4902FAE5
:1028B80003F3194011B96A4A134201D02AF0F4FC13
:1028C800684E694F33689B0600F1A781674DB5F9DB
:1028D8000020B7F90430B7F90610934203DC91429F
:1028E8000B46A8BF1346B5F90220B7F910102B8084
:1028F8009142B7F9123003DC9342A8BF1346194638
:10290800B5F90430B7F91C2069809A42B7F91E104E
:1029180003DC99420A46A8BF1A46B5F90610B7F96A
:102928002830AA808B42B7F92A2003DC8A42134652
:10293800A8BF0B46B5F90810B7F93420EB808A42D6
:10294800B7F9363003DC8B42A8BF0B461A46B5F9F7
:102958000A10B7F940302A818B42B7F9422003DCCC
:102968008A421346A8BF0B46B5F90C10B7F94C209C
:102978006B818A42B7F94E3003DC8B42A8BF0B4605
:102988001A46B5F90E10B7F95830AA818B42B7F933
:102998005A2003DC8A421346A8BF0B46EB81344B0E
:1029A8009B892BB3DFF8D890DFF8D880DFF8B8A080
:1029B80009F1100739F9023F00EE103A4046B8EE27
:1029C800C00A15F0C3FB32F05FFDBAF90430BAF95A
:1029D800062000B29842C0F2A6809042A8BF1046D6
:1029E8004F45A9F8000008F124080AF10C0AE1D1C2
:1029F800194B1878431E182B00F25C85DFE813F09A
:102A080018055A055A055A055A055A055A0507055B
:102A18005A055A055A055A055A05B9045A055A0558
:102A28005A055A055A055A055A055A055A05B90448
:102A3800180500BF08560020905700200077002096
:102A48006F12033B00C0F94400C0F9C41579002097
:102A580054710020043800206458002030C130012F
:102A68000200000204520020547200202438002082
:102A780044490020E07B0020B4570020DC570020A8
:102A88002238002050730020B549B64BD1ED027AA8
:102A9800B3F90430B44AF0EEE76AB2EE0E7A82FB7C
:102AA8000302F4EEC76ADB17C3EBA203F1EE10FAD8
:102AB8001BB235D5AD4A1288560731D5BBF89A21D5
:102AC8009B1A9BB21AB212F1B30FBCBF03F5B473D1
:102AD8001AB2B32A93B203DDA3F5B4739BB21AB248
:102AE800A348007908B95B421AB2A24B1B781807B1
:102AF8007FF51BAE079BA0481B6893F8203013FB9B
:102B080002F380FB03021A44DB17C3EB221307EE20
:102B1800103AB8EEC77A77EEC77AC1ED027A04E6C2
:102B2800ABF89A3101E64F45A9F8003008F12408BE
:102B38000AF10C0A7FF43EAF5AE719218F481BF0BF
:102B4800DDFD00283FF48DAE884B1B885B063FF502
:102B580088AE9BF88431A34241F0FF86884BDBEDB9
:102B6800627AD3ED016A099BDFED865A93ED025A2A
:102B7800D3ED004A9FED846A27EEC57A64EEA77A02
:102B8800A4EEA67AE5EE267AB4EEE57AF1EE10FA2E
:102B980088BFB0EE657AB4EEC67AF1EE10FAF4EEBC
:102BA800E57AB8BFB0EE467AF1EE10FA88BFF0EEDB
:102BB800657AF4EEC67AF1EE10FAB8BFF0EE467A0E
:102BC80083ED007AC3ED027A4BE618F053F9049BC3
:102BD80006991B786D4A401A052B90807FF49FADAB
:102BE80018F048F905469BE518F044F9684ADBF8FF
:102BF8009431126865490690C31A9A1ACBF8940161
:102C0800CA808B8060E518F035F9604B001B58804E
:102C18003CE518F02FF904462EE5FB7AFF2B00F06F
:102C280045845C4A12789A4240F240845A4A32F902
:102C38001390FB7D594DFF2BA5F8009001F0BC8146
:102C4800544A12789A4241F2B781534A32F91380B2
:102C5800A5F802800D202AF021FB00283FF437AEAA
:102C6800404A97F916301188DFF848C19BF8980157
:102C7800B2F902A097F90AE013FB01F38CFB0312E7
:102C88001211DB1701281FFA89F91FFA88F8A2EB3D
:102C9800030101F035851EFB0AFE8CFB0E3C4FEA52
:102CA800EE7ECEEB2C1CE1448844A5F80090A5F8F4
:102CB80002800CE63A4F3B78013B0D2B34D8DFE815
:102CC80013F004051405A8048A04330033007304C0
:102CD800E4042B0414040E000704FB03FA04314B2C
:102CE800314A5B681268C833934204D30BF002FF81
:102CF80096F802A0C0B1BAF1010F02F0A481BAF1AE
:102D0800030F0DD1DFF8B080D8F8000010F079FF7C
:102D1800264B1B780022022BC8F8002002F0B38152
:102D2800012396F802A03B70BAF1010F00F0A683C8
:102D38003379012B01F0FE84022B7FF400AD3B7840
:102D4800012B7FF4FCAC1A4B1B78002B7FF4F7ACFB
:102D58000DF0E4F8F3E418F08DF80690B4E400BF41
:102D6800E07B0020C0570020676666665057002049
:102D7800DC3400203C860020898888889034002034
:102D88000000002000C0F94400C0F9C40856002023
:102D9800BC5400204C2E0020387D00202438002010
:102DA8000A2C0020C4340020A03F0020F734002063
:102DB800C53600201F85EB51F8330020EA49EB4B5C
:102DC800D1ED017A93ED006A91ED005AD3ED016AD5
:102DD80091ED027AE64993ED024A4878F5EEC07A19
:102DE800F1EE10FAB5EEC05A26EE065AF7EE007A62
:102DF800A6EEA65AFFEE005A54BFF0EE654AF0EE72
:102E0800674AF1EE10FAB5EEC07A54BFB0EE657AB3
:102E1800B0EE677AF1EE10FA54BFF0EE653AF0EED4
:102E2800673A58BFF0EE675AF1EEC57A0028B4EE5B
:102E3800E66A18BFF0EE635AF1EE10FAB4BFF0EE8E
:102E4800663AF0EE463AF4EEC43AF1EE10FA9FED27
:102E5800C95A4ABF9FEDC87ADFEDC75AF0EE447AE7
:102E680027EE855A36EE263A9FEDC44AC3EE053A58
:102E780048BFF0EE474AF4EEC43AF1EE10FA0BD52B
:102E8800B4EEE66ADFEDBC6AF1EE10FAD8BFB0EE38
:102E9800667A88BFF0EE664A9FEDB95A9FEDB66A2A
:102EA800DFEDB86A77EEC57AF4EEC67AF1EE10FA7D
:102EB800B8BFF0EE467A67EEA67A002A3FF40FAC68
:102EC8008B78B149DFEDB16A91ED005AB048B1494C
:102ED80090ED004AD1ED003A06EE103AB8EE463AC7
:102EE800B3EE046A23EE263A35EE066A002B41F06B
:102EF8009181A94BA949D3ED016AD3ED022A93ED3B
:102F0800033A67EE266AE4EEA26AE5EE836AB7EE54
:102F1800003AF5EEC06AF1EE10FA48BFF0EE446AE6
:102F280067EEA66AF4EEC36AF1EE10FA88BFF0EE17
:102F3800436AB0EE453AA3EEA63AB4EEC36AF1EEA0
:102F480010FAF0EE436A9ABFB3EE043A76EEC36A1B
:102F5800F0EE446A012AC1ED006A3FF4C0ABD3ED3C
:102F6800056AD3ED062A93ED073A67EE266AE4EE82
:102F7800A26AE5EE836AB7EE003AF5EEC06AF1EEB2
:102F880010FA48BFF0EE446A67EEA66AF4EEC36A28
:102F9800F1EE10FA88BFF0EE436AB0EE453AA3EEC0
:102FA800A63AB4EEC36AF1EE10FAF0EE436A9ABF9D
:102FB800B3EE043A76EEC36AF0EE446A022AC1ED33
:102FC800016A3FF48CABD3ED096AD3ED0A2A93ED7D
:102FD8000B3A67EE266AE4EEA26AE5EE836AB7EE7C
:102FE800003AF5EEC06AF1EE10FA48BFF0EE446A16
:102FF80067EEA66AF4EEC36AF1EE10FA88BFF0EE47
:10300800436AB0EE453AA3EEA63AB4EEC36AF1EECF
:1030180010FAF0EE436A9ABFB3EE043A76EEC36A4A
:10302800F0EE446A032AC1ED026A3FF458ABD3EDCF
:103038000D6AD3ED0E2A93ED0F3A67EE266AE4EE99
:10304800A26AE5EE836AB7EE003AF5EEC06AF1EEE1
:1030580010FA48BFF0EE446A67EEA66AF4EEC36A57
:10306800F1EE10FA88BFF0EE436AB0EE453AA3EEEF
:10307800A63AB4EEC36AF1EE10FAF0EE436A9ABFCC
:10308800B3EE043A76EEC36AF0EE446A042AC1ED60
:10309800036A3FF424ABD3ED116AD3ED122A93ED02
:1030A800133A67EE266AE4EEA26AE5EE836AB7EEA3
:1030B800003AF5EEC06AF1EE10FA48BFF0EE446A45
:1030C80067EEA66AF4EEC36AF1EE10FA88BFF0EE76
:1030D800436AB0EE453AA3EEA63AB4EEC36AF1EEFF
:1030E80010FAF0EE436A9ABFB3EE043A76EEC36A7A
:1030F800F0EE446A052AC1ED046A3FF4F0AAD3ED64
:10310800156AD3ED162A93ED173A67EE266AE4EEB0
:10311800A26AE5EE836AB7EE003AF5EEC06AF1EE10
:1031280010FA48BFF0EE446A67EEA66AF4EEC36A86
:10313800F1EE10FA88BFF0EE436AB0EE453AA3EE1E
:10314800A63AB4EEC36AF1EE10FAF0EE436A9ABFFB
:10315800B3EE043A76EEC36AF0EE446A062AC1ED8D
:10316800056A3FF4BCAA1BE0B4570020DC570020D6
:10317800B4360020F304B53F00000000D7B35D3F2C
:103188009A99193E9696963F247500200AD723BC33
:1031980050710020207500203C7500200438002064
:1031A800D3ED196AD3ED1A2A93ED1B3A67EE266A16
:1031B800E4EEA26AE5EE836AB7EE003AF5EEC06A7D
:1031C800F1EE10FA48BFF0EE446A67EEA66AF4EE34
:1031D800C36AF1EE10FA88BFF0EE436AB0EE453AE2
:1031E800A3EEA63AB4EEC36AF1EE10FAF0EE436A23
:1031F8009ABFB3EE043A76EEC36AF0EE446A072A41
:10320800C1ED066A3FF46BAAD3ED1D6AD3ED1E2A01
:1032180093ED1F3A27EE267AA4EEA27AA5EE837ADA
:10322800B5EEC07AF1EE10FA48BFB0EE447A67EE18
:10323800877AB7EE007AF4EEC77AF1EE10FA88BF13
:10324800F0EE477AA3EEA75AB4EEC56AF1EE10FA8B
:10325800F0EE457A03D8B3EE044A37EEC44A81ED5E
:10326800074AFFF73CBA002800F0928700238BF842
:1032780049311FF077FC9BF8182101232370002A9D
:1032880001F0FD81B64F9BF849313D78FFF7F0B862
:103298009BF88C31B34D002B7FF406AA2B78002BBA
:1032A8007FF402AA9BF88D31002B7FF4FDA9AE4B69
:1032B8001B68D80601F13986AC4BDFEDAD7A93ED8A
:1032C800097AB0EEC77AB4EEE77AF1EE10FA81F235
:1032D800FB8493ED047AB0EEC77AB4EEE77AF1EEA8
:1032E80010FA81F2F18493ED0E7AB0EEC77AB4EE5B
:1032F800E77AF1EE10FA81F2E7840023CBF89031F7
:10330800049B1B78202B7FF4D7A9DBF89031994ACE
:10331800003318BF0123012153801180FFF7D2B970
:1033280019F0010F41F0568101221AF0010F00F047
:1033380037869BED557A9049002A7FF42EA918F01C
:10334800010F81ED027A03D09BED567A81ED037A65
:103358009BF81831FFF784B99BED537A864919F029
:10336800010F81ED007A00F00B879BED547AFEF790
:10337800C3BD824B1A6812B1B5F9041011609A697D
:1033880012B1B5F9061011601A6B12B1B5F908102F
:1033980011609A6C12B1B5F90A1011601A6E12B167
:1033A800B5F90C1011609B6F13B1B5F90E201A60B6
:1033B80006213268970600F16285052800F05F85CE
:1033C800D3027FF591A96E4BDF7B112F3FF68CA9B5
:1033D8006A4B6C4E01EB410C03EBCC0CC7F11205A8
:1033E800002302E0AB423FF47FA9CA18D2B2072AF1
:1033F80003EB430006D85CF83020F81812B136F910
:103408001000106001330E2BECD1FFF76DB95B4B48
:103418001A6812B1B5F9061011609A6912B1B5F9B6
:10342800081011603268910601F17F810221C7E717
:10343800534A524B917B1A68002941F0D98023786E
:1034480013F0010341F0D480002A01F06382136075
:103458000121AEE7069B93F828300BEB830393ED2D
:10346800530A32F011F8434AD4F898301080D380C8
:10347800FFF72CB8444A5288FEF79BBE1BF080FA2F
:10348800424B82681B689A423FF652AC3B780C3B31
:10349800022B7FF654A93E4C87F800A02378002B16
:1034A8003FF44DA900232370FFF749B9B7F90890F5
:1034B800FFF7BFBB00217CE7BAF1010F01F0B4842C
:1034C8000E2313203B7010F0A1FD96F802A02BE408
:1034D800BAF1010F01D11BF079F90D2313203B70CC
:1034E80010F094FD96F802A01EE42A4B1B78002BDE
:1034F80001F05183162029F0D1FE002841F04B83BA
:10350800234B1B78002B41F0468309233B700BF0BB
:1035180085FD96F802A007E4162029F0BFFE0028D2
:10352800F5D01D4B1B88002BF1D11C4B4520D3F83F
:1035380000800BF081FB0E200BF07EFB40460BF069
:1035480085FCDDF8148040460BF080FC144A154BCE
:1035580012681A6040460A233B700DF0D3FCD6E788
:1035680068550020188600200452002014570020B7
:103578000000164408560020E07B00205449002033
:1035880044490020387D00204C2E0020F8340020CB
:10359800C5360020B7360020B0340020AC340020F7
:1035A800A03400209C3400200BF07EFA6F4B0520DD
:1035B80000210090A3F10802CDE9011153200CF07D
:1035C8007FFA002881D16A4B96F802A01860082378
:1035D8003B70FFF7A9BB0BF067FA664A0292A2F1AB
:1035E8000C032D2101930091A2F10A035021163AF0
:1035F80049200CF065FA00287FF467AF5C4B96F819
:1036080002A018604FF0FF325A6007233B70FFF7A3
:103618008BBBDFF85C910BF047FA574AD9F80430B6
:10362800126864339342BFF450AF40200BF010FA95
:1036380000287FF44AAFD9F80030DFF84C814FF00A
:10364800400A0FE00BF0F8FAD8F80020D9F800305B
:10365800013A0133BAF1010AC8F80020C9F800306C
:1036680001F02385454A13441B7E1846002BE9D1F7
:1036780000234FF0FF32C9F800300423C9F80420B2
:103688003B7096F802A0FFF74FBB0BF00DFA0BF05A
:10369800FBFC00283FF419AF0BF02CFA00283FF48C
:1036A80014AF374A374B12681A600A233B7096F8F2
:1036B80002A0FFF739BB1A2029F0F0FD00287FF49B
:1036C80033AB01233B70FFF72FBB2378DB0701F1F6
:1036D800E8831A2029F0E2FD00283FF4F6AE0C2317
:1036E8003B7096F802A0FFF71FBB234B204A1B68CC
:1036F800536025490023136003220B603A70FFF7DB
:1037080013BB0021012DC4ED1E7AC4ED1D7AE167BB
:103718007EF48AAA9FED1D8ABCF1130F1BD0B8F165
:10372800000F09D007EE908AF8EEE77AF4EEC87A2F
:10373800F1EE10FA00F1FA8407EE907AD4ED1A6AE5
:10374800F8EEE77ABD4286EEA77A84ED087A7EF431
:103758006BAAFEF7B1BCB0EE480ACDE9072331F0F9
:1037680093FEDDE9072300B2D9E700BFB457030889
:10377800C4340020A6550308A03F0020285503089C
:10378800A03400209C340020F43300200000000006
:10379800D84B1A46B2EC011A93ED033AD2ED002A3F
:1037A800D3ED094AD3ED021A93ED082AD3ED053A71
:1037B80093ED074A93ED0B5AD3ED0D5A93ED0F6A2B
:1037C800D3ED116A93ED137AD3ED157A93ED049A3C
:1037D800D3ED068A93ED0A0AD3ED0C0A93ED0E8A0F
:1037E80062EEA22A23EE033A64EEA44AE1EE012A2D
:1037F800102FA1EEA13AE2EE024A93ED101A93EDD2
:10380800142AD3ED121A63EEA33A24EE044A25EEE5
:10381800055A65EEA55A26EE066A66EEA66A27EEF2
:10382800077A67EEA77AE9EE093AE2EE027AA8EE9D
:10383800A84AA0EE005AE0EEA05AA8EE086AE1EE07
:10384800016AA1EEA17AB1EEE22AF1EEC32AB1EE45
:10385800E33AF1EEC43AB1EEE44AF1EEC54AB1EE0C
:10386800E55AF1EEC65AB1EEE66AF1EEC76AB1EE74
:10387800E77A03ED1E3A43ED1D3A03ED1C4A43ED8A
:103888001B4A03ED1A5A43ED195A03ED186A43ED22
:10389800176A03ED202A43ED1F2A03ED167AD3EDAC
:1038A800175A93ED196AD3ED1B6A93ED1D7AD3ED80
:1038B8001F7A93ED1E5A93ED163AD3ED183A93ED0D
:1038C8001A4AD3ED1C4A65EEA55A26EE066A66EE3C
:1038D800A66A27EE077A67EEA77AE3EE035AA3EE05
:1038E800A36AE4EE046AA4EEA47AE5EE057AB1EEE2
:1038F800E55AF1EEC65AB1EEE66AF1EEC76AB1EEE4
:10390800E77A03ED155A43ED145A03ED136A43EDB4
:10391800126A03ED117A01F0328394F8F924013226
:10392800D2B284F8F924744B7449B3F8008009784A
:1039380007EE908A4B1C0F2BF8EE674A01F3308193
:103948000C2904EB810501F102009FED6D6A00F27C
:10395800248705F2145301F5A371D3ED007AF0EE34
:10396800465A04EB810100252EE027EEA77AB4EE33
:10397800E65A27EE277A66EEA67AF1EE10FA36EEC8
:10398800A64A00F10103A7EEA67A27D4D1ED017A61
:1039980026EEA67AF4EEC47A67EE266A27EEA77AB0
:1039A800F1EE10FAE7EE876A08DD07EE103AB8EE96
:1039B800C77A75EEA65AA6EE876A4D4602300E28DB
:1039C80001F1080100F3EC86D1ED006A37EEA75A41
:1039D80026EEA67A002DC8D027EE267AD1ED017AF8
:1039E80005EE100A67EEA76AB8EEC55A75EE875A53
:1039F80066EEA76AA5EE076A431CD6E7D4F8042545
:103A0800B4F808153F4830F05DFE049B1F78102F6E
:103A180001F0A18294F8F934013384F8F934394B70
:103A2800B4F8FC04D4F810251946B1EC016AD1EDBC
:103A3800007A77EEA77AF0EE006AB0EE677AA6EE23
:103A4800267A013803EBC001D6EE267A08391032FF
:103A5800F6EE003A27EE237A67EEA37A83ED207A12
:103A6800C3ED217A103391ED027A91ED036A53ED9B
:103A7800016A53ED027A52ED014A12ED025A37EE0D
:103A8800674A76EEC65A77EE277AE4EE845A01380A
:103A9800A1F10801E5EE047A02F1080203F1080336
:103AA80036EE267AE4EE877AE5EE475A67EEA37A91
:103AB80025EEA37AC3ED1C7A83ED1D7AD3D1102F9E
:103AC80000F00C8794F8F9240F4E104B94F8F81472
:103AD8000132A3FB0203D01A03EB50039B08C3EB8C
:103AE800C303D31A013984F8F93484F8F814FEF7BB
:103AF80025B900BF10510020083300200A330020E8
:103B080000000000905000206C4B002025499224B2
:103B1800B4F8FC14E648D4F800254FEA510E4FEAF1
:103B28008E065FEAD10C06EB000300EB810500F07E
:103B3800A18006F1100103EB0C1C29440CF1100CB8
:103B48001030103302F1100705F1100616ED031AB4
:103B580016ED042A50ED041A50ED030A16ED015A29
:103B680016ED026A50ED025A50ED014A51ED042A51
:103B780051ED033A51ED026A13ED043A13ED034A8D
:103B880013ED027A53ED017A11ED010A71EE828A82
:103B980030EE818A40ED048A00ED038A75EE868A4C
:103BA80034EE858A40ED028A00ED018A73EE228A9E
:103BB80034EE238A43ED048A03ED038A77EE268ADE
:103BC80037EE808A43ED028A03ED018A33EEC44A58
:103BD80031EEC22A57ED033A70EEC11A32EEC33AFB
:103BE80023EEC28A57ED042A61EEA30A22EEC41A14
:103BF800A1EEA28A10339C4563EE221AA3EE231A83
:103C080000F1100007F11007E4EE231A06F1100680
:103C180001F11001E2EE220A06ED078A46ED080AD4
:103C280001ED081A41ED071A35EEC66A36EEC77A75
:103C380074EEC55A57ED056A17ED065A70EE677AA5
:103C480025EEA63A66EEC63A25EE674A67EE054ABD
:103C5800E5EE853AA6EE053AA7EE264AE7EEA64A2D
:103C680006ED063A46ED053A01ED064A41ED054AEC
:103C78007FF46CAF1FFA8EF631468D481CF034FD88
:103C880031462846D4F800251CF02EFD049B1F78E9
:103C980015E794F8FA34874E94F8742302F1DE0598
:103CA800C2F120025FFA82FC05EB43135FEA9C0E27
:103CB80004EB830501F0E8804FEA0E1E0EF11000B8
:103CC8007D497E4A284405F1100313ED024A13ED9D
:103CD800035A13ED017A13ED046A51ED024A51EDCE
:103CE800035A51ED046A51ED017A64EE244A65EEF7
:103CF800255A66EE266A67EE277A1033984242ED17
:103D0800024A42ED035A42ED046A42ED017A01F19A
:103D1800100102F11002D8D16948654B754400EBD7
:103D28000E0273441CF003011BD095ED007AD2ED0E
:103D3800007A67EE877A0129C3ED007A11D095EDF4
:103D4800017AD2ED017A67EE877A0229C3ED017A0A
:103D580007D095ED027AD2ED027A67EE877AC3ED45
:103D6800027A94F87453002D40F03287102F01F036
:103D78002A8094F8F924A8E694F8FA54514A04EBF6
:103D88004503D2ED007AB3F8803608EE103AB8EE63
:103D9800C87A67EE277A17EE900A30F05FFE0022A5
:103DA800494B06460F4630F025FF08B9464F002616
:103DB8003946304630F032FF07EE900AB8EE480A2E
:103DC80067EEE70A414B3B4EE0EE000A05EBC505FE
:103DD80003EB850567EE807A2846C7EEA00A3168AE
:103DE800D5F81C90D5F8208095ED058AD5ED068A82
:103DF8001DF0F4F9049B85ED058A1F78C5ED068A48
:103E0800102FC5F81C90C5F8208001F0AE8094F8FA
:103E1800FA342F4A94F8F9140133A2FB030252082A
:103E280002EB42029B1ADBB2013184F8FA3484F8BF
:103E3800F91431E70021012DC4ED237AC4ED227A6B
:103E4800C4F890107DF425AF07EE907AD4ED1B6A84
:103E5800F8EEE77ABD4286EEA77A84ED097A7DF41A
:103E680018AFFEF740B9BBF86021013A12B2002A38
:103E7800ABF8602140F3C081164FFEF7F5B98B1CF3
:103E88004A1C0846D9B2144BD2B200EB400053F892
:103E9800300010B1B5F90070076002EB420253F828
:103EA800323013B1B5F902201A603268FFF788BAC8
:103EB800905000206C4B00201C330020A0500020A4
:103EC8000C330020FC32002000405A40F44D002002
:103ED800ABAAAAAA685500205449002000D8F94680
:103EE800D4ED0E7A94F8E812D4ED076AFDEEE77A7D
:103EF80017EE900A0028B8BF404207EE900AF8EE85
:103F0800E77A002940F07D831FED0C6A94ED0F7A63
:103F1800BB4D66EE866ABDEEC77AF4EEE76A17EE29
:103F2800100AF1EE10FA4CBF012100210028B8BF99
:103F3800404207EE900AF8EEE77A2D78F4EEE76A49
:103F4800D4ED107AFDEEE77AF1EE10FA17EE900A4A
:103F580048BF41F002010028B8BF404207EE900A6E
:103F6800F8EEE77AF4EEE76AF1EE10FA48BF41F0AE
:103F78000401294200F07D8301200021059DC4F839
:103F8800E45284F8E80284F8F012527E002A3DF4E4
:103F9800F8AFFEF726B81AF0010F7EF4FCAA01224A
:103FA80018F0010F3FF4D4A99BED567A9549002AE1
:103FB8003FF4CCA9FEF720BBB7F91480FEF748BE42
:103FC80094EDBE8AD4EDBF6A94EDC70AD4EDC24A17
:103FD80094EDC87A94EDC35AD4EDC67AD4EDC55A97
:103FE80094EDC46A94F87453874B68EE266A04EB20
:103FF8008502A4EEA60A00210F2FA5EE267A84F8E2
:10400800F412B3F9040082EDDE0A67EEC07AA5EE79
:10401800C07AE6EE267A84EDC77AC4EDC87A01F054
:10402800288094EDC05AD4EDC10AD4EDD04A94ED5D
:10403800D97A94EDCB1AD4EDD41AD4EDD15A94EDA3
:10404800D54AD4EDDA6A94EDCC2A94EDCF6AD4ED52
:10405800D87AD4EDCE2A94EDCD3AD4EDD73A9880DB
:1040680028EE055A28EE208AE1EE054A04EB850180
:1040780005F16002A8EE217A0C230135E8EE046A06
:1040880004EB820205F01F05E2EE055A84F8F834C5
:10409800002326EE646A67EEC77A94EDD64AC1ED2E
:1040A800FE4AE2EEE45A049984F87453A3EE056AD2
:1040B8000F78C4F8FC32E7EE636AC4F80033C4F83A
:1040C8000433E8EE047AC4EDD05A84EDD16AC4ED25
:1040D800D96A82EDBE7AC4EDDA7AFDF796BF012976
:1040E8007FF718AB07EE10EAB8EEC77AC7EE876A13
:1040F800B1EEE68AFFF710BBBCF1010F7FF7A4AE63
:1041080007EE101AB8EEC77AC7EE876AF1EEE67ABC
:10411800B8F1000F3FF498AE07EE108AB8EEC77AF0
:10412800F4EEC77AF1EE10FA7FF78EAE928B04990F
:10413800D88042F2107303FB02F30F783268B3FBA6
:10414800F2F3C4F8B030FDF7F9BDBCF1010F7DF70B
:10415800E3AF07EE101AB8EEC77AC7EE876AF1EE3A
:10416800E67AB8F1000F3DF4D7AF07EE108AB8EE43
:10417800C77AB4EEE77AF1EE10FA7DF5CDAFD5E760
:104188001AF001023FF40CAF9BED557AFFF7D7B850
:104198001E4F01213D788BF84911002B7EF468A948
:1041A800FDF793BEDBF8F800530038B19D1801EB1A
:1041B800850540786D788542BDF4A1AD134401EBC7
:1041C80083030022CBF8F830ABF8FC20CBF80021B1
:1041D800FDF795BD0E4A128802F57A7292B2FDF784
:1041E800E8BF8242BDF6CDAE01220599C4F8EC12B3
:1041F80084F8F022FDF7C5BE0025FEF72CBA00BFF3
:10420800F5320020E07B0020085600206855002089
:104218001C720020F24BF349D3ED016A93ED022A98
:10422800D3ED032A67EE266AE4EE826AE5EEA26A17
:10423800F7EE002AF5EEC06AF1EE10FA48BF66EE16
:10424800836A67EEA66AF4EEE26AF1EE10FA88BFB6
:10425800F0EE626AF0EE452AE3EEA62AB4EEE26AD0
:10426800F1EE10FAF0EE626A9ABFF3EE042A76EEE7
:10427800E26AF0EE446A012AC1ED006A3EF42FAA10
:10428800D3ED056A93ED062AD3ED072A67EE266A71
:10429800E4EE826AE5EEA26AF7EE002AF5EEC06A5D
:1042A800F1EE10FA48BF66EE836A67EEA66AF4EE8E
:1042B800E26AF1EE10FA88BFF0EE626AF0EE452A83
:1042C800E3EEA62AB4EEE26AF1EE10FAF0EE626AC4
:1042D8009ABFF3EE042A76EEE26AF0EE446A022A06
:1042E800C1ED016A3EF4FBA9D3ED096A93ED0A2AF0
:1042F800D3ED0B2A67EE266AE4EE826AE5EEA26A3F
:10430800F7EE002AF5EEC06AF1EE10FA48BF66EE45
:10431800836A67EEA66AF4EEE26AF1EE10FA88BFE5
:10432800F0EE626AF0EE452AE3EEA62AB4EEE26AFF
:10433800F1EE10FAF0EE626A9ABFF3EE042A76EE16
:10434800E26AF0EE446A032AC1ED026A3EF4C7A9A4
:10435800D3ED0D6A93ED0E2AD3ED0F2A67EE266A88
:10436800E4EE826AE5EEA26AF7EE002AF5EEC06A8C
:10437800F1EE10FA48BF66EE836A67EEA66AF4EEBD
:10438800E26AF1EE10FA88BFF0EE626AF0EE452AB2
:10439800E3EEA62AB4EEE26AF1EE10FAF0EE626AF3
:1043A8009ABFF3EE042A76EEE26AF0EE446A042A33
:1043B800C1ED036A3EF493A9D3ED116A93ED122A75
:1043C800D3ED132A67EE266AE4EE826AE5EEA26A66
:1043D800F7EE002AF5EEC06AF1EE10FA48BF66EE75
:1043E800836A67EEA66AF4EEE26AF1EE10FA88BF15
:1043F800F0EE626AF0EE452AE3EEA62AB4EEE26A2F
:10440800F1EE10FAF0EE626A9ABFF3EE042A76EE45
:10441800E26AF0EE446A052AC1ED046A3EF45FA937
:10442800D3ED156A93ED162AD3ED172A67EE266A9F
:10443800E4EE826AE5EEA26AF7EE002AF5EEC06ABB
:10444800F1EE10FA48BF66EE836A67EEA66AF4EEEC
:10445800E26AF1EE10FA88BFF0EE626AF0EE452AE1
:10446800E3EEA62AB4EEE26AF1EE10FAF0EE626A22
:104478009ABFF3EE042A76EEE26AF0EE446A062A60
:10448800C1ED056A3EF42BA9D3ED196A93ED1A2AFA
:10449800D3ED1B2A67EE266AE4EE826AE5EEA26A8D
:1044A800F7EE002AF5EEC06AF1EE10FA48BF66EEA4
:1044B800836A67EEA66AF4EEE26AF1EE10FA88BF44
:1044C800F0EE626AF0EE452AE3EEA62AB4EEE26A5E
:1044D800F1EE10FAF0EE626A9ABFF3EE042A76EE75
:1044E800E26AF0EE446A072AC1ED066A3EF4F7A8CC
:1044F80093ED1D2AD3ED1E2AD3ED1F6A27EE027A0B
:10450800A4EEA27AA5EEA67AB5EEC07AF1EE10FA7C
:1045180048BF27EE037A27EE877AF7EE007AB4EEE3
:10452800E77AF1EE10FA88BFB0EE677AF0EE457AD6
:10453800E3EE877AB4EEE76AF1EE10FA3EF68FAE54
:10454800FEF789BE37EE667A2749E7EE276AC4ED9B
:10455800016AC1ED006AFDF7ECBF37EE667AE7EE57
:10456800276AC4ED0A6AC1ED016AFEF711B837EE91
:10457800667AE7EE276AC4ED136AC1ED026AFEF7B0
:1045880035B8D4ED215AD4ED223A94ED1E3A94ED83
:10459800236A94ED1F4A94ED245AD4ED204A84ED01
:1045A800217A65EEA77AC4ED225AE7EE267A84EDE1
:1045B800246AE3EE237AE4EE467AE4EEC57AC4EDA3
:1045C800237AC1ED037AFEF7C3BE00293DF475AC2A
:1045D800FEF74CBE9BED547A0349FDF7B0BF00BF10
:1045E8003C75002004380020E07B00200008ED46E0
:1045F800002A00F08F81B5F90A3013600121FEF717
:10460800D8BE1FED067A66EE876AF4EEE76AF1EE29
:1046180010FA44DDD4ED0F7AFDEEE77A17EE901A22
:104628000029B8BF494207EE901AF8EEE77AF4EE8F
:10463800E76AF1EE10FA32DDD4ED107AFDEEE77A92
:1046480017EE900A0028B8BF404207EE900AF8EE2D
:10465800E77AF4EEE76AF1EE10FA20DDD4F8E41216
:10466800059E4CF2503C711A61457FF78EAC84F878
:10467800E852517E00293DF484ACFDF791BCDA4B39
:104688001D7805F0010308934FEA65094FEAA50A6A
:104698004FEAE508FDF715BF0021FDF7CABF0599E8
:1046A800C4F8E41271E4D14B1B78032B7DF45DADA3
:1046B8000FF090FCFDF723BB059AC4F8EC22FDF738
:1046C80060BCCB4BCB481B883D780380D4F898302E
:1046D8008380D4F8A070069BC1804780E80793F8D0
:1046E800293040F1EA819BED537A4FEA65094FEA98
:1046F800A50A4FEAE508002A3EF430AEFDF7EFBE02
:10470800CEF1000E0AFB0EFE8CFB0E0C4FEAEE7E7D
:10471800CEEB2C1C9B1A614463444144A9EB03096A
:104728006980A5F80090FEF7D2B803220220042180
:10473800FFF7ABBB23783E78D80704D429F04CFBAD
:10474800002840F00C82DFF8E482DBF89C21D8F8DE
:1047580000309A4200F20A82012E3DF4F0AFA64CD6
:104768002378002B3DF4EBAF0B2E0ED80123B3407A
:1047780040F6030213EA02097EF494AE13F4C06F04
:1047880003D0093E012E40F282849C4BD8F80020C9
:104798005A600B233B70FEF785BEF0EE465A0025A3
:1047A80003F5A27104EB81010CE026EEA77A07EE6F
:1047B800903AF8EEE77A75EE875AA7EE276A4D46E3
:1047C8000F2B18DCD1ED017AB1EC017A013337EE09
:1047D800075A67EEA76A002DE7D1F4EEC57A67EEAF
:1047E800076AF1EE10FA27EEA75A26EE877AE7DD78
:1047F800A5EE277ADBE7F5EEC05AF1EE10FA40F3A2
:10480800CF81C6EE257A7E4BB7EE006A37EEC66AD0
:10481800D3ED007A66EE277AFDEEE77A17EE903A46
:104828007C2B40F3CA814345A8BF434604EE903A27
:10483800F8EEE44A94F8FA1401EBC10304EB83039D
:1048480003F5C56503F2146EDEED006A95ED007A96
:1048580003F22C6003F5C366D6ED005AD0ED007A5A
:10486800A4EEA67A03F5C46C03F22466E4EEA57AF6
:1048780003F21C63F0EE476A9CED007AE6EEC77A15
:10488800BDEEE67AC5ED007A17EE10CA96ED007A0D
:10489800D3ED007A27EE667ABCF17C0FA4EEA77AF6
:1048A80080ED007A40F30781C445A8BFC44607EEEF
:1048B80090CAF8EEE77AFCEEE77A17EE903A9BB2E8
:1048C80004EB4100A0F8803611B90F2F00F09F8249
:1048D800112F00F07581102F7FF4F6A816F0CAFA90
:1048E800444B94F8F924474EA0EB0A005880049BE7
:1048F8001F78FFF7EAB816F0BDFA049B1F78102F4F
:1049080005BF3C4B94F8F92494F8F9241A808246A0
:10491800FDF782BB0121FEF74CBD3B4991ED000A32
:1049280030F0B2FD324B39491B88324AA1FB0313E0
:104938009B0907EE903AF8EEE77ABAF1000FFDEE20
:10494800E77A108017EE903A53803DF794AC022333
:10495800A2F804A01A46FDF72EBF07EE904A9FED75
:104968002C7ADFED336A8BF88441F8EEE77A67EE4C
:10497800877A37EEA67ABDEEC76A16EE103A20336C
:10498800402B40F2D781DFED236A234BBDEEE77A57
:10499800C3ED016A17EE103A2033402B00F27F81F5
:1049A8009FED247AF4EEC77AF1EE10FA40F3F8821C
:1049B800DFED1A5A9FED1A6A01E0F0EE477AF4EE3D
:1049C800C67AF1EE10FA37EEE57AF6DCDFED157A05
:1049D800B4EEE77AF1EE10FA40F1DB82DFED0F5A20
:1049E8009FED116A32E000BF68550020487A002028
:1049F8001C72002008560020C5360020C434002050
:104A0800043300206C4B0020E07B0020D34D621063
:104A180035FA8E3C0000000000000020DB0FC94082
:104A2800E4CB1641DB0F49C0E4CB16C1A03F002000
:104A3800DB0FC93FDB0F494092E741B99730083C8B
:104A480015A82ABE6F12833AB0EE677AB4EEC67A1A
:104A5800F1EE10FA77EE257AF6D41FED0B7AF4EE24
:104A6800C77AF1EE10FA40F3C6811FED0E7A77EEA1
:104A7800677A27EEA76A1FED105A5FED105A1FEDEF
:104A8800107AE6EE055A27EE865AA5EE867AE5EE06
:104A9800077ACBED627AFEF766B8A28E1FED177A19
:104AA80007EE902AF8EEE77AE34A67EE877AC2EDD6
:104AB800007AFDF7D5B97D2302E7A90700F18F81B8
:104AC8004FEAA50A4FEAE508FEF72FBCDB4B93F83F
:104AD8000080B8F1000F66D0D94B1D884BF668737B
:104AE800A5F57A7199425ED8DBF85C11002940F08F
:104AF8005382002A14BF4FF4FA634FF47A730344C5
:104B0800CBF85C318342BDF494AD002A00F05182A9
:104B1800D4F8983094ED267ADFEDCA5AEB1A002BB8
:104B2800B8BF5B4207EE903AB8EEC77AF8EEE77A7C
:104B3800B3EE046AC7EE876A66EEA57AF4EEC67A23
:104B4800F1EE10FA40F1358200230021C4F89C30C0
:104B58004FF6FF73C4E928130221FDF76ABDBA4B6B
:104B68001B6803F59C530833CBF89C31012E7DF468
:104B7800E6ADFEF7E8B8B9F10F0F00F08A81B9F198
:104B8800110F7CF4D8AFB0EE480A30F07DFCAF4B83
:104B9800D880FCF7D0BF05980CF0B4F9FEF7B7BC85
:104BA8009FEDAB6A46E6002000214FF6FF73C4F87C
:104BB8009C00C4E92813FDF73CBDDFEDA64A39E6A1
:104BC800A24894F8F92420F81130A34EFEF77DBFCF
:104BD80094F8FA244FEA8C0303F2145804EBC21C2D
:104BE8001844AB08A0440CF55E7C34D04FEA031996
:104BF80009F1100EE6440CF1100300F1100108F160
:104C0800100213ED024A13ED035A13ED017A13ED66
:104C1800046A51ED024A51ED035A51ED046A51ED0F
:104C2800017A64EE244A65EE255A66EE266A67EE36
:104C3800277A10339E4542ED024A42ED035A42ED6F
:104C4800046A42ED017A01F1100102F11002D8D193
:104C5800CC444844C84415F003053FF487A89CEDAC
:104C6800007AD0ED007A67EE877A012DC8ED007AD8
:104C78003FF47CA89CED017AD0ED017A67EE877A43
:104C8800022DC8ED017A3FF471A89CED027AD0EDAF
:104C9800027A67EE877AC8ED027AFFF767B8DFED28
:104CA8006C7AF6E6049B93F80090B9F10F0F00F0C8
:104CB8004881B9F1030F35683DF41FAB8AED028ACC
:104CC80005F00055FCF762BFD6ED027AF0EEE77A00
:104CD800FCEEE77A4FF6EF7217EE903A103B9BB274
:104CE80093421AD9D6ED017AF0EEE77AFCEEE77A2C
:104CF80017EE903A103B9BB293420ED9D6ED037A49
:104D0800F0EEE77AFCEEE77A4FF6CC7217EE903ABF
:104D1800333B9BB293423EF6F0AADBF89031002B6E
:104D280040F0EC80059B03F59233F833CBF89031D3
:104D3800FEF7E6BAF4EEE67AF1EE10FA40F33681C1
:104D4800DFED465A9FED466A01E0B0EE667AB4EEB2
:104D5800C67AF1EE10FA77EE656AF6DC9FED417AD5
:104D6800F4EEC76AF1EE10FA40F11D81DFED3B5A0F
:104D78009FED3D6A01E0F0EE476AF4EEC66AF1EE97
:104D880010FA36EEA57AF6D4DFED386AB4EEE67A94
:104D9800F1EE10FA40F3BD80DFED356A36EEC77AE2
:104DA80067EE075A9FED335A9FED336ADFED336A9A
:104DB800A5EE856A25EE875AE5EE866AA5EE267A7F
:104DC800F0EE476AE1E516F055F8204B94F8F9241F
:104DD800A0EB0A005880049B1F78FEF776BE9BED77
:104DE800547A27494FEAA50A4FEAE508002A3DF414
:104DF80083A8FDF7A4BB9FED237AF4EEC77AF1EE02
:104E080010FA44BF9FED177A77EE677A31E69FED87
:104E18000D0A114E26EE000A30F036FB0B4B94F8C3
:104E2800F924D880FEF751BE19F016FF00283EF489
:104E38004CABFEF745BB00BFE0190020DD7B00202E
:104E48001C7200200000C842A03F00200856002025
:104E5800000000000000FA426C4B0020DB0FC94044
:104E6800E4CB1641DB0F49C0E4CB16C1DB0FC93FC9
:104E7800DB0F494092E741B99730083C15A82ABE94
:104E8800E07B0020DB0FC9BF8D488E4B0246FEF742
:104E980049BFB0EE480A30F0F7FA8B4B1880FCF7A0
:104EA8004ABE1DF03BFE804620B3DFF84092D9F899
:104EB8000030834206D10EF0A4FEDC2200214846D1
:104EC80030F02EFAD9F8DC30984507D140460EF07C
:104ED80098FEDC2200217D4830F022FAD9F8B8315A
:104EE800984507D140460EF08CFEDC220021784818
:104EF80030F016FA0AF0AEFEFEF7EBBB059A9A42BE
:104F08007EF6FEA9202010F0DFFAFCF78BFCFEF7F6
:104F1800F7B9DFED706AB4EEE67AF1EE10FA44BF45
:104F2800DFED6D6A36EEC77A3AE728F061FB0028B4
:104F38007EF4C2A929F020FA00283DF4B5ABFEF7AB
:104F4800BBB930F0A1FA35685F4B05F000555880C1
:104F58002B46FCF716BE15F08DFF5B4B049AA0EBB1
:104F68000A0017785880FEF755BD15F083FF564B99
:104F7800049AA0EB0A0017785880FEF748BF15F08E
:104F880079FF514B049AA0EB0A0017789880FEF736
:104F9800C4BCF0EE477A60E50121DBF85C31B1E58D
:104FA800B0EE677A12E5B0EE667AEDE6F0EE476AA3
:104FB800D4E607EE905AB4F8A630B4F8A41094EDED
:104FC800277AD4F8A0C0F8EEE77AAB420CF10100DA
:104FD800B8BF2B4677EE877AA942A8BF2946312861
:104FE800C4ED277AC4F8A000A4F8A630A4F8A41049
:104FF80046DD07EE101AF8EEC76A07EE103A0CF114
:10500800FF33B8EEC77A77EEE67A00EE103A77EE1D
:10501800C77AB8EEC00A002587EE800A30F034FA65
:105028004FF6FF73C4E928530023C4F89C30C4F832
:1050380098001DF097FD0123CBF85C514246237080
:105048000221FDF7F6BA19F09BFC837B012B7DF456
:1050580067AE224843681B6A984719F091FC2049BB
:1050680042880B68013B1344524213400B60FDF722
:1050780057BE079330F008FA079B00B2FEF7D1BF7E
:105088000221FDF7D6BA0EF031FFFDF749BE4520E3
:1050980009F0D2FDFF2009F0CFFD124809F03EFDCE
:1050A800484609F0C9FDFFF770BB0F4A96F802A001
:1050B80013441B7E002B7DF437AEFEF7D9BA00BF30
:1050C8000C33002090500020085600202C3000207F
:1050D80008310020DB0FC9BFDB0F49C0B43F0020F7
:1050E800F8340020BC88030828550308502F0020F6
:1050F8002DE9F04FDFF84CC204460A300CEB000EE5
:1051080087B09EF80C801CF8009003914FF41A7C2D
:10511800404601920CFB04FA049315F0F9FB06468D
:10512800484615F0F5FB0090404614F0D7FE9DF870
:105138004450804B0590484603F5D07B14F0CEFED2
:1051480015F008039DF8407002930BEB0A08DDE99F
:10515800001200F09180002900F0E58091F807C066
:105168001CF0020F40F0DF80724B03EB0A0C07F0D3
:1051780002030093CCF8E011CCF8DC01CCF8D8019C
:1051880030B14FF00B0C04EB0C0180F806C0C17174
:10519800684B049E4FF41A7909FB04390AF1480058
:1051A80089F8A471039FC9F8CC715844624FC9F8B3
:1051B800A0710AF5A47100275944C9F8B4014FF445
:1051C8008070C9F8D02189F8A551C9F8B811C9F873
:1051D800AC01C9F8B0013146D9F8E001C9F8A861B5
:1051E80089F8F843C9F8C071C9F8BC71C9F8C87121
:1051F800C9F8C471C9F8F473A9F8EC73FBF724FE75
:1052080005F00101D9F8E0011BF068FF009A4B484E
:105218004B49C9F800740AF519750AF517735D4406
:10522800C9F80404C9F8FC139B44002A5CD0D9F8D7
:10523800E401002858D0D9F8E021036812689342A5
:1052480052D0012389F8F9333146FBF7FDFD594661
:10525800D9F8E4011BF09EFE3A462946D9F8E00148
:1052680015F06CF9029B002B4FD04046FBF7C8FDA8
:10527800404607B0BDE8F08F17F00103019318D13D
:1052880017F00203009383D0B9F1000F4BD0294BDC
:105298004FF41A7C0CFB043C019BCCF8DC01002B7E
:1052A8003BD100293FD0CCF8E01100287FF469AF4A
:1052B8006EE7002E37D096F807C01CF0020F32D1E7
:1052C8001C4B03EB0A0C059BCCF8D831059BCCF89A
:1052D800E061002BD4D04FF00C0E04F10B0C83F8D6
:1052E80006E083F807C0CBE7124A4FF41A7303FBB2
:1052F8000424002384F8F9335A462946D4F8E001F7
:1053080015F01CF9029B002BAFD14046FBF7C2FDFC
:1053180001214046FBF7C8FDA7E7CCF8E4110028B7
:105328007FF42FAF34E74FF00008404607B0BDE8E0
:10533800F08F00BF301C0020D4570308510D00081F
:10534800C90E00083454002030B4424B1B78012B9E
:1053580014BF00240324036A19B304293BD0082985
:1053680057D04EF6FF710B400362C369016A40F6DD
:10537800FF452B4045F6FF75294041EA023243F4C8
:10538800807342F4805243EA043392B2C3610262EA
:10539800C3694FF2FF321340C361C369C36130BCB4
:1053A800704723F0010303628369016A23F0F30362
:1053B80042F0010243F0010321F00A0143EA041319
:1053C8000A4383610262836923F00C038361836962
:1053D800836130BC70474FF6EF710B4003628369FD
:1053E800016A12014FF65F7542F0100223F473430D
:1053F800294092B243F4807343EA04330A43836139
:105408000262836923F4406383618369836130BCEA
:1054180070474FF6FF610B400362C369056A4FF29C
:10542800FF5129409BB223F0F30341EA022243F0E3
:10543800010342F4807243EA041392B2C361026228
:10544800C3694FF6F3721340C361C369C36130BCCB
:10545800704700BF08520020F8B550F8043C10F817
:105468000E4C5E7902461868C4B114460B4632F8F1
:105478000C1C14F80F7C24F80A3C0D4A5B1A9BB2EA
:10548800002524F8083C314622F817302A4604F84B
:105498000E5CFFF759FF04F80D5CF8BD012302F814
:1054A8000E3C22F80C1C31460222BDE8F8404BE7BE
:1054B800342E0020F8B51B4F054615F0DBFC3E7B6B
:1054C8007EB1EDB1184A3146002314890133002C0E
:1054D80018BF0021AB4202F16002F6D181B9304613
:1054E800F8BD7B68C31A002BF9DB7B7B83B1013BDA
:1054F800DBB27B7383B100F57A7078600126EEE742
:1055080000F51C501030002378603B733046F8BD1E
:105518007E6001263046F8BDBB68184478600126D5
:10552800DDE700BF301C0020186200202DE9F04F95
:1055380083B01C4606468846174615F09BFCBC4BB4
:105548001B78002B72D02F2F70D8DFF810A3DAF851
:105558000430002B6AD1152F6BD80123B54903FA03
:1055680007F20A4240F01B82B34912F03E0F9B46F5
:105578000CBF4FF47A730B460193002C5FD100F5F2
:105588001C501030019BCAF804008AF80DB0CAF804
:105598000830B8F1000F47D042463946A7482FF0E7
:1055A800BFFEA74A1389B8F1010FB3FA83F34FEA94
:1055B800531335D0B2F86810002918BF0023B8F18A
:1055C800020F2DD0B2F8C810002918BF0023B8F177
:1055D800030F25D0B2F82811002918BF0023B8F10D
:1055E800040F1DD0B2F88811002918BF0023B8F1A4
:1055F800050F15D0B2F8E811002918BF0023B8F13B
:10560800060F0DD0B2F84812002918BF0023B8F1D0
:10561800070F05D0B2F8A822002A08BF1C4600E0F0
:105628001C4684F00104E4B28AF80C4003B0BDE8DB
:10563800F08F4FF47A7301934FF0010B9DE708F157
:10564800FF3942F228305FFA89F915F065FC09F153
:105658000109CDF800804FF47A7015F05DFC009BCD
:10566800DAF804C0002B5CD0764DDFF8E481002422
:1056780004E00134A14505F1600552D0E3B29E4231
:1056880001D0FF2EF5D16E4963001A1901EB4212C1
:105698004FF0010E82F814E0297AB8B20029E8D058
:1056A800BCF1000F07D09AF80C1021B99AF80D1028
:1056B800002940F0B480624AA880234402EB4313D7
:1056C8004FF0000C1A7D98F8001083F814C042EAD5
:1056D8004000021282EA101242405B4B02F00F02B5
:1056E80042EA00121B68002940F05F81012105F1A0
:1056F80014009847E9682B68B5F806C0B1F82C2162
:10570800DB6842EA0C02A1F82C2158601A68DAF822
:1057180004C0013442F00102A1451A6005F1600598
:10572800ACD1BCF1000F40F03381484B1A78002A05
:1057380069D04749474B09781868002940F090809C
:105748004162C568B3F82C41012A44EA0504C460E3
:10575800A3F82C1157D9D3F83001B3F85C42416251
:10576800C568022A44EA0504C460A3F85C124AD05A
:10577800D3F86002B3F88C434162C568032A44EA4F
:105788000504C460A3F88C133DD0D3F89003B3F894
:10579800BC444162C568042A44EA0504C460A3F80D
:1057A800BC1430D0D3F8C004B3F8EC454162C568E6
:1057B800052A44EA0504C460A3F8EC1523D0D3F8FD
:1057C800F005B3F81C474162C568062A44EA050497
:1057D800C460A3F81C1716D0D3F82007B3F84C48B8
:1057E8004162C568072A44EA0504C460A3F84C1856
:1057F80009D0D3F85028B3F87C095162D468204303
:10580800D060A3F87C190BF1FF3B1BF0FF0B7FF472
:1058180022AF019803B0BDE8F04F15F07DBB0E49EB
:105828002144887A00283FF446AF82F814E042E722
:105838000462002080173000A08601003E1C002072
:10584800186200201C6200200C62002018650020ED
:10585800146200201C650020341C0020301C00202D
:105868005C6819896160256840F20D3145F00105D1
:105878002560A0F84810C468012A44F48074C46004
:10588800C1D9D3F83441B3F8380160602568D3F83A
:10589800300145F001052560A0F84810C468022AC7
:1058A80044F48074C460AED0D3F86442B3F868029C
:1058B80060602568D3F8600245F001052560A0F80E
:1058C8004810C468032A44F48074C4609BD0D3F899
:1058D8009443B3F8980360602568D3F8900345F0C3
:1058E80001052560A0F84810C468042A44F48074AF
:1058F800C46088D0D3F8C444B3F8C804606025688D
:10590800D3F8C00445F001052560A0F84810C46824
:10591800052A44F48074C4603FF475AFD3F8F445A5
:10592800B3F8F80560602568D3F8F00545F001057F
:105938002560A0F84810C468062A44F48074C4603E
:105948003FF461AFD3F82447B3F8280760602568AF
:10595800D3F8200745F001052560A0F84810C46871
:10596800072A44F48074C4603FF44DAFD3F8542838
:10597800B3F8580850601068D3F8503840F0010068
:105988001060A3F84810DA6842F48072DA603AE7E7
:105998000020FFF78FFD00287FF4C7AE33E74FF4F0
:1059A8007A7301934FF00A0BE7E52868E9684079B4
:1059B80000F0FC000C30084404219847EB68DAF842
:1059C80004C08000188154E62DE9F843AC4D2B78CB
:1059D800002B40F09280AB4C2378D90737D4FBF7E3
:1059E800C3FDA94B1A68002A3DD12378DA0701D5EF
:1059F800BDE8F88315F03EFAA44BA54A1B68C31A04
:105A08009342074600F28E80DFF89C82D8F8003077
:105A1800002BEDD19F4B03F1780103E00633994247
:105A280000F01F811A781E2AF8D19878DA78904207
:105A380002D35A79002AF1D01E21974818F05EFE49
:105A4800002800F00E810223C8F80030D0E7934AFE
:105A5800934B1178186801F0010115F0CBFE8A4BC1
:105A68001A68002AC1D08F4B8F491B780020086024
:105A780023B18E4BD3F8B030002BB9D18C4C002A0F
:105A880092FAA2F3B3FA83F3D4F8742608BF4FF05E
:105A9800FF3301339A42ABD08648C4F87436DBB280
:105AA800A0FB03208008844900EB80029B1A43F284
:105AB80005254FF00534DBB200F0FF020D81C1E986
:105AC8000044002800F045811920012A88727ED000
