:020000040800F2
:10000000002000104D4A030839E20108353F00087E
:1000100037E2010835E2010833E201080000000080
:1000200000000000000000000000000031E20108B4
:100030002FE20108000000002DE20108DD34000875
:10004000B54A0308B54A0308B54A0308B54A030888
:10005000B54A0308B54A03086D400008AD410008E1
:100060006D4100082D410008ED400008B5830008EF
:10007000A583000895830008858300087583000820
:10008000618300084D830008B54A0308B54A030898
:10009000512B0208B54A0308B54A0308AD400008D1
:1000A0006D23000811280008B54A0308CD28000870
:1000B0005527000899260008D1250008B54A0308ED
:1000C000B54A0308B54A0308B54A0308B54A030808
:1000D000B54A030815360008993500081D35000893
:1000E0002D400008B54A03081DE20108B54A03087F
:1000F00039240008B54A030805250008B54A030855
:10010000000000000000000000000000B54A0308E5
:10011000B54A0308B54A0308A11301088D13010865
:10012000398300082583000811830008FD82000838
:10013000E9820008B54A0308000000000000000042
:10014000B54A0308B54A0308B54A03080000000091
:10015000000000000000000000000000000000009F
:100160000000000000000000B54A0308B54A03087B
:10017000B54A030800000000000000000000000075
:0801800000000000B54A03086D
:100188000C4B1B78DB0700D570470B4A1368002B14
:10019800FAD04FF47A7101FB03F39842F4D3074B7A
:1001A8001B781BB9064B99681B690B600023136009
:1001B800704700BF90770020B8240020AC240020AE
:1001C800F41E002090ED057A90ED004AD0ED066A05
:1001D800D0ED014AD0ED047A90ED035AD0ED025AE1
:1001E800A4EE007AB0EE406AB0EE470AB0EE667A46
:1001F800A4EE867A67EEC07AA5EE407AE5EE867AB6
:1002080080ED057AC0ED067A704700BF38B50B4C13
:1002180023688BB15A68821A002A054604DA0BE073
:100228005A68AA1A002A07DB9A68226018461A68D0
:1002380090472368002BF3D138BD00BFF03200206F
:100248002DE9F04391F800C0077BDFF8A8E00775B7
:1002580000236FEA0C0C5FFA8CFC47758775C7752D
:10026800077647768776C77607774777C383038409
:1002780043848384C3849846142405254CFA05F3E3
:1002880003F00103002B14BF19260A26434415F076
:10029800010F04EB06015FFA83F889B214BFB9466F
:1002A8004FF000092346C21801339BB2994282F8E5
:1002B8001490F8D1013D34446B1CA4B2DED118F07F
:1002C800010F14BF19250A25611989B22346C218DE
:1002D80001339BB28B421775F9D12C44A4B2631C2D
:1002E80004449BB200222275AEF800300361BDE8D9
:1002F800F08300BFFC1B00202DE9F04FDFF898A029
:10030800BAF802300B3383B01FFA83F901F1060BF8
:100318004FF001084FF0000E002711F801CB3E46C0
:100328004D460122A5F10B039BB2019109E0818999
:10033800ADF8021001339BB29DF802102175AB4253
:1003480008D0C418002AF2D1C41801339BB2AB42BA
:100358002275F6D103440136092F019983F814E078
:10036800F6B20CD0092E15D008FA07F313EA0C0FD1
:1003780014BF012200220C35ADB20137D2E709F1D2
:10038800780959451FFA89F9C6D1AAF802E003B0DD
:10039800BDE8F08F0022EEE7FC1B00202DE9F047B6
:1003A800DFF860E0BEF8043004331FFA83FC01F183
:1003B8000908012711F8016BE1460025A9F104039A
:1003C80007FA05F29BB23240CAB190F80CA0C418E3
:1003D80001339BB24B4584F814A0F5D101350433A1
:1003E800082D1FFA83F9E9D10CF1200C41451FFAB9
:1003F8008CFCDFD10023AEF80430BDE8F0879246CC
:10040800E5E700BFFC1B0020436A8269D154436AB8
:100418000169C26B01338B4228BF002343623AB3A0
:1004280070B4EFF31183502282F31288C66B3268DE
:10043800D20704D5DBB283F3118870BC70477168AA
:1004480069B9D0E90942944218D085691544F56024
:1004580018D9A21A72608462002280F85820326883
:1004680042F00102DBB2326083F3118870BC70473E
:10047800426D136843F0800313607047012280F8CF
:100488005820D7E70469A21A72608162E4E700BFC6
:10049800034610B4846BD968406954B19A6C8C1ABD
:1004A800013A005D5DF8044B08BF0A46C0B29A6481
:1004B80070471A6A805C01328A4228BF2246C0B25D
:1004C8001A625DF8044B7047C36B13B190F858007B
:1004D8007047D0E90903181AB0FA80F0400970474C
:1004E800D0E909120369914238BFC9188A1AC16B49
:1004F800013B19B149680A449A4201D2981A7047D7
:1005080000207047836B43B1826C5B689A4291BF4D
:10051800981AC0689B1AC0187047D0E907239A42F6
:100528002FBFD01AC0688018C01A70470A4B30B560
:1005380003F1140493F900205D78072AC8BF143A20
:10054800811804330D7313F8025C855413F8012CD9
:100558000A769C42EED130BDCC4F030803682DE9E2
:10056800F0415D6A1DB12B46BDE8F0411847002AED
:10057800174611DD04460E460F4400E023689B68C9
:10058800204698470028F9D0236816F8011B1B68F5
:1005980020469847BE42F1D1BDE8F08103681B6947
:1005A800184700BF00232322027043708370C37072
:1005B800704700BF10EE103AC3F3160242F07E52A5
:1005C80007EE102ADFED167ADFED164A9FED165A70
:1005D800DFED165A9FED166ADFED163ADFED166A63
:1005E8009FED164AE7EE274ADB1507EE903AA4EE90
:1005F800875AF8EEE77AE5EE075A67EEA37AA5EE92
:10060800876AB5EEC00AE6EE077AF1EE10FAD4BFB3
:10061800B0EE440AB0EE660A37EE800A704700BFB3
:10062800DACDFE3CB9D593BE5CB8903FAA841DC014
:1006380022E061401872313F07F1B3C2000080FF29
:10064800DFED1D3ADFED1D7A9FED1D7A9FED1D4A06
:10065800DFED1D4A9FED1D5ADFED1D5A9FED1D6A06
:10066800DFED1D6AE0EE237AF4EEC77AF1EE10FAB8
:1006780088BFF0EE477AF4EEC47AF1EE10FAB8BF0C
:10068800F0EE447AFDEEE77A17EE903AC3F31602DD
:1006980042F07E5207EE102AA7EE245A03F0FF43D9
:1006A80000EE103AE5EE075AA5EE876AE6EE076A0D
:1006B80026EE800A704700BF3BAA384B00007E4EEA
:1006C8000000FF4E00000000ED185E3C81900FBB5B
:1006D800AF9D2A3EB2D19F3EE886023FD0ED057A13
:1006E80090ED013AD0ED003AD0ED064A90ED024A7D
:1006F80090ED077A90ED035A90ED086AD0ED045A10
:10070800C0ED067AF0EE406A27EE830AC0ED056A6E
:10071800A3EEA60A80ED087AA4EE240AA5EE470AFD
:10072800A5EEC60A80ED070A704700BFD0ED007A33
:1007380090ED017A30EE670AE7EE007AB0EE670ACC
:10074800C0ED007A704700BF704700BF0028F0B4C2
:1007580003DA2D230B7040420131092804464FF07B
:10076800010307DD03EB83035B00B0FBF3F2092A07
:10077800F8D883B10F48A0FB0326B4FBF3F2092A8B
:1007880002F1570C02F1300709DD03FB1244F308AC
:1007980001F801CBEFD100230B70F0BC704703FBCD
:1007A8001244F30801F8017BE5D100230B70F0BC7B
:1007B800704700BFCDCCCCCC884270B44FF0010458
:1007C80042D301FB04F4B0FBF4F58D42F9D2ECB14D
:1007D80042BB092D04FB150005F1570605F130024F
:1007E8000EDDB4FBF1F403F8016B7CB1B0FBF4F55A
:1007F800092D04FB150005F1570605F13002F0DC60
:10080800B4FBF1F403F8012B002CEFD100221A708D
:1008180070BC704703F8016BB4FBF1F4002CF5D001
:10082800B0FBF4F5092D04FB150005F1370605F1B9
:100838003002EFDCB4FBF1F403F8012B002CEFD10C
:1008480000221A7070BC70470546002AEAD1C0E73A
:100858000A44914215D030B40139551E41F22102A3
:1008680011F8014F082380EA042004044CBF82EAEF
:1008780040004000013B80B2F7D18D42F0D130BC3E
:100888007047704703685A1C02601970704700BFB0
:100898002DE9F047089C2578002B804689460CBF37
:1008A8004FF0200A4FF0300A661C25B3002A26DDD7
:1008B800334601E0024698B113F8011B501E002987
:1008C800F8D1971E60B13D46013D51464046C847A4
:1008D8006B1C002BF8DC257827EAE770013045B15E
:1008E800041B29464046C847301916F8015B002DFD
:1008F800F7D1BDE8F087002A03DC2846F9E7002095
:10090800EEE7571EDFE700BF012310B43E210024A5
:100918002C220470C17002714370837043715DF8BA
:10092800044B704701232122427003708370704783
:10093800F0B400250E4E00F1FF3C2F46142165B19E
:1009480003788B420BD003460CEB050403E013F845
:10095800012F8A4203D0A342F9D1C155013701358D
:100968000B2D02D016F8011FE9E7F0BC704700BF55
:10097800E04F030830B41523162517242D212E2205
:1009880003702F2345708470C1700271437130BCAD
:10099800704700BF24230370704700BF04224FF440
:1009A8007A730270436070472DE9F04FDFF8DCC1BD
:1009B800754CDCF808502288B4F90AA0C2EB25135C
:1009C8005200C2EBE502B4F902505B436A43B4F942
:1009D80004501B135D43AD1305EBE225B5F5FA3260
:1009E8004FEAE57B85B04BF1FF33CDE90023DDE924
:1009F80000325343009AA561A2FB0289CDE90201A6
:100A0800B4F908200199009809EB43095143D31719
:100A180000FB0311A2FB00230B444FEAEA7B0AFB0D
:100A280009F11F0308FB0B13AAFB080119444FEA3D
:100A3800102A4AEA016A16034FEA212B47EA12579D
:100A48001AEB0602E6884BEB070312F1000A43F59E
:100A5800004BAAFB060106FB0B114A10CB1752EA02
:100A6800030100F08E80B4F91060009806FB09F1CC
:100A7800F71708FB0711A6FB08673944B4F90E807D
:100A88008B4601994FEAE87908FB01F100FB09114F
:100A9800A8FB00898944DCF80C104FEA4947C1F5E6
:100AA800801C47EAD837B2464FEA4846B4F90C806A
:100AB8001AEB060A66464BEB070BF7174FEAC80610
:100AC800019600260096F907DDE900674FEACC7029
:100AD80016EB0A0647EB0B0741EA5C01801B61EB4A
:100AE800070140F6354C8946A0FB0C010CFB0911A7
:100AF80033F0DCFDB4F91620B4F914A04E13470BFB
:100B080047EAC14702FB06FCD31707FB03CCA2FB4D
:100B180007236344564307FB0366A2FB07233344BA
:100B2800560E46EAC31632184FEA636747EB0103CD
:100B380080460AFB01F14FEAEA7B08FB0B17AAFB88
:100B480008013944C60C46EA413612EB06084FEA5A
:100B5800E147B4F9122043EB07094FEA182141EAAB
:100B6800096113010B44029A0AB11B0A1360039B23
:100B780023B105EB850580352D121D6005B0BDE854
:100B8800F08F0023EFE700BF583B0020FC1B00203C
:100B9800704770474FF400638382704707B5F721A9
:100BA8006A462EF07EFD9DF801309DF800100C4A33
:100BB8001B0143EA01339DF8021043EA1113D36085
:100BC8009DF804309DF803101B0143EA01339DF89A
:100BD800051043EA1113936003B05DF804FB00BFEE
:100BE800FC1B0020012380F85430704770B4D0E912
:100BF8000041057B02690223AB4063600B684FF636
:100C0800FE7003400B60EFF31183502181F31288CB
:100C1800D66B3168C9071CD4706870B9D2E909412C
:100C28008C4213D095690D44F56017D81469611A80
:100C380071609062002182F85810326842F0010217
:100C4800DBB2326083F3118870BC7047012182F8EF
:100C58005810DBB283F3118870BC7047611A716059
:100C68009462E7E770B40468037B2268022101FA02
:100C780003F31A4214D001690A4A01EB410102EB5D
:100C880041124FF6FE7650685289C5680068296897
:100C980031402960C168D24392B20A40C2606360A1
:100CA80070BC7047B468002010B50168047B0A68FE
:100CB8000223A3401A420AD0054A4068002414704F
:100CC800026822F001021204120C02604B6010BD8F
:100CD8003C52002000230122827003704370C370CD
:100CE800704700BF70B544880546C4F30B0422461C
:100CF80008460E46002134F065F82B69094A9342EC
:100D080002D3094A934205D35BB121463046BDE878
:100D180070401847224630461946BDE8704034F006
:100D28002DB870BD34BC030849BD03082DE9F04750
:100D38008C4A8D4B12781C78D207064648D58B4DC5
:100D4800012C00F091801ED3022C40F09B80884932
:100D5800884A09881288884F914201D901241C7059
:100D6800EB7AFBB12B89EBB1844B1B78D3B112F032
:100D780085FD002800F0E2802B7B83422CBF0123F5
:100D880000233B700FE0DFF8E8C17B4F7C4CBCF8D8
:100D980000002288697B521A8242DFDAEB7A00244B
:100DA800002BDFD13B782A79632A07D87549022CB2
:100DB800087800F0B880002840F0A0807249AA7A2C
:100DC8009C4238BF1C460C70002A44D1BDE8F0870D
:100DD800DFF89CC1654DBCF80000BCF8021095F81E
:100DE80003E06A4F411A0029A4F10302B8BF49423F
:100DF800704597F80080D2B211D32F7887420ED36E
:100E0800012A45D9B8F1020F9AD15C48604A0078A6
:100E180090800229CCBF00210121D18090E7B0EB5E
:100E28004E0FEDDC012A40F28C800229EADC032413
:100E3800514F524852494F4A1C70B8F1020F4FF0B7
:100E480000033C7003700B80138089D1504A012144
:100E58009380D18084E7012C6BD0022CB6D1072077
:100E6800BDE8F0472AF056BD424A41491288687BDE
:100E78000988121A914207DD414A12888A423CBF0A
:100E880000241C703C4F6BE702241C703A4F67E744
:100E98000229B7DC95F800E090FBFEFE0EF1010E8A
:100EA800BEF1080FDFF8D4A0AA786978DFF8C490FB
:100EB800334C314FA8BF4FF0080E8AF800E01FFAF4
:100EC8008EFA11FB0AF112FB0AF2DFF8B8A0A9F8B2
:100ED800001092B200214FF06409B8F1020F22808D
:100EE80039701970CAF804108AF801907FF452AF6B
:100EF800274A0121A2F804E0D18048E74868301A5F
:100F0800244EB042C8BF4A703FF758AFC2F16402DE
:100F1800214E00FB02F086FB0062C017A0EBA25036
:100F2800643048704AE70028E8D101274E600F7006
:100F3800ECE70820BDE8F0472AF0ECBC02233B7040
:100F480031E7032C7FF471AFB8F1020F9AD10B4A45
:100F58000F4B12789A800229CCBF00210121D98039
:100F6800054FFDE690770020535200209A43002059
:100F7800384200205652002060520020CC45002004
:100F88005452002058520020F843002034750020A5
:100F9800407500207F9698006BCA5F6B70B55C4CFB
:100FA800236946F2A712C31A93422DED028B02D889
:100FB800BDEC028B70BD574B20611B6813F0040316
:100FC8002BD11846544A94F82010127812F00102D6
:100FD80016D0E9B90125C4E909010A46084684F88A
:100FE80020500BB14D4B18604D4B1B780E2BDFD1A9
:100FF800BDEC028B4B4B1E2158809A80198070BD26
:1010080031B1D4E9095184F82020401B4A42E8E76D
:10101800D4E90912401A5242E3E7434E4348B379F0
:1010280005886169013BB1FBF3F19DB3404A9FED2F
:10103800410A1368002B1E46B8BFDE1DA3EBE6036A
:10104800194400290B46B8BFCB1DDB1007EE903AB8
:10105800F8EEE77A116027EE800AFFF7ABFADFEDCA
:10106800367A20EE270AFFF7EBFAF7EE007A77EEEA
:10107800C07A9FED320AE36967EE807A9942FDEE05
:10108800E77AC4ED067A3ED0013D00230580E16190
:10109800184697E707EE901A9FED260A284DF8EEB6
:1010A800677AB7EE008A27EE800AFFF783FADFED4A
:1010B800227A20EE270AFFF7C3FADFED207A38EE0E
:1010C800400A20EE270A33F031FF3389DFED1D6A2D
:1010D80007EE103AA369C01AB8EEC77A07EE900A6D
:1010E800A7EE668AB8EEE70AD5ED097AF8EEE77A50
:1010F80020EE080A67EEA67AA7EE870A33F016FFF5
:10110800012368625EE7002202801346104659E711
:10111800FC1B00200C6600209077002088430020EC
:101128003475002040750020FC4800200E1F002068
:101138000000002008942537B1DC423ED048874A99
:10114800143B00206F12833A2DE9F8432E4B1B689D
:101158005B0701D4BDE8F8832C4C2D4D94F82C90F6
:10116800B9F1010F3CD1EB69284698472B6928460D
:1011780098472B6A04F1300104F134009847254A56
:1011880066699179D4E90E83D4E90C2008F1010746
:10119800AA625A1C8F4208BF0027032AE8622AD095
:1011A8001D49E26394F8402041F823004ABB04EB50
:1011B800880804EB8703C8F844005A6CAB89A76316
:1011C800B61A30440022606184F82C20002BC1D06C
:1011D800124A642B1268B8BF64231361BDE8F88310
:1011E8006B6928469847AB69284698470122EB89DE
:1011F80084F82C20EAE7084A84F84090002390609D
:10120800E36331F059FED2E70C660020FC1B002096
:10121800143B0020FC480020546C0020945100200E
:10122800012310211122417042710372037003716E
:10123800704700BF30B50446406D21710368A2684D
:1012480023F00103036087B06379009213F0040F61
:101258004FEA03324FEA032314BF4FF480550025A9
:1012680003F4806302F400520195CDE902230025BE
:1012780011F0010305952ED1049308238D076946C3
:1012880048BF04931FF0E4F92079636D617900F099
:101298000202002A15BF4FF440324FF480324FF457
:1012A8000034002410F0010F586808BF2246CC070C
:1012B8004CBF024320EA02025A609A6809074CBFF1
:1012C80042F0080222F008029A601A6842F001020D
:1012D8001A6007B030BD042304930C23CEE700BF87
:1012E80030B50446406DA160036823F00103036034
:1012F8006379257987B013F0040F4FEA03324FEA78
:10130800032303F4806302F40052CDE90223009121
:1013180014BF4FF480510021EB0748BF042301910B
:101328004FF00001CDE9041154BF08230493694626
:1013380048BF0C23AD0748BF04931FF089F92079F3
:10134800636D617900F00202002A15BF4FF4403244
:101358004FF480324FF40034002410F0010F586825
:1013680008BF2246CC074CBF024320EA02025A605B
:101378009A6809074CBF42F0080222F008029A60F6
:101388001A6842F001021A6007B030BD2DE9F34136
:10139800056906460F467DBBD0F80080C8F30A03EE
:1013A80023B30023D6F8008001932FF0AFF8042868
:1013B80019D1224C236943F001032361BBB2A8F879
:1013C80000302FF0A3F804282ED108F1020301936E
:1013D800019B3F0C1F802FF099F82369042823F004
:1013E8000103236125D06FF0010505E02FF08EF889
:1013F800042805D04FF0FF35284602B0BDE8F0813B
:101408000E4C236943F002032361C4F81480236956
:1014180043F0400323612FF079F82369042823F06F
:1014280002032361BDD0E5E7236923F001032361AB
:10143800D9E7336804333360DEE700BF0020024099
:10144800F8B504460D468E180027B54201D120692B
:10145800F8BDE368591CE160234415F8012B1A72A2
:101468000429F2D1A1682046FFF790FFC4E9037070
:10147800EBE700BF38B52C22002133F0A3FC03466C
:10148800642140F2DC5240F2022019745A8213217E
:10149800202240F21A4540F26C74188399760E2087
:1014A80002211A7701229D82DC8240F2753540F6CE
:1014B800430483F8220083F82A109A7383F82920BA
:1014C800DD831C8419460248BDE838401AF004BB85
:1014D800D87C03082EF0CCB938B50D4B1B6893B9EE
:1014E8000C4B1D7875B10C4B002003EBC5051A6831
:1014F80099885062D4682143D160083323F8040CDA
:10150800AB42F4D138BD0FF031F90028E8D138BD2D
:10151800E01E0020B46B0020B86B00206A4B6B48BB
:101528002DE9F0415C220124694E1C70002133F042
:1015380049FC684A6849694D002330460B601360CE
:1015480029F028FE2146204629F072FE2146062071
:1015580029F06EFE6F79624B391C1A8E614B93FB32
:10156800F2F318BF0121642BB8BF64230820C6F822
:10157800483129F05DFE95F8068018F100014FF01A
:10158800090018BF012129F053FEAB7A002B63D064
:10159800554C002F6AD118F1000118BF01210A200B
:1015A80029F046FE2168514D0F20C1F3405129F022
:1015B8003FFE2B68D8075BD4990774D40121052016
:1015C80029F036FE4A4B0720197829F031FE01210F
:1015D8000B2029F02DFE29680C20C1F3800129F089
:1015E80027FE2B685A0756BF21680121C1F3C01195
:1015F8000D2029F01DFE21684B0545D4C1F340514B
:101608000F2029F015FE216811F4802104D0394BF0
:101618001968003118BF0121102029F009FE21683E
:101628001120C1F3C06129F003FE0121122029F025
:10163800FFFD0121132029F0FBFD0121142029F0D1
:10164800F7FD2D4B196800314FF0150018BF012127
:10165800BDE8F04129F0ECBDEB7A234C002B98D182
:10166800216811F480219AD0002F94D0012196E7A7
:10167800224B1B68642BB8BF642301210220B36787
:1016880029F0D6FD2B6897E701210E2029F0D0FD1F
:101698001B4B21681B7A083B012B9CBF4FF4FA6354
:1016A800C6F8E832AAE70121032029F0C1FD154B4D
:1016B8005B6A642BB8BF642301210420C6F8AC30F0
:1016C80029F0B6FD7AE700BFC45200206852002016
:1016D800F8150020C8520020645200209A430020C8
:1016E800C874002040420F00086600200C660020E5
:1016F800A03C00204042002060380020705F00209D
:10170800FC6B0020D045002002280FD8094A0A4B5C
:101718000A4910B400EB40041070013003EB441385
:10172800C0B25DF8044B0B602AF0DEB90130C0B2DC
:101738002AF0DAB9848C0020AE2F00200C46002055
:1017480070B53C4B3C481A785B783C493C4C3D4D65
:1017580002EB420203EBC30301EB430300EB42122B
:101768002B60226027F010FD00213022364833F02C
:1017780029FB206825F0FCFE344B256803F178012D
:1017880002E006338B4252D01A78002AF9D19C78AD
:10179800D878844202D358790028F2D02C492D4BAE
:1017A8000C792D4EC820642111FB040159602B4887
:1017B8002B4C32700021C3E90211C3E90411C3E9BB
:1017C800061183F8201083F82110264B0560C4F811
:1017D800043119F06FFCB4F808319FED235A234AFD
:1017E80094F80A119FED226A507906EE903AF8EEC5
:1017F800E66A1388C5EE265A07EE103A1D4B1960A3
:1018080053881D491279C1ED005A07EE903AB8EE97
:10181800C77AF8EEE77A194B27EE067A67EE867AEA
:1018280018725A7283ED017AC3ED007A70BD0122F5
:10183800B4E700BF848C0020AE2F0020F8300020D1
:101848000C46002010460020DC240020283C002004
:101858003C4F0020604100201C0000201025002083
:10186800FC1B00200A770020C0C9FB482053002039
:1018780017B7D138944A0020984A00206C4A0020B3
:10188800F0B40C292BD8DFE801F0752A2A2A502A4F
:101898002A2A2C2A2A2A0700046AB2F80CC0978838
:1018A80016686B4D24F480540462036A4468C16965
:1018B80023F4005343EA0C3321F4E641A84243EAF7
:1018C800073341EA062100F0BC8005F50065A8420F
:1018D80000F0B78092684460C16102640362F0BCA2
:1018E8007047046AB2F80CC097881668584D24F4FB
:1018F80080740462036A4468C16923F4007343EA8C
:101908000C2321F07301A84243EA072341EA0601A8
:1019180000F0848005F50065A8427FD09268446095
:10192800C161F0BCC26303627047046AB2F80CC0BC
:1019380097881668464D24F010040462036A4468C8
:10194800816923F0200321F0807143EA0C1321F40C
:10195800E641A84243EA071341EA06214BD005F5C0
:101968000065A84247D0926844608161F0BC8263F8
:1019780003627047046A9389B2F804C01768344E4A
:1019880024F001040462046A4568816921F4803105
:1019980024F0020443EA0C0321F07301B04243EA45
:1019A800040341EA07010ED02A4CA0420BD004F5EB
:1019B8004064A04207D004F58064A04203D004F537
:1019C8008064A04210D1D489168A578AB2F806C01A
:1019D80023F00803234325F4407523F0040346EA63
:1019E80007044CEA03032543926845608161F0BC13
:1019F800426303627047D589178AD68823F080032B
:101A080043EA051324F44064558A23F0400344EA6A
:101A1800870443EA061344EA8504A4E7D589178AAC
:101A2800D68823F4006343EA052324F44054558AF6
:101A380023F4806344EA071443EA062344EA0514BE
:101A48006CE7158A24F4804444EA851442E700BF11
:101A5800002C0140003401402DE9F84FF022DFF856
:101A680034B28248824E834FDFF82C82DFF82C9202
:101A7800DFF82CA2002133F0A5F97F48DFF824C253
:101A8800DFF824E20BF1E0055C462368B34200F07E
:101A9800D080B3F1804F00F0CE80BB4200F0CD8003
:101AA800634500F0D880734500F0D780434500F0C7
:101AB800D6804B4500F0D580534500F0D4806F4A5E
:101AC800934200F0978002F58062934208BF092391
:101AD80000F091801C34A542D7D1694E694D4FF072
:101AE80003094FF002089BF80630002B7BD09BF8C7
:101AF80004301F09013F052F03F00F0373D836F890
:101B0800170040FA03F2D2076DD54FF0010A0AFA1E
:101B180003F3013B184032F019FE5B4BDB5D1844C0
:101B280015EBC0075FD055F8303058489BF80810BF
:101B380003F13842920A825C02F01F005209022A1D
:101B48000AFA00FA00F08180032A78D0012A04D129
:101B5800494842694AEA02024261B7F804C0BCFA3D
:101B68008CF2C2F11F0292B2D00803EB800002F09F
:101B78000702076A92004FF00F0E0EFA02FE27EADC
:101B88000E070762076A01FA02F23A4302624FF04F
:101B9800010E00220EFA02F737EA0C0120D150009C
:101BA800D3F808A009FA00F1C9430AEA010AC3F800
:101BB80008A0D3F808A0C3F808A0B3F804A02AEA3C
:101BC80007079F809F88BFB29F801F680F401F60D4
:101BD8001F6808FA00F038431860D8680140D960D7
:101BE8000132102AD6D10BF11C0B5C457FF47BAF78
:101BF800BDE8F88F0823264A02EBC303012293F8B5
:101C0800243003F01F015B09022B02FA01F208D00D
:101C1800032B0AD0012B7FF45DAF43691A4342615D
:101C280058E783691A43826154E7C3691A43C2615A
:101C380050E70023DFE70123DDE70223DBE70E4857
:101C4800C2694AEA0202C26187E70B4882694AEA26
:101C58000202826181E70323CDE70423CBE7052352
:101C6800C9E70623C7E70723C5E700BF00590020D7
:101C7800002C0140000400400010024000440140D4
:101C88006C780308205E00207878030854770308EE
:101C9800CC4F03088C77030800140040003401403F
:101CA80000400140000800400010004000B97047A3
:101CB80003682DE9F04F03F138449C4EA40A01252E
:101CC800345D04F01F066409022C05FA06F500F0DD
:101CD8007481032C00F06C81012C00F02281808833
:101CE800B0FA80F4C4F11F04A4B2E50803EB85053B
:101CF80004F007042E6AA4000F27A74026EA070667
:101D08002E622E6A01F00307A2407C1E3243012C8A
:101D1800C1F3810EC1F300182A62C1F3411140F2E8
:101D28000981C6070BD51A6822F003021A601A68DF
:101D38003A431A60DA6822F003020A43DA60850738
:101D48000DD51A6822F00C021A601A6842EA870256
:101D58001A60DA6822F00C0242EA8102DA6044076B
:101D68000DD51A6822F030021A601A6842EA071282
:101D78001A60DA6822F0300242EA0112DA600207D9
:101D88000DD51A6822F0C0021A601A6842EA871252
:101D98001A60DA6822F0C00242EA8112DA60C606E6
:101DA8000DD51A6822F440721A601A6842EA0722AE
:101DB8001A60DA6822F4407242EA0122DA60850683
:101DC8000DD51A6822F440621A601A6842EA87221E
:101DD8001A60DA6822F4406242EA8122DA60440634
:101DE8000DD51A6822F440521A601A6842EA07327E
:101DF8001A60DA6822F4405242EA0132DA600206D6
:101E08000DD51A6822F440421A601A6842EA8732ED
:101E18001A60DA6822F4404242EA8132DA60C60582
:101E28000DD51A6822F440321A601A6842EA07424D
:101E38001A60DA6822F4403242EA0142DA60850523
:101E48000DD51A6822F440221A601A6842EA8742BD
:101E58001A60DA6822F4402242EA8142DA604405D4
:101E68000DD51A6822F440121A601A6842EA07521D
:101E78001A60DA6822F4401242EA0152DA60020576
:101E88000DD51A6822F440021A601A6842EA87528D
:101E98001A60DA6822F4400242EA8152DA60C60423
:101EA8000DD51A6822F040721A601A6842EA076271
:101EB8001A60DA6822F0407242EA0162DA60850448
:101EC8000DD51A6822F040621A601A6842EA8762E1
:101ED8001A60DA6822F0406242EA8162DA604404F9
:101EE8000DD51A6822F040521A601A6842EA077241
:101EF8001A60DA6822F0405242EA0172DA6002049B
:101F08000DD51A6822F040421A601A6842EA8777AB
:101F18001F60DA6822F0404242EA8171D960BDE868
:101F2800F08F034C666935436561D8E6547703083A
:101F38000010024000224FF0010C4FF003090CFA88
:101F480002F636EA00042ED15400D3F808A009FAA4
:101F580004F5ED4305EA0A0AC3F808A0D3F808B067
:101F68000EFA04FA4AEA0B0AC3F808A0B3F804A068
:101F78002AEA06069E80B3F804A008FA02F646EAA2
:101F88000A06B6B29E801E682E401E60D3F800A0D6
:101F980007FA04F646EA0A061E60DE6801FA04F447
:101FA80035402C43DC600132102AC8D1BDE8F08FDF
:101FB800044CE6693543E56191E6024CA669354370
:101FC800A5618CE60010024003682DE9F04F03F18B
:101FD8003845A94EAD0A0124755D05F01F066D0947
:101FE800022D04FA06F400F08D81032D00F085819E
:101FF800012D00F03B818088B0FA80F4C4F11F0401
:10200800A4B2E50803EB850504F007042E6AA400D2
:102018000F27A74026EA07062E622E6A01F003075B
:1020280002FA04F47A1E3443012AC1F3810EC1F383
:1020380000182C62C1F3411140F22281C60700F159
:102048000881850700F1F680440700F1E480020763
:1020580000F1D280C60600F1C080850600F1AE808E
:10206800440600F19C80020600F18A80C60578D4F7
:10207800850567D4440556D4020545D4C60434D42E
:10208800850423D4440412D4020401D4BDE8F08F9B
:102098001A6822F040421A601A6842EA87771F607D
:1020A800DA6822F0404242EA8171D960EEE71A68A4
:1020B80022F040521A601A6842EA07721A60DA6817
:1020C80022F0405242EA0172DA60DDE71A6822F033
:1020D80040621A601A6842EA87621A60DA6822F077
:1020E800406242EA8162DA60CCE71A6822F0407204
:1020F8001A601A6842EA07621A60DA6822F04072C7
:1021080042EA0162DA60BBE71A6822F440021A6008
:102118001A6842EA87521A60DA6822F4400242EAF0
:102128008152DA60AAE71A6822F440121A601A6823
:1021380042EA07521A60DA6822F4401242EA01526F
:10214800DA6099E71A6822F440221A601A6842EAAB
:1021580087421A60DA6822F4402242EA8142DA6051
:1021680088E71A6822F440321A601A6842EA07427D
:102178001A60DA6822F4403242EA0142DA6077E70C
:102188001A6822F440421A601A6842EA87321A60D2
:10219800DA6822F4404242EA8132DA6066E71A6875
:1021A80022F440521A601A6842EA07321A60DA6862
:1021B80022F4405242EA0132DA6054E71A6822F403
:1021C80040621A601A6842EA87221A60DA6822F4C2
:1021D800406242EA8122DA6042E71A6822F44072D9
:1021E8001A601A6842EA07221A60DA6822F4407212
:1021F80042EA0122DA6030E71A6822F0C0021A6067
:102208001A6842EA87121A60DA6822F0C00242EAC3
:102218008112DA601EE71A6822F030021A601A6822
:1022280042EA07121A60DA6822F0300242EA011222
:10223800DA600CE71A6822F00C021A601A6842EA9F
:1022480087021A60DA6822F00C0242EA8102DA6038
:10225800FAE61A6822F003021A601A683A431A600A
:10226800DA6822F003020A43DA60EAE6034D6E698F
:1022780034436C61BFE600BF547703080010024086
:1022880000224FF0010C4FF003090CFA02F636EA6F
:1022980000042ED15400D3F808A009FA04F5ED4340
:1022A80005EA0A0AC3F808A0D3F808B00EFA04FA37
:1022B8004AEA0B0AC3F808A0B3F804A02AEA0606FB
:1022C8009E80B3F804A008FA02F646EA0A06B6B2F7
:1022D8009E801E682E401E60D3F800A007FA04F600
:1022E80046EA0A061E60DE6801FA04F435402C430B
:1022F800DC600132102AC8D1C8E6054DEE693443C6
:10230800EC6178E6024DAE693443AC6173E600BF18
:102318000010024010B50409013C052C17D80E4BDB
:1023280033F8142000F00F0042FA00F313F0010311
:102338000FD0012303FA00F00138104032F006FAFA
:10234800064A074B125D104403EBC00010BD002085
:1023580010BD184610BD00BF6C78030878780308D4
:10236800205E00202DE9F8432F4D2A69EB6812EA18
:10237800030826D02D4E4FF00047B8FA88F327FA05
:1023880003F2D2431B3B2A6108EA0208042B15D842
:10239800DFE803F0372D23190300D6F8EC30002BC3
:1023A80039D1EB6A1FFA83F9D6F8E84034B12368CB
:1023B8002046494698476468002CF8D1B8F1000FC8
:1023C800DBD1BDE8F883D6F8C800696B036889B229
:1023D8009847B8F1000FD0D1F3E7D6F8CC00A96B35
:1023E800036889B29847B8F1000FC6D1E9E7D6F873
:1023F800D000E96B036889B29847B8F1000FBCD1E7
:10240800DFE7D6F8D400296C036889B29847B8F199
:10241800000FB2D1D5E703F1FF3900231FFA89F97C
:10242800C6F8EC30C0E700BF00400140005900206A
:102438002DE9F8432F4D2A69EB6812EA030826D0E4
:102448002D4E4FF00047B8FA88F327FA03F2D2432B
:102458001B3B2A6108EA0208042B15D8DFE803F0C1
:10246800372D23190300D6F8C430002B39D1EB6A75
:102478001FFA83F9D6F8C04034B12368204649468C
:1024880098476468002CF8D1B8F1000FDBD1BDE89B
:10249800F883D6F8A000696B036889B29847B8F149
:1024A800000FD0D1F3E7D6F8A400A96B036889B26E
:1024B8009847B8F1000FC6D1E9E7D6F8A800E96B4C
:1024C800036889B29847B8F1000FBCD1DFE7D6F8A6
:1024D800AC00296C036889B29847B8F1000FB2D1F3
:1024E800D5E703F1FF3900231FFA89F9C6F8C4308C
:1024F800C0E700BF00340140005900202DE9F8432F
:102508002F4D2A69EB6812EA030826D02D4E4FF0AA
:102518000047B8FA88F327FA03F2D2431B3B2A6133
:1025280008EA0208042B15D8DFE803F0372D231931
:102538000300D6F8C430002B39D1EB6A1FFA83F9AF
:10254800D6F8C04034B123682046494698476468A5
:10255800002CF8D1B8F1000FDBD1BDE8F883D6F82C
:10256800A000696B036889B29847B8F1000FD0D111
:10257800F3E7D6F8A400A96B036889B29847B8F1C5
:10258800000FC6D1E9E7D6F8A800E96B036889B25D
:102598009847B8F1000FBCD1DFE7D6F8AC00296C3A
:1025A800036889B29847B8F1000FB2D1D5E703F1B3
:1025B800FF3900231FFA89F9C6F8C430C0E700BF05
:1025C80000340140005900202DE9F8432E4D2A69B6
:1025D800EB6812EA030826D02C4E4FF00047B8FAF1
:1025E80088F327FA03F2D2431B3B2A6108EA020860
:1025F800042B15D8DFE803F0352B22190300D6F891
:102608009C30002B37D1EB6A1FFA83F9D6F8984033
:1026180034B123682046494698476468002CF8D1AD
:10262800B8F1000FDBD1BDE8F883B06F696B0368C0
:1026380089B29847B8F1000FD1D1F4E7F06FA96BD0
:10264800036889B29847B8F1000FC8D1EBE7D6F80C
:102658008000E96B036889B29847B8F1000FBED1D2
:10266800E1E7D6F88400296C036889B29847B8F185
:10267800000FB4D1D7E703F1FF3900231FFA89F916
:10268800C6F89C30C2E700BF00080040005900208F
:102698002DE9F8432B4D2A69EB6812EA030824D088
:1026A800294E4FF00047B8FA88F327FA03F2D243CD
:1026B8001B3B2A6108EA0208042B13D8DFE803F061
:1026C800322920170300736F002B34D1EB6A1FFAED
:1026D80083F9346F34B123682046494698476468C3
:1026E800002CF8D1B8F1000FDDD1BDE8F883306DCA
:1026F800696B036889B29847B8F1000FD3D1F4E742
:10270800706DA96B036889B29847B8F1000FCAD1F8
:10271800EBE7B06DE96B036889B29847B8F1000F31
:10272800C1D1E2E7F06D296C036889B29847B8F126
:10273800000FB8D1D9E703F1FF3900231FFA89F94F
:102748007367C6E700040040005900202DE9F843EC
:102758004FF080452A69EB6812EA030824D0294E15
:102768004FF00047B8FA88F327FA03F2D2431B3B2D
:102778002A6108EA0208042B13D8DFE803F032299B
:1027880020170300F36C002B34D1EB6A1FFA83F98E
:10279800B46C34B123682046494698476468002CD5
:1027A800F8D1B8F1000FDDD1BDE8F883B06A696BE4
:1027B800036889B29847B8F1000FD3D1F4E7F06AFB
:1027C800A96B036889B29847B8F1000FCAD1EBE743
:1027D800306BE96B036889B29847B8F1000FC1D133
:1027E800E2E7706B296C036889B29847B8F1000F6B
:1027F800B8D1D9E703F1FF3900231FFA89F9F36447
:10280800C6E700BF005900202DE9F8432B4D2A697F
:10281800EB6812EA030824D0294E4FF00047B8FAB3
:1028280088F327FA03F2D2431B3B2A6108EA02081D
:10283800042B13D8DFE803F0322920170300736A4A
:10284800002B34D1EB6A1FFA83F9346A34B1236858
:102858002046494698476468002CF8D1B8F1000F23
:10286800DDD1BDE8F8833068696B036889B29847A1
:10287800B8F1000FD3D1F4E77068A96B036889B287
:102888009847B8F1000FCAD1EBE7B068E96B036865
:1028980089B29847B8F1000FC1D1E2E7F068296C16
:1028A800036889B29847B8F1000FB8D1D9E703F1A6
:1028B800FF3900231FFA89F97362C6E7002C01402B
:1028C800005900202DE9F8432B4D2A69EB6812EADC
:1028D800030824D0294E4FF00047B8FA88F327FAA6
:1028E80003F2D2431B3B2A6108EA0208042B13D8DF
:1028F800DFE803F0322920170300736A002B34D174
:10290800EB6A1FFA83F9346A34B1236820464946D2
:1029180098476468002CF8D1B8F1000FDDD1BDE804
:10292800F8833068696B036889B29847B8F1000F7B
:10293800D3D1F4E77068A96B036889B29847B8F1F6
:10294800000FCAD1EBE7B068E96B036889B2984712
:10295800B8F1000FC1D1E2E7F068296C036889B2C9
:102968009847B8F1000FB8D1D9E703F1FF39002330
:102978001FFA89F97362C6E7002C0140005900204C
:10298800F0B50668494CB30AA34200F08C800AD916
:10299800474CA34263D00334A34200F08180053C36
:1029A800A3425FD0F0BDB3F5801F76D0013CA342AF
:1029B800F8D17027022590F805C002232CFA03F0FD
:1029C80084468340A800002954D0D6F80CE0441966
:1029D8000CEB440C9BB2374C43EA0E030CF1040E8B
:1029E80044F82C1044F82E20F360E319EFF311811A
:1029F800502282F31288421904EBC202D2F810C0A6
:102A0800BCF1000F03D044F807C01369043342191E
:102A180004EBC202576917B11F60536904334219A6
:102A280004EBC202976917B11F6093690433421916
:102A380004EBC202D76917B11F60D36904330022BF
:102A4800C9B21A6081F31188284404EBC004236AD0
:102A58005BB9F3684FF6FE721340F360F0BDC02710
:102A68000425A8E720270025A5E7F36843F001031C
:102A7800F360F0BDD6F80CE00E4CDB439BB203EAE2
:102A88000E0300EB050E0CEB4E0CF3600CF1040387
:102A980044F82C1044F82320A7E7482701258AE7A3
:102AA800E827052587E79827032584E70200100013
:102AB8004D0010000059002030B503685A4D1888A1
:102AC8005A4CB4FBF2F20139013AAB4294B283B0EA
:102AD80089B282B20DD0564883420AD0B3F1804FF2
:102AE80007D0A0F59830834203D000F58060834278
:102AF80002D122F0700292B24E4883426AD000F5A9
:102B08008060834241D022F4407200F58C3092B24A
:102B180083421A80D9621C8565D100221A86012257
:102B28005A611A88404942F001028B421A806AD0E1
:102B3800B3F1804F69D0404A934268D002F5806271
:102B4800934266D002F50062934264D002F5806237
:102B5800934262D002F59032934260D002F540620F
:102B680093425ED002F58062934217D002F58062EC
:102B7800934208BF092212D002A84FF0012340F85F
:102B8800043D1DF083FA03B030BD01201A80D962DC
:102B98001C8558611A8802431A80C9E70822274B06
:102BA80003EBC20301A893F825408DF804400123E4
:102BB80000228DF805308DF807308DF806201DF0BD
:102BC80065FA1B2CDFD11E4B019301A81DF05EFA9C
:102BD80003B030BD01201A80D9621C8558611A885B
:102BE80002431A80A7E7124A934296D002F5406240
:102BF800934292D002F5806293428ED002F58062B1
:102C080093428AD08BE70022C9E70122C7E7022254
:102C1800C5E70322C3E70422C1E70522BFE706226E
:102C2800BDE70722BBE700BF002C014000A24A0411
:102C3800003401400010004000040040CC4F03085D
:102C480019010001204B98422DD0B0F1804F2CD0B3
:102C5800A3F5943398422AD003F58063984228D08C
:102C680003F50063984226D003F58063984224D088
:102C780003F59033984222D003F54063984220D060
:102C880003F58063984207D003F58063984208BF34
:102C9800092202D00020704708220C4B03EBC20324
:102CA80093F8240070470022F7E70122F5E7022293
:102CB800F3E70322F1E70422EFE70522EDE7062216
:102CC800EBE70722E9E700BF002C0140CC4F0308DF
:102CD80068B10A4A2421002301E012F81C1C88422A
:102CE80002F11C0204D00133082BF6D100207047F2
:102CF8000348C3EBC30300EB83007047AC770308BA
:102D08008C7703082DE9F04F013085B0C3B20393E7
:102D1800994C9A4FDFF874A2994D9A4E0A23029360
:102D28002CF0BCFA4FF4FA73DFF86CE201934FF021
:102D38001008DAF80430C3F30803002B40F0D980F8
:102D4800EFF31183002B40F0D4802068AA68236831
:102D58009842FAD133689A42F7D8D7F800C04FF4AE
:102D68007A7101FB0CF39B1AB3FBFCF301FB0030F7
:102D78004FF47A7C4FF00109DAF80430C3F3080302
:102D8800002B40F09880EFF31183002B40F09380E4
:102D98002368A96822689342FAD132689142F7D829
:102DA8003A680CFB02FBABEB0101B1FBF2F10CFB47
:102DB80003131B1AB3F57A7FDED3019B013B019302
:102DC800B7D103982CF0BEF84FF47A73DFF8C8E156
:102DD80001934FF01008DAF80430C3F30803002B0E
:102DE80040F0A880EFF31183002B40F0A380206807
:102DF800AA6823689842FAD133689A42F7D8D7F874
:102E080000C04FF47A7101FB0CF39B1AB3FBFCF37F
:102E180001FB00304FF47A7C4FF00109DAF80430F6
:102E2800C3F308034BBBEFF3118333BB2368A968D3
:102E380022689342FAD132689142F7D83A680CFB7B
:102E480002FBABEB0101B1FBF2F10CFB03131B1A04
:102E5800B3F57A7FE2D3019B013B0193BBD1029B7F
:102E6800013B02937FF45CAF4749484B4848494AC5
:102E78000860DA6005B0BDE8F08FEFF3118188F3E0
:102E88001288D5F808B02B68DB0344BFCEF8009051
:102E9800D5F808B02368DEF80020C9B281F311889C
:102EA800396813440CFB01F2A2EB0B02B2FBF1F2FE
:102EB8000CFB0323CBE7EFF3118188F31288D5F8D5
:102EC80008B02B68DB0344BFCEF80090D5F808B0F3
:102ED8002368DEF80020C9B281F3118839681344E9
:102EE8000CFB01F2A2EB0B02B2FBF1F20CFB032389
:102EF8005FE7EFF3118388F31288D5F808C02A68D2
:102F0800D20304D50122CEF80020D5F808C02068E5
:102F1800DEF80090DBB283F3118839684FF47A72D7
:102F2800484402FB01F3A3EB0C03B3FBF1F302FBF0
:102F380000301DE7EFF3118388F31288D5F808C035
:102F48002A68D20304D50122CEF80020D5F808C09B
:102F58002068DEF80090DBB283F3118839684FF4FB
:102F68007A72484402FB01F3A3EB0C03B3FBF1F3C1
:102F780002FB00304EE700BF885600208C56002028
:102F880010E000E090560020FC9F002000ED00E0DB
:102F9800EFBEADDE0400FA05845600202DE9F04F9F
:102FA80085B0CDE902109B4DDFF878A2029B013B6A
:102FB8000293013300F02A812CF070F9964C974F58
:102FC800DFF864E2964E4FF4FA7301934FF010085D
:102FD800DEF80430C3F30803002B40F0F680EFF36B
:102FE8001183002B40F0F1802068AA68236898427A
:102FF800FAD133689A42F7D8D7F800C04FF47A71FB
:1030080001FB0CF39B1AB3FBFCF301FB00304FF4FC
:103018007A7C4FF00109DEF80430C3F30803002B73
:1030280040F0B580EFF31183002B40F0B0802368A7
:10303800A96822689342FAD132689142F7D83A686F
:103048000CFB02FBABEB0101B1FBF2F10CFB031330
:103058001B1AB3F57A7FDED3019B013B0193B7D1ED
:10306800039B6F4E581CC0B22BF06CFFDFF8B8E121
:103078004FF47A730193DEF80430C3F308034FF07A
:103088001008002B44D1EFF31183002B40D12068A6
:10309800AA6823689842FAD133689A42F7D8D7F8D1
:1030A80000C04FF47A7101FB0CF39B1AB3FBFCF3DD
:1030B80001FB00304FF47A7C4FF00109DEF8043050
:1030C800C3F30803002B44D1EFF31183002B40D145
:1030D8002368A96822689342FAD132689142F7D8E6
:1030E8003A680CFB02FBABEB0101B1FBF2F10CFB04
:1030F80003131B1AB3F57A7FE0D3019B013B0193BD
:103108003FF454AFDEF80430C3F30803002BBAD001
:10311800EFF3118388F31288D5F808C02A68D20320
:1031280004D50122CAF80020D5F808C02068DAF8CA
:103138000090DBB283F3118839684FF47A724844FF
:1031480002FB01F3A3EB0C03B3FBF1F302FB00302A
:10315800B0E7EFF3118188F31288D5F808B02B682F
:10316800DB0344BFCAF80090D5F808B02368DAF842
:103178000020C9B281F31188396813440CFB01F2AD
:10318800A2EB0B02B2FBF1F20CFB0323B1E7EFF366
:10319800118188F31288D5F808B02B68DB0344BF87
:1031A800CAF80090D5F808B02368DAF80020C9B248
:1031B80081F31188396813440CFB01F2A2EB0B026E
:1031C800B2FBF1F20CFB032342E7EFF3118388F320
:1031D8001288D5F808C02A68D20304D50122CAF893
:1031E8000020D5F808C02068DAF80090DBB283F335
:1031F800118839684FF47A72484402FB01F3A3EB53
:103208000C03B3FBF1F302FB003000E705B0BDE8A7
:10321800F08F00BF10E000E0885600208C56002098
:10322800905600208456002000ED00E0224B5B6899
:10323800C3F3080330B4D3B9EFF31183BBB91F4A02
:103248001F4D20481368846811688B42FAD1296899
:103258008C42F7D81C4A11684FF47A7202FB01F0CD
:10326800001B30BCB0FBF1F002FB03007047EFF32A
:103278001182102383F3128803F1E023D2B29C68F1
:10328800196811F4803F11491EBF012008609C682D
:103298000A4B18680B6882F311880B4A11684FF4BF
:1032A8007A72034402FB01F0001B30BCB0FBF1F062
:1032B80002FB0300704700BF00ED00E088560020C5
:1032C8009056002010E000E08C5600208456002024
:1032D8002DE9F84F8046274C274DDFF8A490274E5C
:1032E800FFF7A4FFDFF89CE0DFF89CC04FF0100A5E
:1032F8004FF47A77DCF80430C3F30803CBB9EFF363
:103308001183B3B92368A96822689342FAD1326855
:103318009142F7D8DEF8002007FB02FBABEB010176
:10332800B1FBF2F107FB03131B1A4345E2D3BDE8D7
:10333800F88FEFF311818AF31288D5F808B02B685B
:10334800DB0304D50123C9F80030D5F808B0236899
:10335800D9F80020C9B281F31188DEF800101344AF
:1033680007FB01F2A2EB0B02B2FBF1F207FB03230E
:10337800DAE700BF8856002010E000E090560020F1
:10338800845600208C56002000ED00E02DE9F04F17
:10339800DFF834C1494CDFF834E1DFF83481484EB6
:1033A800824648481AF1FF3AC0F08680DCF80430BB
:1033B800C3F30803002B5ED1EFF31183002B5AD11E
:1033C8000568A26803689D42FAD133689A42F7D823
:1033D800DEF800704FF47A7101FB07F39B1AB3FB18
:1033E800F7F301FB0535DCF80430C3F308034FF0AD
:1033F80010094FF47A77F3B9EFF31183DBB9036857
:10340800A16802689342FAD132689142F7D8DEF88F
:10341800002007FB02FBABEB0101B1FBF2F107FB5C
:1034280003135B1BB3F57A7FBCD2DCF80430C3F31B
:103438000803002BE0D0EFF3118189F31288D4F848
:1034480008B02368DB0304D50123C8F80030D4F89A
:1034580008B00368D8F80020C9B281F31188DEF8F3
:103468000010134407FB01F2A2EB0B02B2FBF1F2CE
:1034780007FB0323D5E7EFF31183102282F31288A9
:10348800A1682268D20303D50122C8F80020A168E8
:10349800D0F80090D8F80050DBB283F31188DEF83A
:1034A80000704FF47A724D4402FB07F35B1AB3FBCA
:1034B800F7F302FB053596E7BDE8F08F10E000E072
:1034C800905600208856002000ED00E08C56002021
:1034D8008456002030B4EFF31183102282F312884F
:1034E800084809490268094D094C013202608A6896
:1034F8002A6000222260DBB20A6883F3118830BC9C
:10350800704700BF8856002010E000E09056002069
:10351800845600201D4B70B59C68636DA26BDD69F5
:10352800CAB1E36B33B12B0700D470BD636D0822B9
:103538001A6270BD2A06F6D5D4E909028242616D85
:1035480011D0501CA669A062B25C26690A85B042F7
:10355800E9D3A362E7E7A906E3D5E26A42B1988C0A
:10356800216B9047DDE70B6823F080030B60DAE7F7
:10357800E1699B8C6069DBB24E1CE6614354E169EA
:10358800E368994228BFE261CBE700BFE42A002044
:103598001D4B70B55C68636DA26BDD69CAB1E36BE6
:1035A80033B12B0700D470BD636D08221A6270BD59
:1035B8002A06F6D5D4E909028242616D11D0501C61
:1035C800A669A062B25C26690A85B042E9D3A36203
:1035D800E7E7A906E3D5E26A42B1988C216B9047E8
:1035E800DDE70B6823F080030B60DAE7E1699B8C69
:1035F8006069DBB24E1CE6614354E169E3689942B5
:1036080028BFE261CBE700BFE42A00201D4B70B55C
:103618001C68636DA26BDD69CAB1E36B33B12B071C
:1036280000D470BD636D08221A6270BD2A06F6D5F3
:10363800D4E909028242616D11D0501CA669A062CA
:10364800B25C26690A85B042E9D3A362E7E7A90616
:10365800E3D5E26A42B1988C216B9047DDE70B68AD
:1036680023F080030B60DAE7E1699B8C6069DBB2C9
:103678004E1CE6614354E169E368994228BFE26160
:10368800CBE700BFE42A00200368DB6A03B11847D0
:10369800704700BF03689B6A03B11847704700BFB3
:1036A80003682DE9F0415D6A1DB12B46BDE8F04184
:1036B8001847002A174611DD04460E460F4400E05D
:1036C80023689B68204698470028F9D0236816F895
:1036D800011B1B6820469847BE42F1D1BDE8F08126
:1036E80003685B69184700BF0368DB68184700BFB9
:1036F80003689B68184700BF03685B68184700BFEA
:1037080003681B68184700BF014BD3F80C01F7E7A3
:10371800FC1B0020054B53F8203033B11A689B88F6
:10372800918A0B4218BF1B049361704754560020BE
:10373800036803F138422DE9F04F920AA74DAA5CBD
:1037480002F01F0552090124022A04FA05F400F0C8
:103758009F81032A00F09781012A00F0518101F02E
:1037680003077A1E012AC1F3810EC1F30018848869
:10377800C1F3411140F24981E60700F13181A50703
:1037880000F11A81600700F10581220700F1F0803D
:10379800E60600F1DB80A50600F1C680600600F1B0
:1037A800B180220600F19C80E60500F18780A5051E
:1037B80072D460055FD422054CD4E60439D4A5043C
:1037C80026D4600413D4220401D4BDE8F08F1A680B
:1037D80022F040421A601A6842EA87771F60DA6866
:1037E80022F0404242EA8171D960BDE8F08F1A6840
:1037F80022F040521A601A6842EA07721A60DA68C0
:1038080022F0405242EA0172DA602204DDD5DEE796
:103818001A6822F040621A601A6842EA87621A60DF
:10382800DA6822F0406242EA81626004DA60CAD54E
:10383800DDE71A6822F040721A601A6842EA0762E5
:103848001A60DA6822F0407242EA0162A504DA607E
:10385800B7D5DDE71A6822F440021A601A6842EA0E
:1038680087521A60DA6822F4400242EA8152E6047A
:10387800DA60A4D5DDE71A6822F440121A601A68E3
:1038880042EA07521A60DA6822F4401242EA015208
:10389800DA60220591D5DDE71A6822F440221A6021
:1038A8001A6842EA87421A60DA6822F4402242EA39
:1038B80081426005DA607FF57EAFDCE71A6822F4A2
:1038C80040321A601A6842EA07421A60DA6822F43B
:1038D800403242EA0142A505DA607FF56AAFDBE7CC
:1038E8001A6822F440421A601A6842EA87321A605B
:1038F800DA6822F4404242EA8132E605DA607FF56E
:1039080056AFDBE71A6822F440521A601A6842EA96
:1039180007321A60DA6822F4405242EA0132DA6069
:1039280022067FF541AFDBE71A6822F440621A608D
:103938001A6842EA87221A60DA6822F4406242EA88
:1039480081226006DA607FF52CAFDBE71A6822F483
:1039580040721A601A6842EA07221A60DA6822F48A
:10396800407242EA0122A506DA607FF517AFDBE76D
:103978001A6822F0C0021A601A6842EA87121A60AE
:10398800DA6822F0C00242EA8112E606DA607FF5C0
:1039980002AFDBE71A6822F030021A601A6842EABE
:1039A80007121A60DA6822F0300242EA0112DA607D
:1039B80022077FF5EDAEDBE71A6822F00C021A60E9
:1039C8001A6842EA87021A60DA6822F00C0242EAB0
:1039D80081026007DA607FF5D8AEDBE75477030829
:1039E8001A6822F003021A601A683A431A60DA6801
:1039F80022F003020A43A507DA607FF5C3AEDBE7CE
:103A0800264A55692C435461A9E600224FF0010C5F
:103A18004FF003090CFA02F636EA04002ED15000E2
:103A2800D3F808A009FA00F5ED430AEA050AC3F835
:103A380008A0D3F808B00EFA00FA4AEA0B0AC3F84D
:103A480008A0B3F804A02AEA06069E80B3F804A0EA
:103A580008FA02F646EA0A06B6B29E801E682E40AA
:103A68001E60D3F800A007FA00F646EA0A061E60B0
:103A7800DE6801FA00F035402843D8600132102A88
:103A8800C8D1BDE8F08F054AD5692C43D46166E6F4
:103A9800024A95692C43946161E600BF0010024018
:103AA8002DE9F04F4A484B4B4B4C4FF090414FF0AB
:103AB800010A4FF002094FF004084FF0080E4FF0CA
:103AC800100C20274026802530F8022B12F0010F19
:103AD80003D01960A3F804A0083312F0020F03D032
:103AE8001960A3F80490083312F0040F03D019608A
:103AF800A3F80480083312F0080F03D01960A3F864
:103B080004E0083312F0100F03D01960A3F804C0C2
:103B1800083312F0200F02D019609F80083312F08A
:103B2800400F02D019609E80083312F0800F02D037
:103B380019609D80083312F4807F05D04FF4807B94
:103B48001960A3F804B0083312F4007F05D04FF4CD
:103B5800007B1960A3F804B0083312F4806F05D015
:103B68004FF4806B1960A3F804B0083312F4006FA7
:103B780005D04FF4006B1960A3F804B0083312F4B1
:103B8800805F05D04FF4805B1960A3F804B0083358
:103B980012F4005F05D04FF4005B1960A3F804B07D
:103BA800083312F4804F05D04FF4804B1960A3F806
:103BB80004B00833D20B04D04FF4004219609A8045
:103BC800083301F58061A1427FF47EAFBDE8F08F34
:103BD8006C780308205E00200018004800B9704780
:103BE800036803F138422DE9F04F920AB24DAA5CFE
:103BF80002F01F0552090124022A04FA05F400F014
:103C08005F81032A00F05381012A00F00D8101F041
:103C180003077A1E012AC1F3810EC1F300188488B4
:103C2800C1F3411140F20581E6070BD51A6822F06D
:103C380003021A601A683A431A60DA6822F003022B
:103C48000A43DA60A5070DD51A6822F00C021A603B
:103C58001A6842EA87021A60DA6822F00C0242EA1D
:103C68008102DA6060070DD51A6822F030021A6006
:103C78001A6842EA07121A60DA6822F0300242EA49
:103C88000112DA6022070DD51A6822F0C0021A6004
:103C98001A6842EA87121A60DA6822F0C00242EA19
:103CA8008112DA60E6060DD51A6822F440721A60AD
:103CB8001A6842EA07221A60DA6822F4407242EA75
:103CC8000122DA60A5060DD51A6822F440621A604E
:103CD8001A6842EA87221A60DA6822F4406242EAE5
:103CE8008122DA6060060DD51A6822F440521A6003
:103CF8001A6842EA07321A60DA6822F4405242EA45
:103D08000132DA6022060DD51A6822F440421A60A0
:103D18001A6842EA87321A60DA6822F4404242EAB4
:103D28008132DA60E6050DD51A6822F440321A604D
:103D38001A6842EA07421A60DA6822F4403242EA14
:103D48000142DA60A5050DD51A6822F440221A60EE
:103D58001A6842EA87421A60DA6822F4402242EA84
:103D68008142DA6060050DD51A6822F440121A60A3
:103D78001A6842EA07521A60DA6822F4401242EAE4
:103D88000152DA6022050DD51A6822F440021A6041
:103D98001A6842EA87521A60DA6822F4400242EA54
:103DA8008152DA60E6040DD51A6822F040721A6072
:103DB8001A6842EA07621A60DA6822F0407242EA38
:103DC8000162DA60A5040DD51A6822F040621A6013
:103DD8001A6842EA87621A60DA6822F0406242EAA8
:103DE8008162DA6060040DD51A6822F040521A60C8
:103DF8001A6842EA07721A60DA6822F0405242EA08
:103E08000172DA6022040DD51A6822F040421A6065
:103E18001A6842EA87771F60DA6822F0404242EA6D
:103E28008171D960BDE8F08F244A55692C435461EB
:103E3800EDE600224FF0010C4FF003090CFA02F6F0
:103E480036EA04002ED15000D3F808A009FA00F58C
:103E5800ED430AEA050AC3F808A0D3F808B00EFA39
:103E680000FA4AEA0B0AC3F808A0B3F804A02AEA41
:103E780006069E80B3F804A008FA02F646EA0A0687
:103E8800B6B29E801E682E401E60D3F800A007FAC6
:103E980000F646EA0A061E60DE6801FA00F03540C0
:103EA8002843D8600132102AC8D1BDE8F08F034AF0
:103EB800D5692C43D461AAE6547703080010024060
:103EC800024A95692C439461A1E600BF00100240A4
:103ED80010B1036882881A85704700BF10B1036863
:103EE80082889A61704700BF18B1838811B102684F
:103EF800936170471B04FAE710B40A4B0A4A1C780E
:103F080001238340234052F8200029B9B3FA83F1F2
:103F180049095DF8044BE7E7191C18BF01215DF852
:103F2800044BE1E750560020545600201F4C08B5BA
:103F380001210220FFF7E0FF237803F00502052A9C
:103F480012D003F00903092B12D000210120FFF73A
:103F5800D3FF00210846FFF7CFFF3220FFF716FAFC
:103F68000220FFF7D7FBF8E724F0DDF82378E8E72D
:103F78000F4A104B11681A680B680F4C4FF6FE7009
:103F880003400B601388206823F001031B041B0CFB
:103F9800138018B12A2200238271C37102224E2194
:103FA800FDF784FE2068FFF793FFCEE7E02A0020A4
:103FB8004C2B0020442B0020482B00200E4B1B8844
:103FC80001463BB90D4B0E4A1B7810680BB981F0BE
:103FD800010189E70B4B5A691AB11A6810B91060C8
:103FE8005874704708480949008891FBF0F101208E
:103FF80011605874704700BF605600206256002058
:1040080064560020685600208056002020A1070032
:1040180030B102688388128A1A4214BF0120002036
:10402800704700BF2DE9F0410C4E356873691D409B
:1040380011D0DFF82C800127B5FA85F4C4F11F04EC
:1040480008EB840307FA04F4D3F8100103689847CF
:10405800A5437461F0D1BDE8F08100BF00040140C0
:10406800FC1B00202DE9F0410C4E356873691D409A
:1040780011D0DFF82C800127B5FA85F4C4F11F04AC
:1040880008EB840307FA04F4D3F81001036898478F
:10409800A5437461F0D1BDE8F08100BF0004014080
:1040A800FC1B00202DE9F0410C4E356873691D405A
:1040B80011D0DFF82C800127B5FA85F4C4F11F046C
:1040C80008EB840307FA04F4D3F81001036898474F
:1040D800A5437461F0D1BDE8F08100BF0004014040
:1040E800FC1B00202DE9F0410C4E356873691D401A
:1040F80011D0DFF82C800127B5FA85F4C4F11F042C
:1041080008EB840307FA04F4D3F81001036898470E
:10411800A5437461F0D1BDE8F08100BF00040140FF
:10412800FC1B00202DE9F0410C4E356873691D40D9
:1041380011D0DFF82C800127B5FA85F4C4F11F04EB
:1041480008EB840307FA04F4D3F8100103689847CE
:10415800A5437461F0D1BDE8F08100BF00040140BF
:10416800FC1B00202DE9F0410C4E356873691D4099
:1041780011D0DFF82C800127B5FA85F4C4F11F04AB
:1041880008EB840307FA04F4D3F81001036898478E
:10419800A5437461F0D1BDE8F08100BF000401407F
:1041A800FC1B00202DE9F0410C4E356873691D4059
:1041B80011D0DFF82C800127B5FA85F4C4F11F046B
:1041C80008EB840307FA04F4D3F81001036898474E
:1041D800A5437461F0D1BDE8F08100BF000401403F
:1041E800FC1B0020094A10B59369094C43F00103F0
:1041F800936104F588704022002130F0E3FD4FF010
:10420800FF33C4F85031C4F8533110BD00100240D8
:10421800FC1B002010B58B680160044698470022FB
:10422800FF230121A2736373217310BD03681B6A06
:10423800184700BF70B44E1C0568C2728672AC691C
:10424800A44670BC604700BF2DE9F04104461846FB
:104258000D4616461F462FF08DFF2844A072206891
:10426800E672294645693B4632462046AC46BDE8DB
:10427800F0416047036810B504461B6898472368F7
:1042880020469B689847A37B0133A37310BD00BFEA
:1042980010B5036804469B689847FF23012263739F
:1042A800227310BD38B50D46FEF734F8044640B108
:1042B80036238371C5712AF00BFC2046BDE83840CF
:1042C8000CE638BD38B50D46FEF724F8044648B16B
:1042D80035238371C5712021FFF780FC2046BDE896
:1042E8003840FBE538BD00BF0B4B984211D0A3F511
:1042F8007843984202D04FF0FF3070470122074BB5
:1043080003EB02135A89013292B25A81588980B25A
:1043180070470022F3E700BF00300140605A0020D8
:10432800F8B584894FF6FF764FF47A742BB311B33E
:104338000F78013101E0B44217D00589013CAD077F
:10434800A4B2F8D507734FF47A7402E0BCB2B44251
:104358000BD00589ED0704F1FF37F7D5057BEDB2E2
:104368000AB115700132013BE0E7FFF7BDFF0030ED
:1043780018BF0120F8BDFF27DFE70120F8BD00BF07
:1043880008B540F2E93300E09BB10289013B12F025
:10439800020F9BB2F8D0017340F2E93300E043B159
:1043A8000289013B12F0010F9BB2F8D0007BC0B22A
:1043B80008BDFFF799FFC0B208BD00BFF8B50546B4
:1043C800806816461F4610B1036882881A8541F036
:1043D8008001686840F2E93401E0002C44D0038988
:1043E800013C13F0020FA4B2F7D0017340F2E93197
:1043F80001E0002938D00389013913F0010F89B28F
:10440800F7D0037B68684FF0000C83894FF47A710A
:104418004FF6FF724FF0FF0E03E0013989B2914267
:104428001FD003899C07F8D580F80CE04FF47A7107
:1044380002E0A1B2914214D00389DB0701F1FF34F5
:10444800F7D5037BDBB20EB1337001360CF1010CEA
:10445800BC45E6D1AB6813B11A689B88936101200B
:10446800F8BDFFF741FFF5E7FFF73EFFCAE700BFDA
:10447800F0B5836983B0064613B11A689B88138523
:104488007069DFF8A0C08389C3244FF47A730627C4
:104498006D464FF6FF710CF1010C03E0013B9BB236
:1044A8008B421CD002899207F8D504734FF47A73B3
:1044B80002E0A3B28B4212D00289D20703F1FF3483
:1044C800F7D5027BD2B20DB12A7001354FB1013F49
:1044D800FF24BCF1000FE5D09CF80040DBE7FFF7B4
:1044E80003FFB36913B11A689B8893619DF80500AF
:1044F8009DF801509DF802109DF803409DF8042096
:104508009DF8063041EA052143EA002342EA0422E5
:104518000120A6F85010A6F85220A6F8543003B08F
:10452800F0BD00BF3C500308427A4AB110B50446BA
:1045380004F10A01D0E9003098470023637210BDE6
:10454800704700BF437A5A1C0344D2B24272997230
:10455800037A93420AD84AB110B5044604F10A0115
:10456800D0E9003098470023637210BD704700BF40
:10457800A8B10D4B012210B402FA01F103F1750440
:1045880002E00333A3420BD013F8012C8242F8D186
:104598001A780A42F5D001205DF8044B704770473D
:1045A80000205DF8044B70474550030830B40A4DAD
:1045B800002305F1780401E0272B0AD003EB43021E
:1045C8000133A15C8142F7D12A4430BC92F87A00C9
:1045D8007047002030BC7047CC4F0308024A13686C
:1045E80023EA0000106070476439002038B5494B51
:1045F8001B68B3F5FA7F7ED8474B9A89D989D87852
:10460800914224BF00229A81598A1A8A914224BF72
:1046180000221A8201280DD9404A414D92F85C10B7
:10462800012400220A292C709C709A7134D1DFED84
:104638003D7A15E09A7922B199780429B8BF042106
:104648009970364991F85C100A2959D00C2925D15E
:10465800DFED357A9FED357A002A18BFF0EE477AFC
:10466800334CA278062A97BF3249DFED306A01EB56
:104678008201D1ED3C6A2179B9B1013A032A0AD8FD
:10468800B7EE000A80EE260A30F050FC23889842E4
:1046980028BF1846208038BD0C2903D0012835D9F9
:1046A8000A2930D0DFED247AD4E79B781C4907EE3D
:1046B800103A0A78B8EEC77A67EE277A07EE102A1A
:1046C800B8EEC77A27EE277AF4EEC76AF1EE10FA49
:1046D800E1DD86EEA77AFDEEC77A17EE903A102B49
:1046E800A8BF1023012BB8BF0123DBB29A4238BF01
:1046F8001A460A7038BD4FF00050FFF76FFF7BE78E
:10470800DFED0E7AA6E7DFED077AA3E7DFED0C7A97
:10471800A0E700BF705F0020505F0020805F00208E
:10472800403900200F506E3A0AD7A3396F12033868
:104738008C680020CC4F03086F12833A5304E93881
:104748006F120339F8B5AD490B78A3F11702022AA5
:104758000FD9AB4A12F83300002840F01581D80071
:10476800024452782AB1A74A12F83330002B00F0DD
:10477800E4810024A44EA54F2546315B4B0803F085
:1047880077334FEA910C0CF0333CCB1ACA08A3EBF1
:104798000C0302F011329B1A03EB231303F00F33BF
:1047A800A7FB03C2D209C2EB02229A1A11F0010335
:1047B8001CBF0135EDB2012A06EB040004F1080420
:1047C8000BDD022A40F0DC8013B111F42F7F04D1F5
:1047D8001EF06CF8002800F0D380302CCDD1013DBC
:1047E800022D00F2CD808020FFF7F8FE884A53782A
:1047F800052B58D8874903EBC30301EB4301137812
:104808008548864C0160022B49D803EB430104EB31
:10481800411103EB430304EB4313814D9A88D88875
:10482800296090427F4924BF00229A808B78042B0C
:1048380000F0B38033B90B88B3F5F07F84BF4FF431
:10484800F0730B80784DFFF7D1FE2B68774A1A403A
:10485800002A00F0CA80DA0700F1CA805F0400F17C
:10486800B1801E0700F1B580980400F1B9801904E1
:104878006F4A7DD50023D37382F82330137EB3B1FA
:10488800537E032B00F03781012B1FD0022B24D03D
:1048980000232383A4F87830A4F8D8303BE1002320
:1048A80021461370B5E700235A495370A7E7A3813F
:1048B8006382A4F86C30A4F87230A4F8CC30A4F861
:1048C800D2302383A4F87830A4F8D830002384F8B1
:1048D8004F3084F8AF3084F80F31564BDA79022A1A
:1048E80008BF01224FF00A0008BFDA7124F0AAF9C4
:1048F800002840F0AD804FF4806026F05DFF00286E
:1049080000F01E814FF40070FFF768FE4FF400506E
:10491800FFF764FE4FF48040FFF760FE4FF48030ED
:10492800FFF75CFE4FF40030FFF758FE424C4FF0A3
:104938000070FFF753FE4FF08060FFF74FFEA3882B
:10494800002B38D13D4A1368DB0DDB050BB1002382
:104958001360936823F4007323F002030BB1002360
:1049680093601379013B042B01D901231371F8BD1E
:10497800D17B002900F0D880002382F823307DE71E
:10498800214826F069F92EE7D80014186468002C2D
:104998007FF4E6AE17240C70E2E64FF48050FFF780
:1049A8001DFE8B8AB3F57A7F37BF4FF47A728B7806
:1049B8008B788A823EE72078FEF78AF90028C1D1F1
:1049C800A080BFE71E48FFF709FE2B681E077FF58A
:1049D8004BAF1C48FFF702FE2B6898047FF547AFE2
:1049E8001948FFF7FBFD2B6841E743F001032B60F3
:1049F8001648FFF7F3FD2B6830E700BF003B0020A7
:104A0800D4790308905A0308C874002081808080F4
:104A1800848C0020F830002010460020AE2F0020A3
:104A28000C4600208C6800206439002009600002D0
:104A3800FC6B00203C4F0020FA2A0020844F002005
:104A4800092000020160000209400002086000021B
:104A58003E4F002207F1060E1146944601EB410035
:104A6800430017F810000A2807EB030540D05B1B2A
:104A780028464E1CEABB7344142E1D443FF43BAF3A
:104A880010F8062F0A2A08D00136142E1D443FF4C8
:104A980032AF10F8062F0A2AF6D101229319132BE8
:104AA80015D803EB430007EB400117F810000A285C
:104AB80008BF013305D012E011F8064F0A2C0ED1B9
:104AC8000346132B02F1010203F10100F4D9C5F8E2
:104AD80000C0A5F804C0711C1429BFD10BE703EB73
:104AE800430307EB4303196829609B88AB80F2E70F
:104AF800BAB10E46D2E70023A3816382A4F86C30D2
:104B0800A4F87230A4F8CC30A4F8D2302383A4F8E7
:104B18007830A4F8D830537E023B022B3FF6D6AE4D
:104B2800DBE60E460122B9E742F201010B423FF4EF
:104B3800A5AE002382F82330A0E618230B7018E6F0
:104B48004FF00060FFF74AFDDCE600BF283C00207C
:104B58002DE9F84F17F040F82B4B2C4A934250D2CE
:104B68002B4F03F114069B464FF00108294C25886A
:104B780062197DB1BA420DD2052D0BD936F8143C15
:104B88006188C3F30B0399420AD014462588621939
:104B9800002DEFD156F8101C5846FCF7A3F80FE08B
:104BA800637913F0030AF0D156F8101C94F80490B6
:104BB8005846FCF797F836F8141CB9EB113F11D09A
:104BC8004FF00008114B0BF1140B9B4506F114062E
:104BD800CCD3FFF7B7FDFCF7B3FD16F09DFF4046B9
:104BE800BDE8F88F36F8123C56F8100CAA1FC3F32C
:104BF8000B039A4204F10601A8BF1A4630F0BEF82A
:104C0800E0E74FF00108E4E784B7030834BC030881
:104C18000000040802F0030870B502221349144C7E
:104C2800144E4FF6FF70FBF713FE22884AB1A51801
:104C3800B54218D2052A16D92146FBF709FE2C469B
:104C4800F3E721460222FBF703FE0222A118FBF735
:104C5800FFFD094BE41A094B1C8041F60F53C31A98
:104C68005842584170BD0020FCE700BF00F003081F
:104C780002F0030800000408FAEF0308DA4B0020EA
:104C88002DE9F04F8DB0FFF75DFDDFF87891584FB3
:104C9800DFF8748116F0A0FF564A574BB2F80C2182
:104CA800ADF80620A3EB090300934FF0030A002692
:104CB800CDE90866CDE90A66009BCDF81890079300
:104CC800D8F810301B0606D54C4BC8F8043003F151
:104CD8008833C8F8043001238DF82C303423C8F801
:104CE8000C300222BDF80630ADF8083002A906A83B
:104CF800FCF7A6FB022202A94FF6FF70FBF7A8FDFE
:104D08003F4BBB42834629D21C46658823888DF8D1
:104D18001560C5F30B05C3F30B00A91D1B0B062279
:104D2800ADF81010ADF8120004A906A88DF81430DB
:104D3800FCF786FB5846062204A9FBF789FD616843
:104D480083462A4606A8FCF77BFB616858462A4634
:104D5800FBF77EFD1434BC428346D6D3022203A956
:104D680006A8ADF80C60FCF76BFB022203A95846B5
:104D7800FBF76EFD40BAC343022204A906A8ADF8AA
:104D88001030FCF75DFB099820BB0A989DF82C3081
:104D98005BB990B1BAF1010A8AD10520FDF7B2FFDB
:104DA80016F0BAFE0DB0BDE8F08FD8F8103043F019
:104DB8008003C8F810300028ECD199F80030AB2BEC
:104DC800EBD199F80130BE2BE7D1FFF725FF00287A
:104DD800E6D1E2E708ABC0F10402002118442FF045
:104DE800F1FF089906A8FCF7D1FACDE90960CDE7EB
:104DF80034BC0308CC4F03080000040823016745AE
:104E080084B7030800F003080020024008B5FFF744
:104E180037FFFFF79DFE0120BDE8084026F064BE7D
:104E28002DE9F047D54C2DED028B63682046984755
:104E3800002800F0D080D24B1B780122042B84F884
:104E4800342000F0CC80B4F9163006EE903AB4F96C
:104E5800183007EE103AB4F91A3007EE903AF8EE27
:104E6800E66AB8EEC77AF8EEE77AC4ED0A6A84ED26
:104E78000B7AC4ED0C7AC34B1B88002B60D0C24B55
:104E880094ED0A2AD4ED0B2A94ED0C3A93ED008A9E
:104E9800D3ED054A93ED090AD3ED0E3AD3ED120A84
:104EA80093ED174A93ED011A93ED065AD3ED0A1ABA
:104EB80093ED0F6AD3ED137A93ED187AD3ED045A74
:104EC800D3ED0D6AE8EE024AE0EE223AA3EE204A5C
:104ED800A1EE025AA1EEA26AA3EE277A93ED038A05
:104EE800D3ED167A93ED020AD3ED0C0A93ED0B1A63
:104EF800D3ED151AC4ED0A4A65EEE45AA8EE645AD1
:104F080066EEE36AD3ED144A83ED055A67EEC47A78
:104F1800E0EE025AA0EEE36AE1EE226AA4EE617ABC
:104F2800E3EE247AC3ED065AC4ED0B3A83ED0E6A1C
:104F3800C3ED0F6A83ED177AC3ED187A84ED0C4A36
:104F4800924EA17F9248934D16F022F83288D5F8F8
:104F58000431002A40F098808F4A126851075BD4C8
:104F6800B3F9002094ED0B6A94ED0C7A94ED0A5A8B
:104F78008A4905EE902AB3F90220B3F9043006EE07
:104F8800902A07EE903AF8EEE55A854B0A68D3ED79
:104F9800003A93ED014AD3ED024AF8EEE66AF8EEDC
:104FA800E77A75EE655A76EE666A77EE677AC4ED4B
:104FB8000A5A34EE266A73EEA55A34EEA77A0132FD
:104FC800C3ED005AC4ED0B6A83ED016AC4ED0C7A97
:104FD80083ED027A0A60BDEC028BBDE8F087B4F974
:104FE8001600B4F91810B4F91A206E4B07EE900A9F
:104FF800F8EEE76A07EE901AB8EEE77A07EE902A1D
:10500800F8EEE77AC4ED0A6A188059809A8084ED30
:105018000B7AC4ED0C7A2EE7634E3288322A00F000
:10502800CD80002A40F01881604E3278002A97D04F
:105038005F4FD5F87821D5F87011D5F8740187FB42
:1050480002ECD217C2EB2C12B4F814C0A2EB0C027B
:105058009A8087FB01C287FB00C7C017C0EB2710E7
:10506800C917544F5880C1EB2211002232701980A1
:10507800BA81FA81FFF704FEFFF76AFD012026F0E6
:1050880033FDD5F804316BE7B2F5C87F18BFD5ED0D
:10509800567AD4ED0A6A0CBF9FED477AB8EEE77AE4
:1050A800DFED457A0022C4ED0A7A1A803288378803
:1050B80037EE267AB2F5C87F18BFD5ED577ABDEE20
:1050C800C77A18BFF8EEE77A17EE101A85ED567A08
:1050D80094ED0B7A77EE877A0020FDEEE77A4FF0B1
:1050E800000CB7F5C87FE06217EE902AA3F802C05B
:1050F800C5ED577A00F0A680D5ED587A94ED0C7A74
:105108002063F8EEE77A012F77EE877AA3F804C0D8
:10511800FDEEE77A17EE900AC5ED587A2AD1DFF846
:1051280090E0B4F81480C8308EFB00A9C831C832AA
:10513800C017C0EBE9108EFB01A98EFB02AED21797
:10514800C2EBEE12C917DFF86CE05A80C1EBE91127
:10515800A0EB080098801980AEF80CC0AEF80EC01D
:10516800FFF78EFDFFF7F4FC384626F0BDFC3788C4
:10517800D5F80431013F3780EEE600BFD045002066
:10518800347500207034002074340020101F002073
:10519800F8450020FC1B002008660020584A002023
:1051A8005C4A002040750020D0240020CE24002036
:1051B8001F85EB510477002000000000514A196850
:1051C800D268C5F86C219FED507A9A88C5F86411A9
:1051D800A5F86821DFED4C7AD4ED0A6AC4ED0A7AA5
:1051E80000221A80328837EE267A322A18BFD5ED87
:1051F8005D7A3288BDEEC77A18BFF8EEE77A85ED9A
:105208005C7A94ED0B7A77EE877A0020FDEEE77AE8
:105218000021322AE062C5ED5D7A598042D0D5ED91
:105228005E7A94ED0C7A2063F8EEE77A012A77EE3D
:10523800877A9980FDEEE77AC5ED5E7A11D0013A5A
:105248003280F1E6D4ED0C7A2063FDEEE77AA3F81C
:1052580004C0C5ED587A8DE7D5ED5C7AB8EEE77AEB
:10526800B8E72A482A4F0068DFF8B8C03A708203C6
:105278008CF800103CD427480021024617780B2FE1
:1052880002F10C0217D001311829F7D1D5F86421A1
:105298001C491A60B5F86871D5F86C019F8032888E
:1052A800C860CCE7D4ED0C7A2063FDEEE77A9980EC
:1052B800C5ED5E7AC3E7184FD7F800E04A00BEF1A3
:1052C800000F09D002EB010C00EB8C0C9EF801E0FA
:1052D8009CF801C0F445D9D20A44DFF84CC00F4904
:1052E80000EB820000223860ACF800200A60CDE7AD
:1052F8000B4A1278032ABED126F0F0FAD5F8043109
:10530800C4E700BF0477002000000000844F00209D
:10531800CD240020BC5F03081C1F0020241F002090
:10532800F8430020D2240020201F002030B4026857
:105338001146531C036011F8024B0160D31C5178CD
:1053480003609378151D05601B0443EA0123D07898
:10535800234343EA006030BC704700BF0368591C10
:105368001A46016012F8021B0260587841EA0020D0
:10537800704700BF03685A1C02601878704700BF66
:1053880038B50446006815462FF0F8FC22682A4410
:10539800226038BD036810B40A0A5C1C04601A70E5
:1053A80003685A1C026019705DF8044B704700BF0F
:1053B80003685A1C026010B4197003680A0A5C1C5E
:1053C80004601A7003680A0C5C1C04601A70036895
:1053D800090E5A1C026019705DF8044B704700BF33
:1053E80003685A1C026019700368090A5A1C026093
:1053F8001970704707EE901AF8EE677A9FED837A76
:1054080027EE800A20EE070AFDEEC07A17EE903AE2
:105418002033402B00F28180DFED7D7AB4EEE70A7D
:10542800F1EE10FA40F3E680B0EE407A9FED796A2B
:10543800DFED796A01E0B0EE677AB4EEE67AF1EE74
:1054480010FA77EE467AF6DC9FED747AF4EEC77AB6
:10545800F1EE10FA40F1D1809FED6E6ADFED706ACF
:1054680001E0F0EE477AF4EEE67AF1EE10FA37EE64
:10547800867AF6D4DFED6B7AB4EEE77AF1EE10FABD
:1054880040F3A780DFED627A37EEC77A27EE076A26
:10549800DFED655ADFED657ADFED656A9FED655AE8
:1054A800E6EE257A67EE065AE6EE276AF7EE007A08
:1054B800A5EEA67AF0EE675AE7EE055AE7EE457ACA
:1054C80087EEA55ADFED577A30EE277AFDEEC76AE8
:1054D80016EE903A2033402B24D99FED577AF6EEFA
:1054E800006AB7EE006AF7EE004AC4EEA57A002318
:1054F800836143610362C36180ED045A67EEA66A63
:1055080027EE866A27EE877AC0ED006AC0ED026A48
:1055180080ED016A80ED037A7047B7EE005AF0EE2D
:10552800455ACFE7B4EEE70AF1EE10FA6BDD9FEDCE
:10553800396ADFED396A01E0B0EE677AB4EEE67AEF
:10554800F1EE10FA77EE467AF6DC9FED347AF4EE57
:10555800C77AF1EE10FA53D59FED2E6ADFED306A67
:1055680001E0F0EE477AF4EEE67AF1EE10FA37EE63
:10557800867AF6D4DFED2B7AB4EEE77AF1EE10FAFC
:1055880033DCDFED2E7AB4EEE77AF1EE10FA44BFA1
:10559800DFED227A37EEC77A27EE076ADFED224A77
:1055A800DFED226ADFED227AE6EE246A67EE064A2C
:1055B800E6EE267AB7EE006AA4EEA77AF6EE006A5F
:1055C80036EE476AF8EE007A27EE277A66EE266A04
:1055D80089E7DFED1A7AB4EEE77AF1EE10FA44BF04
:1055E800DFED0E7A37EEC77A50E7DFED097A37EE4E
:1055F800C77AD1E7F0EE407A26E7B0EE677A39E766
:10560800B0EE677AB6E7F0EE477A9EE727D4D2364F
:10561800DB0F4940DB0FC940E4CB1641DB0F49C023
:10562800E4CB16C1DB0FC93F92E741B99730083C7C
:1056380015A82ABEF304353F00000000DB0FC9BFE0
:10564800DFED2B7AB4EEE70AF1EE10FA4ADDDFED72
:10565800296A9FED297A01E0B0EE670AB4EEC70A1D
:10566800F1EE10FA70EE667AF6DC9FED247AF4EE2D
:10567800C77AF1EE10FA38D5DFED1E6A9FED207A71
:1056880001E0F0EE407AF4EEC77AF1EE10FA37EE68
:10569800A60AF6D4DFED1B7AB4EEE70AF1EE10FAAB
:1056A80014DDDFED137A37EEC00A60EE006A9FED75
:1056B800166A9FED167ADFED167AA6EE867A20EE48
:1056C800266AE6EE877AA6EE270A7047DFED117A9A
:1056D800B4EEE70AF1EE10FA44BFDFED087A37EED0
:1056E800C00AE2E7F0EE407ABFE7B0EE670AD1E71A
:1056F800DB0F4940DB0FC940E4CB1641DB0F49C043
:10570800E4CB16C1DB0FC93F92E741B99730083C9B
:1057180015A82ABEDB0FC9BF02B370B48E1803E008
:10572800121B14D1B14215D010F8012BA2F141037C
:10573800192B11F8013BA3F1410598BF2032192D0F
:1057480003F12004ECD9D21A01D1002BEAD110467A
:1057580070BC70470022104670BC704710467047F6
:1057680070B5044608460D462EF004FD064602E0D4
:1057780014F8013F43B1324629462046FFF7CCFFD3
:105788000028F5D1204670BD1C46204670BD00BFDC
:105798004FF0FF32FFF7C0BFA0F16103192B98BF8C
:1057A80020387047A0F14103192B98BF203070476B
:1057B800202805D0093804288CBF00200120704714
:1057C8000120704738B501460B781846FFF7F0FFFF
:1057D8000A4601310028F7D12B2B27D02D2B24D0B6
:1057E800A3F13004392B4FF00001154DE4B20FD866
:1057F800092C01EB81030BD8A94213D810D004EB74
:10580800430112F8013FA3F13004392BE4B2EFD978
:1058180078B1B1F1004F28BF4FF00041484238BD80
:10582800052CECD94FF0FF31EBE70120537801321A
:10583800D6E76FF00040884228BF084638BD00BF51
:1058480099999919613819288CBF0020012070474F
:10585800413819288CBF00200120704730380928AA
:105868008CBF002001207047A0F13003092B07D915
:1058780020F02000413819288CBF002001207047F3
:10588800012070470378202B024600F10100F9D06F
:10589800092BF7D02D2B00F0A4802B2B03BF5378B6
:1058A800B7EE000A0246B7EE000AA3F13001C8B20B
:1058B80009289FED577A10D8F2EE046A07EE901A7D
:1058C800F8EEE77A12F8013FE7EE267AA3F1300105
:1058D800C8B20928B0EE677AF0D92E2B63D003F04E
:1058E800DF03452B02D020EE070A704710B4517829
:1058F8002D294FD02B2979D0A1F13003092B02F1A2
:1059080001027AD80024002303EB830301EB43034D
:1059180012F8011FA1F130000928A3F13003F3D9CF
:10592800B3F59A7F1A4628BF4FF49A72072B6CD9A1
:10593800DFED386A1346F7EE007A083B072B67EE6F
:10594800A67AFAD802F00702DAB1F2EE046A012A5E
:1059580067EEA67A15D0022A67EEA67A11D0032A36
:1059680067EEA67A0DD0042A67EEA67A09D0052A32
:1059780067EEA67A05D067EEA67A062A18BF67EE04
:10598800A67A002C3BD087EE277A5DF8044B20EEF0
:10599800070A70479178A1F13003092B02F102023E
:1059A80030D80124AFE75378A3F13001C8B20928F1
:1059B80002F1010293D8F2EE046AF0EE665A07EE9D
:1059C800901AF8EEE77A12F8013F87EEA66AA3F17B
:1059D8003001C8B2092866EEA56A37EE067AEED914
:1059E8007DE75378BFEE000A02465EE79178A1F1A1
:1059F8003003092B02F1020284D9F7EE007A27EE70
:105A0800277AC2E7F7EE007ABDE7F7EE007A9BE760
:105A18000000000020BCBE4CF8B5064615460846F6
:105A2800B6FBF2F434B905FB14640C4B1B5D00F8AB
:105A3800013BF8BDB4FBF2F75FB905FB1747074B0D
:105A480005FB1464DA5D00F8012B1B5D00F8013BCF
:105A5800F8BD3846FFF7E0FFEFE700BFE47C030836
:105A6800B5EEC00ADFED677A674AF1EE10FACCBFEF
:105A780030EE270A30EE670ADFED647A20EE270A57
:105A88002DE9F047FDEEC07A88B017EE904A84EA17
:105A9800E4760023A6EBE476CDE902330493A2FB77
:105AA80006325FEAD208054641D105AF5848394663
:105AB800554BA3FB0623DB0803EB8303A6EB430349
:105AC800002CC35C0B704FF00002ACBF20232D23C9
