:020000040800F2
:10000000002000100D4E03083D38030831BB0108E5
:100010003B3803083938030837380308000000006C
:100020000000000000000000000000003538030858
:10003000333803080000000031380308EDBB010825
:10004000754E0308754E0308754E0308754E030878
:10005000754E0308754E0308FD180008291A00089C
:10006000ED190008B119000875190008616D000844
:10007000516D0008416D0008316D0008216D0008C8
:100080000D6D0008F96C0008754E0308754E0308E5
:10009000D93B0308754E0308754E0308391900084B
:1000A0006DA5010811AA0108754E0308CDAA010823
:1000B00055A9010899A80108D1A70108754E0308A0
:1000C000754E0308754E0308754E0308754E0308F8
:1000D000754E0308B1C8010835C80108B9C7010841
:1000E000C1180008754E030821380308754E03082F
:1000F00039A60108754E030805A70108754E0308C7
:10010000000000000000000000000000754E030821
:10011000754E0308754E030889B5020875B50208C7
:10012000E56C0008D16C0008BD6C0008A96C0008E3
:10013000956C0008754E03080000000000000000E8
:10014000754E0308754E0308754E03080000000045
:10015000000000000000000000000000000000009F
:100160000000000000000000754E0308754E0308F3
:10017000754E0308000000000000000000000000B1
:0801800000000000754E0308A9
:1001880000232322027043708370C370704700BF3E
:10019800437A5A1C0344D2B242729972037A934248
:1001A8000AD84AB110B5044604F10A01D0E9003072
:1001B80098470023637210BD7047CB0702D4024BE7
:1001C800024ADA60704700BF00ED00E00400FA055B
:1001D80020B10078B0FA80F04009704701207047DC
:1001E800037903F01803082B0AD002D82BB100209A
:1001F8007047102B16D0182BF9D1B0F80B007047A8
:10020800114BB0F80B0093F90030591C06BF0F4B87
:100218001B78DBB2C3EB0312C3EB820300EB430092
:1002280080B27047084BB0F80B0093F901305A1CA4
:1002380006BF064B5B78DBB203EB430203EB82039A
:1002480000EB430080B27047000000205885002072
:10025800F0B5067906F06003402B09D144794FF0D8
:10026800FF350023012006F00706A3420BD1F0BD9D
:10027800602B08BF45794FF001040CBF04FA05F55F
:100288004FF0FF35EDE7042E0CD8DFE806F0030D3C
:1002980018242E0030B1C85CD75C784028420CBFC7
:1002A800012000200133E0E70028FBD0C856D756CC
:1002B800A0EB070CDCF1000040EB0C00F2E7002893
:1002C800F0D031F8130032F81370784028420CBF90
:1002D80001200020E6E70028E4D031F9130032F9C4
:1002E8001370C71B78427841DCE70028DAD051F850
:1002F800230052F82370784028420CBF01200020C8
:10030800D0E745E790ED057A90ED004AD0ED066A12
:10031800D0ED014AD0ED047A90ED035AD0ED025A9F
:10032800A4EE007AB0EE406AB0EE470AB0EE667A04
:10033800A4EE867A67EEC07AA5EE407AE5EE867A74
:1003480080ED057AC0ED067A704700BFD0ED057ADA
:1003580090ED013AD0ED003AD0ED064A90ED024A10
:1003680090ED077A90ED035A90ED086AD0ED045AA3
:10037800C0ED067AF0EE406A27EE830AC0ED056A02
:10038800A3EEA60A80ED087AA4EE240AA5EE470A91
:10039800A5EEC60A80ED070A704700BFD0ED007AC7
:1003A80090ED017A30EE670AE7EE007AB0EE670A60
:1003B800C0ED007A704700BF704700BF0378202B5C
:1003C800024600F10100F9D0092BF7D02D2B00F0DF
:1003D800A4802B2B03BF5378B7EE000A0246B7EE72
:1003E800000AA3F13001C8B209289FED577A10D846
:1003F800F2EE046A07EE901AF8EEE77A12F8013F77
:10040800E7EE267AA3F13001C8B20928B0EE677A80
:10041800F0D92E2B63D003F0DF03452B02D020EE5A
:10042800070A704710B451782D294FD02B2979D05D
:10043800A1F13003092B02F101027AD8002400232C
:1004480003EB830301EB430312F8011FA1F1300012
:100458000928A3F13003F3D9B3F59A7F1A4628BFC8
:100468004FF49A72072B6CD9DFED386A1346F7EE12
:10047800007A083B072B67EEA67AFAD802F0070243
:10048800DAB1F2EE046A012A67EEA67A15D0022ADA
:1004980067EEA67A11D0032A67EEA67A0DD0042A51
:1004A80067EEA67A09D0052A67EEA67A05D067EE28
:1004B800A67A062A18BF67EEA67A002C3BD087EEEC
:1004C800277A5DF8044B20EE070A70479178A1F16E
:1004D8003003092B02F1020230D80124AFE7537828
:1004E800A3F13001C8B2092802F1010293D8F2EE53
:1004F800046AF0EE665A07EE901AF8EEE77A12F8F8
:10050800013F87EEA66AA3F13001C8B2092866EE5A
:10051800A56A37EE067AEED97DE75378BFEE000A72
:1005280002465EE79178A1F13003092B02F102023D
:1005380084D9F7EE007A27EE277AC2E7F7EE007A39
:10054800BDE7F7EE007A9BE70000000020BCBE4C38
:100558000028F0B403DA2D230B704042013109283A
:1005680004464FF0010307DD03EB83035B00B0FB98
:10057800F3F2092AF8D883B10F48A0FB0326B4FB8D
:10058800F3F2092A02F1570C02F1300709DD03FBE7
:100598001244F30801F801CBEFD100230B70F0BC33
:1005A800704703FB1244F30801F8017BE5D10023EF
:1005B8000B70F0BC704700BFCDCCCCCC884270B477
:1005C8004FF0010442D301FB04F4B0FBF4F58D4273
:1005D800F9D2ECB142BB092D04FB150005F1570611
:1005E80005F130020EDDB4FBF1F403F8016B7CB1C8
:1005F800B0FBF4F5092D04FB150005F1570605F1CC
:100608003002F0DCB4FBF1F403F8012B002CEFD13D
:1006180000221A7070BC704703F8016BB4FBF1F448
:10062800002CF5D0B0FBF4F5092D04FB150005F1FD
:10063800370605F13002EFDCB4FBF1F403F8012BC7
:10064800002CEFD100221A7070BC70470546002AB2
:10065800EAD1C0E703685A1C02601970704700BFEE
:100668002DE9F047089C2578002B804689460CBF69
:100678004FF0200A4FF0300A661C25B3002A26DD09
:10068800334601E0024698B113F8011B501E0029B9
:10069800F8D1971E60B13D46013D51464046C847D6
:1006A8006B1C002BF8DC257827EAE770013045B190
:1006B800041B29464046C847301916F8015B002D2F
:1006C800F7D1BDE8F087002A03DC2846F9E70020C7
:1006D800EEE7571EDFE700BF034600F11001FF22D7
:1006E8001A705A7002339942FAD1027042708270BD
:1006F800C27002714271704730B401233E25002454
:1007080002212C22857004704170C2700371C3717C
:1007180030BC704730B41522162317252D242E21FE
:10072800027043702F22FF23857044718171C2715A
:1007380043738373C37003710372437230BC704791
:100748000123212100224170C27003708370704719
:1007580030B402230025012414213D220570847041
:10076800C17082714370C37130BC7047084B09492E
:100778008B4203D309E014338B4206D21A88C2F3A2
:100788000B029042F7D1184670470023184670476D
:100798000CD30308E4D7030870B50546B0F8090080
:1007A800FFF7E4FF064B1E7804462846FFF718FDBE
:1007B80016B1A368184470BD63681844FBE700BF0E
:1007C800E80E002038B505460C46FFF7E5FF2A7904
:1007D80002F0070302F06002602A28D1022B0ED033
:1007E800042B18D03BB96A7901239340DBB2027815
:1007F80014B11343037038BD22EA0303FAE76A7998
:10080800012393409BB2028814B113430380F2E79B
:1008180022EA0303FAE76A79012303FA02F203687A
:1008280014B113430360E6E723EA0203FAE7042B53
:10083800E1D8DFE803F00303050507000470DAE7F1
:100848000480D8E70460D6E7002306214FF47A72C3
:100858000170C0E90123037370472DE9F04FDFF8F9
:10086800DCC1754CDCF804502288B4F90AA0C2EB4C
:1008780025135200C2EBE502B4F902505B436A4308
:10088800B4F904501B135D43AD1305EBE225B5F530
:10089800FA324FEAE57B85B04BF1FF33CDE900230F
:1008A800DDE900325343009AA561A2FB0289CDE934
:1008B8000201B4F908200199009809EB4309514352
:1008C800D31700FB0311A2FB00230B444FEAEA7B7A
:1008D8000AFB09F11F0308FB0B13AAFB08011944C3
:1008E8004FEA102A4AEA016A16034FEA212B47EA1F
:1008F80012571AEB0602E6884BEB070312F1000ABF
:1009080043F5004BAAFB060106FB0B114A10CB1757
:1009180052EA030100F08E80B4F91060009806FBDB
:1009280009F1F71708FB0711A6FB08673944B4F962
:100938000E808B4601994FEAE87908FB01F100FB2C
:100948000911A8FB00898944DCF808104FEA4947D7
:10095800C1F5801C47EAD837B2464FEA4846B4F991
:100968000C801AEB060A66464BEB070BF7174FEAA3
:10097800C806019600260096F907DDE900674FEAE8
:10098800CC7016EB0A0647EB0B0741EA5C01801BAB
:1009980061EB070140F6354C8946A0FB0C010CFBC6
:1009A800091134F063F8B4F91620B4F914A04E1301
:1009B800470B47EAC14702FB06FCD31707FB03CCEA
:1009C800A2FB07236344564307FB0366A2FB0723E6
:1009D8003344560E46EAC31632184FEA636747EBAC
:1009E800010380460AFB01F14FEAEA7B08FB0B177B
:1009F800AAFB08013944C60C46EA413612EB060840
:100A08004FEAE147B4F9122043EB07094FEA1821EE
:100A180041EA096113010B44029A0AB11B0A1360E7
:100A2800039B23B105EB850580352D121D6005B0AC
:100A3800BDE8F08F0023EFE708210020E80E002032
:100A4800704770474FF4006303837047012380F8B1
:100A58005030704770B4D0E90041057B0269022329
:100A6800AB4063600B684FF6FE7003400B60EFF31A
:100A78001183502181F31288D66B3168C9071CD4C1
:100A8800706870B9D2E909418C4213D095690D4458
:100A9800F56017D81469611A71609062002182F8B4
:100AA8005810326842F00102DBB2326083F31188D9
:100AB80070BC7047012182F85810DBB283F31188AB
:100AC80070BC7047611A71609462E7E770B404689B
:100AD800037B2268022101FA03F31A4213D0026948
:100AE8000A49642000FB02124FF6FE761569506829
:100AF80029680068528931402960C168D24392B29E
:100B08000A40C260636070BC704700BF4468002040
:100B180010B50168047B0A680223A3401A420AD070
:100B2800054A406800241470026822F00102120489
:100B3800120C02604B6010BD6C56002030B40122CC
:100B48000023102511244FF6FF714570447102727D
:100B58000270027143818381C3810182817430BC38
:100B6800704700BF00230122827003704370C37076
:100B7800704710B50368017B1A6802238B40134243
:100B880004460FD00F4AD3680133202BD3600AD113
:100B9800182200210C4834F08CFB217B22680223A8
:100BA8008B40536010BD222BF7D10023D360074A36
:100BB80013704268136823F001031B041B0C1360B5
:100BC800EBE700BFE80E0020A413002095130020D7
:100BD80008B5202134F084FB0346184623B1027877
:100BE800202A03F10103F8D008BD00BF38B52C2234
:100BF800002134F05EFB034640F2DC51642040F2F1
:100C08001A4240F2022418745982132019219A8238
:100C180040F2753240F26C751C8398760E240220DF
:100C28001977DA830A210122DD8283F82A0040F647
:100C3800430583F82B1083F822409A7383F8252004
:100C480083F829201D8419460248BDE838400FF072
:100C580087B900BFE8990308014B18681CF040BC2D
:100C6800A432002038B5074C074DAC4203D3074BDC
:100C780000221A7038BD6288D4E9010134F0F5FA0F
:100C88001434F2E70CD30308E4D70308E80E002075
:100C980038B5074C074DAC4203D3074B01221A70F5
:100CA80038BD6288D4E9011034F0DFFA1434F2E771
:100CB8000CD30308E4D70308E80E002010B5002180
:100CC800044601201AF004F9207010BD2FF07ABBF9
:100CD800F0B5244E244C37782378BB4283B035D105
:100CE800224B1D7885B3BC46214B002003EBC5057C
:100CF8001A6899885062D4682143D160083323F870
:100D0800040C9D42F4D167451ED00CEB8C02920076
:100D180018498B588D18BBB92B7AABB96A7A9AB92E
:100D28000CF1010303F00303D8B2B84230700BD0C2
:100D380003EB83039C000B1901911A721AF07EFDD4
:100D48006B68019903440B5103B0F0BD2AF00CF90C
:100D58000028F9D0054B27781D7896F800C0002D9B
:100D6800C2D1D0E7653F0020643F0020646B0020BB
:100D7800686B0020683F0020054B53F8203033B1E2
:100D88001A689B88918A0B4218BF1B0493617047AD
:100D98006859002003682DE9F04F03F13845A94E42
:100DA800AD0A0124755D05F01F066D09022D04FAD0
:100DB80006F400F08D81032D00F08581012D00F0EF
:100DC8003B818088B0FA80F4C4F11F04A4B2E5081E
:100DD80003EB850504F007042E6AA4000F27A7403B
:100DE80026EA07062E622E6A01F0030702FA04F4C7
:100DF8007A1E3443012AC1F3810EC1F300182C6214
:100E0800C1F3411140F22281C60700F1088185072C
:100E180000F1F680440700F1E480020700F1D28077
:100E2800C60600F1C080850600F1AE80440600F1D8
:100E38009C80020600F18A80C60578D4850567D4AF
:100E4800440556D4020545D4C60434D4850423D4B5
:100E5800440412D4020401D4BDE8F08F1A6822F0C9
:100E680040421A601A6842EA87771F60DA6822F0FF
:100E7800404242EA8171D960EEE71A6822F0405296
:100E88001A601A6842EA07721A60DA6822F0405259
:100E980042EA0172DA60DDE71A6822F040621A60FD
:100EA8001A6842EA87621A60DA6822F0406242EA07
:100EB8008162DA60CCE71A6822F040721A601A6818
:100EC80042EA07621A60DA6822F0407242EA016276
:100ED800DA60BBE71A6822F440021A601A6842EA2C
:100EE80087521A60DA6822F4400242EA8152DA60D4
:100EF800AAE71A6822F440121A601A6842EA0752EE
:100F08001A60DA6822F4401242EA0152DA6099E77C
:100F18001A6822F440221A601A6842EA87421A6064
:100F2800DA6822F4402242EA8142DA6088E71A68E5
:100F380022F440321A601A6842EA07421A60DA68F4
:100F480022F4403242EA0142DA6077E71A6822F472
:100F580040421A601A6842EA87321A60DA6822F454
:100F6800404242EA8132DA6066E71A6822F4405267
:100F78001A601A6842EA07321A60DA6822F44052A4
:100F880042EA0132DA6054E71A6822F440621A60D1
:100F98001A6842EA87221A60DA6822F4406242EA52
:100FA8008122DA6042E71A6822F440721A601A68ED
:100FB80042EA07221A60DA6822F4407242EA012201
:100FC800DA6030E71A6822F0C0021A601A6842EA4A
:100FD80087121A60DA6822F0C00242EA8112DA60E7
:100FE8001EE71A6822F030021A601A6842EA0712ED
:100FF8001A60DA6822F0300242EA0112DA600CE77D
:101008001A6822F00C021A601A6842EA87021A600B
:10101800DA6822F00C0242EA8102DA60FAE61A681B
:1010280022F003021A601A683A431A60DA6822F05A
:1010380003020A43DA60EAE6034D6E6934436C61E1
:10104800BFE600BF7C8A03080010024000224FF070
:10105800010C4FF003090CFA02F636EA00042ED10F
:101068005400D3F808A009FA04F5ED4305EA0A0A82
:10107800C3F808A0D3F808B00EFA04FA4AEA0B0A33
:10108800C3F808A0B3F804A02AEA06069E80B3F8BD
:1010980004A008FA02F646EA0A06B6B29E801E685E
:1010A8002E401E60D3F800A007FA04F646EA0A06A6
:1010B8001E60DE6801FA04F435402C43DC6001321E
:1010C800102AC8D1C8E6054DEE693443EC6178E6CC
:1010D800024DAE693443AC6173E600BF00100240B4
:1010E80010B50409013C052C17D80E4B33F8142011
:1010F80000F00F0042FA00F313F001030FD00123B0
:1011080003FA00F00138104033F000FD064A074B9F
:10111800125D104403EBC00010BD002010BD18463E
:1011280010BD00BF988B0308A48B03080C55002042
:101138002DE9F04F4A484B4B4B4C4FF090414FF044
:10114800010A4FF002094FF004084FF0080E4FF063
:10115800100C20274026802530F8022B12F0010FB2
:1011680003D01960A3F804A0083312F0020F03D0CB
:101178001960A3F80490083312F0040F03D0196023
:10118800A3F80480083312F0080F03D01960A3F8FD
:1011980004E0083312F0100F03D01960A3F804C05C
:1011A800083312F0200F02D019609F80083312F024
:1011B800400F02D019609E80083312F0800F02D0D1
:1011C80019609D80083312F4807F05D04FF4807B2E
:1011D8001960A3F804B0083312F4007F05D04FF467
:1011E800007B1960A3F804B0083312F4806F05D0AF
:1011F8004FF4806B1960A3F804B0083312F4006F41
:1012080005D04FF4006B1960A3F804B0083312F44A
:10121800805F05D04FF4805B1960A3F804B00833F1
:1012280012F4005F05D04FF4005B1960A3F804B016
:10123800083312F4804F05D04FF4804B1960A3F89F
:1012480004B00833D20B04D04FF4004219609A80DE
:10125800083301F58061A1427FF47EAFBDE8F08FCD
:10126800988B03080C5500200018004800B97047F7
:1012780003682DE9F04F03F138449C4EA40A012578
:10128800345D04F01F066409022C05FA06F500F027
:101298007481032C00F06C81012C00F0228180887D
:1012A800B0FA80F4C4F11F04A4B2E50803EB850585
:1012B80004F007042E6AA4000F27A74026EA0706B1
:1012C8002E622E6A01F00307A2407C1E3243012CD5
:1012D800C1F3810EC1F300182A62C1F3411140F233
:1012E8000981C6070BD51A6822F003021A601A682A
:1012F8003A431A60DA6822F003020A43DA60850783
:101308000DD51A6822F00C021A601A6842EA8702A0
:101318001A60DA6822F00C0242EA8102DA604407B5
:101328000DD51A6822F030021A601A6842EA0712CC
:101338001A60DA6822F0300242EA0112DA60020723
:101348000DD51A6822F0C0021A601A6842EA87129C
:101358001A60DA6822F0C00242EA8112DA60C60630
:101368000DD51A6822F440721A601A6842EA0722F8
:101378001A60DA6822F4407242EA0122DA608506CD
:101388000DD51A6822F440621A601A6842EA872268
:101398001A60DA6822F4406242EA8122DA6044067E
:1013A8000DD51A6822F440521A601A6842EA0732C8
:1013B8001A60DA6822F4405242EA0132DA60020620
:1013C8000DD51A6822F440421A601A6842EA873238
:1013D8001A60DA6822F4404242EA8132DA60C605CD
:1013E8000DD51A6822F440321A601A6842EA074298
:1013F8001A60DA6822F4403242EA0142DA6085056E
:101408000DD51A6822F440221A601A6842EA874207
:101418001A60DA6822F4402242EA8142DA6044051E
:101428000DD51A6822F440121A601A6842EA075267
:101438001A60DA6822F4401242EA0152DA600205C0
:101448000DD51A6822F440021A601A6842EA8752D7
:101458001A60DA6822F4400242EA8152DA60C6046D
:101468000DD51A6822F040721A601A6842EA0762BB
:101478001A60DA6822F0407242EA0162DA60850492
:101488000DD51A6822F040621A601A6842EA87622B
:101498001A60DA6822F0406242EA8162DA60440443
:1014A8000DD51A6822F040521A601A6842EA07728B
:1014B8001A60DA6822F0405242EA0172DA600204E5
:1014C8000DD51A6822F040421A601A6842EA8777F6
:1014D8001F60DA6822F0404242EA8171D960BDE8B3
:1014E800F08F034C666935436561D8E67C8A03084A
:1014F8000010024000224FF0010C4FF003090CFAD3
:1015080002F636EA00042ED15400D3F808A009FAEE
:1015180004F5ED4305EA0A0AC3F808A0D3F808B0B1
:101528000EFA04FA4AEA0B0AC3F808A0B3F804A0B2
:101538002AEA06069E80B3F804A008FA02F646EAEC
:101548000A06B6B29E801E682E401E60D3F800A020
:1015580007FA04F646EA0A061E60DE6801FA04F491
:1015680035402C43DC600132102AC8D1BDE8F08F29
:10157800044CE6693543E56191E6024CA6693543BA
:10158800A5618CE60010024000B97047036803F1BA
:1015980038422DE9F04F920AB24DAA5C02F01F05BD
:1015A80052090124022A04FA05F400F05F81032A93
:1015B80000F05381012A00F00D8101F003077A1E23
:1015C800012AC1F3810EC1F300188488C1F34111C7
:1015D80040F20581E6070BD51A6822F003021A606B
:1015E8001A683A431A60DA6822F003020A43DA609A
:1015F800A5070DD51A6822F00C021A601A6842EA8B
:1016080087021A60DA6822F00C0242EA8102DA6084
:1016180060070DD51A6822F030021A601A6842EA8B
:1016280007121A60DA6822F0300242EA0112DA6020
:1016380022070DD51A6822F0C0021A601A6842EA19
:1016480087121A60DA6822F0C00242EA8112DA6070
:10165800E6060DD51A6822F440721A601A6842EA42
:1016680007221A60DA6822F4407242EA0122DA603C
:10167800A5060DD51A6822F440621A601A6842EA73
:1016880087221A60DA6822F4406242EA8122DA602C
:1016980060060DD51A6822F440521A601A6842EAA8
:1016A80007321A60DA6822F4405242EA0132DA60FC
:1016B80022060DD51A6822F440421A601A6842EAD6
:1016C80087321A60DA6822F4404242EA8132DA60EC
:1016D800E6050DD51A6822F440321A601A6842EA03
:1016E80007421A60DA6822F4403242EA0142DA60BC
:1016F800A5050DD51A6822F440221A601A6842EA34
:1017080087421A60DA6822F4402242EA8142DA60AB
:1017180060050DD51A6822F440121A601A6842EA68
:1017280007521A60DA6822F4401242EA0152DA607B
:1017380022050DD51A6822F440021A601A6842EA96
:1017480087521A60DA6822F4400242EA8152DA606B
:10175800E6040DD51A6822F040721A601A6842EA47
:1017680007621A60DA6822F0407242EA0162DA60BF
:10177800A5040DD51A6822F040621A601A6842EA78
:1017880087621A60DA6822F0406242EA8162DA60AF
:1017980060040DD51A6822F040521A601A6842EAAD
:1017A80007721A60DA6822F0405242EA0172DA607F
:1017B80022040DD51A6822F040421A601A6842EADB
:1017C80087771F60DA6822F0404242EA8171D96067
:1017D800BDE8F08F244A55692C435461EDE6002298
:1017E8004FF0010C4FF003090CFA02F636EA040038
:1017F8002ED15000D3F808A009FA00F5ED430AEA03
:10180800050AC3F808A0D3F808B00EFA00FA4AEAA5
:101818000B0AC3F808A0B3F804A02AEA06069E80BB
:10182800B3F804A008FA02F646EA0A06B6B29E80A1
:101838001E682E401E60D3F800A007FA00F646EA9C
:101848000A061E60DE6801FA00F035402843D860B9
:101858000132102AC8D1BDE8F08F034AD5692C435C
:10186800D461AAE67C8A030800100240024A9569FE
:101878002C439461A1E600BF0010024010B1036838
:1018880082881A85704700BF10B1036882889A6100
:10189800704700BF18B1838811B10268936170471F
:1018A8001B04FAE730B102688388128A1A4214BF0F
:1018B80001200020704700BF2DE9F0410B4E35682C
:1018C80073691D4010D0DFF828800127B5FA85F428
:1018D800C4F11F0408EB840307FA04F418690368C9
:1018E8009847A5437461F1D1BDE8F0810004014037
:1018F800E80E00202DE9F0410B4E356873691D4054
:1019080010D0DFF828800127B5FA85F4C4F11F0448
:1019180008EB840307FA04F4186903689847A54399
:101928007461F1D1BDE8F08100040140E80E0020A7
:101938002DE9F0410B4E356873691D4010D0DFF872
:1019480028800127B5FA85F4C4F11F0408EB840345
:1019580007FA04F4186903689847A5437461F1D13C
:10196800BDE8F08100040140E80E00202DE9F041B7
:101978000B4E356873691D4010D0DFF828800127A9
:10198800B5FA85F4C4F11F0408EB840307FA04F4DC
:10199800186903689847A5437461F1D1BDE8F081DF
:1019A80000040140E80E00202DE9F0410B4E356897
:1019B80073691D4010D0DFF828800127B5FA85F437
:1019C800C4F11F0408EB840307FA04F418690368D8
:1019D8009847A5437461F1D1BDE8F0810004014046
:1019E800E80E00202DE9F0410B4E356873691D4063
:1019F80010D0DFF828800127B5FA85F4C4F11F0458
:101A080008EB840307FA04F4186903689847A543A8
:101A18007461F1D1BDE8F08100040140E80E0020B6
:101A28002DE9F0410B4E356873691D4010D0DFF881
:101A380028800127B5FA85F4C4F11F0408EB840354
:101A480007FA04F4186903689847A5437461F1D14B
:101A5800BDE8F08100040140E80E0020094A10B5F5
:101A68009369094C43F00103936104F1100040228B
:101A7800002133F01EFC4FF0FF332365C4F85330C8
:101A880010BD00BF00100240E80E002003681B6A6A
:101A9800184700BF70B44E1C0568C2728672AC69E4
:101AA800A44670BC604700BF2DE9F04104461846C3
:101AB8000D4616461F4632F03DFD2844A0722068A8
:101AC800E672294645693B4632462046AC46BDE8A3
:101AD800F0416047036810B504461B6898472368BF
:101AE80020469B689847E37B0133E37310BD00BF32
:101AF80010B5036804469B689847FF230122A37327
:101B0800627310BD70B5054600780E46FFF7E8FA17
:101B1800044618B1382301368371C67120466978A6
:101B2800FFF732FDAB78204613B1BDE87040ABE655
:101B3800BDE87040A2E60D4B2DE9F0411E680C4D42
:101B480007460024A64201DCBDE8F08104EB44030B
:101B580003EB0508E85CFFF7C3FA874204D1214686
:101B68004046BDE8F041CDE70134EBE7A459002039
:101B7800A85900204268138823F04003B1F5807FFC
:101B88004FEA0343A8BF4FF480711B0C138002294E
:101B98001388B8BF022191FAA1F00029B0FA80F0A9
:101BA8009BB208BF4FF0FF30013823F0380343EAF7
:101BB800C0039BB21380138843F04003138070471F
:101BC800038823F04003B1F5807F4FEA0343A8BFA1
:101BD8004FF480711B0C038002290388B8BF0221CF
:101BE80091FAA1F20029B2FA82F29BB208BF4FF033
:101BF800FF32013A23F0380343EAC2039BB2038061
:101C0800038843F040030380704700BF0B4B9842A2
:101C180011D0A3F57843984202D04FF0FF307047B7
:101C28000122074B03EB02135A89013292B25A81FF
:101C3800588980B270470022F3E700BF00300140A6
:101C4800585E00202DE9F04F87B0034602904068A7
:101C58009A68038823F040031B041B0C0380038845
:101C68009BB223F0380343F038030380038843F022
:101C78004003038012B1136892881A85838940F261
:101C8800E93302E0002B00F082810289013B12F067
:101C9800020F9BB2F6D06B23037340F2E93302E0E4
:101CA800002B00F074810289013B12F0010F9BB2F6
:101CB800F6D0037B029B586840F2E933828902E040
:101CC800002B00F061810289013B12F0020F9BB2E8
:101CD800F6D08023037340F2E93302E0002B00F0D2
:101CE80053810289013B12F0010F9BB2F6D0037BAE
:101CF800029B9B6813B11A689B8893610623A54CC5
:101D0800DFF89C82DFF89CA2A34DA44E049396238F
:101D1800DFF894C201934FF0100EDAF80430C3F3E1
:101D28000803002B40F0B480EFF31183002B40F040
:101D3800AF802068AA6823689842FAD133689A422B
:101D4800F7D8D8F800704FF47A7101FB07F39B1AA3
:101D5800B3FBF7F301FB00304FF47A774FF001093A
:101D6800DAF80430C3F30803002B72D1EFF31183C0
:101D7800002B6ED12368A96822689342FAD1326891
:101D88009142F7D8D8F8002007FB02FBABEB010122
:101D9800B1FBF2F107FB03131B1AB3F57A7FDFD30C
:101DA800019B013B0193B8D1029B9B6813B11A6850
:101DB8009B881385029B586840F2E933828902E0C8
:101DC800002B00F087800289013B12F0020F9BB2C2
:101DD800F6D0F523037340F2E93301E0002B79D004
:101DE8000289013B12F0010F9BB2F7D0037B029BE3
:101DF8005868838940F2E93301E0002B67D00289F3
:101E0800013B12F0020F9BB2F7D0FF23037340F29D
:101E1800E93301E0002B5AD00289013B12F0010F8F
:101E28009BB2F7D0037BDBB20393029B9A6812B193
:101E3800136891889961039B682B4ED0049B013BE2
:101E480013F0FF0304937FF462AF184607B0BDE8B0
:101E5800F08FEFF311818EF31288D5F808B02B6854
:101E6800DB0344BFCCF80090D5F808B02368DCF851
:101E78000020C9B281F31188D8F80010134407FB79
:101E880001F2A2EB0B02B2FBF1F207FB032383E79B
:101E9800EFF311838EF31288AF682A68D20303D553
:101EA8000122CCF80020AF682068DCF80090DBB293
:101EB80083F31188D8F800104FF47A72484402FB73
:101EC80001F3DB1BB3FBF1F302FB003044E7FFF740
:101ED8009DFEAAE7FFF79AFE89E712B11368928878
:101EE8001A85029B586840F2E933828901E0002B89
:101EF80047D00289013B12F0020F9BB2F7D08C2326
:101F0800037340F2E93301E0002B3AD00289013B28
:101F180012F0010F9BB2F7D0037B029B58688389AC
:101F280040F2E9330289013B12F0020F9BB215D14E
:101F3800002BF7D1FFF76AFE029B9B6813B11A6862
:101F48009B889361059B142B04D3182B17D9543BFA
:101F5800062B14D9002007B0BDE8F08FFF230373C8
:101F680040F2E93301E0002BE4D00289013B12F092
:101F7800010F9BB2F7D0037BDBB20593DCE70320AC
:101F880064E7FFF743FEC8E7FFF740FEB0E6FFF758
:101F98003DFE8FE60855002010E000E0A059002023
:101FA8009C59002000ED00E098590020F0B58369A5
:101FB80083B0064613B11A689B8813857069DFF8E9
:101FC800A0C08389C3244FF47A7306276D464FF661
:101FD800FF710CF1010C03E0013B9BB28B421CD05A
:101FE80002899207F8D504734FF47A7302E0A3B21A
:101FF8008B4212D00289D20703F1FF34F7D5027B56
:10200800D2B20DB12A7001354FB1013FFF24BCF1A6
:10201800000FE5D09CF80040DBE7FFF7F7FDB36958
:1020280013B11A689B8893619DF805009DF80150CB
:102038009DF802109DF803409DF804209DF8063095
:1020480041EA052143EA002342EA04220120A6F8D6
:102058005010A6F85220A6F8543003B0F0BD00BFC7
:1020680060530308F8B51646826805461F4641F0D6
:10207800800112B1136892881A85686840F2E934C1
:10208800838901E0002C44D00389013C13F0020F3E
:10209800A4B2F7D0017340F2E93101E0002938D049
:1020A8000389013913F0010F89B2F7D0037B6868FF
:1020B8004FF0000C83894FF47A714FF6FF724FF09E
:1020C800FF0E03E0013989B291421FD003899C07B2
:1020D800F8D580F80CE04FF47A7102E0A1B2914291
:1020E80014D00389DB0701F1FF34F7D5037BDBB29A
:1020F8000EB1337001360CF1010CBC45E6D1AB686A
:1021080013B11A689B8893610120F8BDFFF77EFD23
:10211800F5E7FFF77BFDCAE7F8B584894FF6FF7648
:102128004FF47A742BB311B30F78013101E0B44244
:1021380017D00589013CAD07A4B2F8D507734FF451
:102148007A7402E0BCB2B4420BD00589ED0704F101
:10215800FF37F7D5057BEDB20AB115700132013BA7
:10216800E0E7FFF753FD003018BF0120F8BDFF2757
:10217800DFE70120F8BD00BF08B5838940F2E933E5
:1021880000E09BB10289013B12F0020F9BB2F8D02C
:10219800017340F2E93300E043B10289013B12F0D8
:1021A800010F9BB2F8D0007BC0B208BDFFF72EFD2F
:1021B800C0B208BD427A4AB110B5044604F10A011A
:1021C800D0E9003098470023637210BD704700BF04
:1021D800A8B10D4B012210B402FA01F103F1750404
:1021E80002E00333A3420BD013F8012C8242F8D14A
:1021F8001A780A42F5D001205DF8044B7047704701
:1022080000205DF8044B70476953030830B40A4D49
:10221800002305F1080401E0272B09D003EB430252
:102228000133A15C8142F7D12A4430BC907A7047CF
:10223800002030BC704700BF60530308024B0146C2
:102248001868FDF7A5BF00BF9831002038B5064DC6
:10225800441E14F8011F286811B9BDE83840A9E7E1
:10226800FDF796FFF5E700BF9831002010B504464A
:102278000B48FFF7EBFF0B4B1868FFF79BFF0A4B68
:1022880018681AF092FB1DF0C9FC084B084A24B1E3
:10229800084909480860DA6010BDDA60FCE700BF49
:1022A80000900308983100209C31002000ED00E0E8
:1022B8000400FA05FC9F0020EFBEADDE38B5094DDD
:1022C8002868FFF777FF084B00241C70074B1C6039
:1022D800074B1C701DF030FE2046FFF7C7FF2C602F
:1022E80038BD00BF98310020A4310020A031002063
:1022F800B82800200120B9E70048A7E7DD950308C2
:1023080038B5064D002455F834000134FFF79EFF18
:10231800FFF7F2FF282CF6D138BD00BFD87E03089E
:1023280008B5FFF793FFBDE80840E5E7024A1368E0
:1023380023EA0000106070472C6600202DE9F34165
:10234800056906460F467DBBD0F80080C8F30A032E
:1023580023B30023D6F8008001932EF09FFE0428B3
:1023680019D1224C236943F001032361BBB2A8F8B9
:1023780000302EF093FE04282ED108F102030193B9
:10238800019B3F0C1F802EF089FE2369042823F04F
:102398000103236125D06FF0010505E02EF07EFED4
:1023A800042805D04FF0FF35284602B0BDE8F0817B
:1023B8000E4C236943F002032361C4F81480236997
:1023C80043F0400323612EF069FE2369042823F0BB
:1023D80002032361BDD0E5E7236923F001032361EC
:1023E800D9E7336804333360DEE700BF00200240DA
:1023F800F8B504460D468E180027B54201D120696C
:10240800F8BDE368591CE160234415F8012B1A72E2
:102418000429F2D1A1682046FFF790FFC4E90370B0
:10242800EBE700BF30B402681146531C036011F893
:10243800024B0160D31C517803609378151D056029
:102448001B0443EA0123D078234343EA006030BCED
:10245800704700BF0368591C1A46016012F8021B36
:102468000260587841EA0020704700BF03685A1C90
:1024780002601878704700BF38B5044600681546F2
:1024880032F0F3FE22682A44226038BD036810B493
:102498000A0A5C1C04601A7003685A1C02601970EE
:1024A8005DF8044B704700BF03685A1C026010B403
:1024B800197003680A0A5C1C04601A7003680A0C25
:1024C8005C1C04601A700368090E5A1C02601970BB
:1024D8005DF8044B704700BF03685A1C026019700E
:1024E8000368090A5A1C02601970704710EE103A06
:1024F800C3F3160242F07E5207EE102ADFED167A79
:10250800DFED164A9FED165ADFED165A9FED166A53
:10251800DFED163ADFED166A9FED164AE7EE274A19
:10252800DB1507EE903AA4EE875AF8EEE77AE5EE67
:10253800075A67EEA37AA5EE876AB5EEC00AE6EEFB
:10254800077AF1EE10FAD4BFB0EE440AB0EE660A8C
:1025580037EE800A704700BFDACDFE3CB9D593BE8E
:102568005CB8903FAA841DC022E061401872313FD8
:1025780007F1B3C2000080FFDFED1D3ADFED1D7AE1
:102588009FED1D7A9FED1D4ADFED1D4A9FED1D5AF7
:10259800DFED1D5A9FED1D6ADFED1D6AE0EE237A1F
:1025A800F4EEC77AF1EE10FA88BFF0EE477AF4EE4F
:1025B800C47AF1EE10FAB8BFF0EE447AFDEEE77A8D
:1025C80017EE903AC3F3160242F07E5207EE102A35
:1025D800A7EE245A03F0FF4300EE103AE5EE075A3F
:1025E800A5EE876AE6EE076A26EE800A704700BF06
:1025F8003BAA384B00007E4E0000FF4E0000000052
:10260800ED185E3C81900FBBAF9D2A3EB2D19F3E34
:10261800E886023F07EE901AF8EE677A9FED837A14
:1026280027EE800A20EE070AFDEEC07A17EE903AF0
:102638002033402B00F28180DFED7D7AB4EEE70A8B
:10264800F1EE10FA40F3E680B0EE407A9FED796A39
:10265800DFED796A01E0B0EE677AB4EEE67AF1EE82
:1026680010FA77EE467AF6DC9FED747AF4EEC77AC4
:10267800F1EE10FA40F1D1809FED6E6ADFED706ADD
:1026880001E0F0EE477AF4EEE67AF1EE10FA37EE72
:10269800867AF6D4DFED6B7AB4EEE77AF1EE10FACB
:1026A80040F3A780DFED627A37EEC77A27EE076A34
:1026B800DFED655ADFED657ADFED656A9FED655AF6
:1026C800E6EE257A67EE065AE6EE276AF7EE007A16
:1026D800A5EEA67AF0EE675AE7EE055AE7EE457AD8
:1026E80087EEA55ADFED577A30EE277AFDEEC76AF6
:1026F80016EE903A2033402B24D99FED577AF6EE08
:10270800006AB7EE006AF7EE004AC4EEA57A002325
:10271800836143610362C36180ED045A67EEA66A70
:1027280027EE866A27EE877AC0ED006AC0ED026A56
:1027380080ED016A80ED037A7047B7EE005AF0EE3B
:10274800455ACFE7B4EEE70AF1EE10FA6BDD9FEDDC
:10275800396ADFED396A01E0B0EE677AB4EEE67AFD
:10276800F1EE10FA77EE467AF6DC9FED347AF4EE65
:10277800C77AF1EE10FA53D59FED2E6ADFED306A75
:1027880001E0F0EE477AF4EEE67AF1EE10FA37EE71
:10279800867AF6D4DFED2B7AB4EEE77AF1EE10FA0A
:1027A80033DCDFED2E7AB4EEE77AF1EE10FA44BFAF
:1027B800DFED227A37EEC77A27EE076ADFED224A85
:1027C800DFED226ADFED227AE6EE246A67EE064A3A
:1027D800E6EE267AB7EE006AA4EEA77AF6EE006A6D
:1027E80036EE476AF8EE007A27EE277A66EE266A12
:1027F80089E7DFED1A7AB4EEE77AF1EE10FA44BF12
:10280800DFED0E7A37EEC77A50E7DFED097A37EE5B
:10281800C77AD1E7F0EE407A26E7B0EE677A39E773
:10282800B0EE677AB6E7F0EE477A9EE727D4D2365D
:10283800DB0F4940DB0FC940E4CB1641DB0F49C031
:10284800E4CB16C1DB0FC93F92E741B99730083C8A
:1028580015A82ABEF304353F00000000DB0FC9BFEE
:10286800DFED2B7AB4EEE70AF1EE10FA4ADDDFED80
:10287800296A9FED297A01E0B0EE670AB4EEC70A2B
:10288800F1EE10FA70EE667AF6DC9FED247AF4EE3B
:10289800C77AF1EE10FA38D5DFED1E6A9FED207A7F
:1028A80001E0F0EE407AF4EEC77AF1EE10FA37EE76
:1028B800A60AF6D4DFED1B7AB4EEE70AF1EE10FAB9
:1028C80014DDDFED137A37EEC00A60EE006A9FED83
:1028D800166A9FED167ADFED167AA6EE867A20EE56
:1028E800266AE6EE877AA6EE270A7047DFED117AA8
:1028F800B4EEE70AF1EE10FA44BFDFED087A37EEDE
:10290800C00AE2E7F0EE407ABFE7B0EE670AD1E727
:10291800DB0F4940DB0FC940E4CB1641DB0F49C050
:10292800E4CB16C1DB0FC93F92E741B99730083CA9
:1029380015A82ABEDB0FC9BF012131F0F1B870B567
:102948000D461446FEF744F90646A0B1FFF7F4FF1A
:1029580040F634039842A8BF1846B0F5617FB8BF67
:102968004FF461701923A0F5617090FBF3F02870A3
:102978002378013323703046FEF72AF90646A0B1C2
:10298800FFF7DAFF40F634039842A8BF1846B0F5BF
:10299800617FB8BF4FF461701923A0F5617090FB97
:1029A800F3F06870237801332370304670BD00BFA0
:1029B80002B370B48E1803E0121B14D1B14215D0C3
:1029C80010F8012BA2F14103192B11F8013BA3F1D7
:1029D800410598BF2032192D03F12004ECD9D21AF1
:1029E80001D1002BEAD1104670BC70470022104676
:1029F80070BC70471046704770B5044608460D46CF
:102A080031F098FD064602E014F8013F43B1324622
:102A180029462046FFF7CCFF0028F5D1204670BD97
:102A28001C46204670BD00BF4FF0FF32FFF7C0BF05
:102A3800A0F16103192B98BF20387047A0F141031A
:102A4800192B98BF20307047202805D00938042852
:102A58008CBF0020012070470120704770B50446E4
:102A680008460E4631F066FD3146054602462046C8
:102A7800FFF79EFF68B9635D1846FFF7E5FF00B9E9
:102A880033B901352C44204601340378202BFAD081
:102A980070BD0020FCE700BF613819288CBF0020FA
:102AA80001207047413819288CBF00200120704749
:102AB800303809288CBF002001207047A0F130036E
:102AC800092B07D920F02000413819288CBF002095
:102AD8000120704701207047F8B50646154608469C
:102AE800B6FBF2F434B905FB14640C4B1B5D00F81B
:102AF800013BF8BDB4FBF2F75FB905FB1747074B7D
:102B080005FB1464DA5D00F8012B1B5D00F8013B3E
:102B1800F8BD3846FFF7E0FFEFE700BFF499030878
:102B2800B5EEC00ADFED677A674AF1EE10FACCBF5E
:102B380030EE270A30EE670ADFED647A20EE270AC6
:102B48002DE9F047FDEEC07A88B017EE904A84EA86
:102B5800E4760023A6EBE476CDE902330493A2FBE6
:102B680006325FEAD208054641D105AF58483946D2
:102B7800554BA3FB0623DB0803EB8303A6EB4303B8
:102B8800002CC35C0B704FF00002ACBF20232D2338
:102B98004A7038468DF8083031F0CCFC01283946A7
:102BA80039D0022842D0032805BF302302A802A842
:102BB8008DF8093032F085FB02A831F0BBFC0338F0
:102BC800C4B2224602A9284632F0B1FB00232B5595
:102BD800284631F0AFFC2E22431C02A92A54214476
:102BE800E81832F08AFB284608B0BDE8F087394B70
:102BF800A3FB06235B0922D105AF35483946324A83
:102C0800A2FB0832D20802EB8202A8EB4202835CE4
:102C180001F8013BACE7302302A88DF809308DF8A4
:102C28000A308DF80B3032F04CFBC5E7302302A890
:102C38008DF809308DF80A3032F043FBBCE7264A9C
:102C4800A2FB06125FEA92190ED105AF2048394659
:102C58001D4AA2FB03C2D20802EB8202A3EB420385
:102C6800C35C01F8013BCAE71C4AA2FB06125FEAF3
:102C7800523A0ED105AF16483946134AA2FB09C28B
:102C8800D20802EB8202A9EB4202825C01F8012B16
:102C9800DEE71348B6FBF0F058B905AF39460A200D
:102CA800BAFBF0F200FB12A20948825C01F8012B82
:102CB800E3E705AF39460A220193FFF70DFF019BB1
:102CC8000146ECE76F12033ACDCCCCCC00007A4435
:102CD800F49903081F85EB51D34D62105917B7D1EA
:102CE800A086010070B406688E4217D90139751E96
:102CF800002311F8014F0822634013F0800F4FEAB8
:102D0800430318BF83F0D503013ADBB2F5D18D42F6
:102D1800EFD1721C0260337070BC7047721C0023C4
:102D28000260337070BC70470A44914215D010B4E9
:102D38000139541E11F8012F0823504010F0800F5C
:102D48004FEA400018BF80F0D500013BC0B2F5D172
:102D5800A142EFD15DF8044B704770474840082303
:102D680010F0800F4FEA400018BF80F0D500013BFB
:102D7800C0B2F5D1704700BF0A44914215D030B4B3
:102D88000139551E41F2210211F8014F082380EA4A
:102D9800042004044CBF82EA40004000013B80B29A
:102DA800F7D18D42F0D130BC7047704770B5022220
:102DB8001349144C144E4FF6FF70FFF7DDFF2288BD
:102DC8004AB1A518B54219D2052A17D92146FFF7E5
:102DD800D3FF2C46F3E721460222FFF7CDFF02225C
:102DE800A118FFF7C9FF094BE41A094BA3F858408B
:102DF80041F60F53C31A5842584170BD0020FCE7F2
:102E080000F0030802F0030800000408FAEF0308C2
:102E1800E80E00202DE9F043002489B006460D464F
:102E28001F46A04605E025290CD030460134A847A6
:102E3800039A531C039311780029F4D1204609B052
:102E4800BDE8F083931CCDE903385078302842D090
:102E5800A0F13003DBB2092B4FF0000945D96C28EB
:102E68002AD0642873D019D9732858D063D9752803
:102E780040F0828007F1040C386805AB00220A2173
:102E88006746FDF79BFB05AB049A009329464B4622
:102E98003046FDF7E5FB039A0444CAE725283CD0F1
:102EA80051D958286BD06328C2D139783046A84701
:102EB80004370134039ABCE7039B5A1C03921B781E
:102EC800642B52D016D8252B27D064D9582B18D06C
:102ED800632BEAD0ADE7D31C03939078A0F13003BD
:102EE800DBB2092B4FF00109B9D804AA03A92EF0C7
:102EF80011F9B4E7732B12D051D9752B2DD0782B3B
:102F080097D1A3F15802B2FA82F23868520905AB98
:102F180010210437FDF752FBB5E7252185E73B680B
:102F2800049A0093294600233046FDF799FB04379D
:102F38000444039A7DE76E287FF47AAF039A3B68CE
:102F480004371C6075E700283FF478AF70E73868ED
:102F580005A9FDF7FDFA043795E7386805AB0022A7
:102F68000A21FDF72BFB04378DE73B1D386805A9BF
:102F78001F46FDF7EDFA86E778287FF459AFA0F1F0
:102F88005802B2FA82F23868520905AB1021FDF7EF
:102F980015FB043777E7002B3FF450AF49E76E2B5A
:102FA800CDD046E710B5064C0B46024605492068C9
:102FB800FFF730FF2068BDE81040FFF7FBB800BFFF
:102FC800983100200B03000838B504460D46084820
:102FD800FFF73CF929462046FFF7E4FF0548FFF7CD
:102FE80035F9054B1B7813B1044B01221A7038BD13
:102FF8000C90030817900308F4320020F5320020E3
:103008000FB407B504A951F8040B0191FFF7DCFFD1
:10301800FFF772F903B05DF804EB04B0704738B5F8
:103028000F4D2B7863B10F4C23784BB10E48FFF747
:10303800E7FF0E48FFF7E4FF00232B70237038BD2D
:103048000B4B93F85A203AB1D86D18F046FA002085
:10305800BDE83840FFF70AB918F062F9F7E700BF92
:10306800F4320020F53200201B9003085290030828
:10307800E80E002038B5052215490446FFF798FCEC
:1030880058B9144A13781BB901211170124A1370E8
:103098001248BDE83840FFF743B9032210492046DB
:1030A800FFF786FC80B90B4C0B4D227842B12B7888
:1030B80033B10C48FFF7A4FF002323702B7038BDF1
:1030C8000948FFF72DF9F7E70848BDE8384097E7C2
:1030D80008990308F4320020F532002070900308A4
:1030E8006E9903081B900308869003089A900308BA
:1030F800004885E7A99003080FB407B504A951F85B
:10310800040B0191FFF760FF03B05DF804EB04B016
:1031180070470FB407B504A951F8040B0191FFF7E4
:1031280041FFFFF7E9F803B05DF804EB04B070471E
:1031380010B5104C03461846FDF74AF858B10E4B27
:103148000E4893F901104B1C0ABF0D4BC9B25978B0
:10315800BDE81040DDE71846FFF7EEFB052804D868
:10316800C0B228F017FA2346E5E705210548BDE86F
:10317800104045E7DF95030800000020B5900308DC
:1031880058850020C490030810B5104C0346184613
:10319800FDF71EF858B10E4B0E4893F900104B1C62
:1031A8000ABF0D4BC9B21978BDE81040B1E71846FF
:1031B800FFF7C2FB022804D8C0B218F08AFE2346E3
:1031C800E5E702210548BDE8104019E7DF95030847
:1031D80000000020B990030858850020C990030812
:1031E80038B50D46FFF7A8FB0C4B19788842044602
:1031F80005D201460A48FFF78CFF204638BD2DB19D
:10320800FF2803D10748FFF784FFF6E7013906488E
:10321800FFF7F6FE4FF0FF34EFE700BF99260020D6
:10322800E4900308F5900308089103082DE9F34199
:103238000346FCF7CDFF044620B1FFF759FF02B063
:10324800BDE8F08101AA2B49DFF8A880184631F0C3
:1032580067FF2746054626467DB9022CEDD1A7F51E
:103268007A73B3F57A7F20D94FF4FA634FF47A7200
:1032780021492248FFF7C4FEE1E74CB1012C0FD0E9
:1032880001AA4146002031F04BFF01340546E3E72F
:1032980001212846FFF7A4FF431C0646F0D1CEE7DC
:1032A8002846FFF749FB0746EAE7B8B21CF042FC9C
:1032B800FF2EBCEEC00A124B0BD1124AF8EE407A30
:1032C8001278AA4212DC10EE101A0F48FFF721FFFD
:1032D800B5E7F8EE407A03EB860310EE102A314684
:1032E8000A48C3ED007AFFF714FFA8E7E3EC017A78
:1032F8000135E6E728980308A89903082E910308E2
:103308008437002099260020549103084791030828
:103318002DE9F3470346FCF75BFF044610B1FFF7BE
:10332800E7FE25E001AA2A49DFF8B480DFF8B49067
:10333800DFF8B4A0184631F0F3FE264605462746C6
:1033480055B9244B3246A1B218682FF057FF78B907
:103358002148FFF755FE0BE06FB1012FDFD1B31EF7
:10336800594259412846FFF73BFF421C044622D1E7
:1033780002B0BDE8F087284631F0DCF84146064641
:1033880002462846FFF714FBA0B1324649462846B4
:10339800FFF70EFBB8B1324651462846FFF708FB47
:1033A80098B132460D492846FFF702FB0028B6D1EE
:1033B800032600E03E4601AA0549002031F0B0FE90
:1033C80001370546BCE70126F5E70226F3E700BF0B
:1033D800289803089C3100206F9103086C9103081A
:1033E8006391030866910308699103082DE9F3477F
:1033F8000346FCF7EDFE044618B92B4A9278042AD6
:1034080004D8FFF775FE02B0BDE8F08701AA274986
:10341800DFF8AC80DFF8AC90DFF8ACA0184631F0EC
:103428007FFE0127264640B9214B224A1B689B1A7A
:10343800214A18BF01231370E5E766B90121FFF798
:10344800CFFE431C0446DED001AA184900200136ED
:1034580031F066FEE7E7FFF76FFA2F2805461ED81A
:10346800D7B127F0D9FD062D06D1052018F0B8FAF6
:103478005046FEF755FF09E0012018F0B1FA0F4950
:103488000123EAB20978E0B227F06CF829464846E9
:10349800FFF73FFE0027D7E70628F0D1E8E72F21FE
:1034A8004046FFF7ADFDCFE71C68002028980308C9
:1034B8003868002085970208A86B0020992600200C
:1034C800AD9103089C9103088D9103082DE9FF41F4
:1034D800074631F02FF808283CD1002201AEB85C2D
:1034E800FFF7A6FAB0540132082AF8D10024DFF811
:1034F80070808DF80C40385DFFF79AFAC5B23055E8
:103508002946404631F0ECFE28B1013429463019ED
:1035180031F0E6FE20B1FFF7EBFD04B0BDE8F08125
:10352800082CE8D10D4930460CF01AFD0B4C0C481C
:1035380000231A5D04A90A44195C02F80C1C013323
:10354800082BF6D1002301A906488DF80C30FFF7A7
:10355800E0FDE2E70028E9D0DDE700BFF02C00201D
:10356800AC6F0308CD910308034B044A04491B6858
:10357800126809680348CCE5B4F7FF1FB0F7FF1FCE
:10358800ACF7FF1FD4910308F7B50646FCF720FEF9
:10359800054658B1002401A920462FF025FD013425
:1035A800FFF7F2FF122CF6D103B0F0BD3046FFF75B
:1035B800C3F9C4B2112C61D8701CFDF709FB334D57
:1035C8000746D0B9324B13F814108A1E51425141A4
:1035D8002F4B13F81420154495F87D20002948D066
:1035E80003EB440319205B7840F2EE2100FB031340
:1035F80021462848FFF78DFDD6E705F17D060178BD
:10360800304631F06DFE58B1032C8CBF03230023E4
:10361800801B2B4453FA80F090F88160032E02D16E
:10362800FFF766FDC0E73846FDF7D2FAF0B1022E83
:10363800F6D1FFF781F940F6CA0280B29042144BE6
:10364800A8BF104640F2EE22904203EB4403B8BFF5
:103658001046A0F2EE20192290FBF2F05870B31E2B
:10366800594259410A4B03F81460B1E7022EF6D1CA
:10367800D6E721460848FFF74CFD95E711232A466F
:1036880006490748FFF7BCFC8EE700BF60530308F4
:1036980030230020E8910308F891030805920308F5
:1036A8002E9103080FB407B504A951F8040B019132
:1036B800FFF778FC03B05DF804EB04B070472DE920
:1036C800F843044630F036FF024680B320461949D5
:1036D800FFF76EF9044650BBFEF70EFE1648174D6D
:1036E800174E184FDFF86480FEF71AFE2B7D07216E
:1036F80094FBF1F1C1EBC10206EB8303A21A01327C
:1037080001313846D3F88890FFF7CCFF6A7D4946E7
:103718004AB10D48FFF7FDFC01340C2C05F11C05DE
:10372800E4D1BDE8F8834046FFF7F3FCF4E7BDE8D1
:10373800F843DDE40D920308129203087C0500208B
:103748006053030817920308299203088D9303080E
:1037580038B50B4B03EBC0040D4694F87C2109489F
:1037680003EB8203D3F88810FFF79CFF94F88231AB
:1037780023B1691C0448BDE8384093E738BD00BF51
:10378800605303088E930308AB9603087FB50B4B71
:1037980004930B4B03930B4B02930B4B01930B4B73
:1037A80000930B4A0B4B0C490C48FFF77BFF0C4866
:1037B800092107B05DF804EBABE400BF6E92030883
:1037C800739203087D920308869203089292030875
:1037D800309203085F85002038920308439203085B
:1037E800989203082DE9F04F93B00025DFF8A4B1B3
:1037F800DFF8C0A1DFF8C0910795A84608A9E8B28C
:1038080028F056F89DF82830002B6DD0022D40F096
:103818009A809DED117AB5EE407AF1EE10FA00F03B
:103828008980DFED586AC6EE877AFDEEE77AF8EE12
:10383800E77AFDEEE77A17EE906A99F80040089B60
:10384800012C79D996FBF4F41A4602214E48FFF769
:1038580029FF0D9A002A00F08B8041F2883002FB84
:1038680004004FF47A73B0FBF3F00F9B002B00F0C9
:10387800818041F2883103FB04114FF47A7CB1FB5B
:10388800FCF1062D03D0079F0F44804407979BF84F
:1038980003C0BCF1000F6FD04FF47A7C0E9FB7FBCA
:1038A800FCFCCDF810C04FF00A0C91FBFCFE0CFBA1
:1038B8001E11CDE902E190FBFCF10CFB1100CDE9F2
:1038C800001021463148FFF724FC022D08D199F851
:1038D8000030012B04D9324609992D48FFF719FC0D
:1038E8000AEB851300229A630135172D86D1294BDF
:1038F800DB78E3B1284B29481968294B1A684FF43B
:103908007A73B1FBF3F3274952090968FFF701FC01
:103918000798079B0A2293FBF2F302FB130798FB15
:10392800F2F1009702FB11821F48FFF7F2FB13B078
:10393800BDE8F08F002680E7099A1C480221FFF7AE
:10394800B1FE344685E7109C5CB107EE904ADFED86
:103958000D6AF8EE677A86EEA77AFDEEC77A17EE5B
:10396800904A089A08482946FFF79CFE002670E707
:1039780010467AE7194684E721460D48FFF7C9FB48
:10398800A3E700BF00247449B0920308D292030849
:10399800F6920308588500208C45002006930308FA
:1039A800844500209045002026930308BF92030811
:1039B8000293030800080020001F00202DE9F047AB
:1039C800214FDFF8A480DFF88490DFF8A0A0054637
:1039D800284630F0AFFD064658B91C4B1C481A78EB
:1039E8001C4B03EB8203BDE8F047D3F84812FFF7FE
:1039F80090BB024639462846FEF7DAFF78B91648E2
:103A0800164C174DFEF722FC54F8041F19B128462E
:103A1800FFF748FEF8E7BDE8F047FEF76DBC002465
:103A280058F8241021B90F48BDE8F047FFF7E8BA65
:103A380032462846FEF7BCFF01340028F0D189F849
:103A480000405546C4E700BF5E930308C02000202D
:103A5800549303086053030863930308A8550308A5
:103A68008D9303086E930308AC550308DF9503088C
:103A78002DE9F84F80460E46174630F05BFD0446A8
:103A8800F0B94048404FDFF82081FFF70BFE0C25C6
:103A9800204615F079FB3368184205D005FB0473FE
:103AA80040469968FFF7FEFD0134182CF0D13368C1
:103AB80013B93648FEF7CAFBBDE8F84FFEF71CBC41
:103AC800024633494046FEF773FF0546B0B9314810
:103AD8002D4EDFF8C880FEF7B9FB2C460C25204692
:103AE80015F052FB384205D005FB0463404699683F
:103AF800FFF7D8FD0134192CF1D1DDE798F8003033
:103B08002D2B03BF08F1010804F1FF34012500251E
:103B18004FF0000A47F0807B1B4B0C2202FB0A3255
:103B28004046D2F8089022464946FEF741FFF8B9C8
:103B3800504615F029FB1BEA000F19D075B1BAF1F0
:103B4800180F1CBF3768074337601348FEF77EFB22
:103B580049461248BDE8F84FFFF7DBBABAF1180F2B
:103B68001CBF3568854335600D48FEF76FFBEFE7EE
:103B78000AF1010ABAF1190FCED10A48BDE8F84F87
:103B8800FFF73EBA7B9303088481030885930308F3
:103B98005E93030863930308919303088D930308C6
:103BA8009A9303086E9303088C9303086FF07F427F
:103BB80000495DE7C039002040F20222004957E77A
:103BC800C83900202DE9F047424D074630F0B2FCD5
:103BD800414B95F85A801E680446B8F1000F15D07D
:103BE800D5F85C90C4B93D483D4D3E4FFEF72EFBDD
:103BF800012655F8241059B106FA04F313EA090FFF
:103C080002D03846FFF74EFD0134F2E7B146E9E746
:103C1800BDE8F047FEF770BB224633493846FEF749
:103C2800C7FE78B93148324C324DFEF70FFB54F8D5
:103C3800041F0029ECD00B78002BF8D02846FFF79A
:103C480031FDF4E7B8F1000F03D10123EE6585F8E3
:103C58005A303B78DFF888A02D2B03BF013704F1D9
:103C6800FF344FF001094FF000094FF000085AF8EF
:103C7800286026B92048BDE8F047FFF7C1B92246B9
:103C880031463846FEF794FE08BB012303FA08F2D2
:103C9800110604D51948BDE8F047FEF741BB930566
:103CA800F8D4EB6DB9F1000F0BD023EA02031448E6
:103CB800EB65FEF7CBFA31460E48BDE8F047FFF753
:103CC80028BA13430F48EB65FEF7C0FAF3E708F18B
:103CD8000108CCE7E80E00202C660020A293030818
:103CE80018560308AC9303085E930308639303080C
:103CF800145603088D9303086E930308B0930308C2
:103D0800919303089A93030830B52C4885B0FEF7C1
:103D18009DFA0FF091FC28B9294805B0BDE830405C
:103D2800FEF7FEBA0FF07EFC08B92648F5E7264BE9
:103D38001B68DB6998470028F7D00FF06BFC026816
:103D4800037D81790446407C0290207C0190608A42
:103D5800009052081D48FFF7A5FCE51D0C3415F826
:103D6800010BFEF76BFAAC42F9D1194C1948FEF772
:103D78006DFA6278032A06D8DFE802F00E0E0A020E
:103D88001548FEF763FA05B0BDE83040FEF7B4BA4F
:103D98001248FEF75BFAF6E71148FEF757FA41F2C8
:103DA800D453E35C022B05D0032BECD10D48FEF76E
:103DB8004DFAE8E70C48FEF749FAE4E7BC93030834
:103DC800C6930308D493030868290020E3930308E3
:103DD800146F002011940308219403082794030802
:103DE80034940308539403083A940308F0B548221E
:103DF80085B047494748FFF755FCFEF77DFA464A24
:103E080046494748FFF74EFCFEF776FA454B464AC7
:103E18004648D21A464BB3F85810FFF77AF9454B83
:103E2800454819684FF47A73B1FBF3F1FFF73AFC90
:103E3800FEF762FA4149D1F89C20002A58D007EED3
:103E4800902ADFED3F6AB8EEE77AC6EE877AFDEE94
:103E5800E77ACDED037A3B4B1B885BB107EE903ACE
:103E6800DFED376AF8EE677A86EEA77AFDEEC77A55
:103E780017EE903AC96959B107EE901ADFED306A2A
:103E8800F8EEE77A86EEA77AFDEEC77A17EE901A73
:103E98002D482E4E00882E4F6428CDE9003101466A
:103EA800039B2C48A8BF6421FFF733F92A4B2B4901
:103EB8001A782B4B09882B4803EB82032A4AD3F83C
:103EC80034331278FFF725F9284B29481988FFF76A
:103ED80020F90020FFF718FF2648FEF7B7F9264B10
:103EE8001C68012534B905B0BDE8F040FEF704BAF6
:103EF8000392B0E794FAA4F3B3FA83F305FA03F252
:103F080056F82310384624EA0204FFF7CBFBE9E70A
:103F1800659403086A940308002000100008000054
:103F28007D94030800F0030800000408A194030826
:103F3800E80E002008550020CB9403080008002054
:103F480000247449563C00208A390020347C030838
:103F58008D930308E594030874280020682800203E
:103F6800605303082B95030875280020045A002085
:103F78005295030861950308142A00202DE9F04F93
:103F880087B00346FCF724F9074620B1FFF7B0F8DD
:103F980007B0BDE8F08F05AA7F49DFF840A2DFF837
:103FA80040B2184631F0BCF8B84681463D463E4618
:103FB8004FF0FF34B9F1000F28D178482146FFF7B8
:103FC80071FB774A60B24B4602EBC30191F90610C8
:103FD800814200F0BD800133062BF5D1002E14BFBD
:103FE800B0464FF46148002D08BF03250023EDB209
:103FF8000293CDE900851A46194614F023FF0446BA
:10400800002838D16748FEF78BF9C1E7B8F1030FEC
:1040180007D8DFE808F0020F14244846FEF78CFCA6
:10402800044605AA5C49002031F07AF808F1010835
:104038008146BFE74846FEF77FFC0646F1E7514652
:104048004846FEF7D9FC08B145F0010559464846EF
:10405800FEF7D2FC0028E4D045F00205E1E7484627
:1040680030F068FA504902464846FEF7A1FC00289D
:1040780008BF0127D5E7414676B94C48FFF712FB40
:104088004B48FEF74DF94B4B186803681B6A33B170
:1040980022464949984702E04848FFF703FB484B46
:1040A80048494948434D002F18BF1946FFF731F8D2
:1040B80037B128680368DB6913B100224349984780
:1040C8002D68284618F071FC204618F06EFC002177
:1040D800084615F045FF0021012015F041FF28464C
:1040E80018F074FCA0B10121002015F039FF284612
:1040F80018F066FC0646204618F065FC0028FAD041
:104108003146204619F0ECF90021084615F028FF41
:10411800204618F05BFC0028E1D00121002015F0B2
:104128001FFF204618F04CFC0646284618F04BFCAA
:104138000028FAD03146284619F0D2F9002108465D
:1041480015F00EFFCBE7A1682148FFF7ABFA0EE0A8
:1041580052F83340002C3FF441AF002EF3D03146E3
:104168001C48FFF79FFA3146204613F05FF95DB10E
:104178002179A94208D018482A46FFF793FA2368FC
:10418800E9B29B6920469847E36A0BB10023E362D2
:10419800002E84D174E700BF28980308909503087F
:1041A800386D0020999503088A950308AE95030891
:1041B8003C9603089C31002035740108CB95030810
:1041C80077950308DF9503085F960308C301000885
:1041D80003960308E09503081E96030884950308D0
:1041E800879503082DE9F041037903F06002202A3E
:1041F8002CD002D852B1BDE8F081402A4AD0602ABA
:10420800F9D12748BDE8F041FEF783BF03F0070363
:10421800022B02D0042B09D07BB9B0F80720B0F8E4
:1042280005102048BDE8F041FEF773BFD0F805102F
:104238001D48BDE8F041FEF76CBFB0F90720B0F9A2
:1042480005101848BDE8F041FEF763BF4679174DE1
:10425800174805EBC605FDF7F9FF95F84C730024E0
:104268000123A74203D8BDE8F041FEF745B8D5F8C9
:10427800486356F824204FEA84084AB113B90D4818
:10428800FDF7E4FF56F808100B48FFF70BFA002378
:104298000134E6E741790948BDE8F041FEF739BF46
:1042A800D496030898960308829603086053030877
:1042B800AF960308C09603088E930308C3960308B5
:1042C8002DE9F0411746027902F06003402B0546BC
:1042D8000C462BD10026554FDFF8708115E02B795D
:1042E80003F00703022B15D0032B19D0012B14BFA1
:1042F800A15DA1573846FFF7D5F96B79013BB34269
:1043080002DD4046FDF7A2FF01366B79B342E6DCD9
:10431800BDE8F08134F816103846FFF7C3F9ECE72A
:1043280034F916103846FFF7BDF9E6E702F0070240
:10433800042A6DD8DFE802F0031F282A2D0024780C
:10434800202B3ED0602B4CD0002BE1D1B5F8056076
:10435800B5F8078035482146FFF7A4F9A6424EDC98
:10436800A0454CDB002FD3D0424631463048BDE84B
:10437800F041FFF797B994F90040202B21D0602B2A
:104388002FD0002BC4D14BE02488D9E7B4F90040E2
:10439800F3E72668202B344613D0602B21D0002B5E
:1043A800B6D131462348FFF77DF9D5F805108E427E
:1043B80025D8002FACD02048BDE8F041FFF772B9EE
:1043C80000246A791D4B03EBC20393F84C23A242E5
:1043D80015DDD3F8483353F82400BDE8F041FDF764
:1043E80035BF6A791441E30704D51548BDE8F041A3
:1043F800FFF758B91348BDE8F041FFF753B9FDF787
:104408007BFF224629681048BDE8F041FEF774BEDC
:10441800202BD5D0602BEDD0002B7FF479AF1C4634
:10442800B5F90560B5F9078094E700BFAC960308B5
:104438000198030895960308EE960308605303084D
:10444800E9960308F4960308F8960308EC9603081F
:1044580038B50D460446FCF79FF92A460146204622
:10446800BDE838402CE72DE9F74FDFF8C4B08146A6
:104478008A460025D8462B4B0D2418686C43FDF757
:1044880099FE04EB0B031B7903F018034B4504D08A
:10449800B9F1000F3ED1182B3CD10D2303FB058247
:1044A8000093B2F80900FCF761F944440746204636
:1044B800FBF796FED7E9012106460244014420464F
:1044C800FBF7C6FE1AF0100F0246009B00D008BB8F
:1044D80003FB05831AF0200F1B680FD072B9194629
:1044E800114800930192FFF7DDF87968019A314489
:1044F8002046FFF7E5FEFDF7FFFE009B0B48194637
:10450800FFF7D0F8B968002231442046FFF7D8FEFB
:10451800FDF7F2FE013540F267139D42ABD103B0BF
:10452800BDE8F08F9831002012970308139703080D
:10453800685A0308052838B50D460CD8064C607033
:104548000648FEF7F5FDFDF7D7FE29461020FFF7D0
:104558008AFFFF23637038BD00000020DF95030841
:10456800022838B50D460CD8064C20700648FEF7D0
:104578000BFEFDF7C1FE29460820FFF774FFFF2355
:10458800237038BD00000020DF9503080CB407B580
:1045980010F020000BD079B92320FDF74FFE05A9B4
:1045A80004980191FEF7FEFCFDF7A6FE012003B07A
:1045B8005DF804EB02B070470020F8E70CB4C306BE
:1045C80007B500D561B905A904980191FEF7EAFC81
:1045D800FDF792FE012003B05DF804EB02B07047CE
:1045E8000020F8E72DE9F04F354C87B08046354A72
:1045F8002378608802EB8303D3F88890FCF7B6F839
:10460800D0E901A30493304B1B7813B9CDF810A05F
:104618009A4608F04003DFF8BCB005930026A3795A
:10462800002B08BF01239E4206DB284B08349C421E
:10463800DDD107B0BDE8F08F6279237906FB03234B
:10464800049A0136D55CBAF1000F11D1B5FA85F795
:104658007F090DB305F00F032D0940350293CDE90D
:1046680000654B465A4639464046FFF7A7FFD6E74E
:104678001AF80330EA1A57425741C3B103F00F0240
:104688001B0940330292CDE900635A464B4639462E
:104698004046FFF77BFFDCE7059B002BBFD1009668
:1046A8004B460B4A39464046FFF788FFB7E7009666
:1046B8004B46074A39464046FFF768FFC9E700BF3F
:1046C800DC54030860530308E80E0020AC550308C7
:1046D800339703081D9703082DE9F04F87B005AA03
:1046E8008C4930F01DFD064628B94120FFF77AFFB6
:1046F80007B0BDE8F08F8849DFF86082FEF794F9CB
:1047080088BB8648864C874E874FFDF709FE04F51F
:104718009875A3792168A28808EB830301F13841D1
:10472800B2FA82F2890A4131D3F88830C2F11F0205
:104738003046FEF7B7FFE17911B13846FEF7B2FF10
:104748000834FDF7D9FDA542E3D1724905AA002036
:1047580030F0E6FC7549FEF767F90028C8D16E48C5
:10476800FEF7ADFFC4E708F5BE770024B94617F891
:10477800343008EB8303E500D3F888A050462FF0C7
:10478800D9FE514602463046FEF712F938B10134D7
:104798001A2CECD131466648FEF732FCA8E705AA88
:1047A8005C4930F0BDFCA8440746FEF7C5F898F808
:1047B80082310646002B40F09880002800F39F8045
:1047C800A944B9F80200FBF7D1FF3D78002D00F0AD
:1047D8008980F3B2019399F8046099F80530019A39
:1047E800D0F804805349384602FB0636FEF71CF918
:1047F80060B908F8060018F80680B8F1000F16D15D
:104808004D48FDF78DFD73E7012372E0602D8CBFE5
:10481800613D413D072D65D8781CFEF78DF80F28BE
:1048280060D8013540EA051508F80650E3E7404628
:10483800FCF756FC8146002854D04FEA1813403341
:1048480002933E4F08F00F030026039300252EE045
:104858007888FBF78BFF7A793B7905FB032342685D
:10486800D15C414522D1B44204D101998D421DD079
:104878000021D154DDE9021231485FFA85FB5FFA65
:1048880086FAFEF70FFF59465046FEF761FFB4421D
:1048980009D12C48FEF706FF50465946FEF758FF47
:1048A8002948FEF7FFFE2948FDF73AFD0135BB7997
:1048B800002B08BF01239D42CADB01361A2E07F1DF
:1048C8000807C3D1D9F80010B9F80420204801F12D
:1048D8003841B2FA82F2890AC2F11F024131FEF769
:1048E80018FC05E7FEF704FC02E7002801DD9E42FC
:1048F80007DD012217491848FEF782FBF8E6012870
:1049080082D105AA0349002030F00AFC013E07467F
:1049180056E700BF289803080D9203084797030835
:104928000C5500204A970308AB96030855970308CF
:1049380059970308429703087B970308DC54030838
:1049480081970308A5970308A8970308BBBC030829
:10495800B2970308759703082E910308605303085C
:104968002DE9F04F4A4085B098461D4FD34306467F
:104978000D4600240393204614F006FC0E9B1842B3
:1049880028D0039B174ADFF860A0034214BF4FF0FA
:1049980001094FF0000910EA050302934FF00C03D8
:1049A80003FB04234946D3F808B0CDF800B014BF80
:1049B8003A46524643463046FFF7E8FD029ACDF89C
:1049C80000B04346002A14BF52463A46494630468C
:1049D800FFF7F4FD0134182CCDD105B0BDE8F08FF8
:1049E8007698030884810308BE97030870B50646C5
:1049F8002FF0A0FD114C054690B111220021204650
:104A080030F057FC2A460E49304630F07EFC38B16B
:104A1800102D2A46314628BF1022204630F087FC48
:104A28002378064A002B08BF0121054B1CBF002133
:104A380013460120034ABDE87040BFE5AC2D0020B5
:104A480052CA0308CD97030870B505462FF072FDCA
:104A5800044690B1112200210F4830F02AFC22466A
:104A68000E49284630F051FC38B1102C2246294610
:104A780028BF1022084830F05AFC094B13F8112FB0
:104A8800002A064A06BF012113460021054A0120D3
:104A9800BDE8704092E500BFBD2D002052CA030852
:104AA800AC2D0020C59703082DE9F04F002489B0EC
:104AB800834692460D4626464FF019094FF4617811
:104AC800BAF1000F22D004EB84030AEB0307052296
:104AD80039462846079330F0B9FB3A79079B19FB0A
:104AE80002820492FA781AF8033019FB02820392C0
:104AF800BA780292B0FA80F67A7801927609009331
:104B0800104A234631465846FFF740FD2B790D4A97
:104B180019FB03830493EB7819FB03830393AB78A6
:104B280002936B78019315F8053B009331462346B1
:104B380058460134FFF742FD0A2CC1D109B0BDE83F
:104B4800F08F00BFD59703082DE9F0478AB0824659
:104B5800FBF73EFB064638B1002247490120FFF724
:104B6800A3FF0AB0BDE8F0875046FDF7E5FE092827
:104B780004467ADC850005EB00080AF101008DF88F
:104B88001F60FCF725F83C4F824608EB07093E46B4
:104B980050B1FDF7D1FE0D2806D89DF81F3008F852
:104BA800070001338DF81F305046FCF711F8824694
:104BB80058B1FDF7C1FE052807D82B1933445870A2
:104BC8009DF81F3001338DF81F305046FCF700F870
:104BD800824658B1FDF7B0FE082807D82B19334490
:104BE80098709DF81F3001338DF81F3008F10301CC
:104BF8000DF11F0231445046FDF7A1FE9DF81F201C
:104C0800052A2AD1002308A9484608938DF824309C
:104C180030F01CFB2B19334493F801C020B1BCF1D0
:104C2800000F1AD09B78C3B1254472194FF46170F4
:104C38001179192313FB01010491D17813FB0103A6
:104C4800039393780D4ACDE901C30021735D009366
:104C580008462346FFF7B2FC83E7002348F80730ED
:104C680089F80430FEF744FA7BE709233246044901
:104C78000448FEF7C5F974E7043C0020D5970308FB
:104C8800759703082E9103082DE9F047344F8CB02F
:104C98000646894615460024C4EBC40309EB030203
:104CA800106891889279089040F30748ADF824106D
:104CB8008DF82620B8F1000F4AD0002D4DD02B4496
:104CC8000AA918689A880A909B79ADF82C2008A838
:104CD80007228DF82E3030F0B9FA9DF82E30069361
:104CE8009DF92D3005939DF92C3004939DF82B30B8
:104CF80003939DF92A300293B0FA80FA9DF829307F
:104D080001934FEA5A1A9DF8283000933A462346F1
:104D180051463046FFF73AFC9DF8263006939DF938
:104D2800253005939DF9243004939DF82330CDE96F
:104D380002839DF8213001939DF8203000933A4674
:104D48002346514630460134FFF738FC102CA3D1D6
:104D58000CB0BDE8F047FDF7CFBAAA46DCE700BFC4
:104D6800EB9703082DE9F0478AB005462FF0E2FBE0
:104D7800024630B985490120FFF786FF0AB0BDE831
:104D8800F087052282492846FDF712FE044670B9CD
:104D9800014670227D4830F08CFA7E4B1C60DC6046
:104DA8009C615C621C63DC639C645C65E6E70422CE
:104DB80079492846FDF7FCFD044620BB2846FBF749
:104DC80007FF07460028D9D02FF0B4FBDFF8EC81A5
:104DD800064658F824501DB97048FEF711F9CDE77A
:104DE800324629463846FDF7E3FD50B9204619F00A
:104DF80041FF29466A48FEF78CF96A48FFF7B2FF77
:104E0800BCE70134E5E7072267492846FDF7D0FDEE
:104E1800044600286ED12846202130F061FA054664
:104E280080BB6248FEF73EFC2C46614D2146284671
:104E38000134FEF737FC0E2CF8D1FDF75DFA554E1C
:104E4800DFF87C915B4FDFF87C81002421464846DF
:104E5800FEF728FCDFF870A1002532680123AB407B
:104E6800134214BF3946414650460135FEF71AFC35
:104E78000E2DF2D10134FDF73FFA082C06F10C068D
:104E8800E4D17BE701AA4C494B4E30F049F902AD19
:104E980000283AD0022C15D1029A072A35D803994E
:104EA8000D2932D80378722B17D06E2B2DD10C23F5
:104EB80053433848012202FA01F1C25822EA01029A
:104EC800C25013E0FDF738FD01AA45F82400314629
:104ED800002030F025F90134DAE70C232D4C534338
:104EE800012000FA01F1E0580843E0502E48FFF78E
:104EF80039FF43E7284601AA2F492F4E30F010F911
:104F0800002402AD78B1082C02D1FEF7F1F835E79C
:104F1800FDF712FD01AA45F824003146002030F0C3
:104F2800FFF80134EEE7082CEFD1029B0F2BECD8E9
:104F3800DDF80CE0BEF1070FE7D8049F0D2FE4D889
:104F4800059E06F16402C82ADFD8069DFF2DDCD82D
:104F580007986428D9D808996429D6D88842D4DA19
:104F6800099C032CD1D8DFF824C0C3EBC3020CEB97
:104F780002030CF802E018715F709E70DD705971C1
:104F88009C710848FFF7EEFEF8E600BF8C3600205B
:104F98008A9503080C390020089803086E930308C3
:104FA8000D980308DF950308179803088F930308E3
:104FB8001F9803085598030828980308AC55030858
:104FC800AC96030866990308249803082DE9F04F66
:104FD800DFF818B189B08046894616460D46144652
:104FE8000027002E6DD00C222146284630F02EF9DD
:104FF80094F90B30049394F90A300393B4F9083008
:105008000293B4F906300193B0FA80FAB4F9043087
:1050180000934FEA5A1A3B465A4651464046FFF714
:10502800B5FA95F90B30049395F90A300393B5F95D
:1050380008300293B5F906300193B5F904300093AE
:105048005A463B46514640460137FFF7B7FA082F04
:1050580005F10C0504F10C04C3D10024DFF890A07D
:10506800254686B30027012303FA07FB325959F86E
:10507800043053403BEA030314BF0123002312EA20
:105088000B0F079306D000972B46524607994046C8
:10509800FFF77CFA59F804301BEA030F06D0009793
:1050A8002B46524607994046FFF788FA01370E2FDC
:1050B800D9D10135082D04F10C04D2D109B0BDE8CD
:1050C800F08FB246ADE73746012359F80420BB40BC
:1050D800134206D000972B46524601214046FFF75F
:1050E8006DFA01370E2FEFD1E3E700BF2A980308C6
:1050F80042980308F0B58BB00546FBF769F800281D
:1051080068D03549002201200BB0BDE8F0405DE7CA
:105118002D2903D0A1F13003092B56D8052C04DD25
:105128000BB0BDE8F040FDF7E3BF2846FDF704FCEF
:105138000AAB621C03EB440424F80C0C15F8013F7D
:10514800303B092BFAD9144629780029E0D1062CDE
:10515800E6D1BDF91C309AB2072AE1D8BDF91E4044
:10516800A4F2EE2292B240F2DC508242D8D8BDF9C5
:105178002050A5F2EE2292B28242D1D8BDF9226027
:10518800B442CDDCB542CBDBBDF9247007F1640233
:1051980092B2C82AC4D8BDF926001128C0DCDFF8AD
:1051A80038C00C2202FB03C240B29480D58016811D
:1051B8009772D072CDE90370CDE901560094074A81
:1051C8000846FFF7FBF90BB0F0BD2029A8D101353F
:1051D8002246B8E70446B7E70C3900202A980308A6
:1051E8002DE9F74FDFF864A081468B4617460E4637
:1051F800002447B307EB840804224146304630F0C8
:1052080025F8B8F802300193B0FA80F537F8243061
:1052180000936D092346524629464846FFF7B6F9DA
:10522800738801933BF8243000935246234629465D
:1052380048460134FFF7C2F9042C06F10406D8D118
:1052480003B0BDE8F08F3D46EAE700BF5798030872
:10525800F7B50546FAF7BCFF064630B12A490022E1
:10526800012003B0BDE8F040BAE728492846FDF719
:10527800DBFB38B9244B264AC3E90022C3E90222E2
:1052880003B0F0BD2846FDF757FB0328044632D883
:105298002846FBF79DFC074660B1FDF74DFB01264C
:1052A80005463846FBF794FC40B903B0BDE8F0402A
:1052B800FDF71EBF40F2EE250646F2E7FDF73CFB80
:1052C800002EF2D0A5F2EE2240F2DC539A42ECD83E
:1052D800A0F2EE229A42E8D80B4B0E4A23F824504B
:1052E80003EB840300215880CDE90050234608468B
:1052F800FFF764F9C4E7084908480323324603B0B6
:10530800BDE8F040FDF77CBEFC2200208A9503082A
:10531800E803D00757980308059203082E9103085D
:105328002DE9F04F2DED088BDFF80C9193B08046F6
:1053380092460D461446002695ED008AB5EE408A41
:10534800F1EE10FA70D0D5ED019A95ED029AD5EDEF
:10535800038ABAF1000F3ED094ED000A94ED01BA29
:10536800D4ED02AA94ED03AAB4EE408AF1EE10FA45
:105378005FD1F4EE4B9AF1EE10FA5AD1B4EE6A9A74
:10538800F1EE10FA55D1F4EE4A8AF1EE10FA0CBF9C
:10539800012700270FA8FDF7C3FBB0EE4B0A834691
:1053A8000CA8FDF7BDFBB0EE6A0A059009A8FDF749
:1053B800B7FBB0EE4A0A049006A8FDF7B1FB059BBF
:1053C800049A03900292CDE900B34A46334639461F
:1053D8004046FFF7DBF8B0EE480A0FA8FDF7A0FB40
:1053E800B0EE690A07460CA8FDF79AFBB0EE490A29
:1053F800834609A8FDF794FBB0EE680A049006A856
:10540800FDF78EFB049B0390CDE901B3009733466B
:105418004A46002140460136FFF7D0F8082E05F12C
:10542800100504F1100487D113B0BDEC088BBDE85A
:10543800F08F0027AEE700BF689803082DE9F04712
:105448004B4FDFF84881DFF8489104462046FAF7C9
:10545800BFFE064628B1002246490120BDE8F047B4
:105468005EE7052239462046FDF7A2FA58B9414BB6
:1054780000221A601A611A621A631A641A651A6697
:105488001A67BDE8F087042241462046FDF790FAE6
:105498000546204615BBFBF79BFB06460028F0D0C7
:1054A8002FF048F82C465FFA80FA59F8245025B9AD
:1054B8003148BDE8F047FDF7A3BD524629463046BE
:1054C800FDF776FA40B920462DF070FE29462B48A4
:1054D8002B4CFDF71EFEB9E70134E6E7FDF72CFA81
:1054E800072805463BD82046FBF772FB064648B31B
:1054F800FAF764FF1F4B03EB051383ED000A012441
:105508003046FBF765FB064638B1FAF757FF194BEB
:1055180003EB051383ED010A01343046FBF758FB12
:10552800064638B1FAF74AFF124B03EB051383ED31
:10553800020A01343046FBF74BFB28B9BDE8F047B7
:10554800FDF7D6BD0446DBE7FAF738FF094B032C15
:1055580003EB051585ED030A3FF47DAFEEE7324610
:10556800072308490848BDE8F047FDF749BD00BFD3
:105578008A950308BC6B00206E9303080D980308F6
:10558800DF950308759703082E9103080898030808
:10559800AC5503082DE9F04F834689B092460D4675
:1055A800144600264FF019094FF46178BAF1000F3C
:1055B80045D00A22214628462FF048FE2389079322
:1055C800E388069323790593E3780493A3781D4A27
:1055D80019FB03830393637819FB038302932378EE
:1055E8000193B0FA80F7637900937F09334639460F
:1055F8005846FEF7CBFF2B890793EB8806932B7948
:105608000593EB780493AB780E4A19FB0383039355
:105618006B7819FB038302932B7801936B790093C2
:105628003946334658460136FEF7C8FF1E2E05F1A7
:105638000A0504F10A04B9D109B0BDE8F08F57464C
:10564800D9E700BF7C980308F0B58BB00746FAF796
:10565800BFFD044630B100225B490120FFF79AFFE5
:105668000BB0F0BD3846FDF767F91D28054600F375
:10567800A3800A264643781C8DF82740FBF7A8FA32
:10568800514C074650B1FDF757F9032806D8A3191E
:1056980058719DF8273001338DF827303846FBF7CD
:1056A80097FA074658B1FDF747F90D2807D80A2396
:1056B8006B43E0549DF8273001338DF82730711C77
:1056C8000DF1270221443846FDF739F9FBF780FA36
:1056D800074660B1FDF730F9222808D80A2303FBF2
:1056E8000543D8709DF8273001338DF827303846A8
:1056F800FBF76EFA074660B1FDF71EF90D2808D8CA
:105708000A2303FB054318719DF8273001338DF8F0
:1057180027309DF82730062B07D0A2190023A35164
:1057280053601381FDF7E4FC9AE70A2606FB054659
:1057380000233846F3803381FBF74AFA074638B12D
:10574800FDF7FAF89DF82730F08001338DF82730FF
:105758003846FBF73DFA50B1FDF7EEF80A2303FB94
:10576800054318819DF8273001338DF82730174BF2
:105778004FF0FF321A600A226A43A3184FF4617689
:1057880019890791D988069119790591D9780491D1
:105798009878192111FB00600390587811FB00617B
:1057A8000291A25C01925B79009300212B46084A82
:1057B8000846FEF703FF53E71D232246054906481E
:1057C800FDF71EFC4CE700BFE4390020FC07002071
:1057D8007C980308759703082E9103082DE9F04F6C
:1057E8002E4EDFF8C0A087B0814690460D4614467D
:1057F80002F1300B95F9022000232949591891F933
:105808000610914245D00833302BF6D108345C4558
:1058180005F10805EED107B0BDE8F08F0822214652
:1058280028462FF013FD627994F9023056F82220A9
:105838000492A27956F822200392227956F822205F
:105848000292E27856F822200192B0FA80F7228874
:1058580000927F09524639464846FEF797FE6A7914
:1058680095F9023056F822200492AA7956F8222097
:1058780003922A7956F822200292EA7856F82220D2
:1058880001922A880092394652464846FEF796FE0B
:10589800BCE7B8F1000FC1D14746E0E76C6F0308D9
:1058A800386D0020A09803082DE9F04188B0034620
:1058B800FAF78EFC044630B147490022012008B0AF
:1058C800BDE8F0418AE7CDE9060018465D1CFDF702
:1058D80033F8414B40B203EBC40696F902208242EA
:1058E80075D00134062CF6D1002634462846FBF73D
:1058F8006FF9074628B1FDF71FF80134ADF8180015
:10590800E4B2DFF8D88000253846FBF761F907468E
:1059180000B3FDF711F8002258F822108842D3B2DC
:1059280003D00132102AF7D1002358F823209042DF
:1059380010D1022D1AD0032D1DD05A1E012DD2B21E
:105948000FD00B2A03D88DF81B300134E4B201358F
:10595800042DD9D1052C14D808B0BDE8F041FDF7C5
:10596800C7BB042AF3D88DF81C30EEE7052BEED818
:105978008DF81E30E9E79A1E0D2AE8D88DF81D30FB
:10598800E3E706AB03CB154A71609DF81D10306044
:1059980052F8211004919DF81E109DF91A3052F802
:1059A800211003919DF81C1052F8211002919DF8C6
:1059B8001B1052F8212001920021BDF818200092F6
:1059C8000846074AFEF7FAFD08B0BDE8F0818DF8F1
:1059D8001A0001248AE700BF046D00206C6F0308D9
:1059E800A09803082DE9F04FDFF8DCA087B08146C6
:1059F80090460D4614460026B8F1000F61D00622E5
:105A0800214628462FF022FCB0FA80F7207826F0AD
:105A180063F9834660797F0926F05EF9BBF1000FD0
:105A28001DD09BF80810A27894F803B094F801C030
:105A38004FF4617E192313FB02E213FB0BE394F886
:105A480004E000B1007ACDE90223CDE904E0CDE914
:105A5800001C3346524639464846FEF797FD2878DB
:105A680026F03AF98346687926F036F9BBF1000F3B
:105A78001DD09BF80810AA7895F803B095F801C0D6
:105A88004FF4617E192313FB02E213FB0BE395F835
:105A980004E000B1007ACDE90223CDE904E0CDE9C4
:105AA800001C3346524639464846FEF787FD013604
:105AB800142E05F1060504F106049DD107B0BDE8D2
:105AC800F08F4746CBE700BFBD9803082DE9F041AA
