:020000040800F2
:1000000000200010C5B5020861B602080FC2000842
:1000100061B6020861B6020861B60208000000007D
:1000200000000000000000000000000061B60208AF
:1000300061B602080000000061B602085B1100080A
:1000400061B6020861B6020861B6020861B602082C
:1000500061B6020861B6020803140008171400080C
:10006000131400080F1400080B140008D1F601083F
:10007000BDF60108A9F6010895F6010881F6010808
:100080006DF6010859F6010861B6020861B602086A
:1000900061B6020861B6020861B6020807140008DA
:1000A00009EA010871EA0108F5E9010899EA01087D
:1000B0005DEA010849EA010835EA010861B602086B
:1000C00061B6020861B6020861B6020861B60208AC
:1000D00061B60208E9F50108DDF50108D1F501086E
:1000E000FF13000861B6020861B6020861B6020893
:1000F00031EA010861B602081DEA010861B602088A
:1001000000000000000000000000000061B60208CE
:1001100061B6020861B6020861B6020861B602085B
:1001200045F6010831F601081DF6010809F6010837
:10013000F5F5010861B602080000000000000000AB
:1001400061B6020861B6020861B60208000000004C
:10015000000000000000000000000000000000009F
:10016000000000000000000061B6020861B602084D
:1001700061B602080000000000000000000000005E
:080180000000000061B6020856
:100188002DE9F8431B4D1C4C2B7806460F463BB116
:10019800D4E90023994208BF904224BF00232B7062
:1001A800DFF85880D8F8203040469847C2070ED567
:1001B8000123237280F00203C3F340032B70D8E9B4
:1001C800042312EB060843EB0709C4E90089430737
:1001D80044BF012363722369F61A002EC4BF0123AA
:1001E8002372237A23B9607A00F00100BDE8F8830E
:1001F8000120F9E7486A0020D0090020983A002039
:100208000E4B03F1140130B50A46044653F8045B5B
:1002180044F8045B8B42F9D1084B00F1140153F800
:10022800044B41F8044B9342F9D1044B283053F85E
:10023800041B40F8041B9342F9D130BDDCDD0208F1
:1002480020B10078B0FA80F040097047012070476B
:10025800436A8269D154436A02690133934228BFD1
:100268000023426B4362136843F0800313607047B6
:100278000346026A4169885CD96801328A4228BF0C
:100288000022C0B21A627047D0E90902131A584214
:1002980058417047D0E9092300699A4238BF1218BB
:1002A800D31A0138C01A7047D0E907239A422FBFE2
:1002B800D01AC0688018C01A704783681A68937A81
:1002C8000133DBB20A2B937205D950780249002317
:1002D80021F81030937270471231002030B5504C1D
:1002E800237E14200133B3FBF0F200FB1233237694
:1002F8004C4B5D68186D9A68A94208440CD293F873
:100308005850002D00F0888000F58030824239D3A3
:10031800C2F5803202440AE08242F9D293F858507A
:10032800002D14BF4FF480350025821A521BC3E9F3
:100338000110617EDA600022013183F8582014220E
:1003480091FBF2F002FB10116176A17ED8680131B1
:1003580091FBF2F502FB1512A27640F68C22904230
:100368003ED91A7893F955108A4250B21ED1111FFE
:100378000C291BD893F85610182906D8013183F890
:10038800561004E04FF48035CFE783F8540093F912
:1003980054108A4202D193F85710D1B9012283F838
:1003A800572083F8550000221A7030BD0021E6E777
:1003B80003EB81052D6924F8115001318A42F7DCDD
:1003C800194900240F2A07DD18490A7801320A70F2
:1003D800E4E70021144CF1E721F812400132F1E77B
:1003E80093F85720002AE0D0A0F2EF2140F2DA5229
:1003F800914207D81A780F2A04D8111D013243F800
:100408002100D1E7002283F85720104699180432BA
:10041800402A0861FAD1C8E7824286D378E700BF4C
:10042800D0090020682C0020123100201031002053
:1004380010B50B48037E14240133B3FBF4F204FB1C
:100448001233084A0376136D01330B4413654FF6D4
:10045800FF73994204BF012382F8583010BD00BFD2
:10046800D0090020682C00200B4B1B681B0110B41E
:1004780006D50A4B1B685B050AD55DF8044B15E0E9
:10048800074B53F820301BB107289CBFDB68196065
:100498005DF8044B704700BF206E002060490020C3
:1004A800A42D0020012070470120704770B5104C22
:1004B80005460E4600220023D4E908012AF0EAFC8A
:1004C80020B109A3D3E90023C4E9082330462AF060
:1004D8000FFAD4E908232AF09FFB2AF00DFD04EB5C
:1004E8004504208570BD00BFABAAAAAAAA46104041
:1004F800D00900200E4B984213D0A3F578439842B8
:1005080011D003F5806398420FD10223094A1421C0
:1005180001FB03231A8A013292B21A82188A80B226
:1005280070470023F2E70123F0E74FF0FF307047F0
:1005380000300140C000002008B540F2E9330289CC
:1005480092070AD5017340F2E9330289D2070CD425
:10055800013B9BB2002BF8D103E0013B9BB2002B7F
:10056800EDD1FFF7C7FFC0B208BD007BFBE730B590
:10057800084B09498B4200D330BD5A88140406D56C
:100588005D68DC68C2F30B0200FB02522260143380
:10059800F0E700BFB85303085057030830B5027896
:1005A800202A034600F10100F9D0092AF7D02D2AA4
:1005B8004BD10346BFEE000A9FED3C7A1A46F2EE95
:1005C800046A134612F8010BA0F13001CCB2092CD1
:1005D80041D92E280BD1F2EE046A1146B0EE666AB4
:1005E8000B4611F8012B303AD0B209283CD91A78B9
:1005F80002F0DF02452A53D15A782D2A3FD102331F
:100608000120013B00220A2513F8011F3039CCB222
:10061800092C3AD9B2F59A7F1346DFED256A28BF2F
:100628004FF49A731A46F7EE007A072A30D8DA0898
:100638006FF0070101FB0233F2EE046A63BB88B373
:10064800C7EE276A20EE260A30BD2B2A08BF0346CC
:10065800B7EE000AB0E707EE901AF8EEE77AE7EE91
:10066800267AB0EE677AACE707EE902AF8EEE77ADA
:10067800C7EEA65A66EE866A37EE257AB0E72B2AC9
:1006880014BF013302330020BBE705FB0212BBE7AE
:1006980067EEA67A083AC8E767EEA67A013BCDE787
:1006A800F7EE007A67EE276ACCE700BF000000008B
:1006B80020BCBE4CA0F13003DAB2092A01D8184692
:1006C8007047A0F16103052B01D857387047A0F196
:1006D8004103052B94BF37384FF0FF307047F0B512
:1006E8000124B0FBF4F58D4203D200271CB91C701D
:1006F800F0BD4C43F5E7B0FBF4F604FB1600B4FB81
:10070800F1F42FB9002E03DC002CEFD1302505E0E1
:10071800092EFBDD002A14BF3725572535441D70E7
:1007280001370133E2E703685A1C02601970704709
:1007380003685A1C0260197070472DE9F84F002BA6
:1007480014BF4FF030094FF020090A9B141E0746CA
:100758008846BABF64424FF0010B4FF0000B13F804
:10076800012B02B134B9BBF1000F0ED000230A9D52
:100778005E1B0EE0013CF2E749463846C04715F1DA
:10078800FF35F9D223462C46F1E72546F7E73846E8
:10079800C04705EB060A15F8011B0029F7D1BBF184
:1007A800000F05D02546002D05DC002CA8BFA2446B
:1007B8005046BDE8F88F49463846C047013DF2E744
:1007C8002DE9F04F4FF0000C85B08646074680466D
:1007D800054600F1400908F1100B2B463E4612E091
:1007E800F4EC016A1AED047AD3ED007AE6EEC77AE2
:1007F800C3ED007AAC420AF1100AF1D104335B452B
:1008080006F1040602D0B2464446F3E71E464E45BA
:100818001CD006EB0C0BBA46B04607E0F8EC016AB0
:100828001AED047AE6EEC77AC4ED047AD845D4ED19
:10083800047A0AF1100AF1D1D5ED006A87EEA67A9A
:10084800103617EE108A44F8108FE0E70CF1040C0C
:10085800BCF1100F05F1140507F104079846BAD149
:100868000023009301930293039302F110070546B6
:100878006C4652F8043B44F8043B6E467346AB4260
:1008880024D1BA420EF1100E03F11405F1D1403013
:1008980004AE01F11003054656F8044D43F8044C24
:1008A8001A1F0446AC42D2ED007A1AD150ED016A03
:1008B80087EEA67A8A42A0F11400A4F11005134627
:1008C80082ED007AE8D105B0BDE8F08FB6EC017A88
:1008D80054ED017AF3EC016AE6EEC77A44ED017A49
:1008E800CDE7F4EC016AB3EC017AE6EEC77AC2ED23
:1008F800007AD7E703690133012B036106D100238E
:1009080080ED010A80ED000A8360704790ED006A6F
:1009180007EE903A70EE466AF8EEE77A86EEA77A26
:1009280077EE067A90ED027AC0ED017A30EE670A2A
:10093800C0ED007AA6EE807A80ED037A80ED027A27
:100948007047D0ED006AD0ED057AE6EE807AB0EE19
:10095800407AB0EE670AD0ED037AD0ED016A67EE0F
:10096800C07AE6EE877AD0ED066A77EEA67AD0ED01
:10097800026AC0ED057AD0ED047A67EEC07AE6EE39
:10098800877AC0ED067A7047704738B50A4C07EE8B
:10099800901A54F82030B8EEE77A93ED040AD3EDB4
:1009A800057A0546A7EE270A2BF062F954F8253098
:1009B800DB68186038BD00BF34200020F8B52DED85
:1009C800028B0378012B044649D100F11C0205462D
:1009D80000F1640652ED017AB1EC010A77EE807AF3
:1009E800104642ED017AFFF785FF1832B242F1D185
:1009F8002C4E616832682369521AA16801338A4211
:100A080023612CD99FED288A04F13007EB6A012B6A
:100A1800C1BF03F1FF3307EE903A95ED0A7AF8EE7D
:100A2800E77AD4BFB0EE480A87EE270A2BF0B4FB6A
:100A3800BD42D4ED057A15D0F4EEC07AF1EE10FA85
:100A480005F11805E2D5237B4BBB326862600022B2
:100A58002361A261E36222636364A264E365BDEC7F
:100A6800028BF8BDF4EEC07AF1EE10FAEBD4D4EDB7
:100A7800047AD4ED066AF8EE677A022386EEA77A3E
:100A8800D4ED0C6A84ED067A86EEA77AD4ED126A64
:100A980084ED0C7A86EEA77A84ED127A00E00323BF
:100AA8002370DCE7E83E00200000000008B52021A4
:100AB8002DF027F90346184623B10278202A03F1BE
:100AC8000103F8D008BD70B583681C688BB2A178A3
:100AD80039B9A3800123A3700A22BDE870401EF033
:100AE8000BB9A288E3809A4281BF41680968C96A44
:100AF800891A94BF9B1A5B1823816278054B218958
:100B080023F812100026A6700A2201211EF0F4F81C
:100B1800A67270BD123100202DE9F0410B4DDFF8AF
:100B280030802C686A69012714400CB9BDE8F0814F
:100B3800B4FA84F3C3F11F0307FA03F658F8230045
:100B48000368984724EA06046E61EEE70004014052
:100B5800082C00202DE9F341056906460F467DBBA8
:100B6800D0F80080C8F30A0323B30023D6F8008026
:100B780001931CF0F5FA042819D1224C236943F09B
:100B880001032361BBB2A8F800301CF0E9FA04287D
:100B98002ED108F102030193019B3F0C1F801CF02A
:100BA800DFFA2369042823F00103236125D06FF0BD
:100BB800010505E01CF0D4FA042805D04FF0FF35F4
:100BC800284602B0BDE8F0810E4C236943F00203C9
:100BD8002361C4F81480236943F0400323611CF0A7
:100BE800BFFA2369042823F002032361BDD0E5E797
:100BF800236923F001032361D9E7336804333360A1
:100C0800DEE700BF00200240F8B504460D468E1806
:100C18000027B54201D12069F8BDE368591CE1609D
:100C2800234415F8012B1A720429F2D1A168204631
:100C3800FFF790FFC4E90370EBE738B50C468D1851
:100C4800AC4200D138BD14F8011B09F027FEF7E7C4
:100C5800104B10B51C68610702D527F009F8B0B130
:100C6800A20603D50C4B1B7E022B10D10B4B93F81D
:100C7800C40001280AD00A4B1878012801D1A3071B
:100C880004D4084B1878023818BF012010BD012081
:100C9800FCE700BF5C6F00209071002038730020D3
:100CA8009405001034040010084A03465078C01A0E
:100CB80018BF0120022B88BF00235370044AC3EBDE
:100CC800C30302EB8303034A136070476468002080
:100CD800203D00209039002070B50B4E35782D1A34
:100CE80018BF01250328044634BF044600242046C3
:100CF800FFF73DFC054B347004EB840403EB8404DC
:100D0800034B28461C6070BD64680020180A002048
:100D18003475002070B538B34C684CB945682A68FA
:100D28006D79D6680223AB40DB439BB23340D36076
:100D38008A683AB943681D68EB6823F001031B040D
:100D48001B0CEB60816044B1446821686479CD680C
:100D58000223A3409BB22B43CB602AB143681A6895
:100D6800D36843F00103D36070BD10B5044650B199
:100D78001EF05AF920461CF03BFA63681A6813887B
:100D880043F00103138010BD2DE97848214B5A68C0
:100D9800214BC2F308028AB9EFF3118272B91F48D6
:100DA8001F491D6886681A689542FAD1D1F88820CB
:100DB8009642F6D81B4BD3E900231AE0EFF31182D1
:100DC800102181F3128801F1E0218E68086810F47F
:100DD800803F13481EBF0124C0F884408E681968FC
:100DE800D0F88450D3B283F311880E4BD3E9002393
:100DF8000D444FF47A74A2FB04BC04FB03CCBBEB98
:100E080006006CF100012AF045FAE4FB0501BDE893
:100E1800788800BF00ED00E0E83E002010E000E028
:100E2800D0090020706200202DE9F043AC4C256801
:100E380015F0040687B005D001201CF06DFA07B044
:100E4800BDE8F083FFF704FFA64B002800F00F81F0
:100E580045F40075256083F88C60A34A236892F8EE
:100E68002920012A14BF43F4802323F4802323601C
:100E78009E4B1B7843B925680BF064F9002800F0F5
:100E8800048145F40025256028F0C4FE40B125689A
:100E98000BF07EF9002800F0FB8045F40005256082
:100EA800934E236837683A07924A54BF43F48073D5
:100EB80023F48073236012882368632A8CBF43F469
:100EC800806323F48063082023600AF009FF8046CA
:100ED800002840F0E28013200AF002FF002840F0CA
:100EE800DC8009200AF0FCFE002840F0D680FB06D2
:100EF80040F1D18003200AF0F3FE002840F0CD80B5
:100F080023200AF0EDFE054628F084FE90B1B8F1E2
:100F1800000F40F0C48013200AF0E2FE002840F0E1
:100F2800BE8003200AF0DCFE002840F0B8802320B1
:100F38000AF0D6FE704B5A789946002A00F0B48021
:100F48006E4B6F4A93F80080B8F1000F03D16D4BD8
:100F5800DB79022B07D1137A002B00F0A28087F0EF
:100F6800010707F0010823685F0704D41DB10028B2
:100F780008BF4FF0010892F9F937002B14DDD2F8B9
:100F88005C320393D2F86032049303A9D2F8643236
:100F98000593012268461CF051FC684622F0C0F80F
:100FA800B9F80E30984202D8B8F1000F7CD0236807
:100FB80043F400632360544B1A682368150777D5F8
:100FC8003168C80574D443F48053236091072368BB
:100FD80071D5326892056ED443F40053236017F03C
:100FE8005BFD2368002869D143F400432360474B25
:100FF800187868B925680AF073FE25F0784323F05D
:101008007F03002B5DD000285DD045F48045256026
:1010180012200AF065FE2368002857D043F4803375
:10102800172023600AF05CFE2368002851D043F49F
:1010380000331B2023600AF053FE236800284BD09E
:1010480043F0807323602368314A23F0784323F008
:101058007F0303B102231370FFF796FE2D4B1B6825
:10106800C01A0028FFF6EBAE19F0F6FEE7E693F893
:101078008C2025F400752560002A7FF4EEAE01204F
:1010880083F88C0009F008FDE7E625F40025FAE668
:1010980025F4000503E7454636E7012534E7012036
:1010A80048E74FF001085EE7236823F4006381E70F
:1010B80023F4805389E723F400538FE723F4004394
:1010C80094E70028A4D125F48045A0E723F48033D1
:1010D800A6E723F40033ACE723F08073B2E700BF40
:1010E800E86D0020D0090020EC6D0020742200205B
:1010F800604900201C0400106C490020B520002025
:1011080044410020207500205C6F0020340000203E
:10111800453C0020483C0020F8B504460D46FFF742
:1011280033FE06460F46FFF72FFE821B61EB0703CF
:10113800AB4208BFA242F6D3F8BD10B5044614F17D
:10114800FF3400D210BD4FF47A700021FFF7E4FF9E
:10115800F5E7EFF31183102282F3128808490A6831
:1011680001320A60074A08499068C1F888000020DF
:10117800C1F884001268DBB283F31188704700BF9E
:10118800E83E002010E000E0D009002003689B6AD8
:1011980003B11847704703685B6A03B11847704783
:1011A80003689B69184703685B69184703681B69EC
:1011B80018470368DB68184703689B681847036883
:1011C8005B68184703681B68184708B5184B194C23
:1011D8001D68A06809F092FB284609F08FFBA068FB
:1011E80041798B0703D441F00201FFF7D9FF0020B2
:1011F8001CF092F8A068FFF7E2FF60B101201CF034
:101208008BF8A068FFF7D5FF01462846FFF7DAFFFD
:1012180000201CF081F82846FFF7D1FF0028E9D00C
:101228002846FFF7C6FF0146A068FFF7CBFFE1E7B6
:10123800B42A0020B46800200368DB6970B506464C
:101248000C4615467BB90D442B1B002B00DC70BDEA
:101258003046FFF7B1FF0028FAD014F8011B3046DA
:10126800FFF7B0FFF0E7BDE870401847E4E7014B2F
:101278001868A7E7FC2A002038B505460C4614F87C
:10128800011B01B938BD2846FFF79CFFF7E710B5E9
:101298000409013C052C00F00F0216D80C4B33F85A
:1012A800141041FA02F313F001000DD00120904010
:1012B800013808402AF006F8064B1C440C22237D0E
:1012C8001844054B02FB003010BD0020FCE700BFAE
:1012D800A4F90208DCDD0208EC3E002010B1036826
:1012E80082881A85704710B1036882889A617047AE
:1012F800F8B5164690F90C2014235343104AD558D4
:1013080083689A0704460F4606D40069FFF7E6FF8C
:1013180001200021FFF700FF39462846FFF70CF9A6
:1013280031462846FFF708F9A3689B0706D4012031
:101338000021FFF7F1FE2069FFF7D5FF0120F8BD76
:10134800C000002038B183880268002914BF00213A
:1013580010218B4093617047044B01461868044B79
:101368001B780BB981F00101ECE700BF882E002043
:101378008C2E00202DE9F04180460B25013D04D13B
:10138800164B174ADA60BDE8F08100201BF0C4FF55
:1013980008F10106322705241BF0B1FF0120FFF7F1
:1013A800DBFF3846FFF7C9FE1BF0A9FF0020FFF757
:1013B800D3FF3846FFF7C1FE74B1013CECD14FF4BE
:1013C800FA70FFF7BAFEFA2726B94FF47A70FFF7DA
:1013D800B4FED3E70024DFE7013EF5E700ED00E0C7
:1013E8000400FA0530B103681A8A83881A4214BFC8
:1013F800012000207047FFF78FBBFFF78DBBFFF779
:101408008BBBFFF789BBFFF787BBFFF785BBFFF7F0
:1014180083BB03689B6A18472DE9F34104461846C5
:1014280016460D461F4629F009F92368E672284436
:101438000022A0720092D3F8148032463B46294617
:101448002046C04702B0BDE8F081036810B50446E5
:101458005B689847236820469B689847A37B013BB5
:10146800A37310BD036810B504461B68984723682A
:1014780020469B689847A37B0133A37310BD10B522
:10148800036804469B68984701232373FF2363730B
:1014980010BDF8B584894FF6FF764FF47A740BB90E
:1014A80001201BE07AB1157801320789BF070CD5F6
:1014B80005734FF47A740589ED0710D4013CA4B282
:1014C800B442F8D105E0FF25EFE7013CA4B2B442ED
:1014D800EBD1FFF70FF8003018BF0120F8BD057BEE
:1014E800EDB209B10D700131013BD8E770B5164670
:1014F80090F90C20142353430C4AD55883689A0753
:10150800044602D40069FFF7E9FE2846FFF714F8FD
:101518000123002231462846FFF7BBFFA3689B073B
:1015280002D42069FFF7DFFE012070BDC000002053
:10153800F8B5164690F90C201F46142353430D4A5C
:10154800D55883689A07044602D40069FFF7C6FE97
:101558002846FEF7F1FF3B46002231462846FFF7B2
:1015680098FFA3689B0702D42069FFF7BCFE0120FF
:10157800F8BD00BFC0000020F8B51F4690F90C3038
:101588000446142058430C4B1D58A36816469A0766
:1015980003D42069FFF7A2FE00BF3B463246284627
:1015A800FFF777FFA3689B0703D400BF2069FFF705
:1015B8009AFE0120F8BD00BFC0000020F8B50579EB
:1015C800012D0346174609D0022D23D18368DB0776
:1015D80058BF41F08001BDE8F84087E70E4A90F90E
:1015E8000C00182404FB002462788AB19A685B7B9B
:1015F800E1725B0063720023A37223750223A37058
:1016080002F00103C4E9035723721EF065F8227D36
:101618001046F8BD0022FBE7246300202DE9F041C5
:101628000479012C054616461F4609D0022C24D100
:101638008468E40758BF41F08001BDE8F04177E7CE
:101648000F4B90F90C00182404FB003463788BB11D
:101658006A7BAB68E17252006272002203F00103F8
:10166800A272227502222372C4E90376A2701EF0C8
:1016780033F8237D1846BDE8F0810023FAE700BF60
:101688002463002073B50579012D0E4614460AD04F
:10169800022D29D18368DB0758BF01F07F01FFF7CE
:1016A80027FE02B070BD90F90C108268437B0F488A
:1016B8008DF80740182404FB010460780028F0D056
:1016C8005B0063720DF10703236100232375022376
:1016D800A37002F001030846E672A572E560237262
:1016E8001DF0FAFF207DDCE70020DAE72463002004
:1016F800094B70B5841CD3F89050A400E4B20E4690
:10170800CAB228462146FFF7BDFF611C320A2846A7
:10171800C9B2BDE87040B5E7D00900202DE9F04115
:101728000E4E8046002406F16C07E0B200F0030379
:1017380043450ED136F8145037F81430EB1A002B05
:10174800B8BF5B42052B04DD2946FFF7D1FF27F818
:1017580014500134102CE8D1BDE8F081F8090020BC
:1017680038B50F4BD3F890501022002141F2D774AE
:10177800B4FBF0F42846FFF785FF0120FFF7DDFCF6
:10178800621ED2B2FE212846FFF77CFF0120FFF738
:10179800D4FC284680220021BDE8384072E700BF0B
:1017A800D009002073B50479022C39D1032390F9AC
:1017B8000C008DF8033004238DF8043014234343C0
:1017C8001A4E1B48F3588DF8024000250122834227
:1017D8008DF800508DF8012024D0A0F57840834280
:1017E80022D0144A93421BD1204602AA11441A88D7
:1017F80011F8084C22F040021204120C14211A802D
:1018080001FB00601A88C16822F0380231F8141010
:101818001204120C0A431A801A8842F040021A80F5
:1018280002B070BD2846E0E71046DEE7C0000020A1
:1018380000300140003C004010B5427A044632B105
:10184800036800F10A01406898470023637210BDDD
:10185800064B1B68597A4A1C1944D2B25A728872CC
:10186800197A914201D81846E6E77047B02A002055
:1018780010B4447A631C0444DBB24372A172027A46
:101888009A4202D85DF8044BD6E75DF8044B7047DE
:1018980038B5094D441E14F8011F01B938BD286830
:1018A800427A531C0244DBB243729172027A9A4222
:1018B800F1D8FFF7C1FFEEE7B02A002008B50446CB
:1018C8000648FFF7E5FF064B1868FFF7B5FF054B1D
:1018D800186809F013F8204614F0DCFCA82B03085C
:1018E800B02A0020B42A002008B5084B1868FFF772
:1018F800A3FF074B00241C70064B1C60064B1C7092
:1019080009F094FA2046FFF7D9FF00BFB02A00205B
:10191800BC2A0020B82A0020614C002008B501200C
:10192800FFF7CCFF08B50448FFF7B2FF034B186870
:10193800BDE8084080E700BFB42B0308B02A0020A8
:101948000048A5E76E31030838B5064D002455F860
:1019580034000134FFF79CFFFFF7F2FF222CF6D189
:1019680038BD00BF94F8020808B5FFF791FFBDE83D
:101978000840E5E708B50848FFF7F6FF1CF0BCFE8D
:101988001CF062FD18B10548BDE80840ECE764208A
:10199800FFF7D3FBF4E700BFB92B0308C42B0308F8
:1019A8000048E1E7CA2B0308124B53F8200070B532
:1019B800E0B1114A062303FB002393F90140621C9E
:1019C80015D0187990B10D4A0D4E155DDA7864215D
:1019D8001423002061438C18013B36F814402A4434
:1019E8002044F8D11423B0FBF3F080B270BD00207E
:1019F800FCE700BFC0390020FE640020DB2E002079
:101A08006E63002038B503200D461446FFF7CCFF5F
:101A180007EE100A8DB1DFED0B7AB8EE477AF0EEDB
:101A2800006A27EE277AF8EE047AE7EE267A9FED29
:101A3800067A67EE877AC5ED007A0CB1034B23600E
:101A480038BD00BF6740533A00007A4433139043CF
:101A580070B544880B460546C4F30B0422460021A2
:101A680018462CF037F92969084A9142034607D3EA
:101A7800074A914204D22246BDE8704029F018BFB7
:101A880019B11846BDE87040084770BD50570308A3
:101A9800D45903084388426813F4004F1EBFC9B2E3
:101AA800C3F30B0301FB03221146D1E7064B074999
:101AB8008B4202D30023184670471A88C2F30B02E0
:101AC8009042F8D01433F3E7B8530308505703088B
:101AD800024A136823EA0000106070473469002046
:101AE800024A136818431060704700BF3469002029
:101AF80038B5174C174DAC4216D30020FEF737FD0A
:101B0800154818F05BF94FF40020FFF7E9FF4FF490
:101B18008000FFF7E5FF00BF104B1878FFF7DCF8EF
:101B2800BDE8384022F0D6BAB4F90230002B4FF0A5
:101B38000001204607DAFFF7ADFF01212046FFF735
:101B4800A9FF02212046FFF7A5FF1434D3E700BF01
:101B5800B853030850570308D62B030864680020BD
:101B680070B501221049114C114E0020FFF765F89D
:101B780022884AB1A518B54214D2052A12D921469D
:101B8800FFF75BF82C46F3E702222146FFF755F8EA
:101B98006388084AC31AA41A074A5842A2F8B440EC
:101BA800584170BD0020FCE700E8030801E803087D
:101BB80000000408FCE70308D00900202DE9F04FD5
:101BC8008DB018F037F9DFF8B081664BA3EB080346
:101BD8004FF0030901931022002108A82CF07AF88D
:101BE800019B0793604BCDF818801A69120641BF14
:101BF8005E4A5A6002F188325A600CAC01253422E0
:101C08008DF82C50DA607E2304F8243D2A462146BC
:101C180006A8FEF7F9FF21462A460020FFF70DF82F
:101C2800534CADF80E004FF0000B524B9C423AD388
:101C3800022204A9002406A8ADF81040FEF7E4FF2C
:101C4800BDF80E00022204A9FEF7F7FF0CA9022234
:101C580021F8220D06A8FEF7D7FF099860B108AB56
:101C6800C0F10402214618442CF034F8089906A85B
:101C7800FEF770FFCDE909409DF82C300A9A23B190
:101C880039490B6943F080030B61B9F101095FD051
:101C9800002AA0D198F800307E2B5BD1FFF760FFB7
:101CA80000285AD156E062888DF815B0C2F30B06A9
:101CB800B31DADF810302388C3F30B011B0B8DF84F
:101CC80014301304ADF812101BD4062204A906A878
:101CD800FEF79AFFBDF80E00062204A9FEF7ADFF35
:101CE8003246ADF80E00616806A8FEF78DFFBDF814
:101CF8000E0061683246FEF7A0FFADF80E001434FE
:101D080093E700273D460135EDB2062204A906A84F
:101D18008DF81550FEF778FFBDF80E00062204A9CD
:101D2800FEF78BFF6368ADF80E0003EB070A324637
:101D3800514606A8FEF768FFBDF80E003246514628
:101D4800FEF77BFF032DADF80E003744DBD1D6E755
:101D5800002A9FD00520FFF70DFB18F04FF80DB0B3
:101D6800BDE8F08F00000408002002402301674509
:101D7800B85303085057030800E80308324A38B537
:101D8800136859075ED5314D314923F004031360B8
:101D98002B6808701A0315D52E4C22780B2A0BD8FD
:101DA8000123934040F6030119400BD113F4C06F8F
:101DB80002D0FF2015F078FF274B1A68274B5A608E
:101DC8000B232370264C94F8C430B3B3224BD4F8B9
:101DD800C8201B689B1A4FF47A72B3FBF2F3092BE5
:101DE8002BD9D4F8B8201344C4F8B8301D4B93ED60
:101DF800000A29F03DFFD4F8CC30C01A6423B0FBA8
:101E0800F3F0D4F8BC3018442B68C4F8BC009B0726
:101E180011D516F093FF70B1134BD4F8D0201B687E
:101E28009B1AD4F8C0201A44C4F8C020D4F8D4208F
:101E38001344C4F8D430FFF7C1FE0520BDE838408C
:101E480008F02ABE38BD00BFE86D0020206E0020D3
:101E5800C3340020C2340020E83E0020C4340020EF
:101E6800D00900205C49002040720020044808B5D1
:101E7800FFF70EFDFFF7A2FE0020FFF71FFD00BFD2
:101E8800DF2B030830B50244904201D1002311E052
:101E980010F8013BA3F14104192C11F8014BA4F1EE
:101EA800410598BF2033192D98BF20341B1B01D141
:101EB800002CE9D1184630BD70B5054608460E46D7
:101EC80028F0BCFB3146044602462846FFF7DAFFF5
:101ED80060B92B5DA3F13002092A06D923F020034B
:101EE800413B192B01D9601C284470BD0020FCE738
:101EF80010B504460748FFF7CBFCFFF7F9FDFFF7DD
:101F08005DFE05492046FFF7D7FF08B9FFF7D6FC65
:101F180010BD00BFE62B0308AE30030870B50346BA
:101F280010F8012B202AFAD0092AF8D02D2A0ABF46
:101F3800034601254FF0FF35591E00240A2611F8E3
:101F4800010FFEF7B7FB0A2802D905FB04F070BDA4
:101F580006FB0404F3E770B50D461446FEF7A6FD2C
:101F68000646A0B1FFF7DAFF40F634039842A8BF4F
:101F78001846B0F5617FB8BF4FF461701923A0F51A
:101F8800617090FBF3F0287023780133237030469A
:101F9800FEF78CFD0646A0B1FFF7C0FF40F63403FC
:101FA8009842A8BF1846B0F5617FB8BF4FF461707A
:101FB8001923A0F5617090FBF3F068702378013362
:101FC8002370304670BDB5EEC00ADFED2D7AF1EE14
:101FD80010FACCBF30EE270A30EE670ADFED297A17
:101FE80020EE270A30B5FDEEC07A87B017EE904A8A
:101FF800054684EAE470002303A9A0EBE470CDE968
:10200800003302931BF012F9002CACBF20232D23C0
:1020180003A88DF8003028F011FB012822D13023C5
:102028008DF801308DF802308DF8033003A9684629
:102038002BF058FE684628F001FB0338C4B222464C
:10204800694628462BF084FE00232B550E49284666
:102058002BF048FE0DEB040128462BF043FE2846E2
:1020680007B030BD022805D130238DF801308DF836
:102078000230DBE7032804BF30238DF80130D5E7B1
:102088006F12033A00007A449246030870B5064678
:1020980015460846B6FBF2F414B12046FFF7F6FFE2
:1020A80005FB1464024B1B5D00F8013B70BD00BFCB
:1020B800FC2B03080A4B2DE90048D3E900BC5BEA76
:1020C8000C030AD0074909681BEB01024CF1000315
:1020D800C0E900230120BDE800880020FBE700BF1D
:1020E800586A0020E83E0020F0B5264E04460F4608
:1020F8000FCE8DB06D460FC50FCE0FC596E80F00F9
:1021080085E80F0014F0030335D1642194FBF1F244
:1021180001FB124242B94FF4C87294FBF2F302FB7E
:102128001343003318BF0123C3F11D0340F26D129E
:1021380001930420631E93FBF0F002FB04046FF08C
:10214800630093FBF0F020444FF4C87493FBF4F35E
:102158001844063000220721013F5DF822309742DB
:10216800184490FBF1F4C4EBC404A0EB040004D1C0
:10217800181A0DB0F0BD0123D6E701320C2AECD1B4
:102188000020F6E7F8DD0208F8B514461D460646B5
:102198004FF47A7200232046294629F02BF82C4B5D
:1021A8003C22034493FBF2F002FB1031B17190FB27
:1021B800F2F102FB1102182072714FF4616293FB75
:1021C800F2F292FBF0F100FB112232712149224A0E
:1021D80093FBF2F293FBF1F3980040F2B55392FBB4
:1021E800F3F103FB1123B3F5896F2DDA40F2DA22FC
:1021F80093422BDCB3F5B77FB4BF00220122174905
:10220800182707FB02170B2137F811C09C4501DD81
:102218000139F9D100F5FA6010443080481CB070DB
:102228000C2000FB02120E4901EB4202013392F826
:102238004C209B1AF3704FF47A72002320462946EB
:1022480028F0D8FF3281F8BD0322D8E70222D6E76A
:1022580080BC92C7801F86078051010028DE0208D3
:10226800DCDD020837B505466846FFF723FF04465C
:1022780038B1DDE900232846FFF786FF204603B082
:1022880030BD40F2011328806B80A880A871288196
:10229800F4E710B50288C178A2F5FA62930801390B
:1022A80040F2B55404FB031381780C24013902F081
:1022B800030204FB02120D49847901EB4202182142
:1022C800B2F84C201344027901FB032342790089B8
:1022D8003C2101FB0323064A224401FB03234FF45C
:1022E8007A720021C2FB030110BD00BFDCDD0208C9
:1022F80080436D38D1E900329A4206D05A1C0A60F0
:1023080008B11B780370012070470020704710B592
:1023180002681146531C036011F8024B0160D31C7C
:102328005178036093781B0443EA0123111D01606F
:10233800D078234343EA006010BD03685A1C02604A
:102348001A4612F8021B0260587841EA00207047CA
:10235800D1E900239B1A012B10B5044605DD084678
:10236800FFF7EBFF2080012010BD0020FCE7036889
:102378005A1C02601878704738B50446D0E9000343
:102388001B1A9A42154606DC29F092FA22682A445A
:102398002260012038BD0020FCE738B504460068FB
:1023A800154629F085FA22682A44226038BD036858
:1023B8005A1C0260197003685A1C02600A0A1A70D3
:1023C80003685A1C02600A0C1A700368090E5A1C2A
:1023D80002601970704703685A1C0260197003681C
:1023E800090A5A1C0260197070472DE9F04F89B02C
:1023F80082468B4615461C4600270DF1140829789D
:102408006E1C51B3252903D05046D847013742E006
:1024180069782D2905BFA978EE1CAE1C012518BFC7
:102428000025302906BF3178012300230293A1F14A
:10243800300308BF0136092B4FF0000916D96C2963
:1024480040F0A0803278642A06F1010544D024D8EF
:10245800252A7BD014D8002AD1D1384609B0BDE846
:10246800F08F0A2316F8011B03FB09090846FEF73B
:1024780021F90A28F5D9002DE1D0C9F10009DEE7D4
:10248800582A1AD0632ABAD12E4621785046D847FE
:10249800251D01372C463546B1E7732A4AD008D89E
:1024A800662A56D06E2AAAD12E46236804341F60A5
:1024B800F1E7752A0AD0782AA1D1A2F15800424240
:1024C80004F1040643464241102103E0261D434619
:1024D80000220A21206807E02068002804F1040689
:1024E8001ADB434600220A21FEF7F9F83446CDF8F4
:1024F8000080029B4A4659465046FEF71EF907449B
:102508007DE7206800280EDB434600220A210434B8
:10251800FEF7E5F83546EAE72D238DF814304042FA
:102528000DF11503DEE72D238DF8143040420DF12F
:102538001503EAE72E46236800934A4600235946C6
:102548005046FEF7FAF8251D0744A3E72E46252135
:102558005AE72E46073424F00703D3E9000103F1B4
:10256800080428F0E9FC00EE100A4046FFF72BFDAE
:10257800CDF80080029B4A4659465046FEF7DDF8E2
:10258800074488E76429BCD00CD82529DFD003D8B4
:1025980000293FF462AF7EE7582911D063293FF440
:1025A80074AF78E77329C6D005D86629D2D06E29CA
:1025B8003FF47BAF6FE775290DD078297FF46BAFB7
:1025C80058394A424A412068251D43461021FEF7E2
:1025D80086F82C469EE7231D039320684346002275
:1025E8000A21FEF77CF83546039C80E70FB413B543
:1025F800084C0949206804AB53F8042B0193FFF7F2
:10260800F4FE2068FFF718F902B0BDE8104004B0E6
:10261800704700BFB02A00207918000810B5074C91
:102628000B46024606492068FFF7DFFE2068FFF7E1
:1026380003F9BDE81040FFF783B900BFB02A0020B6
:10264800791800080FB407B504A951F8040B0191D3
:10265800FFF7E4FF03B05DF804EB04B07047F8B58A
:102668000F48104D104E114FFFF7ECFF002474B9BE
:102678000F4BD3F8D8306FF003025A4312F580623B
:102688000BD055F824103046FFF7DCFF03E057F86D
:102698002420002AF5D1232C01D00134E7E7F8BD26
:1026A800212C030888DE0208372C0308AC0A002016
:1026B800D00900201FB5094B0293094B0193094B20
:1026C8000093094A094B0A490A48FFF7BBFF0A4920
:1026D8000A4805B05DF804EBB4E700BF732C0308A3
:1026E8007D2C0308862C03084B2C0308452C030873
:1026F800562C03085B2C0308922C0308D32C0308E0
:102708002DE9F04F5348544D8DB0FFF79BFF00263D
:10271800B046B146514B1A680023934223DB013679
:10272800122E05F14805F5D14D49D1E902024009BB
:102738000C68096940EAC2624FF47A734948B4FBED
:10274800F3F3FFF77FFF0A2298FBF2F302FB1380F3
:1027580099FBF2F1009002FB11924348FFF772FFD8
:102768000DB0BDE8F08F414951F823108D4201D0DA
:102778000133D2E7AC6A5CB107EE904ADFED3C6A00
:10278800F8EEE77A86EEA77AFDEEC77A17EE904A5A
:10279800D5E90C727F0947EAC2675209D5E90EA349
:1027A8000B922146E217CDE90812099A63430AFB06
:1027B8000233A4FB0A0141F2883B1BEB000B1944CE
:1027C8004FF0000C4CEB010C4FF47A720023584682
:1027D800614628F05FFD0B9B099A0A90634307FB4B
:1027E8000233A4FB070141F2883B1BEB000B1944A1
:1027F8004FF0000C4CEB010C00234FF47A72584652
:10280800614628F047FD032E18BF0A9B0A9918BF96
:1028180099444FF47A722B6CB3FBF2F306934FF0A2
:102828000A0318BF804490FBF3F203FB1200CDE9C2
:1028380004200A9A92FBF3F203FB1213CDE9022358
:10284800CDE900A723462A680A483146FFF7FAFE71
:1028580065E700BFDC2C030820040020F405001005
:1028680000000010582D03087A2D0308F805001001
:1028780000247449232D030838B50346FDF7E0FC0E
:1028880080B3214B1B680133172B21D81F490C2219
:1028980002FB03121C4695684DB91C4A0C210134F1
:1028A800172C17DD002401FB042085689DB1164B09
:1028B8001C6008F0DDF82A4621461548FFF7C2FEDD
:1028C8000C235C43114B185DBDE8384008F0E4B8B0
:1028D8001C46E2E7E7D99C42E1D10E48BDE8384002
:1028E800FFF742B81846FFF719FB1728044606D821
:1028F800064A0C2303FB00239D68002DD7D12146EF
:102908000548BDE838409DE60000002094E902082B
:10291800D22D0308A82D0308BC2D0308F7B50346DC
:10292800FDF78EFC044618B1FFF73AF803B0F0BD86
:1029380001AA1D491C4F184629F04EF9264625467E
:1029480040B90B2D18D919490B2302461848FFF72F
:1029580079FEEBE744B1012C0AD001AA39460020E0
:10296800013429F039F9EBE7FFF7D8FA0546F4E71F
:10297800FFF7D4FA0646F0E7022C0DD1A6F57A73D4
:10298800B3F57A7F05D94FF4FA634FF47A7209499F
:10299800DCE7094B23F81560074B084833F9152085
:1029A8002946FFF74FFEC1E7AA460308E72D0308AB
:1029B800ED2D0308803A03086A2000200A2E030838
:1029C8002DE9F341044627F039FE04283DD1631E62
:1029D8002546E11C13F8012FA2F16100192898BFC0
:1029E800203A8B421A70F5D1DFF87080271D15F850
:1029F800016B404631462BF084F920B13146284618
:102A08002BF07FF920B1FEF7CBFF02B0BDE8F081D3
:102A1800BD42ECD1204617F0D1F90E480E4CFEF716
:102A280037FF0E4800231A1902A952780A44195C84
:102A380002F8081C0133042BF5D100236946084825
:102A48008DF80430FFF7FEFDDFE70028E5D0FEF73C
:102A5800A7FFE2E7172E030894320020DAFB0208EA
:102A6800302E03082DE9F74F804627F0E7FD474D44
:102A7800DFF844912F680446F0B94548454EFFF702
:102A8800B5FD012519F80430013B05FA03F33B4273
:102A980009EB040203D091683046FFF7A7FD0C3418
:102AA800B4F5847FEED117B93B48FEF7F1FE03B0C9
:102AB800BDE8F04FFEF744BF024638494046FFF7ED
:102AC800E1F9064670B93648324DFEF7E1FE09EBEA
:102AD8000603284699680C36FFF788FDB6F5907FFF
:102AE800F5D1E4E798F800302D2B03BF08F1010871
:102AF80004F1FF344FF0010A4FF0000A00260C23BE
:102B080003FB069B0193DBF8083000931946224625
:102B18004046FFF7B7F9019B00282ED1BAF1000F04
:102B280018D0162E0AD11F4B2B601F48FEF7B0FE97
:102B380000991E4803B0BDE8F04F83E5172E01D178
:102B48006B68F1E79BF800305A1E012393401F433E
:102B58002F60EAE7162E03D1C5F800A01448E5E770
:102B6800172E17BF9BF800306F6003F1FF32012367
:102B78001EBF93409F432F60F0E70136182EBFD148
:102B88000C4803B0BDE8F04FFEF7EEBED01E0020A3
:102B98001D2E03082E2E0308272E0308332E0308A4
:102BA800382E0308FFFF3F00502E03082F2E03087E
:102BB800592E0308432E030894E902082DE9F84327
:102BC800054627F03BFD0446D0B9304B30481D6818
:102BD800304EDFF8D080FEF75BFE012756F8241050
:102BE80051B10B7833B107FA04F32B4202D04046B7
:102BF800FFF7FCFC0134F1E7BDE8F843FEF7A0BE9F
:102C0800024625492846FFF73DF978B92348244C60
:102C1800244DFEF73DFE54F8041F0029ECD00B7834
:102C2800002BF8D02846FFF7E1FCF4E72B78DFF813
:102C380064902D2B03BF013504F1FF344FF00108D8
:102C48004FF00008002659F8267027B91648BDE845
:102C5800F843FEF789BE224639462846FFF712F99F
:102C680090B90120B040B8F1000F09D0FEF730FF4D
:102C78000E48FEF70DFE39460D48BDE8F843E1E47D
:102C8800FEF72EFF0B48F4E70136DCE73469002035
:102C9800612E030818DF0208332E03086F2E03087D
:102CA80014DF02086B2E0308432E0308502E030876
:102CB8002F2E0308592E03082DE9FF410A480488DE
:102CC800856846888788D0F80C801BF09DFB0097A4
:102CD800CDE9018033462A4621460448FFF7B2FC75
:102CE80004B0BDE8F08100BF040100207B2E03087A
:102CF800F8B5447914F0C003054602D0402B15D02E
:102D0800F8BD08F093FD04F00F04062C064604D124
:102D18000146BDE8F840154894E4284608F0B2FD9D
:102D280032460146BDE8F84011488BE483791148E2
:102D3800114E124F202B96BF114D002505EBC305F0
:102D4800FEF7A6FD00242B799C4203D3BDE8F8408A
:102D5800FEF7F6BD14B13046FEF79AFD2B683846EB
:102D680053F82410FFF742FC0134ECE7D62E030891
:102D7800E62E0308FD2E03080D2F03082F2E030847
:102D8800E4EA020870B54379164603F00F028AB0E8
:102D98000546062A4CD8DFE802F0041316181B1D56
:102DA80049000C7813F0C00344D0402B3CD1214695
:102DB800284608F023FD002856D0FFF717FC33E01B
:102DC80091F90040EEE70C88ECE7B1F90040E9E73B
:102DD8000C68E7E791ED000A6846FFF7F4F801464A
:102DE8002648FFF703FCFEB16B7913F0C00F1BD127
:102DF800284608F047FD07EE900A6846B8EEE70A4D
:102E0800FFF7E1F801461E48FFF7F0FB284608F0F7
:102E18000DFD07EE900A6846B8EE670AFFF7D3F88B
:102E280001461748FFF7E2FB0AB070BD1348F9E7FF
:102E38000024B7E7042A0CBF124813482146FFF7BD
:102E4800D5FB002EF0D06B7913F0C00FECD12846DB
:102E580008F018FD0446284608F0E8FC214602461A
:102E68000A48FFF7C3FBDFE76946284608F08DFDEF
:102E78006A4621460648FFF7E5FBD5E7302E0308EA
:102E88002F2E0308FA2E0308142E03080F2F030809
:102E9800162F030838B50D46044608F04FFD2A469C
:102EA80001462046BDE838406CE72DE9F043002490
:102EB800DFF86080DFF860908BB00746264604EBA9
:102EC800C40545446946284608F05FFD394668460A
:102ED8002AF065FF78B169464846FFF787FB00216D
:102EE8002846FFF7D7FFFEF72BFD2846FFF700FF20
:102EF800FEF726FD0136013440F253139C42DED121
:102F080016B90348FEF730FD0BB0BDE8F08300BFEB
:102F1800432E030884010308732F03082DE9F047A3
:102F28002DED028B8AB0074627F088FB064620B1B4
:102F3800012824D13B782A2B21D18948DFF8408207
:102F4800884FFEF711FD002404EBC405454469468B
:102F5800284608F01AFD69463846FFF747FB314610
:102F68002846FFF797FF0134FEF7EAFC40F25313B7
:102F78009C42E9D10AB0BDEC028BBDE8F0873D2147
:102F880038462AF0BEFE002800F0E580034613F814
:102F9800012C202A03F1FF312DD0DB1B441C2278A1
:102FA800202A04F1010128D0DFF8D4A14FF000084D
:102FB800DEB208EBC80555446946284608F0E5FC2A
:102FC800684627F03BFB6946814602463846FEF7CD
:102FD80059FFA0B9B14512D16B7903F00F08B8F1C8
:102FE800060F16D1204627F029FB2146024628461F
:102FF80008F0B1FCBEE70B46C9E70C46CFE708F17D
:10300800010840F253139845D3D15748FEF7ACFC5A
:10301800B0E713F0C0030AD0402B5ED05348FEF748
:1030280037FC2846FFF764FEFEF78AFCA2E7237800
:10303800002BF3D04E4920462AF09FFE0646204634
:1030480027F0FCFA8642E9D12046FDF7A7FA284680
:10305800B0EE408A08F016FC07EE900AF8EEE77A20
:10306800F4EEC87AF1EE10FAD8D8284608F0DEFB5C
:1030780007EE900AF8EE677AF4EEC87AF1EE10FAE5
:10308800CCDBB8F1050F17D0B8F1040F1FD12146DA
:1030980014F8013B202BFAD0092BF8D00139002372
:1030A8000A2011F8012F303AD2B2092A02D800FBBF
:1030B8000323F6E708EE103A284608F03FFCB8F17B
:1030C800050F35D8DFE808F031313D3D4144204651
:1030D800FEF724FF08EE100AEEE7AB799FED258A8C
:1030E800202B96BF244E064606EBC306002796F80B
:1030F80004A03B46B946BA4500D91BB1B9F1000F47
:103108008CD0D9E733686FF0004253F82700214686
:10311800FEF7B8FE002808BF08EE107A0ABF0123A0
:1031280000234FF001090137E5E718EE103A037064
:1031380069461248FFF75AFA00212846FFF7AAFE07
:1031480018E718EE103A0380F2E780ED008AEFE7FF
:1031580080ED008AECE73846FFF7A7FE0AE700BFD4
:10316800332F0308732F0308432E03085E2F030829
:10317800452F030800000000E4EA0208532F030863
:10318800840103082DE9F04F81468DB0884600265A
:10319800464BF418464B1868FEF74EFB94F805B0FA
:1031A8000BF030034B4549D1204608F0A5FBFEF74C
:1031B8007DFC0546204608F075FBAA6801921718A1
:1031C8008246204608F0BAFB0BF00F010546019A2B
:1031D800062968D8DFE801F0043A3F43484C5A0012
:1031E80012F80A200378D31AD3F1000A4AEB030A2B
:1031F80018F0200F02D0BAF1000F1FD102A9204603
:1032080008F0C3FB18F0400F0DD0BAF1000F0AD137
:1032180002A92848FFF7EAF9524629462046FFF74F
:10322800B1FDFEF78DFB02A92348FFF7DFF9002265
:1032380039462046FFF7A6FDFEF782FB093640F621
:10324800EB339E42A4D10DB0BDE8F08F12F90A20ED
:1032580090F90030C7E732F80A200388C3E732F94B
:103268000A20B0F90030BEE752F80A200368BAE72E
:1032780097ED007AD0ED007AB4EE677AF1EE10FAA5
:103288000CBF4FF0010A4FF0000AB1E7204608F0E2
:10329800CDFA2946421C38462AF048FDB0FA80FA91
:1032A8004FEA5A1AA4E74FF0000AA1E7840103087D
:1032B800B02A00206E2F03086F2F0308022810B5CC
:1032C8000C460CD8FDF7F0FC054B0648597801313F
:1032D800FFF7B8F921463020BDE8104052E710BD8D
:1032E80064680020792F0308022810B50C4610D80E
:1032F800FDF7F2FC074B084819780131FFF7A2F9EE
:1033080021461020FFF73EFF21462020BDE810404F
:1033180038E710BD64680020812F03080CB407B596
:1033280010F0400009D069B92320FEF791FA05A9E9
:1033380004980191FFF772F9012003B05DF804EBDE
:1033480002B070470020F8E70CB4830607B500D533
:1033580051B905A904980191FFF760F9012003B05C
:103368005DF804EB02B070470020F8E72DE9F04F54
:1033780082468BB091460D4614460027AB88ADF8BF
:103388001C30B5F902802B78286805936B78069075
:10339800049395F804B0B8F1000F35D0B9F1000FD7
:1033A80037D02068BDF81860089080B2A388ADF8BF
:1033B80024308642217894F801C0B4F90230227989
:1033C80025D1434523D1ABEB020046424641CDE926
:1033D8000232CDE9001C3B460F4A31465046FFF702
:1033E8009DFF049B0193059B0093CDE9028B3B460F
:1033F800094A314650460137FFF7A6FF102F05F15D
:10340800060504F10604B9D10BB0BDE8F08F00261B
:10341800DDE74E46E5E700BF8E2F030870B58AB09A
:10342800044627F00BF9C2B22AB927490120FFF751
:103438009DFF0AB070BD052224492046FEF722FDF3
:1034480040B91520FEF732FB0028F2D01E49FEF7DE
:10345800FFFAEEE7204601AA1D491D4E28F0BCFBE5
:10346800002402AD78B1052C02D1FEF799FAE0E705
:10347800FEF754FD01AA45F824003146002028F043
:10348800ABFB0134EEE7052CEFD1029A0F2AECD8FA
:10349800039E072EE9D8049C162CE6D8059800F55B
:1034A8007A73B3F5FA6FE0D80699FF29DDD8064D8F
:1034B80006235343EA18EE5450805470117105489E
:1034C800FFF7ACFFB5E700BF521F0020A22F03088B
:1034D800AA460308874103082DE9FF47DFF894A0AF
:1034E800814690460D4616460027B8F1000F3FD09A
:1034F800B6F90030B5F90010B6F90220B6F90400A3
:1035080096F906C0994231D1B5F9021091422DD1F0
:10351800B5F90410814229D195F90610A1EB0C04E4
:1035280061426141CDE90032CDE9020C3B46524689
:1035380048460C46FFF7F2FE95F906300393B5F9B5
:1035480004300293B5F90230019335F9083B009332
:1035580052463B46214648460137FFF7F5FE082FFD
:1035680006F10806C1D104B0BDE8F0870021D9E70B
:103578004446E1E7A82F030830B585B00546FCF7B7
:103588005FFE002858D02D490022012005B0BDE873
:103598003040A1E72D2B03D0A3F13002092A46D8E9
:1035A800042C04DD05B0BDE83040FEF7F9B9284623
:1035B800FEF7B4FC04AB621C03EB440424F80C0CC7
:1035C80015F8013F303B092BFAD914462B78002B0C
:1035D800E0D1052CE6D1BDF9040083B2072BE1D870
:1035E800BDF90640A4F2EE239BB240F2DC529342AE
:1035F800D8D8BDF90810A1F2EE239BB29342D1D8D6
:10360800BDF90A209442CDDC9142CBDBBDF90C50C8
:1036180005F17D039BB2FA2BC4D8084B23F8304040
:1036280003EBC00359809A809D7105B030BD202BF3
:10363800B8D101352246C8E70446C7E7B21F0020C3
:103648002DE9F04F804685B00E46154689469246CC
:103658000027002409EB040393F8C0300393002DDE
:1036680048D00AEB0403039A93F8C030D11AD1F179
:10367800000B4BEB010BCDE90043204A3B46594672
:103688004046FFF74BFE039B1C4ACDE900435946D1
:103698003B4640460134FFF757FE062CDAD1013786
:1036A800062F09F106090AF1060AD2D106F1E40A41
:1036B800124E00241AF8019BF5B12B19404693F8D5
:1036C800E430A9EB030257425741CDE900433246A3
:1036D80006233946FFF722FECDE900490623324684
:1036E800394640460134FFF72FFE0B2CE2D105B0D6
:1036F800BDE8F08FAB46C6E72F46EDE7BD2F0308C0
:103708007FB50346FCF79CFD044630B100221F49F3
:103718000120FFF795FF04B070BD6A461C491C4E96
:10372800184628F059FA01ADC0B1032C02D1FEF7B2
:1037380037F9F0E7FEF7F2FB6A4645F82400314610
:10374800002028F049FA0134EEE70628EFD10A2ACA
:10375800EDD80E48104480F8E43012E0032CE6D18E
:10376800039B0F2BE3D8DDE90112C8B20528ECD87A
:10377800052ADCD8054C062505FB0040104480F8D6
:10378800C0300448FEF75EFFC5E700BF9C66002016
:10379800AA460308BD2F03082DE9FF47DFF86CA0F0
:1037A800814690460E4615460027B8F1000F2AD0EC
:1037B8002B8832889A4224D174886A88A21A544283
:1037C8005441EA780292AA782146CDE90032484667
:1037D8003B465246FFF7A2FDF3780293B378019374
:1037E80036F8043B009352463B462146484601378B
:1037F800FFF7AAFD102F05F10405D6D104B0BDE8E6
:10380800F0870024DDE74446E6E700BFD12F030830
:103818002DE9F0410646FCF713FD044628B10022C5
:1038280024490120BDE8F041B6E73046FEF776FBB3
:103838000F2805462EDC3046FDF738F9DFF884807E
:103848001D4F064620353046FEF768FB38F8143021
:10385800984227DC012C11D0022C13D027F8250020
:1038680030462C212AF04DFA064678B1013601235C
:103878000134BBB1032CE6D1BDE8F08107EB850329
:103888009870EDE707EB8503D870E9E7A21E53426D
:103898005341EDE722460F2308490948BDE8F041A6
:1038A800FEF7D0BE002347F82530BDE8F041FEF70B
:1038B80077B800BF1C6700209C660020E72D03082E
:1038C800ED2D03089CDF02082DE9F04FDFF8688032
:1038D8008FB007468A46164600240DF124095AF887
:1038E80024300293494602A819F058FF16B356F837
:1038F8002430029D0393EB1A5D420DF1100B5D41DC
:10390800594603A819F04AFFCDF800B023464246AD
:1039180029463846FFF702FD2346CDF80090424677
:10392800294638460134FFF70FFD202CD7D10FB0B8
:10393800BDE8F08F3546EFE7E32F03082DE9F04F98
:1039480087B00546FCF77CFC044638B10022634981
:103958000120FFF7B9FF07B0BDE8F08F2846FEF752
:10396800DDFA1F28074600F3B1802846FDF79EF8C8
:103978005A4B009443F82740834625462646A046DE
:10398800A146A2460193564BE1B2E05C0DF10C0E44
:103998000023DC461BF8012B1AB1904211D00A2BE8
:1039A8000BD10DF1180E734490424FF0000E03F83E
:1039B8000CEC08D0FDF7F4FFCDE703F80E20013337
:1039C800E7E70246EDE701390CF1010B03293FD87F
:1039D800DFE801F05A2602730DF10B014FF0010EDA
:1039E80011F8013FC3B300223E4810F802C09C45BD
:1039F80003D00132072AF7D14A46542B53D04F2B14
:103A080053D0422B53D04E2B53D0492B53D0572B46
:103A180004D105230EFA03F348EA03089146DFE7C9
:103A28000DF10B02012112F8013FABB14E2B30D042
:103A3800452B30D0532B30D0572B30D0552B30D08E
:103A4800442BF0D1052301FA03F34AEA030AEAE713
:103A580003A8FEF763FA06460134052C93D1009BB0
:103A680005F00F0545EA834545EA8A5A4AEA0929D5
:103A7800360149EA0838019BF6B248EA060643F8D7
:103A8800276020F027FB66E703A8FEF747FA0546FC
:103A9800E2E70023D7E70123D5E70223D3E703238F
:103AA800D1E70423CFE70023B4E70123B2E70223D9
:103AB800B0E70323AEE70423ACE703A8FEF72EFA2A
:103AC80003460F28C8BF00230093C5E71F232246DB
:103AD80005490648FEF7B6FD3DE700BF9C66002095
:103AE800A2DF0208FEFD0208E72D0308ED2D0308FA
:103AF8002DE9F347DFF868A081460F469046022675
:103B08000024B8F1000F28D038F8243037F82410F2
:103B180038F8062099421ED1BD5BA91A4D424D4185
:103B2800CDE900322946234652464846FFF7F6FBC0
:103B3800BB5B019337F8243000935246234629464D
:103B480048460134FFF700FC042C06F10406D8D1DE
:103B580002B0BDE8F0870025E2E74546E8E700BF88
:103B6800ED2F03082DE9F0410546FCF769FB0646F1
:103B780028B1002227490120BDE8F041B8E76FF0DD
:103B8800004225492846FEF77DF970B9214B4FF4CC
:103B98007A714FF4FA6219805A809980DA80198113
:103BA8005A819981DA81BDE8F0812846FEF7B6F995
:103BB8000328044626D82846FCF778FF064670B145
:103BC800FEF7ACF9012507463046FCF76FFF10B148
:103BD800FEF7A4F92DB9BDE8F041FDF7E1BE0546B1
:103BE800F2E7A7F2EE2240F2DC539A42F3D8A0F2B1
:103BF800EE229A42EFD8074B23F8247003EB840394
:103C08005880D0E73246032304490548BDE8F0410F
:103C1800FEF718BD6A3C0020A22F0308FE2F0308F8
:103C2800ED2D03082DE9F04F2DED088BDFF80C91F1
:103C380097B0804692460D461446002695ED008AB8
:103C4800B5EE408AF1EE10FA70D0D5ED019A95EDF7
:103C5800029AD5ED038ABAF1000F3ED094ED000A1E
:103C680094ED01BAD4ED02AA94ED03AAB4EE408A09
:103C7800F1EE10FA5FD1F4EE4B9AF1EE10FA5AD148
:103C8800B4EE6A9AF1EE10FA55D1F4EE4A8AF1EEE2
:103C980010FA0CBF0127002712A8FEF794F9B0EE1E
:103CA8004B0A83460EA8FEF78EF9B0EE6A0A059015
:103CB8000AA8FEF788F9B0EE4A0A049006A8FEF7AB
:103CC80082F9059B049A03900292CDE900B34A4613
:103CD800334639464046FFF721FBB0EE480A12A8A2
:103CE800FEF771F9B0EE690A07460EA8FEF76BF900
:103CF800B0EE490A83460AA8FEF765F9B0EE680AED
:103D0800049006A8FEF75FF9049B0390CDE901B380
:103D1800009733464A46002140460136FFF714FB18
:103D28000C2E05F1100504F1100487D117B0BDEC75
:103D3800088BBDE8F08F0027AEE700BF0630030808
:103D480070B50446FCF77CFA064628B100222E49D5
:103D58000120BDE8704065E705222C492046FEF7A2
:103D680091F840B92849002201EB001301300C28D2
:103D78001A60F9D170BD2046FEF7D0F80B28054629
:103D88003AD82046FCF792FE064648B3FCF706FCF4
:103D98001D4B03EB051383ED000A01243046FCF7A5
:103DA80085FE064638B1FCF7F9FB174B03EB051304
:103DB80083ED010A01343046FCF778FE064638B137
:103DC800FCF7ECFB104B03EB051383ED020A0134FF
:103DD8003046FCF76BFE28B9BDE87040FDF7E0BD42
:103DE8000446DBE7FCF7DAFB074B032C03EB05156E
:103DF80085ED030AAAD0EFE732460B2304490548AC
:103E0800BDE87040FEF71EBC88210020A22F0308E1
:103E1800E72D0308ED2D03082DE9F04F834687B001
:103E280092460C46164600274FF019094FF4617860
:103E3800BAF1000F4DD0B078A5783378727896F83B
:103E480003C096F804E07179854240D125789D42F7
:103E58003DD1657895423AD1E578654537D12579E0
:103E6800754534D165798D4214BF0025012519FBAC
:103E7800028219FB0383CDE9010303920091CDE986
:103E880004CE3B46144A29465846FFF747FA237999
:103E98000593E378049363780F4A19FB038303932C
:103EA800237819FB03830293A37801936379009322
:103EB80029463B4658460137FFF746FA0C2F04F1CE
:103EC800060406F10606B3D107B0BDE8F08F002559
:103ED800CDE75546DBE700BF1A3003082DE9F74365
:103EE8008146FCF7ADF9064638B100223749012072
:103EF800FFF792FF03B0BDE8F0834846FEF70EF8DF
:103F08000B2804465BDC0625454309F101008DF8C2
:103F18000760FCF7CBFDDFF8B480814605EB0807A6
:103F2800464638B1FDF7FAFF03289EBF0123787192
:103F38008DF807304846FCF7B9FD814660B1FDF7BA
:103F4800EDFF0D2808D8062303FB046398709DF83D
:103F5800073001338DF807300DF10702394648461E
:103F6800FDF7F9FFFCF7A2FD814660B1FDF7D6FF2A
:103F7800302808D89DF80730062202FB0462013376
:103F8800D0708DF807304846FCF790FD60B1FDF71A
:103F9800C5FF0D2808D89DF80730062202FB0464E7
:103FA800013320718DF807309DF80730062BA1D01A
:103FB800002345F80830BB80FDF7F2FC9AE70B2395
:103FC800324603490348FEF73DFB93E77A22002077
:103FD800E72D0308ED2D03082DE9F04F89B002F114
:103FE8003C03374FDFF8E0A00793814690460C4624
:103FF800164694F9040000230C2202FB03F1314D0C
:104008004957814256D00133052BF6D1079B0C3610
:10401800B34204F10C04ECD109B0BDE8F08F96F975
:1040280004303268717996F806C096F808E096F878
:1040380007B098423CD12068904239D160798842D3
:1040480036D1A079604533D1207A704530D1E579F1
:10405800A5EB0B004542454157F82B0057F82110B6
:10406800049057F82E00039057F82C000290CDE9E1
:104078000021484652462946FFF750F9E27994F95B
:10408800043057F822200492227A57F8222003920B
:10409800A27957F822200292627957F822200192D9
:1040A80022680092294652464846FFF74DF9ADE787
:1040B8000025D1E7B8F1000FB1D14546DEE700BFD2
:1040C8009424030804410020383003082DE9FF41F7
:1040D8000346FCF7B5F830B136490022012004B098
:1040E800BDE8F04178E7CDE90100039018465D1C72
:1040F800FDF714FF44B2204606F07CFC0646002873
:104108003BD08DF8084001242846FCF7CFFC074631
:1041180020B1FDF703FF01340190E4B2DFF8988085
:1041280000253846FCF7C2FC0746F8B1FDF7F6FE55
:10413800002258F822108842D3B203D00132112A43
:10414800F7D1002358F8232090420FD1022D1CD01C
:10415800032D1FD0012D12D05A1E0F2A03D88DF817
:1041680009300134E4B20135042DDAD1052C17D811
:1041780004B0BDE8F041FDF713BC0446C4E71A1FBC
:10418800042AF0D88DF80A30EBE7082BEBD88DF825
:104198000C30E6E75A1F052AE5D88DF80B30E0E722
:1041A80001AB03CB306018687160B06004B0BDE843
:1041B800F08100BFC4400020942403082DE9F04F8B
:1041C800834685B092460D46164600274FF01909DA
:1041D8004FF46178BAF1000F3ED032782C787178BC
:1041E800B378F078944235D16C788C4232D1AC787F
:1041F8009C422FD1EC78A4EB000CDCF1000444EBDA
:104208000C0419FB008019FB0383CDE9011303900B
:1042180000923B46114A21465846FFF77FF8EB7853
:104228000E4A19FB03830393AB7819FB03830293AC
:104238006B78019315F8043B009321463B4658469A
:104248000137FFF781F8142F06F10406C2D105B033
:10425800BDE8F08F0024D4E75446E0E75530030862
:104268002DE9F04F0F468DB071490646FDF724FE43
:104278000546002840F099806E493046FDF71CFE3F
:104288000546002840F093806B493046FDF714FE40
:104298000546002840F08D8068493046FDF70CFE41
:1042A800002805460ABF0124102435460FB144F002
:1042B8002004634B634E93F8009093F80180624F9B
:1042C8000193BE4277D3FDF713FC4846FCF704FD83
:1042D8004046FCF7E9FC5D492846FDF7EDFD08B1CD
:1042E80044F0400414F0110F00F086810020FEF71E
:1042F800E1F904F03003302B02D15548FEF7A2F95A
:10430800544D554AD5ED007ADFF870A1DFF870B149
:10431800F5EE407AF1EE10FA0CBF0121002120469B
:10432800FFF712F82A464D4D4D492046FFF77AFC13
:10433800B5F902104B4AB1FA81F149092046FFF755
:1043480003F82A4648492046FFF710F8474A4849E3
:104358002046FFF7C1F8474B1E68474B1F684FF0D0
:1043680000085AF828509DB32B78DBB14FF00109AB
:1043780009FA08F967EA060313EA090F14BF0121CD
:1043880000212B465A462046FEF7C8FF66EA070377
:1043980013EA090F5A462B4614BF01210021204673
:1043A800FEF7D2FF08F10108DBE701247EE70224CB
:1043B8007CE704247AE77388C3F30B021B04D6E96D
:1043C800011048BF02EB420227F072FA143678E770
:1043D800DFF8B0A0A84667EA060B284B53F8285028
:1043E800002D51D02B78FBB14FF0010909FA08F9DB
:1043F80017EA090F0BD066EA070313EA090F5246BA
:104408002B4614BF012100212046FEF787FF16EA3C
:10441800090F09D01BEA090F2B46524614BF012188
:1044280000212046FEF790FF08F10108D5E700BFFC
:104438007D3003088C300308843003089430030867
:1044480064680020B85303085057030898300308DD
:10445800A530030888210020B7300308521F002028
:10446800F4220020C63003085A240020B21F00207E
:104478001A240020E86C00203469002018DF0208A4
:10448800D3300308DF300308724BDFF824921E682C
:10449800714BDFF820821B687340DB4303934FF0B6
:1044A800010B039A0BFA05F31A4218BF5F466B4AD1
:1044B80008BF0027334002934FF00C0303FB05238A
:1044C8003946D3F808A00CBF4A4642465346204610
:1044D800FEF724FF029A5346002A14BF4A46424672
:1044E800394620465D44FEF72FFF162DD7D100230D
:1044F8005B485C4E5C4F089304935D460BEB0602E9
:104508001BF8003012F8011C0CAA1A440DF1300CEB
:1045180002F8201C1BF8072094440CF8101C2DB13D
:10452800A3EB020CDCF1000545EB0C050BF1010BCC
:10453800BBF1050FE2D1002608AB4C4A8DF8146098
:1045480029462046FEF7EAFE04AB484A294620469B
:10455800FEF7FAFE464A47492046FFF73DFD464A20
:1045680046492046FFF7B0F9454A46492046FFF735
:1045780013F9414A41492046FFF762F8424A434944
:104588002046FFF71BFE424A42492046FFF744FCFB
:10459800414A42492046FFF7ABFA30462146FEF72A
:1045A800F1FDE0063DD5019B214630461F785D7838
:1045B800FEF79AFE21460120FEF796FE21460220CC
:1045C800FEF792FE21463046FEF778FE214601208E
:1045D800FEF774FE21460220FEF770FE3846FCF70F
:1045E8007BFB2846FCF760FB791C2D48FEF72AF870
:1045F800691C2C48FEF726F8A10704D5019B214623
:104608001878FEF771FE620704D5019B2146587899
:10461800FEF754FE244C254B9C420DD30DB0BDE84B
:10462800F08F019B21461878FEF75EFE019B21461C
:104638005878FEF743FEDFE76388C3F30B021B04D9
:10464800D4E9010148BF02EB420227F031F91434E2
:10465800E1E700BFBC240020D01E002094E9020836
:10466800843D0020DAFB020894320020EA30030877
:10467800C4400020546600209C660020F46C002092
:104688001C670020746D0020143B00207A3C002039
:104698007A220020B42300206A3C00205A3C0020E3
:1046A800F9300308F1300308B853030850570308DA
:1046B80072300308683003080121D1E50021CFE5F5
:1046C800F7B50746FBF7BCFD044630B10022224986
:1046D8000120FFF773FD03B0F0BD3846FDF71EFC5F
:1046E8001328054630DC8600781C8DF80740FCF757
:1046F800DDF9194C074640B1FDF710FC28289EBF8C
:10470800012304F825008DF807303846FCF7CEF968
:10471800074650B1FDF702FC0D2806D8A3195870BA
:104728009DF8073001338DF80730B11C0DF10702F1
:1047380021443846FDF70FFC9DF80730042BCAD0FA
:10474800002344F82530C6E71323224603490448CA
:10475800FDF778FFBFE700BF143B0020E72D0308F3
:10476800ED2D03080EB40FB505AB019053F8042BDB
:104778000649039301A8FDF738FE019B00221A7031
:1047880004B05DF804EB03B0704700BF39070008B8
:104798000FB437B50B490C48096800680B4D06ABD8
:1047A80053F8042B0193FDF720FE04462868FCF714
:1047B800FAFC0028FAD0204603B0BDE8304004B027
:1047C800704700BFF02B0020F42B0020FC2A0020AB
:1047D8002DE9F04F87B00346FBF732FD064620B1BE
:1047E800FDF7DEF807B0BDE8F08F05AA5B49DFF8F2
:1047F8009891DFF898A1DFF898B1184627F0ECF9FE
:1048080034460546B0464FF0FF37A5B9544B78B249
:104818000C2606FB05F2D118D256824200F08180A0
:104828000135052DF5D1B8F1000F34D14D48394681
:10483800FFF7AEFFD6E7012E0ED0022E11D01EB91B
:104848002846FDF76BFB074605AA4449002027F0D8
:10485800C3F901360546D8E72846FDF75FFB8046D1
:10486800F2E74946284629F09AFA20B93E492846EF
:1048780029F095FA08B144F001045146284629F078
:104888008EFA28B95946284629F089FA0028DBD03B
:1048980044F00204D8E7002C08BF03240023E4B244
:1048A8000293CDE900841A46194606F047F80546F2
:1048B80010B939462D48BBE7424639462C48FFF720
:1048C80067FF39462B48FFF763FF2B4B1C682046D0
:1048D80006F014F8284606F011F8002018F01CFD20
:1048E8002046FCF76CFC60B1012018F015FD20464D
:1048F800FCF75FFC01462846FCF764FC002018F032
:104908000BFD2846FCF75BFC0028E9D0012018F0D5
:1049180003FD2846FCF74DFC01462046FCF752FCF7
:10492800DBE74D68002D3FF47EAF39461348FFF7AB
:104938002FFF54B16979A14207D022461048FFF7EA
:1049480027FFE1B22846FCF72BFCEB6A002BB8D016
:104958000C48FFF71DFF0023EB62B2E7AA460308E5
:10496800044100200D3103080731030835310308DD
:1049780054310308BF310308B42A002071310308F9
:1049880089310308A9310308043103080A310308EF
:1049980079360308D0ED067A38B50369204D77EEED
:1049A800807A04460133C0ED067A03611C30FBF7B8
:1049B800A1FF61682A68521AA1688A4220D9E36A6D
:1049C800012BC3BF03F1FF3307EE903A94ED0A7A47
:1049D8009FED140AC4BFF8EEE77A87EE270A27F09E
:1049E800DBFBD4ED057AF4EEC07AF1EE10FA0BD5C4
:1049F800237B33B92A68626000222361A261E362E3
:104A080038BD03232370FBE7D4ED047AD4ED066A9E
:104A1800F8EE677A022386EEA77A84ED067AF1E744
:104A2800E83E0020000000001FB50C46024669461B
:104A38001030FBF7C5FEDDED007AB6EE007A67EEC2
:104A4800877AC4ED007ADDED017A67EE877AC4EDE6
:104A5800017ADDED027A67EE877AC4ED027A04B056
:104A680010BDD1ED007A90ED066AD0ED095AB8EE86
:104A7800E77AD0ED047AE7EE077AB7EE005AC0ED90
:104A8800047AD1ED017AF8EEE76AD0ED057AE7EE1F
:104A9800267AC0ED057AD1ED027AF8EEE77AA7EE2C
:104AA800276A80ED066A90ED076A36EE076A80EDA0
:104AB800076A90ED086AA7EE266A80ED086A26EE76
:104AC800A66A75EE865AA7EE076AC0ED095AD0EDB8
:104AD8000A5AE6EEA75AA7EEA76AC0ED0A5AD0ED21
:104AE8000B5A75EEA65AC0ED0B5AD0ED0C5AE7EEEC
:104AF800275AC0ED0C5AD0ED0D5AE6EEA75AC0ED74
:104B08000D5AD0ED0E5AE7EEA75AC0ED0E5AD0ED69
:104B18000F5A75EEA75AC0ED0F5AD0ED105A75EE20
:104B2800875AC0ED105AD0ED115A75EEA65AC0ED4D
:104B3800115AD0ED125A75EEA75AC0ED125AD0ED9F
:104B4800135A75EE855AC0ED135AD0ED005AE7EEA8
:104B5800065A90ED017AC0ED005AA6EE867A80EDED
:104B6800017A90ED027AA7EE867AD0ED037A80ED8D
:104B7800027A37EE866A80ED036A704700F14001D9
:104B8800034600221A615A619A61DA6110338B4236
:104B980040F8042BF6D1704780EAE073A3EBE0738A
:104BA8008B4206DB002801DD401A704702D008441A
:104BB800704700207047A0F2DC50174BB0F5FA7F21
:104BC800A8BF4FF4FA70984210B5B8BF18460C4603
:104BD8001146FFF7E1FF00B207EE900A9FED0F7A4A
:104BE800F8EEE77AE4B287EE870AFBEE096AE0EEB0
:104BF800006A07EE904AB8EE677ADFED097AE7EEC9
:104C0800267A67EE807AB3EE090A87EE800A27F0E3
:104C18002FF800B210BD00BF0CFEFFFF0000C84215
:104C280000401C4544F25063984203DDA0F50C4057
:104C3800A0387047034B9842BCBF00F50C40A03029
:104C4800704700BFB0B9FFFFF0EEE06AB0EEC07A7F
:104C5800F4EEC76AF1EE10FAD4BFB0EE476AB0EED0
:104C6800666AB5EE406AF1EE10FA48D0F4EEC76A0B
:104C7800F1EE10FA54BFF0EE475AF0EE665AC5EE60
:104C8800867A9FED206ADFED205A9FED205AE7EEE5
:104C9800865A9FED1F6AA5EEA76ADFED1E5AE6EE5B
:104CA800275A9FED1D6AA5EEA76ADFED1C5AA7EEED
:104CB800A55AF7EE005AE5EE275AB1EE466AC6EE57
:104CC800257AF4EEC76AF1EE10FA48BF9FED147A20
:104CD800F5EEC00A48BF77EE677AF1EE10FA48BFE2
:104CE8009FED107AB5EEC00A48BF77EE677AF1EE0D
:104CF80010FA48BFF1EE677AB0EE670A7047DFED49
:104D08000A7ABEE739094E3DE3B59EBE69A2163E52
:104D180088FA16BE45FE7FBFA7DFA8B499FB243FDB
:104D2800DB0FC93FDB0F494000000000FDEEC07AF1
:104D380017EE903A2033402B43D8DFED237A9FEDCE
:104D4800237AB4EEE70AF1EE10FA28DCDFED207AD8
:104D58009FED1E7AB4EEE70AF1EE10FA22D4DFEDE9
:104D68001D7AB4EEE70AF1EE10FA1EDD30EE670A9E
:104D780037EEC00A60EE007ADFED176A9FED177A0A
:104D8800A7EEA67ADFED166AE7EE876A9FED157A39
:104D9800A7EEA67A20EE276AA6EE070A704730EE3D
:104DA800470ACEE730EE070AD4E79FED0F7AB4EE54
:104DB800C70AF1EE10FA44BF30EE270A37EE400A70
:104DC800D8E79FED0A0A7047DB0F4940DB0FC9405F
:104DD800DB0F49C0DB0FC93F9A7C2E36FAAF4FB9BB
:104DE8003587083CA4AA2ABEDB0FC9BF0000000013
:104DF800DFED027A30EE270A98E700BFDB0FC93FE4
:104E08002DE9F74F15F016F8A94CAA4BA4F1140791
:104E18009F42C0F0A680A84C2078FBF75DFF607821
:104E2800FBF742FFA54B5A899989914228BF002276
:104E3800198A28BF5A81DA89914224BF0022DA816F
:104E48009F4A01921368998FD88F884224BF002205
:104E58009A879C4B9C481A7C597C914224BF00221B
:104E68001A74FCF735FE994B1B78012B02D14020B0
:104E7800FCF72EFE964B1A68964B93431CD11820CC
:104E880018F0E6F90546B8B1242018F0E1F9002831
:104E980000F0B9802C680068021B5442544120205D
:104EA80018F0D6F918B102682B689A4200D01CB1E4
:104EB8004FF48030FCF70CFE874E00252C46B04698
:104EC800FF2748F2BC39AA59530803F077339008F2
:104ED80000F03330D31A1B1AD00800F011301B1A17
:104EE80003EB131312F0010103F00F33B3FBF7F0D8
:104EF800C0EB002018BF0134A3EB000318BFE4B2D5
:104F0800012B0AD9022B0ED111B112EA090F04D1D3
:104F180008EB050021F0E4FB28B10C353C2DD2D17B
:104F2800013C022C06D90D20FCF7C0FD10B16A49DE
:104F3800FCF78EFD694A6A4C938B518B643B8B421C
:104F4800A8BF0B465383237A042B84BF0023237204
:104F5800227AE388013A032A57D8DFE802F07E84F0
:104F68008F9534F9123C002BA7BF4FF00008C146BB
:104F78004FF003084FF001094FF0000A09EB0A024D
:104F8800D2B2904501D214343FE7564E3588002DF1
:104F980000F01282544B7019984280F00D82052D52
:104FA80040F20A8234F8141CB6F802C0C1F30B01AF
:104FB8008C4526D1717901F00301914221D15146E6
:104FC800384696F804B0FCF765FD34F8141CBBEBC2
:104FD800113F13D134F812CC54F8100CCCF30B0158
:104FE800AA1F8A42A8BF0A461CF4004F1CBF5FFADA
:104FF8008AF501FB0500B11D26F05AFC0AF1010AE9
:10500800BCE70646C2E7044649E7B3F5F57FA8BF03
:105018004FF4F573E38000BF344F002540F6EB36BC
:1050280005EB070A504606F02DFC8146504606F06F
:10503800FDFB8046504606F081FC9AF8053003F0E7
:105048000F03062B00F2AB81DFE813F029005200B2
:10505800830185018C019201600040F63C72934205
:10506800A8BF1346D6E7B3F5FA5FA8BF4FF4FA53C3
:10507800B3F5FA6FB8BF4FF4FA63CBE7B3F57A5FCD
:10508800A8BF4FF47A53F3E7B3F5FA4FA8BF4FF42C
:10509800FA43B3F5FA7FB8BF4FF4FA73BAE700786A
:1050A8004845C0F26381804534BF002001202AE0D2
:1050B800CC5303085057030864680020CE340020FE
:1050C800606E0020A039002000630406943200209E
:1050D8003469002040000100C44000206C490020D1
:1050E800746E002001E80308000004088401030826
:1050F80090F90000814500F339814FFA88F840455E
:10510800CCBF00200120002800F049810935B542B4
:1051180086D1AC4A136823F080631360AA4BB4F8B5
:1051280000C0196866880F78DFF8D492A6EB0C06E1
:10513800642206FB07F393FBF2F3A44A634413804B
:10514800BAB202EB820391F801A05B005242C7F1A8
:10515800640E0093CAF1640B92B200255FFA8EFECA
:105168004FF47A78A9F5B67413B2002B40F31C817A
:10517800704603FB03F10AFB01F110FB00F091FB01
:10518800F0F058440A21434393FBF1F300990B4490
:105198001BB2734393FBF8F3634429F815300135C8
:1051A8000A320B2D92B2DFD1894D13F029FE30223D
:1051B8000021884828F08EFD06F054FD2979864B99
:1051C8006422C82012FB010199606979A3F8308034
:1051D80012FB0102DA6001210022C3E90422C3E9BB
:1051E8000622C3E9082283F8282083F829205A8553
:1051F8009A85DA859971794B794DB3F90420002A9B
:1052080040F0D680B3F90620002A40F0D180B3F9E7
:105218000820002A40F0CC80B3F90A20B2F5805F5C
:1052280040F0C680B3F90C20B2F5805F40F0C08032
:10523800B3F90E30B3F5805F40F0BA802B6823F4E1
:1052480000732B6013F0FCFDB4F8B421DFED657A30
:10525800654B664F07EE102AB8EEC77AB4F8B62148
:10526800C7EE276A40F20556002107EE102AB8EE6D
:10527800C77AC3ED006AC7EE276AB4F8B82107EE0B
:10528800102AB8EEC77AC3ED016AC7EE276AB4F8E8
:10529800BA2107EE102AB8EEC77AC3ED026AC7EE44
:1052A800276A94F8BC21524C1A7404F11C00142289
:1052B800206367632687C3ED036A28F00BFD04F1BA
:1052C800B80014220021C4E93307A4F8D46028F0F8
:1052D80001FD04F5AA70C4F86801C4F86C71A4F85B
:1052E80070611422002128F0F5FC2B68DB0601D53B
:1052F80005F096FC019B9FED3F5A1A68B2F95030B1
:1053080007EE903AF8EEE77AF2EE044A87EEA40A3E
:1053180020EE050AFFF76CFDB2F9523007EE903A1D
:10532800F8EEE77AF0EE405A87EEA40A20EE050A76
:10533800FFF75EFD304B25EE800A002283ED000A60
:105348002E4B1A7024F086FC03B0BDE8F04F14F021
:1053580055BD0088A4E6B0F90000814506DC0FFAC7
:1053680088F8CCE600684845BFF49DAE0020CAE640
:1053780007EE909A90ED007AF8EEE77AB4EEE77AC5
:10538800F1EE10FAF2DB07EE908AF8EE677AB4EEE7
:10539800E77AF1EE10FA94BF01200020B3E6094A3B
:1053A800136843F08063B8E60CBF01203846E0E696
:1053B8002B6843F4007344E751463846FCF76AFB10
:1053C8001CE600BFE86D00203475002096680020B8
:1053D80020750020540B0020EC6D0020A03900201F
:1053E8006049002000401C464C020010A8DF02085B
:1053F8003400001035FA8E3C700200109C06001034
:105408003C0B002010B50446FBF74EFC18B1FCF726
:10541800D5FBFFF7F5FC601CC0B2BDE8104005F0F5
:1054280075BB10B50C4C03461846FAF709FF38B19E
:105438000A4B0B485978BDE810400131FDF702B915
:105448001846FCF76BFD0138022804D8C0B2FFF7F4
:10545800D9FF2346E8E710BD8741030864680020A8
:10546800F130030810B50446FBF736FC18B1FCF719
:10547800A5FBFFF7C5FC601CC0B2BDE8104005F0F5
:1054880045BB10B50C4C03461846FAF7D9FE38B19F
:105498000A4B0B481978BDE810400131FDF7D2B826
:1054A8001846FCF73BFD0138022804D8C0B2FFF7C4
:1054B800D9FF2346E8E710BD874103086468002048
:1054C800F930030808B5FCF779FBFFF799FC0120D0
:1054D800BDE8084005F01ABB91ED005A08B5B0EEDA
:1054E800450AFFF785FCF0EE405AB0EE450AFFF793
:1054F8001DFCD1ED014AB0EE405AB0EE640AFFF748
:1055080077FCB0EE404AB0EE640AFFF70FFC91ED6D
:10551800023AF0EE403AB0EE430AFFF769FCF0EECB
:10552800404AB0EE430AFFF701FC25EEA46A65EE97
:10553800806A65EE247A64EE244A25EE007AC0ED8E
:10554800004AF0EE664AE3EEA74AB0EE463AC0EDEE
:10555800034AF1EE634AA4EE873AE3EEA67AA4EE94
:10556800867A24EE400A25EE445A65EE845A80ED88
:10557800010AC0ED023A80ED043A80ED055A80ED4B
:10558800067AC0ED077AC0ED085A08BD38B52F4C29
:10559800B4FBF2F4A142B0EE405A1D46F7EE005AB1
:1055A8004FF000044BD207EE901A9FED297ADFEDF9
:1055B800296AF8EE677A67EE877A07EE102AB8EE5E
:1055C800477A27EE267AC5EE876AC7EEA64AB0EE76
:1055D800640AFFF7ABFBB0EE404AB0EE640AFFF78F
:1055E80007FC35EE055A012D84EE056A1CBF75EEE1
:1055F800C06AB6EE007AB8EE005A76EE257A12BF87
:1056080026EE877A60EE056AB0EE657AC7EE274A1D
:1056180086EEA77A20EE050A80ED017A80EE277AD9
:1056280075EEC65A80ED037A85EEA77AC0ED004A7A
:10563800C0ED024A80ED047A8461446138BDC0ED52
:10564800005A44608460C4600461F5E720A1070043
:10565800DB0FC940BD37863500239FED010A95E76A
:10566800F304353F30B507EE902A2DED028BB8EEE6
:10567800670A07EE903AF8EE677A83B080EE270A59
:105688000D460446019226F0EBFB30EE008AB0EEA0
:10569800000AF0EE480A26F0EDFB26F07DFDF0EE5C
:1056A800480AF0EE408AB0EE000A26F0E3FBF7EE77
:1056B800007A30EE670A019988EE800A01232A46AB
:1056C800204603B0BDEC028BBDE830405EE7D0ED6C
:1056D800017AF5EE407AF1EE10FA09D1DFED0E7A93
:1056E80060EEA70AB7EE007AC7EE207AC0ED017A1D
:1056F80090ED017AD0ED007A80ED021A31EE077A4A
:1057080030EE670AC1EE076AE6EE807AB0EE670A05
:10571800C0ED007A704700BFDB0FC94090ED017AF9
:10572800D0ED007AC0ED020A30EE877A30EE670AD3
:10573800C0EE876AE6EE807AB0EE670AC0ED007ABE
:1057480070474840082310F0800F4FEA400018BF08
:1057580080F0D500013BC0B2F5D1704710B50A44BE
:105768000C46944200D110BD14F8011BFFF7E9FF65
:10577800F7E74A09012301F01F0103FA01F150F884
:1057880022300B4340F8223070470EB4244B70B5DA
:105798001B68002BA5B0064630DA224B224C19684C
:1057A8004FF47A7304A8B1FBF3F203FB12131F49F9
:1057B800FEF7D8FF04AB03440393299A1C492AAB8C
:1057C800054603A80293FCF710FE039B591C03919E
:1057D8000A211970039B591C039100211970024674
:1057E800206880B103681B6A03B1984704A9206840
:1057F800FBF742FD16B1206805F080F825B0BDE83A
:10580800704003B070470B4B1B68002BF6D0022189
:105818002A4400910A44FD2004A914F0EBFFEDE7A7
:10582800206E0020E83E0020582C0020ED310308AF
:105838002F0700085C2C002038B5174BD3F8D82068
:10584800033002EB9005B5F5807F19D803F5E074B5
:10585800C3F8D85003EB810304EB8204D3F8DC20AF
:105868000E4920F0030010446FF003026A43C3F8A6
:10587800DC0002F580620020FFF787FF204638BD74
:1058880007490020FFF781FF064A136843F00073B9
:1058980013600024F2E700BFD0090020F9310308A3
:1058A8001C320308E86D0020224B02682DE9F047FE
:1058B800064600251F4653F835108A4209D1EDB235
:1058C800102D0AD91C490020FFF75FFF0020BDE812
:1058D800F0870135112DEED1F4E7DFF8648058F830
:1058E80025A0C146BAF1000F15D10A216420FFF79F
:1058F800A3FF48F8250008B91049E5E76422514696
:1059080028F0E8F958F8253007EBC507C3E9007314
:10591800DB615B63DB64707959F82540182101FB72
:105928000043002218469E60C3E903221A7504301A
:10593800CDE700BFB0F902082A3203084F32030846
:10594800445D0020084BDA68D10709D4DA68D2062A
:1059580008D4DB6813F0040F14BF03200420704739
:10596800012070470220704700200240036823F09E
:1059780001031B041B0C0360002303604360836066
:10598800C360294B984204D1284A536843F00F0357
:1059980026E0274B984204D1244A536843F0F00389
:1059A8001EE0244B984204D1204A536843F47063A4
:1059B80016E0214B984204D11C4A536843F47043C3
:1059C8000EE01E4B984204D1184A536843F47023E2
:1059D80006E01B4B984205D1144A536843F4700300
:1059E80053607047174B984204D1104A536843F0EC
:1059F8007063F5E7144B984201D1144AC5E7144B7C
:105A0800984201D1114AC8E7124B984201D10F4A76
:105A1800CBE7114B984201D10C4ACEE70F4B984285
:105A2800DFD10A4AD1E700BF080002400000024067
:105A38001C0002403000024044000240580002406E
:105A48006C0002408000024008040240000402404A
:105A58001C0402403004024044040240580402403E
:105A68000F4BDA684378D243C2F30222C2F1040131
:105A78008B400F2121FA02F281780A401343094929
:105A880002781B018818DBB280F800335009012323
:105A980002F01F0203FA02F241F82020704700BF0B
:105AA80000ED00E000E100E0C27802B1D8E7037839
:105AB80001215A0903F01F0301FA03F320320249B6
:105AC80041F82230704700BF00E100E0F7B5002838
