:020000040800F2
:100000000020001031C70208C1C70208497B01085F
:10001000C1C70208C1C70208C1C70208000000002A
:10002000000000000000000000000000C1C702083E
:10003000C1C7020800000000C1C702082F3D020826
:10004000C1C70208C1C70208C1C70208C1C7020868
:10005000C1C70208C1C7020815460208294602089E
:1000600025460208214602081D460208D1A90208B9
:10007000C1A90208B1A90208A1A902088DA9020814
:1000800079A9020865A90208C1C70208C1C7020808
:10009000C1C70208C1C70208C1C702081946020841
:1000A000359902089999020821990208BD99020818
:1000B000899902087599020861990208C1C7020866
:1000C000C1C70208C1C70208C1C70208C1C70208E8
:1000D000C1C70208E5A80208DDA80208D5A80208E1
:1000E00011460208C1C70208C1C70208C1C70208F9
:1000F0005D990208C1C7020849990208C1C70208F0
:10010000000000000000000000000000C1C702085D
:10011000C1C70208C1C70208C1C70208C1C7020897
:1001200051A902083DA9020829A9020815A9020837
:1001300001A90208C1C70208000000000000000079
:10014000C1C70208C1C70208C1C7020800000000F9
:10015000000000000000000000000000000000009F
:100160000000000000000000C1C70208C1C702086B
:10017000C1C70208000000000000000000000000ED
:0801800000000000C1C70208E5
:1001880070B51B4C94F82C5365B3D4F834630B68E2
:10019800DFED186A9B1B07EE103AB8EEC77A4B687A
:1001A800D4F8386327EE267A9B1B07EE903A80ED49
:1001B800007A94EDCC7A8B68012AF8EEE77A27EE7C
:1001C800267A18BFD4F83C2367EE877A18BF9B1AA3
:1001D800C0ED017A07EE903AF8EEE77AC0ED027AC0
:1001E800284670BD0023036043608360F8E700BFC2
:1001F800A00900202C7D8E3F07B532238DF80030F2
:100208000368CDF801308388ADF80530034B6846A4
:10021800D3F87439984703B05DF804FBA0090020AF
:10022800094BD3F8780910F080000BD0D3F87C295B
:10023800920706D4D3F8800980F00800C0F3C00004
:1002480070470120704700BFA009002007B51023A0
:100258008DF80030054BADF80100D3F87439CDF8AE
:1002680003106846984703B05DF804FBA009002016
:100278000C4AD2F8983910B5198100219981D2F821
:100288009019596019684C1C1C600870D2F898398C
:10029800D2F890294FF6F67199811968C3E90021BF
:1002A80010BD00BFA0090020064B93F8AF29012A12
:1002B80003D1054AC3F8DC297047022A0CBF034A58
:1002C800034AF7E7A0090020000000200A000020E8
:1002D8001400002070B50028124D134EB8BF4042DC
:1002E8003C22B0FBF6F305FB030002FB00F494FB91
:1002F800F6F20E4E96F8A6699BB290B27EB903EB61
:10030800830303EB830300EB83031BB20B8005FB22
:1003180002424FF47A7392FBF3F24A8070BDC3EB4A
:100328000313F0E7806967FF80969800A009002012
:1003380000207047094A08B5D2E90032C01A61EBBB
:1003480002012BF0CBFFDFED067A07EE100A67EE0D
:10035800277AFCEEE77A17EE900A08BD8013002092
:100368006F12833A0B4B93F95429182101FB02327F
:1003780092F8A023082A0BD093F8F709012808D08F
:10038800022806BFD3F8680AC0F34020002070474F
:1003980001207047A00900201FB54B6801938B68A6
:1003A80002930122CB68039301A9FFF7E9FE05B088
:1003B8005DF804FB044B187ADB7A002818BF032089
:1003C8000BB140F004007047A00900203A4AD2F867
:1003D800803913F0040F134667D038491278242067
:1003E80000FB0212D289910565D4520508D593F90C
:1003F8005429182101FB023292F8A023042A5AD06A
:1004080093F8F329052A47D8DFE802F0030A4615CE
:100418002530D3F8CC22C3F86823C3F86C2370477F
:10042800B3F8102A93EDB37A07EE902AF8EEE77A3C
:1004380077EE877A0AE0D3EDDA7A93EDB37AF4EEC1
:10044800C77AF1EE10FAD8BFF0EE477AC3EDDA7A40
:10045800C3EDDB7A7047B3F8102A93EDD87A07EE2C
:10046800902AF8EEE77A77EE877AE6E7B3F8102A6B
:1004780093EDD87A07EE902AF8EEE77A77EE877A46
:1004880093EDB37AF4EE477AF1EE10FAC8BFB0EE06
:10049800677A83EDDA7ADBE7B3F8102A93EDD87A36
:1004A80007EE902AF8EEE77AC2E7D2F8CC32C2F823
:1004B8006833C2F86C337047A0090020E0EE0208E8
:1004C8000A4B93F8FA0978B11A7A62B9D3F86C2A08
:1004D800D3F82433D21A4FF47A735843824294BF24
:1004E8000020012070470020704700BFA0090020AD
:1004F8000123037000234363036383638362C3623E
:10050800C363836103647047074A08B502F5F8704E
:10051800FFF7EEFF002382F8703AA2F86A3902F674
:1005280074220023136008BDA0090020DFED137AB0
:1005380080ED010AF4EEE70AF1EE10FAC0ED020AC6
:1005480080ED031AC0ED051A13DDB4EEE70AF1EEEB
:1005580010FA0EDD81EE007AC0EE207AF0EE006A25
:1005680077EE877A86EEA77A80ED047A80ED092AFD
:10057800BEE7002383600361F8E700BFBD37863517
:10058800324BA3F11C0210B5044607CA83E80700E2
:10059800032C47D8DFE804F00208484C2C4BD3F86A
:1005A8006823C3F87C233DE0294BD3F87C29D3ED9D
:1005B800DC7AD3EDDB5AD20649BFB3F8462ADFED21
:1005C800256A06EE902AF8EEE66A77EEE66ADFED2F
:1005D800227AF4EEE76AF1EE10FA21DBD3EDE07A45
:1005E800B8EE676AF7EE007A86EE267AB5EEC07A3C
:1005F800F1EE10FA11D4B4EE677AF1EE10FAC8BF32
:10060800B0EE677A77EEC77AD3EDDA6A67EEA57A45
:10061800E6EE877AC3EDDF7A04E09FED0E7AF1E724
:10062800C3EDDF5A094810BD094BD3F86C23B8E76E
:10063800074BB3F8122A002AF7D007EE902A93ED59
:10064800D87AF8EEE77A77EE277AE3E7140D0020F8
:10065800A0090020000000000000C842054B1978DE
:10066800814205D02422424318700348825C5A70A4
:1006780008467047A0090020E0EE0208034B93F8F3
:10068800E839002B0CBF022000207047A009002089
:100698000020704770B50F4B002193F941091824C9
:1006A8000D46CAB2824208DB1A7A0AB1DB7A13B95C
:1006B800FFF706FF58B9002070BD04FB0232013174
:1006C80092F8A063062E08BFA2F8B453E9E70A20FF
:1006D800F2E700BFA00900200A4A92F9543918210C
:1006E80001FB032191F8B613A52909D092F9411904
:1006F80001398B4204DA013382F8543902207047F9
:100708000D207047A00900200D4A92F95439D2F8FB
:100718006C1A182000FB0323B3F9B033002B0CDD4F
:10072800D2F8640950B14FF47A72081A13FB02F335
:1007380098422CBF0220002070470220704700BF5B
:10074800A00900200A4A92F95439182101FB032113
:1007580091F8B613A52909D092F9411901398B42AC
:1007680004DA013382F85439002070470D207047AD
:10077800A00900207047481E83B2032B1AD80E4BDD
:1007880093F8782AB2B10D4A02EB8002D3F88C0AAA
:10079800D2F8C82482420DD3D3F8900A824209D8ED
:1007A800C3F8A02AD3F8802AC3F8A41A42F0020298
:1007B800C3F8802A704700BFA0090020E0EE0208B5
:1007C80030B54C1EE3B2012B22D8501EC3B2072B02
:1007D8001ED8104B93F8785AD5B100EBC4000E4CD4
:1007E80004EB4000D3F8844AB0F8D804A0420FD3F1
:1007F800D3F8884AA0420BD8C3F89C0AD3F8800AD9
:10080800C3F8941A40F00100C3F8800AC3F8982A84
:1008180030BD00BFA0090020E0EE020828B1044B5B
:10082800D3F8D80A08B193F8780A00F001007047A5
:10083800A009002070B5FFF7F1FF00B3104BD3F803
:100848009C2AD3F8944AD3F8985A8A60D3F8A42AF1
:10085800D3F8A03A0B610B4B0C6003EB840603EB57
:100868008503D6F8F8648E61074ED3F80435A45D85
:10087800CA6030324D600C75CB6181F8202070BDA4
:10088800A0090020E0EE0208643A030810B5FFF75B
:10089800C5FF30B1034BD3F8A44A0C70D3F8A03A83
:1008A800138010BDA009002008B5FFF7B7FF18B1E5
:1008B800024BD3F89C3A0B8008BD00BFA00900206A
:1008C80008B5FFF7ABFF08B100230B7008BD08B5EA
:1008D800FFF7A4FF18B1024BD3F8A43A0B7008BD78
:1008E800A009002010B5FFF799FF30B1034BD3F8EA
:1008F800944A0C70D3F8983A137010BDA0090020E0
:100908000520704731B9044AD2F8EC3A43F00403A1
:10091800C2F8EC3A704700BFA009002048B1054B67
:10092800D3F84C0B28B193F8DC0A022894BF0020B6
:1009380001207047A009002070B5FFF7EFFFF8B15C
:10094800104BD3F8082BD3F8FC4AD3F8005B8A6025
:10095800D3F8042BD3F80C3B0B610B4B0C6003EB67
:10096800840403EB8503D4F82845CA604D602678D3
:10097800D3F840350E7530328C61CB6181F8202078
:1009880070BD00BFA0090020E0EE020810B5FFF717
:10099800C5FF30B1034BD3F8044B0C70D3F80C3BB4
:1009A800138010BDA009002008B5FFF7B7FF18B1E4
:1009B800024BD3F8083B0B8008BD00BFA0090020FC
:1009C80008B5FFF7ABFF18B1024B93F81C3B0B704F
:1009D80008BD00BFA009002008B5FFF79FFF18B1A8
:1009E800024BD3F8043B0B7008BD00BFA0090020E0
:1009F80010B5FFF793FF30B1034BD3F8FC4A0C70E6
:100A0800D3F8003B137010BDA009002008B5FFF70C
:100A180085FFE0B1D9B10E4BD3F8202B914216DCFB
:100A280001F10042013AD3F8240B30F81200D3F850
:100A3800F82A904294BFC3F80C0BC3F80C2BD3F8D8
:100A4800EC2AC3F8041B42F00202C3F8EC2A08BDE2
:100A5800A009002010B5FFF761FF18B3481EC3B204
:100A6800042B20D8531EDCB2072C1CD803EBC00380
:100A78000E4800EB4303B3F864050D4BD3F8F04A76
:100A8800A0420FD3D3F8F44AA0420BD8C3F8002BE6
:100A9800D3F8EC2AC3F8FC1A42F00102C3F8080B99
:100AA800C3F8EC2A10BD0020E7E700BFE0EE02081B
:100AB800A0090020042070472A4A92F8391B72299D
:100AC800134603D076293CD000207047B2F83A0B81
:100AD800B3F83E1BC2F8F00AB2F83C2BC3F8F42A6C
:100AE800C3F8F81A0028F0D09042EDD2B3F8582B8A
:100AF8000AB1C3F8F82AB3F8F81A1B4AB1F5487FC7
:100B08000BD31A49C3F8241B05200C31C3F8200B5A
:100B180082F82600116301207047B1F5167F01D3D2
:100B28001349EFE7B1F5C87F04D31249C3F8241B72
:100B38000420EAE7C729F3D90F49C3F8241B032087
:100B4800E3E7B2F83A3BC2F8103BB2F83C3BC2F8D4
:100B5800143B92F83F3B003B18BF012382F81C3B33
:100B680002207047A00900200000002094F4020829
:100B7800B8F40208DCF4020800F50208034BD3F8C5
:100B88006C2AC3F8E02A83F8DC0A7047A009002021
:100B980030B5ADF5815D81B00023CDE902330DF5A7
:100BA8008153144604AD01930A46FD230146684665
:100BB800ADF80830009527F062FE009B02226946D6
:100BC8002046CDE900530FF045F80DF5815D01B0E1
:100BD80030BDF8B500220D464FF6FF7302398A4240
:100BE80010D3461943540A4F1B0A06F8013C044621
:100BF80014F8011BD7F85C0B23F030F9A642F7D1A3
:100C0800E8B2F8BD845C1B1B9BB20132E7E700BF6A
:100C1800A009002007B50B1408228DF8043060F0F5
:100C28005F000B0E8DF80100ADF802108DF805304D
:100C38001146002368468DF80020ADF80630FFF70E
:100C4800C8FF03B05DF804FB07B5062360F05F003A
:100C58008DF80100ADF802100022194668468DF89B
:100C68000030ADF80420FFF7B4FF03B05DF804FBD3
:100C7800014610B50A4C5E29D4F8600B09D15D21F4
:100C880023F0ECF83E21D4F8600BBDE8104023F0C7
:100C9800E5B85D29F9D123F0E1F83D21F3E700BF7C
:100CA800A009002070B51D4D95F82C332DED028B51
:100CB80004460E4663B3D5F834330360D5F83833A9
:100CC800436095EDCC8AD5F83C338360DFED148A18
:100CD80096ED000A80EE280A2BF0BAFE2368184425
:100CE800206028EE288A96ED010A80EE080A2BF08B
:100CF800AFFE63681844606096ED020A2BF0A8FE08
:100D0800BDEC028BA3681844A06095F82C0370BD55
:100D1800C0E900338360B7EE008AD7E7A009002056
:100D28002C7D8E3F10B50A4C04F5567104F66430DC
:100D3800FFF7B8FF6421D4F88023D4F88433B2FBDA
:100D4800F1F293FBF1F3C4F8702BA4F8743B10BDD7
:100D5800A009002012F0010F70B51E4C0FD00668D4
:100D680094F85453C4F858634668C4F85C63DE07C3
:100D78004CBF45F0010525F0010584F8545395074B
:100D88000CD594F854238068C4F8600398074CBFC6
:100D980042F0020222F0020284F854235B0794F81E
:100DA8005423C4F8641302D402F0FB0201E042F0B9
:100DB80004020023C4E9E03384F85423FFF706FB58
:100DC800FFF7B0FFD4F87C3943F00103C4F87C394D
:100DD80070BD00BFA0090020022803D0431E58425E
:100DE80058417047054B93F8A42912B1102012F00E
:100DF800ABBBD3F88009C0F380007047A00900207E
:100E080010B5134BD3F8783B93F88830012B19D0E1
:100E1800022B1AD10F4BB3F904200F4B12F1FA0F22
:100E28000CDA012283F8382093F93840282012F090
:100E38008BFB08B1644264B2204610BDFA2AF3DD88
:100E4800FF22EFE74FF0FF34F0E70124EEE700BFA1
:100E5800A0090020000000100000002008B5064B83
:100E6800D3F87C39DB0605D4182012F06DFB00F0AE
:100E7800010008BD0020FAE7A009002038B5174C8A
:100E88000F2384F8B03A84F8B10A04F6B222F9B113
:100E98000B68C4F8B23A4B6853608B689360104A89
:100EA800002312F8011B013308440C2BC0B2F8D1FF
:100EB800002584F8BE0A0B49D4F8D80A84F8BF5A2A
:100EC800102223F007F884F8D45AC4F8D05A38BD51
:100ED800C4F8B21A51609160E1E700BFA009002090
:100EE800521400205014002038B50D4CD4F87C3929
:100EF80013F0100503D0BDE8384022F0ACBE22F054
:100F0800AAFE04F53863C3E9000104F6883300201B
:100F18000021C3E90001C4F8905BC4F8945B38BDB4
:100F2800A009002008B522F096FE054B012283F89F
:100F3800E82903F51E63C3E90001022008BD00BFCC
:100F4800A009002070B50C4C0546B4F8506A10F0A2
:100F5800C7FD86422246094E04DD1DB9B4F8503A51
:100F6800F38070BDD2F87C3943F08003C2F87C3935
:100F780010F0B6FDF080F4E7A00900200000001092
:100F880008B50020FFF7DEFF002008BDF7B50746CB
:100F9800019113F0D8FC274E0446B6F8585A002899
:100FA80044D101993846FFF7C5F9A84240D807EE61
:100FB800900AB6F8523AB8EEE77A07EE905AF8EE89
:100FC800676A07EE903A1C4BB3F90620F8EE675AA9
:100FD80007EE902AF8EEE77A204677EEE57A67EE94
:100FE800877A87EEA66A76EE257AFDEEE77A17EE1F
:100FF800902ADA8096F8602AB3F9023007EE902A30
:10100800B8EE676A07EE903AF8EEE77A77EEC67AB6
:1010180067EE877A87EEA67A77EE067AFCEEE77AAD
:1010280017EE903A86F8E93903B0F0BD0320FBE7E4
:101038000120F9E7A00900200000001010B51946AA
:1010480004461046FFF776F9064BB3F85A3A20449F
:10105800984204D913F077FC00F0010010BD00207D
:10106800FAE700BFA00900202DE9F743DFF89080D8
:101078000191024604460B46B8F8540AFFF7DEFF12
:101088000546D0BB20460199DFF87890FFF752F962
:10109800B8F8567AB8F8524A8742064605D2A9F8EF
:1010A8000640012003B0BDE8F08310F019FDB8F840
:1010B800503A8342B8BF03469BB207EE903A07EE18
:1010C800104AF8EE677AB8EE477A06EE906A37EE7D
:1010D800677AF8EEE66A284627EE267A06EE907AD0
:1010E800B8EE666AC7EE066A76EEA77AFDEEE77A8C
:1010F80017EE903AA9F80630D4E70320D2E700BFEC
:10110800A00900200000001038B505460C46002054
:10111800FFF718FF2A4623460020FFF78FFF58B92C
:1011280028462146FFF706F9044BB3F8543A98428B
:1011380094BF0020012038BD0320FCE7A00900204F
:101148002DE9F04107462DED048B00200E4613F0E3
:1011580071F9002868D0354B9FED357AD3ED047AC4
:10116800344DD3ED058AF0EEE76AF4EEC76AF1EE86
:1011780010FACABF93ED067A9FED2F9A87EE279A49
:1011880010F02EFD95F8613AB0EE408A00EE103A64
:10119800DFED2A7AB8EEC00A20EE270A27F05AFEB9
:1011A800B5F84C3A07EE903AF8EEE77AF4EEE78AAB
:1011B800F1EE10FA2EDDB4EEC08AF1EE10FAACBFF3
:1011C80001240024B5F84A3A07EE903AF8EEE77A97
:1011D800F4EEC97AF1EE10FA1ED5F5EEC08AF1EEFA
:1011E80010FACCBF4FF001084FF000080020FFF7BD
:1011F800A9FE54EA080412D038463146FFF79AF897
:10120800B5F84E4AA04294BF00200120BDEC048BE3
:10121800BDE8F0810024D5E74FF00008E6E7084B69
:101228002046C3E90076F1E70420EFE7000000104C
:10123800F366DF3FA00900200000000035FA8E3C6D
:101248008013002010B52DED028B82B004460020DB
:10125800019113F0EFF8002846D001992046FFF7D6
:1012680069F840F2DC53984207D90020FFF76AFE7C
:10127800012002B0BDEC028B10BD07EE900AB8EE5B
:10128800E78A10F02DFC194A9FED196AB2F8503A16
:1012980007EE900AF8EEE76A07EE903AF8EE677AFA
:1012A800144B77EEE67A002067EE887A87EE867A26
:1012B80077EE267A9FED107AFDEEE77A17EE901A10
:1012C800D98092F8603A07EE903AF8EE677A27EEFE
:1012D800888AC8EE067A77EE877AFCEEE77A17EE08
:1012E800903A82F8E939C4E70420C2E7A00900204F
:1012F8000080BB44000000100000000038B500204A
:1013080013F098F80B4D044660B1B5F8504A10F048
:10131800E7FB84420CDC95F8603A85F8E939022449
:10132800204638BD0120FFF70DFE85F8E949F7E7AB
:101338000124F5E7A009002038B5154D22F08BFCF3
:1013480095F8E839042B09D1052385F8E839C5F85B
:10135800E009C5F8E4190224204638BDD5F87849D3
:1013680014F08044F8D0002013F064F8044668B9FB
:1013780013F0E9FA0028EFD085F8E849002205F5CE
:101388001E650023C5E900230424E5E70024E3E7FC
:10139800A009002008B510F043FA022008BD124B3E
:1013A80093F95429182101FB023090F8A003013861
:1013B800072805D8DFE800F015040F060404040424
:1013C8000C20704701FB0233B3F9B033002B14BF74
:1013D8000C2002207047D3F86C2AC3F864290E2029
:1013E80070470220704700BFA009002008B5064BCF
:1013F800D3F87C29920202D593F8F63913B1072065
:101408001BF096FA022008BDA0090020F8B5284C68
:101418002546D4F8D80A22F01EFD002847D094F8B3
:10142800D43A0BB1002042E0D4F8D80A22F00DFDDE
:10143800D4F8D03A3BB90F28EBD10123C4F8D03AFD
:1014480084F8C00AE5E70F2B9FBF5A1C1B19C4F884
:10145800D02A83F8C00AD5F8D03A102BD9D195F8FC
:10146800C03A0F2B15D195F8C13A95F8B12A9A428E
:101478000FD195F8CF2A62B90E4995F8CE6A084679
:1014880011F8017B01323B440C2ADBB2F8D19E42B1
:1014980005D0002385F8D43AC5F8D03AB9E706490B
:1014A8002DF079FC0028F4D0012085F8D40AF8BD85
:1014B800A009002062140020521400207FB5934C2C
:1014C800D4F8983B40F2071293427AD0B3F5847F60
:1014D8000EDA002B3AD0F52B4AD0D4F8983B002BE3
:1014E800BEBF0023C4F89C3BC4F8983B04B070BD51
:1014F80040F20D12934200F0B88040F21B12934262
:10150800EBD194F8D43A002B00F0E1800021B4F834
:10151800C23AC4F87C1AD4F89C1AB4F8C42AC4F89D
:10152800A83A8B42C4F8AC2A40F0E980D4F8A03A33
:101538009A4205D0D4F8803A43F00203C4F8803ABE
:1015480094F8783A002B00F0A2802CE084F8783ADE
:1015580000217220FFF792FC6D4BD4F86C2A9A6038
:101568000022DA60FA23C4F8A83BF523C4F8983BB4
:1015780094F8D43A002B41D0B4F8C23AC4F8843A6B
:10158800B4F8C43AC4F8883A0023C4F88C3AB4F8DA
:10159800C63AC4F8903A012384F8783A0023C4F88C
:1015A8007C3AC4F8803A5A4BD4F86C2A9A600022E4
:1015B800DA604FF47A73C4F8A83B40F20713C4F812
:1015C800983BD4F8805A7DBB514ED4F86C3AB26837
:1015D8009B1AD4F8A82B93427FF77FAF2946762031
:1015E800FFF74CFCD4F86C3AC6E90235FA23C4F884
:1015F800A83B40F21B13C4F8983B82E7FFF706FFAD
:1016080048B9434AD4F86C3A92689B1AD4F8A82B84
:1016180093427FF762AF94F8D43A002BACD194F898
:10162800783A002BBAD193E715F0010337D0B4F814
:101638009C3A002501A94620CDE901550395ADF84E
:101648000430FFF71BFCD4F8803AD4F86C2A23F056
:101658000103C4F8803A2E4BC3E90225FA23C4F8E3
:10166800A83B40F20D13C4F8983B294AD4F86C3AC9
:1016780092689B1AD4F8A82B93427FF72EAFD4F820
:101688007C3A022B7FF75CAF002384F8783A00237A
:10169800C4F89C3B4FF0FF33C4F8983B1DE715F0A6
:1016A800020511D0B4F8A02A039301A95020CDE96E
:1016B8000133ADF80420FFF7E1FBD4F8803A23F0BA
:1016C8000203C4F8803ADAE7C4F8805AD7E7FFF78C
:1016D8009DFE48B90E4AD4F86C3A92689B1AD4F821
:1016E800A82B93427FF7F9AE94F8D43A002B7FF4F5
:1016F8000DAFD4F87C3A0133C4F87C3ABFE7D4F88C
:10170800803A43F00103C4F8803A0FE7A0090020AB
:101718003815002010B5554CD4F84C3B002B5AD046
:1017280094F8DC3A062B56D8DFE803F0040E142AA6
:10173800565E68000023C4F8E83AC4F8EC3A012081
:10174800BDE81040FFF71ABA7220002108F080FCAB
:101758000220F5E708F0A0FC40B1FFF7ADF9012839
:101768000CD10023C4F8E83A0520E9E7D4F86C3A2C
:10177800D4F8E02A9B1AB3F57A7F2CD90020DFE74A
:10178800D4F8EC3AFBB1590709D523F00403C4F89F
:10179800EC3A0021732008F05BFC0420D0E7DA075C
:1017A80007D523F00103B4F8081BC4F8EC3A462027
:1017B800F1E798070FD523F00203B4F80C1BC4F81F
:1017C800EC3A5020E7E7D4F86C3AD4F8E42A9B1AAC
:1017D800B3F5FA6FC8D810BDD4F86C3AD4F8E02A3B
:1017E8009B1AB3F57A7FF5E77620002108F030FCE4
:1017F800D4F86C3AC4F8E43A0620A1E708F04CFCA7
:1018080020B30023C4F8E83AFFF756F90228ABD111
:10181800D4F8EC3AD90709D4D4F8101BD4F8082B1B
:1018280091421CBF43F00103C4F8EC3AD4F8EC3AF7
:101838009A0709D4D4F8141BD4F80C2B91421CBF76
:1018480043F00203C4F8EC3A032079E7D4F86C3A81
:10185800D4F8E02A9B1AB3F57A7FBCD9D4F8E83AD1
:101868000133032BC4F8E83A88DC7DE7A00900209F
:101878004209012300F01F00022A03FA00F008D0F1
:10188800032A0BD09A420DD1074B5A69104358616D
:101898007047054B9A69104398617047024BDA69A3
:1018A8001043D861704700BF001002402DE9F34192
:1018B800044618079DF820700D46164603F00108E7
:1018C80017D503F01103002B14BF4E213E211CB184
:1018D8004FF4E163E38027720722204622F0CCFC14
:1018E800B8F1000F25D1204602B0BDE8F04122F042
:1018F80030BDB8F1000F14BF4E212E21B2070AD512
:101908001CB14FF4A163E38027720722204601919E
:1019180022F0B2FC0199F3070BD51DB14FF4C16356
:10192800EB802F720722284602B0BDE8F04122F072
:10193800A3BC02B0BDE8F08110B529F04FFC4FF40C
:101948003024012806D10CB9052010BD29F046FC29
:10195800013CF6E7002C08BF0520F6E710B5036840
:101968001B680446587990B1032140B222F05AFE10
:1019780023681B685A7993F90530002B07DB02F0BE
:101988001F0101228A405B090D4941F82320236881
:101998001B68987990B1032140B222F043FE236876
:1019A8001B689A7993F90630002B07DB02F01F01B8
:1019B80001228A405B09024941F8232010BD00BF7B
:1019C80000E100E02DE9F04790B0DDE9184A0D4646
:1019D8000746904600213C2201A899461A9E2DF000
:1019E80002FA344B02938DF80450CDF834A0002D40
:1019F80055D0022D55D0032D55D0042D55D1032394
:101A08002D4A02EB430393F845368DF805302B4BEE
:101A18000394D3F86C2A069714440122CDE90446AE
:101A28008DF831201E46B8F1000F06D04A464146CF
:101A380007A82CF0EDFF8DF8309096F8F2EB002314
:101A4800BEF1010F0E931FD80DF1040ABAE80F007A
:101A580096F8F1CB3C2404FB0C6404F6F4340FC470
:101A6800BAE80F000FC4BAE80F000FC49AE80700DD
:101A7800BCFA8CFC0EF1010E4FEA5C1C84E80700EE
:101A880086F8F2EB86F8F1CB3B6883B14B464246C9
:101A98002946384610B0BDE8F0470EF0BDB92B46D0
:101AA800AEE70123ACE70223AAE70023ADE710B0B5
:101AB800BDE8F08750150020E0EE0208A0090020DC
:101AC800031EB8BF2D2210B5B8BF58420C46AEBF92
:101AD8000A2201F8012B0A2225F028F800230370B6
:101AE800204610BD2DE9F04F89B08046894614463E
:101AF8001D46002705AE217881B3252907D0B8F106
:101B0800FF3F01D04046C84701340137F3E7617809
:101B18002D2907BFA17803340234002308BF01230D
:101B2800302908BF14F8011BA1F130020CBF4FF097
:101B3800010B4FF0000B092A4FF0000A17D96C2946
:101B480040F08C8014F8012B642A00F09E8029D87C
:101B5800252A00F08F8018D8002ACCD1384609B041
:101B6800BDE8F08F0A2214F8011B02FB0A0A084696
:101B78000393029124F0EEFF0A28DDE90213F1D95C
:101B8800002BDCD0CAF1000AD9E7582A3AD0632AD8
:101B9800B1D1B8F1FF3FB8D055F8041BC9B24046DF
:101BA800C847B2E7662A4CD0A2F16E03D9B20A2917
:101BB800A1D80A2B9FD801A151F823F0431C000893
:101BC800FF1A0008FF1A0008FF1A0008FF1A000889
:101BD800271C0008FF1A0008F11B0008FF1A00085C
:101BE800FF1A00080D1C0008334600220A2155F888
:101BF800040B58E0334600220A2155F8040B25F05F
:101C0800B9FC52E0A2F15800424233464241102149
:101C1800EDE758394A424A4133461021EDE755F875
:101C2800043B01930023009353464A464FF0FF318B
:101C3800404626F061FE07445DE755F8043B1F6007
:101C480059E7073525F00705F5E802012AF00EFAED
:101C580000EE100A304624F0E5FC26E06629F0D0B4
:101C680026D85829D5D00BD800293FF477AF252995
:101C78007FF441AFB8F1FF3F3FF447AF25218EE72E
:101C8800632986D064297FF436AF55F8040B002801
:101C9800BFBF2D238DF8143040420DF11503A8BFA6
:101CA800334600220A2125F065FCCDE900B6BBE7E2
:101CB800A1F16E03DAB20A2A3FF61DAF0A2B3FF6EE
:101CC8001AAF01A252F823F0431C0008FF1A0008BB
:101CD800FF1A0008FF1A0008FF1A0008271C00084E
:101CE800FF1A0008FD1B0008FF1A0008FF1A000869
:101CF8001B1C00080CB430B5224CD4F8703CA3B0BF
:101D080013B9D4F8743C6BB3D4F86C1A4FF47A73E3
:101D180002A8B1FBF3F203FB12131B4926F0D7FD0F
:101D280002AB0344269A19490093054627AB684637
:101D38000193FFF7D7FE009B5A1C00920A221A70E3
:101D4800009B5A1C009200221A700146D4F8700CAD
:101D580068B103681B6A03B19847D4F8700C02A9EC
:101D680022F0D8F823B0BDE8304002B07047D4F86C
:101D7800742C002AF6D02944023102A8FEF708FF85
:101D8800F0E700BFA0090020683A030825370208D9
:101D980010B5084A002311461479844203D114204F
:101DA80000FB031010BD0133112B02F11402F3D113
:101DB8000020F7E72CF50208124A90F9103070B5A8
:101DC8000C46142101FB03230546DE6B83689A0742
:101DD80003D4406922F0BDFA00BFD4E90123216889
:101DE800304629F07DFCD4E90423E168304629F027
:101DF80077FCAB689B0703D400BF686922F0AEFA92
:101E0800012070BD00000020074B084AC3F8942C3D
:101E1800D3F8A43C4FF478719A1E223322F8021F9B
:101E28009A42FBD1704700BFA0090020D5E3000803
:101E380080F00101014822F04DBB00BF341700209B
:101E4800054AB2F8983DD2F8942D918A0B4218BFF2
:101E58001B049361704700BFA009002030B183883C
:101E6800B3FA83F3202BC3F11F0006D0034A0123E2
:101E7800116803FA00F0084310607047000401403D
:101E880070B50E4C05460C2694F8843E042B01D9F7
:101E9800002011E05A1C06FB034384F8842ED3F873
:101EA800882ED107F0D51542EED093F98C0E0EF09E
:101EB8009BFA0028E8D0406870BD00BFA009002048
:101EC800024B002283F8842EDAE700BFA009002025
:101ED80030B5264B10201C78A4F13002092A194687
:101EE80003F1010329D9214A00208B1A022B27DC90
:101EF800002391422ED82E2C36D101310424002201
:101F08000D7802EB8202303D5200092D92B298BF43
:101F1800521904F1FF349CBF013192B214F0FF044E
:101F2800EED164214A43124901FB03230622B3FB85
:101F3800F2F3104A02FB003001E00138CBD130BD8A
:101F480000EB800012F8013B40003038184400F0E4
:101F5800FF00CAE703EB830312F8015B5B00303B29
:101F68002B4403F0FF03C4E70022DAE768180020D7
:101F780040420F008096980030B5002351F8234066
:101F880052F82350641B40F823400133032BF5D14A
:101F980030BD2DE9F04180468CB00846154625F045
:101FA80091FD4FF47A72002307460E462AF0DCF9B9
:101FB8003C2405FB0404314638464FF47A7200236A
:101FC8002AF0D2F9002796B24FF47A73C3FB04675C
:101FD8003B46324609A825F05BFB6A4B93F8DA3E8C
:101FE800012B65D0022B00F0918032463B4609A8B0
:101FF80025F04EFB3C2195FBF1F31AB201FB13537C
:102008001BB2BDF82410002BB8BF5B42B1F5FA6FC4
:102018009BB21BD39DF8261001390B2916D89DF8C1
:10202800271001391E2911D89DF8281017290DD815
:102038009DF829103B2909D89DF82A103B2905D875
:10204800BDF82C10B1F57A7FC0F0998000204E4978
:102058000991ADF828008DF82A00ADF82C00044647
:10206800079382EAE2739DF828009DF829609DF89D
:102078002A70BDF82CC09DF82710009115F13B0F70
:10208800A3EBE273B4BF2D252B259BB2CDE90553F5
:10209800CDE90106CDE9037C9DF82630BDF8242062
:1020A8003A49404626F013FC20460CB0BDE8F081C2
:1020B8009DF82640E31E072B97D8231F052B0DD923
:1020C800BDF82400214625F091FA9DF82730984262
:1020D8000DD0E11E18BF0121002986D02C4B3C35BC
:1020E800F6184FF000032DB243EB07077DE7032CEA
:1020F80003D19DF828100039ECE70A2C7FF475AF5E
:102108009DF82810B1FA81F14909E5E79DF82640C4
:10211800E31E082B3FF669AF231F062BDED9BDF857
:102128002400214625F062FA032C12D10E280ADC7D
:102138009DF82730984208D19DF82810012994BFAE
:1021480000210121C8E70738F0E7B4BF01210021C9
:10215800C2E70B2C7FF449AF07280ADC9DF827302B
:10216800984208D19DF8281001298CBF002101212F
:10217800B2E70738F0E7CCBF01210021ACE7012422
:102188006EE700BFA009002000000101743A0308AF
:1021980080EE360008B5044823F039FABDE8084057
:1021A800024823F0F5BF00BFA23A0308AE3A03087D
:1021B8000C4608B505460EF095F820460EF092F844
:1021C8000020FFF735FE284621F045FE60B10120CA
:1021D800FFF72EFE284621F038FE0146204621F062
:1021E8003DFE0020FFF724FE204621F034FE0028A3
:1021F800E9D00120FFF71CFE204621F026FE01460B
:10220800284621F02BFEDBE7F0B505460C4689B0E1
:102218001422002120462CF0E6FD2A681D4E04A851
:10222800C2F385510023054641FA03F7FF0744BF6F
:102238009F5D00F8017B0133062BF5D11649002379
:102248000370C2F303200844C2F3053690F8A607CA
:102258008DF8180001F2AD710DF1190046FA03F777
:10226800FF0744BF5F5C00F8017B0133062BF5D103
:1022780000230370C2F38343029306ABCDE90053F6
:10228800064902F00F032046C2F3031226F01FFB93
:1022980009B0F0BD80F60208E0EE0208BB3A030878
:1022A8001FB5324901A891F8352078310CF061FD4D
:1022B8000398019A80EAE073A3EBE07307EE903A83
:1022C800F8EEE77AF7EE086AC7EEA65A82EAE273F2
:1022D800A3EBE27307EE103AB8EEC77A029BF4EE6E
:1022E800C75AF1EE10FA13DD83EAE371A1EBE3714B
:1022F80006EE101AB8EEC66AF4EEC65AF1EE10FAF7
:1023080006DD0028CCBF0020012005B05DF804FBE5
:10231800C7EE265A83EAE371A1EBE37106EE101AC1
:10232800B8EEC66AF4EEC65AF1EE10FA09DDF4EE1C
:10233800E57AF1EE10FA04D5002ACCBF022003207A
:10234800E3E7C6EE265AB4EEE57AF1EE10FA09D5BF
:10235800F4EEE57AF1EE10FA04D5002BCCBF042098
:102368000520D2E74FF0FF30CFE700BF0000001094
:1023780030B52849DFED286A91F8DC2ED1F8005FE6
:1023880001EB4204013202F00F0281F8DC2E91F8D1
:102398001C2FB4F8DE3EA4F8DE0E07EE102AB8EEC5
:1023A800C77A91F81D2F27EE267AC31AFDEEC77A51
:1023B8002B4417EE900A07EE902AF8EEE77AC1F858
:1023C800003F67EEA67A1B09FDEEE77AA1F8043F05
:1023D80017EE902A90420FDD9BB29A42D4BF9B1A07
:1023E80000239842A6BFC31A9BB20023A1F8043F5A
:1023F800034617EE900A1A46B1F8043F1B1AC3EBBE
:102408008323121A93FBF2F282F30A02A1F8042F33
:1024180030BD00BFA009002014AE234130B51A4DCD
:10242800D5ED227A89B0F1EE677ACDED057AD5ED52
:10243800237A00230093F1EE677A0B680193CDEDC0
:10244800067A4B68D5ED247A02938B680393044689
:10245800D5F884300493F1EE677A6A4604A9684691
:10246800CDED077A0FF07CFC694605F18402084639
:102478000FF076FC019B2360029B6360039BA360C3
:10248800204609B030BD00BF0000001038B5027802
:102498002DED088B70EE609AD0ED01AA044669EE26
:1024A800AAAAB0EE40AAB0EE419AF0EE618AB0EE68
:1024B80042BA0D46F0EE62BA01F001034AB1002BB0
:1024C8000CBFF0EE607AF0EE697A0022C0ED0B7A6C
:1024D8000270D4ED0B7A002B62D079EEE77AF0EE39
:1024E800690A87EE890AC4ED0B0AD4ED090A94ED4E
:1024F800038AF5EEC00AF1EE10FA05DDB0EE491ACE
:1025080004F1180020F06AFC20EE088A94ED0A7A9B
:1025180094ED050A68EE2B2A7AEE877A2AEE00AA4D
:1025280077EEA27A77EE8A7AF4EEE87AF1EE10FA8C
:1025380008D4F4EECB7AF1EE10FAD4BFF0EE678A45
:10254800F0EE4B8AD4ED026A94ED046AC4ED0DAA4C
:1025580069EEA69AF0EE476AE9EE296A6B0778EE0B
:10256800E77A84ED0C7A67EE867AC4ED0E2AE9EEF6
:10257800276A84ED0FAAC4ED108AF0EE667A08D5B2
:10258800F0EEE66AB0EEC77AF4EEC76AF1EE10FA3A
:1025980001D5C4ED0A7AB0EE680ABDEC088B38BDE7
:1025A80070EEE77AF1EE677A87EE890A9BE710B555
:1025B80088B0002300930B6801934B6802938B68E3
:1025C80015490393D1ED227AD1F884300493F1EEC2
:1025D800677ACDED057AD1ED237AF1EE677ACDED04
:1025E800067AD1ED247A0446F1EE677A6A46843198
:1025F8006846CDED077A0FF0B3FB694604AA084692
:102608000FF0AEFB019B2360029B6360039BA360FA
:10261800204608B010BD00BF0000001010B5204CC7
:1026280094ED220AD4ED217A20EE000AA7EEA70A3B
:10263800D4ED237AA7EEA70AD4ED247AA7EEA70A49
:102648002AF0B2FDDFED177AB4EEE70AF1EE10FAE0
:102658000CD54FF07E53C4F884300023C4F888307A
:10266800C4F88C30C4F890300F4810BD94ED217A2E
:10267800C7EE007A94ED227AC4ED217AC7EE007A8B
:1026880094ED237AC4ED227AC7EE007A94ED247A89
:10269800C4ED237AC7EE007AC4ED247AE4E700BFDC
:1026A80000000010BD3786358400001030B5ADF548
:1026B800815D87B0D0F8D0100DF5815300F10A0282
:1026C8001833039306924FF6FF730A44ADF810309F
:1026D80007920023B0F8D6208DF81230ADF81430E8
:1026E800ADF82020ADF8243090F8D520019306AB42
:1026F80004460AAD8DF8222002A901AA18460295BF
:1027080016F0ECFF40B1029B94F8D42002A92046B1
:10271800CDE902530DF09EFA0198002363720DF57E
:10272800815D07B030BD064991F8332F0023042A94
:10273800036028BF042201F638712CF069B900BF84
:10274800A009002010B4074991F8332F0024048011
:10275800022A5DF8044B28BF022201F638712CF0DA
:1027680057B900BFA0090020F8B5204C1D270E4618
:10277800054604F8B87C0DF09DFC00200DF026FC01
:1027880008200DF023FC0E200DF020FC38460DF03B
:102798001DFC04200DF01AFC04200DF017FC00208D
:1027A8000DF014FC30200DF011FC00200DF00EFC93
:1027B80030460DF00BFC00200DF008FC0DF05AFC23
:1027C800A4F1B7000DF06AFB234670B114F8B72CDA
:1027D80052B914F8B62C302A00D02AB913F8B52CFF
:1027E80012B913F8B43C2B700120F8BD981A0020D8
:1027F80010B50246041D0020A24200D110BD12F8F7
:10280800013B0821584010F0800F4FEA400318BFE1
:1028180083F031030139D8B2F5D1EDE70F4B062229
:1028280030B403F8A52C242203F8A42C03F8A32C15
:10283800002203F8A22C0A4AA3F1A10102F1240400
:1028480052F8045B41F8045BA242F9D1032230BC80
:1028580003F89F0C03F89E2C07F084BD981A0020FB
:1028680093F60208F0B5144C0146002002462646AD
:1028780007464FF00A0CA31893F8C83E03B9F0BDF9
:102888002E2B06D101320029F9D0A3180B4483F866
:10289800C87EB3180CFB00F093F8C85EA5F13003AE
:1028A800092B9CBFA0F13003E8180E2A01D8013289
:1028B800E1E70020E3E700BFA0090020F8B5144CC9
:1028C800054654F8640C03791E3B012B02D90021FC
:1028D80021F0C4FA0F4F0026AE4254F8640C10DB06
:1028E800002121F0BBFA0C4BD3F86C3A44F8403C79
:1028F800002344F83C3C34F8383C013324F8383C95
:10290800F8BD17F8011B21F0A9FA0136E4E700BF6A
:10291800981A0020381A0020A0090020036813F034
:10292800400004D013F4057F14BF01200020704735
:10293800F0B5214D214CA5F12A0385B00646C4F80F
:10294800A43CC4F8A85CFFF75FFA122384F8783C2B
:1029580042F6F82004F678430021C3E90201184B37
:10296800C4F8983C40200DF019FD024610B3FFF75B
:10297800D5FF94F80E3F94F80F1F0746002F92F9E1
:102988000400009614BF03220122002B0CBF07236A
:10299800062301290CBF082100210B43CDE901239F
:1029A8004021084A2B460DF031FD07B12864003854
:1029B80018BF012005B0F0BD981A0020A00900201A
:1029C80087D4000841DD0008F0B5B54C666C94F872
:1029D800487085B06EB13046FFF7A0FF48B157BBCD
:1029E800236C43B3AF4AC2F8603B012384F84830F4
:1029F80021E094F84900FEF7EFF9874205461AD01E
:102A0800002800F0F580B6B1A64D96F9040095F8B7
:102A1800A539B3FA83F35B09029302264FF41653E0
:102A2800CDE9003600231A4604210DF0EFFCC5F865
:102A3800600B0028D9D194F84A00FEF7CDF994F834
:102A48004B30834205461CD0002800F0DB80E26C46
:102A5800BAB1944B92F9040093F8AC39002B18BF23
:102A68000823029303254FF49643CDE9003500234C
:102A78001A4608210DF0CAFC206510B1012384F81C
:102A88004B3094F85430012B25D194F85500FEF7BB
:102A9800A3F9A36D0546002800F0BB80DBB9E06D03
:102AA800C8B1804990F9040091F8AC2991F8A519AA
:102AB800002A14BF08220022002908BF42F00102A0
:102AC800029203214FF46142CDE900211A462021E8
:102AD8000DF09CFCA065266E94F86470002E00F042
:102AE800A0803046FFF71AFF002800F09A803FB90F
:102AF800236C2BB1A366FDF7D7FB012384F8643060
:102B080094F86E00FEF768F994F86F308342054632
:102B180038D0002800F0CE80236FCBB11A7A93F911
:102B2800040003210023002ACDE901135E4908BFF0
:102B3800072201EB82024FF48071D2F8D827009265
:102B48001A460DF063FC606710B1012384F86F30FA
:102B5800544A564B92F8D61983F88E1092F8D71922
:102B680083F88F1092F8D81983F8921092F8D9192F
:102B780083F8961092F8DA1992F8DB2983F89710FF
:102B880083F8982094F87800FEF726F994F87930BD
:102B9800834205462AD0002800F09380434B4FF427
:102BA800FA72C3F8C423E36F03B31A6802F410720D
:102BB800B2F5107F1AD093F9040008220323CDE957
:102BC80001324FF4E133009300231A464FF40071A9
:102BD8000DF01CFCC4F8800040B1324BC3F85C0B0C
:102BE800012384F87930002384F8843005B0F0BDDF
:102BF8002C4ED6F8600B0DF080FBC6F8605B84F8AD
:102C0800485018E7206D0DF078FB256584F84B5087
:102C180037E7002B3FF45FAF18460DF06EFBA56554
:102C280059E794F86C00FEF7D7F8874205463FF459
:102C380067AF70B3FDF738FB002E3FF461AF317A10
:102C480029B302291ED1174B93F8AF2912B9174A95
:102C5800C3F8DC290025022396F90400CDE90135E3
:102C6800114B03EB81012A46D1F8D8370093102184
:102C78002B460DF0CBFBA06600283FF441AF84F84B
:102C88006D503AE70129E5D1064B094AE0E70521ED
:102C9800E0E7A06E0DF031FBA56684F864502FE7DD
:102CA800981A0020A0090020E0EE02080000002089
:102CB8000A000020606F0DF020FB656784F86F50F4
:102CC80060E7D4F880000DF018FBC4F8805084F851
:102CD80079508BE737B50446A4F17D03012B0D46E7
:102CE80010460ED87D21019221F0B8F8019884F0A1
:102CF800200121F0B3F815B1288804442C8003B0D2
:102D080030BD2146F5E773B504460D46ADF80620FB
:102D1800C61D14F8010B2A460DF10601FFF7DAFF6C
:102D2800A642F6D10DF106000CF0D2FB9DF8060084
:102D38002A460021FFF7CEFF02B070BD014B0022EA
:102D4800996DE0E7981A00202DE9F04F4D4ADFF819
:102D580038E183B0C31D03F4FC7300AFD2F898497F
:102D6800ADEB030DC7F800D025689EF88530AC465A
:102D7800D2F890590E46591C6844C9B2AC45E84689
:102D880078609246754603F00F038EF8851038D1A7
:102D9800B4F90C2043F01003002A4146B8BF43F0B1
:102DA800200301F8023B08F101023A60D4E900234C
:102DB8009B1A396088F801303B68D4E90012A0EB0F
:102DC80003095FFA89F9521A09F107035FFA82FBCE
:102DD80003F4FC73CB45ADEB030D18D34A466846A4
:102DE8002BF016FE23684B4423604A466946384652
:102DF80025F045FD4046B04701200C37BD46BDE8EB
:102E0800F08F0DF101023A608DF80030D4E75A4690
:102E180068462BF0FDFD23685B4423605A466946EB
:102E2800384625F02CFDDAF89829DAF89039216827
:102E3800127AC4E90031CB1A5340DBB285F88630E8
:102E480000202268914212D108B185F886303B688B
:102E580095F88620591C39601A700021D7E900239B
:102E68009B1A012B09DC4046B0470020C5E7501CDF
:102E78002060127801205340E3E7531C3B60117037
:102E8800ECE700BFA0090020981A00202DE9F04FB8
:102E9800704C714E83B0D4F89829D2E900239B1A5C
:102EA800002BC4BF002386F8873096F8873000AF20
:102EB80093B96A4AC4F88C2902F18005C4F8945978
:102EC80002F19005C6E98655C6E9422202F5C872A4
:102ED800C4F89059C4F898290144421CC4F88819C8
:102EE800C4F884290278D4F894595109012905D0E5
:102EF80000210846FDF7BCF901204EE002F00F0A58
:102F080012F010023DD0831CC4F88439C31C90F819
:102F180001C0C4F8843900228378AA81D4F88C29A6
:102F28002B812A6083EA0C0362446A6086F828329F
:102F380086F88710D5E90032D4F88489A2EB030912
:102F4800D4F88829A2EB08025FFA82FB0BF1070389
:102F58005FFA89F903F4FC73D945ADEB030D20D36F
:102F68005A46414668462BF053FD08EB0B01C4F85E
:102F780084195A466946284625F081FC86F829A214
:102F88000AE0002B64D096F82932013303F00F03CE
:102F98005345CFD086F8872000200C37BD46BDE8C2
:102FA800F08F4A46414668462BF032FD08EB09018E
:102FB800C4F88419284669464A4625F060FCD4F8C6
:102FC8008C392868C5E9003096F8283200212A682B
:102FD800904211D109B186F82832D4F88439197889
:102FE80096F8283299424FF0000386F8873009D0C6
:102FF800B5F9081001207DE7511C296012780121DC
:103008005340E4E7D4F88C19D4F89409C5E90012C0
:10301800D4F89819D4F890294A600B818B813A1D0D
:103028007B6016F05BFB013006D1D4F89829136851
:10303800591C116002221A707B680BB10020984756
:10304800D4F89839D4F890291968C3E9002153E7CE
:103058001846A2E7A0090020981A0020201B00208B
:10306800F0B5104D95F82D42C3B0A61D324605F5B2
:103078000B7168462BF0CCFCB5F82A320DF80630F7
:103088000DEB06021B0A04F1080653706C46002774
:1030980014F8011B686F013720F0E0FEBE42F7DC30
:1030A80043B0F0BD981A00200C4B034493F88C30C1
:1030B80093B10B4A024492F83A1351B9322B28BF04
:1030C800322318463223B3FBF0F082F83A0301208A
:1030D8007047013982F83A13002070470000002039
:1030E800981A00200A88504080EA0010C0B20309EC
:1030F80083EA122343EA002383EAC000088070476A
:103108002DE9F743284C1F46FE2384F82C3294F807
:103118004E3384F82E32013384F84E334FF6FF7362
:10312800164684F82D2284F82F0284F83012ADF860
:103138000630062504F22D28013DADB23DBBDFF86F
:103148007080BDF8063094F82D52A4F82A324FF654
:10315800FF79A8F10801013DADB24D451ED13846B1
:103168001249FFF7BFFF94F82D32B4F82A222344FE
:1031780006F1080083F8322294F82D32B4F82A2296
:103188002344120A83F8332203B0BDE8F08318F809
:10319800010B0DF10601FFF7A5FFCDE718F8010BAC
:1031A800FFF7A0FFD7E700BF981A0020C21C002035
:1031B800CA1C002017B48DF805308DF804200A4B7E
:1031C800BDF804209DF81040A3F832222F2283F87E
:1031D800312283F83442032299238DF8064003B044
:1031E8005DF8044B8CE700BF981A002010B4036800
:1031F8000B4900228B420ED8591C01601A70094BEA
:103208000268426003F55E7101605DF8044B986ED8
:10321800521A20F05FBE11F8014B6240EAE700BF86
:10322800131E0020981A0020074B03F28A324260CE
:1032380003F279320260242283F8782303685A1C47
:10324800026054221A707047981A002010B5054C75
:10325800206D20F000FE00B910BD206D20F0F5FDB6
:10326800F6E700BF981A002010B5054991F88A437F
:1032780084421CBF81F88A03C1E9E42310BD00BF62
:10328800981A002010B50446C0B2FDF7F1FCC4F34B
:103298000720BDE81040FDF7EBBC034B5E21D3F8D7
:1032A800600B20F0DBBD00BFA009002038B5074D3A
:1032B80004465E21D5F8600B20F0D0FDD5F8600BF0
:1032C8002146BDE8384020F0C9BD00BFA009002054
:1032D80013B5044601A90068FCF7FCFF1320FFF7AB
:1032E800E5FFBDF90400FFF7CDFF1B20FFF7DEFF68
:1032F800BDF90600FFF7C6FF2320FFF7D7FF2368B5
:10330800002BB4BF53204E20FFF7BCFF01A9606813
:10331800FCF7E0FF1220FFF7C9FFBDF90400FFF733
:10332800B1FF1A20FFF7C2FFBDF90600FFF7AAFF99
:103338002220FFF7BBFF6368002BB4BF572045204E
:10334800FFF7A0FF02B010BD38B51D4B93F8A0439E
:10335800B3F8C433632CA8BF6324012B2CD940F2E3
:10336800262293422AD8333B322293FBF2F3154D9F
:10337800C3F10903642202FB0344D5F87C39A4B2E3
:10338800990744BF04F57A74A4B2DA07D5F88039EE
:1033980044BF04F5FA64A4B25B070BD5152010F0FE
:1033A800D3F838B1D5F8683A13F4016F04BF04F5BF
:1033B8007A64A4B2204638BD0023D8E70923D6E7AB
:1033C800981A0020A0090020274BD3F88019D3F8B9
:1033D800683A21F0704222F07F02002A0CBF0120D7
:1033E80002204A0748BF0430D90744BF0A3080B2D8
:1033F8009A0744BF143080B2D90544BF283080B240
:103408005A0744BF643080B2190744BFC83080B23D
:103418009A0644BF00F5C87080B2D90644BF00F5CB
:103428007A7080B2DA040FD500F5FA5080B29904A8
:1034380042BF00F51C50103080B29A050ED5A0F599
:10344800C740403880B27047190502D500F5FA60C8
:10345800ECE75A06EBD500F57A60E7E75B05F2D5AD
:1034680000F59C402030EDE7A009002038B503683E
:103478000B4D591C95F8D02301601A7004684460FC
:1034880005F2D131641A402CA8BF402401602246BD
:1034980005F211402BF0BCFA85F8514438BD00BF45
:1034A800981A0020036810B5054C5A1C026094F85D
:1034B800D003197026F04CF984F8D00310BD00BF72
:1034C800981A002070B506460C468D18AC4200D1FB
:1034D80070BD14F8011B3046FFF7E4FFF6E738B576
:1034E80005460C46090EFFF7DDFFC4F307412846E1
:1034F800FFF7D8FFC4F307212846FFF7D3FFE1B24F
:103508002846BDE83840CDE738B505460C46090AD7
:10351800FFF7C8FFE1B22846BDE83840C2E7074BCD
:10352800002283F8D02303F21142426003F2D23220
:103538000260C82283F8D123704700BF981A002080
:1035480013B504466846FFF7EAFF009B5A1C009231
:103558003E221A7068467B21FFF7A4FF6846EA21DD
:10356800FFF7A0FF6846C821FFF79CFF3A222146D3
:103578006846FFF7A7FF6846FFF778FF02B010BD5F
:10358800034B93F85404831E58425841704700BFB8
:10359800981A002008B50EF037FB074AD2F88414B1
:1035A800090605D428B992F88D04003818BF0120FF
:1035B80008BD0120FCE700BF981A00200C4B03F55A
:1035C8009162D2ED0E7A93F8202603F59A6191ED77
:1035D800330A092A20EE270A09D1DFED067A60EEC0
:1035E800277AFDEEE77A17EE902AC3F83826704757
:1035F800981A002000007A44104B93F88B2407EEA9
:10360800902A012283F8A0250D4AD2F86C2AC3F823
:10361800A42503F59A614FF4FA62F8EE677AC3F8C5
:10362800A82500200022C1ED397A83F8AC25C3F81B
:10363800B025C1F8E800C3F8CC257047981A0020D7
:10364800A00900200C4B93F88934012B03D0022BDE
:103658000AD000207047094BD3F8803913F00C0FBB
:103668000CBF012000207047044BD3F8800980F07C
:103678000400C0F380007047981A0020A0090020B9
:103688002DE9F04F2DED028B93B020F0E4FAE14BD9
:10369800D3F8AC231192D3F88424D3F8A4C3CDF87B
:1036A8003CC0834612F0800FD3F8A80310908A46D6
:1036B8001D4600F01B83D84BD3F87C1911F0020F7C
:1036C800984608D1D54A012382F8683513B0BDEC75
:1036D800028BBDE8F08F05F5C964D4E90032BBEB75
:1036E80003066AEB02070023CD4ABB4208BFB24279
:1036F8003EBFCA4A012382F86835CB0740F1C9802A
:1037080095F88834002B00F0C48095F85036002BCB
:1037180040F0BF8007EE90CA9FEDC27AF8EEE77AD4
:10372800C7EE875ADFEDC07AF4EEE75AF1EE10FAE9
:1037380000F16A81DFEDBD7AF4EEE75AF1EE10FA96
:1037480000F3628107EE900AF8EEE77A87EE875A6F
:10375800DFEDB77AB4EEE75AF1EE10FAB0EE673A59
:1037680000F152819FEDB36AB4EEC65AF1EE10FA39
:1037780000F34A81F2EE047AC5EEA76AAE4F25201F
:1037880085EE277AFDEEE66ADFEDAC4A9FEDAC4A9E
:10379800F8EEE66AF4EEE45A66EEA76ABDEEC77A7A
:1037A800F1EE10FAF4EEC45A8CBFFDEEE64ADFEDF6
:1037B800A54AB8EEC77AF1EE10FAA8BF76EEE76A26
:1037C80027EE277AB4EEC35AA8BFFDEEE64AF1EE1B
:1037D80010FAB4EEC65AF0EE443A8CBFBDEEC74AB2
:1037E8009FED994AF1EE10FAF8EEE46AA8BF37EEB9
:1037F800677A75EEE65AA8BFBDEEC74A36EEA37AD9
:10380800C7EE274ABCEEE47A17EE103AB8EEC47A4F
:1038180000FB037137EE066A35EE475AC6EE274AB3
:1038280003FB00033B44BCEEE46AC5EE274A16EEF0
:10383800102A8E1896F91C6800EE106A561C1A4455
:10384800314492F91C2806EE102A91F91C2807EE3B
:10385800102AB8EEC00AB8EEC77A334437EE407A79
:1038680093F91C38A4EE870A07EE103AB8EEC66A38
:10387800B8EEC77A37EE467AA4EE876A85EEA77A5D
:1038880036EE406AA7EE060A0EF0EEF9012385F837
:10389800503698F82C33002B40F0EE80012388F83E
:1038A8002C330F9BC8F83433002BB8BF5B4207EEAC
:1038B800903A9FED5C7A109AC8F83823F8EEE77AC8
:1038C800119AC8F83C2387EE870ADFED607A20EE6C
:1038D800270A25F0BFFADFED5E7AB4EEE70AF1EECB
:1038E80010FA00F19480F7EE007AB4EE670AF1EE70
:1038F80010FAC8BFB0EE670A88EDCC0A5548002216
:103908000FA9FCF73DFC454B93F86835002B40F0B8
:103918007381D4E90001504BBBEB00006AEB010155
:10392800C318009341F1FF330193DDE900670023D9
:103938004CF25032BB4208BFB24280F0A680474EDC
:103948008619029641F1FF360396DDE902890027C0
:1039580049F640464F4508BF464580F09880404E9E
:103968008619049641F1FF360596DDE904674FF0A4
:10397800000944F62068B94508BFB04580F0898041
:10398800DFF8ECC010EB0C06069641F1FF360796FF
:10399800DDE906674FF0000942F21078B94508BF23
:1039A800B04578D22F4BC318089341F1FF330993E0
:1039B800DDE90867002341F27072BB4208BFB242DA
:1039C80080F02D81284BC3180A9341F1FF330B93E4
:1039D800DDE90A6700234FF47A62BB4208BFB242AE
:1039E80080F02081DFF88CC010EB0C060C9641F1BA
:1039F800FF360D96DDE90C67BB4208BFB2424CD3D7
:103A080044F62060002148E09FED180A3CE7B0EE3C
:103A1800670A71E7981A0020A0090020000000201A
:103A280060E316008096184B0000B4C20000B44250
:103A3800000034C300003443E0EE0208000070C206
:103A480000007042C4FFFFFF4CFFFFFF35FA8E3CB9
:103A58000AD7233C7C1F00201891FCFFE040FDFFA3
:103A680070A0FEFFD08AFFFF28A6FFFF000000001D
:103A78003850FFFFB0B9FFFFFFF7E4FD00283FF41F
:103A88003DAF119BC8F83C3338E79C48BAE79C48DF
:103A9800B8E79C48B6E71046194628F01FFCD5F849
:103AA800A4739FED998A9FED997A07EE900A87EAA9
:103AB800E773A3EBE77367EE888A07EE903AF8EEB0
:103AC800E77A87EE870ADFED927A20EE270A25F05B
:103AD800C1F9DFED907AB4EEE70AF1EE10FA00F1E1
:103AE800A480F7EE007AB4EE670AF1EE10FAC8BFC8
:103AF800B0EE670A95F88C24874E002A00F098806B
:103B080095F89A33002B00F09380B5F9B63307EE99
:103B1800903AB5F9B833F8EEE77AC6ED087A07EEC9
:103B2800903AF8EEE77AC6ED097A95F89B33002BC0
:103B380000F0AF80B5F9BA335B4207EE903AF8EE81
:103B4800E77A7649C6ED0A7AD1E9002352EA0300FA
:103B5800894601F1080801F1140700F0AE80BBEBBB
:103B680002006AEB030128F0B9FB07EE900AD8EDD2
:103B7800006A97ED016A27EE888AD7ED007AB0EEE1
:103B8800667AA8EE277AF0EE477A98ED017AB0EED9
:103B9800470AA8EE060A77EEE67A30EE470A20EEE4
:103BA800000AA7EEA70A29F0FFFA9FED5D7ADFED7C
:103BB8005D7A28EE077AE8EE077AB4EEE70AF1EEC6
:103BC80010FA7AD90123A5F8E03495F89D33002B33
:103BD80000F08780B5F8C03307EE903AB5F8C233E5
:103BE800F8EE677AC6ED0B7A07EE903AF8EE677A48
:103BF800C6ED0C7AC6E902BAD5F8A433C5F854362E
:103C0800D5F8A833484AC5F85836D5F8AC33C5F8BE
:103C18005C360023C4E900BA82F8683556E548F2F4
:103C28003520EFE646F2A810ECE6B0EE670A61E749
:103C3800D5F854369FED3D6AD5F85816FB1A07EEAD
:103C4800903AF8EEE77AD5F8A83367EE867A5B1AE9
:103C580087EEA87AD6ED087A37EE277A07EE903AFB
:103C680020EE060AF8EEE77AF6EE006A27EE800AFA
:103C780027EE267AC0EE287A86ED087A96ED097A3C
:103C880077EE877A67EEA67AC6ED097A002A7FF47E
:103C98004CAFD5F8AC33D5F85C269B1A07EE903AB2
:103CA800B8EEE77AC7EE287A96ED0A7A77EE877A41
:103CB800B6EE007A67EE877A43E71D4B93E8070074
:103CC8000C3388E8070093E8070095F8E03485F896
:103CD800E134002387E80700C9E900BA85F8E03431
:103CE80073E7144BF362144B336383E703F59A636A
:103CF80000200021C3E90201E8E400BF90D00300DE
:103D0800400D0300A0860100BD3786358096184B0C
:103D180035FA8E3C0AD7233C681F0020F820002083
:103D28000000FA4300007A43000000202C7D8E3FFB
:103D38007C1F0020000048430000FA43D2ED017ABE
:103D480091ED017AD2ED026A92ED006A37EE277A98
:103D5800D1ED027A77EEA67AD1ED006A80ED017A8C
:103D680076EE866AC0ED027AC0ED006A7047B0EE62
:103D7800C00AC0EE207ADFED186A77EEA67AF4EE74
:103D8800E67AF1EE10FA21D4B7EE007AF4EE477A2B
:103D9800F1EE10FAC8BFF0EE477A77EEE17A72EEEC
:103DA800611A67EE817A87EEA17A77EE267AF5EEC8
:103DB800C07AF1EE10FA0CD4B4EEE71AF1EE10FA6C
:103DC80058BFB0EE671AB0EE410A7047F0EE667A57
:103DD800E3E79FED011AF6E7000000000B4A10B573
:103DE80002F1E000FCF784FB094B03F5D06403F211
:103DF8008463002000212060186002F59270A2F808
:103E08006819FCF775FBA2F86A1910BDA009002013
:103E1800981A00202DE9F041374E384DD6ED007A3A
:103E2800F5EE407AF1EE10FA2DED028B0F4608EE12
:103E3800100ADFED338A0BD1D5F8783BB3F8AE30F2
:103E480007EE903AF8EEE77A67EEA87AC6ED007AC0
:103E580095F8651A2B4C6423002A01FB03F13846B8
:103E680014BF4FF004084FF0000824F0FFFEB8EE2E
:103E7800C88A07EE900A96ED002A9FED231A9FED57
:103E8800230A234828EE011AF8EEE70AF7EE002A7B
:103E98004146F1EE421AFEF7F9FA94F82036112B52
:103EA80080EE287A21D1C4F83076D5EDAB7AFDEED4
:103EB800E77A17EE903AD5EDAA7AC4F82436FDEEE3
:103EC800E77A17EE903AD5EDAC7AC4F82836FDEECD
:103ED800E77A17EE903AD5EDAE7AC4F82C36FDEEB7
:103EE800E77A17EE903AC4F83436BDEC028BB0EEA0
:103EF800470ABDE8F08100BF20210020A00900206A
:103F08000000C842981A0020BD378635000000001E
:103F1800180C00200E4A10B50E4C02F28C630021DA
:103F280004F50D70196059609960FCF7E1FA04F521
:103F38001E70FCF7DDFA002382F8983682F899366D
:103F480002F29C62A4F86839A4F86C39116010BDBB
:103F5800981A0020A009002038B5074DD5F87C49EB
:103F6800E30602D5BDE83840D4E724F46054FFF7EF
:103F780035FFC5F87C4938BDA009002008B50C4BB1
:103F880093F820260A2A04BF0322C3F82426094BE3
:103F98001A7B4AB1D3F8F422C3F89423D3F86C2AD5
:103FA800C3F89C23002008BDFFF7D6FF0220FAE7DC
:103FB800981A0020A009002010B5134CD4F87C39B9
:103FC800DA061CD5114B242202FB0030104BC189A4
:103FD80093F820260A2A04BF0122C3F82426FCF7F6
:103FE8006FFA70B98B0701D4FFF7B6FFD4F8F43233
:103FF800C4E9E5330023C4F89C33022010BD032034
:10400800FCE70420FAE700BFA0090020E0EE020860
:10401800981A002008B50E200FF096FA28B9044B1C
:10402800D3F87809C0F3807008BD0120FCE700BF11
:10403800A009002008B5084B084A1B78242101FB79
:10404800032344F21900DB89184004D010F020FA49
:10405800003818BF012008BDA0090020E0EE0208C2
:1040680038B5A04A9FEDA06A92F82F3A07EE903A29
:10407800F8EE677A92F8303A87EE867A1446002589
:104088000021F2EE045A82EDAF7A07EE103AB8EE4C
:10409800477AB3EE045AC7EE067AB7EE007AF4EE22
:1040A800477AF1EE10FAC8BFF0EE477AC2EDB07A5F
:1040B800D2F8783B93F83D30E16107EE903AF8EE9C
:1040C800677A216287EE867AA162616204F1140040
:1040D800C4ED0E5A84ED067AFCF70AFAD2F8783B5A
:1040E80093F8440093ED232A01EE900A93F84300D5
:1040F80001EE100A93F8420000EE900A93F841008E
:1041080000EE100AF8EE611AB8EE411AF8EE600AED
:10411800B8EE400A04F1E000C1EE861A443481EE9C
:10412800061AC0EE860A80EE050AFCF7FFF9002D94
:1041380000F0D580D2F8783B6C4893F8904007EEB1
:10414800904AF8EEE77A93F8914087EE867A07EE80
:10415800904AF8EEE77A80ED007A87EE867A93F84F
:10416800924093F83930C2F8A410C2F8A810C2F8E7
:10417800B010C2F8AC1007EE904AF8EEE77A80ED7E
:10418800017A87EE867A92F8264A07EE904AF8EE88
:10419800677A80ED027A87EE867A07EE903AF8EE33
:1041A800677A80ED037A87EE867A5148C2ED305AF5
:1041B80082ED287AFCF79CF9D2F8783BDFED4D7A4E
:1041C80093F85300DFED4C1A01EE100A93F85200F1
:1041D80093F8513000EE900A00EE103AB8EE411A0A
:1041E800F8EE600AB8EE400A81EE061A434880EEFF
:1041F800270AC0EE850AB2EE042AFCF797F9B0EE5A
:10420800005AC2F8B411C2F8B811C2F8C011C2F805
:10421800BC1182ED6C5AC2ED745A3948FCF768F942
:10422800D2F8783BDFED341AD97C364801EE101A03
:10423800997C5B7C00EE901A00EE103AB8EE411AB9
:10424800F8EE600AB8EE400A81EE061AC0EE860A59
:1042580080EE060AB2EE042AFCF768F9D2F8783B39
:10426800DFED251AD97B284801EE101A997B5B7B74
:1042780000EE901A00EE103AB8EE411AF8EE600A15
:10428800B8EE400A81EE251AC0EEA50A80EE250A8E
:10429800B2EE042AFCF74AF9D2F8783BDFED161A99
:1042A80093F82B20194801EE102A93F82A2093F846
:1042B800293000EE902A00EE103AB8EE411AF8EED6
:1042C800600AB8EE400A81EE061ABDE83840C0EE32
:1042D800A50A80EE250AB0EE452AFCF727B9012584
:1042E800E6E600BFA00900200000C84240210020E7
:1042F8003C0A00206666854200000000080B00208A
:104308004C0B0020D40B0020900B0020180C002030
:10431800094A0A491378242000FB0313D889830625
:1043280007D410F0400005D0D2F87C09C0F3001083
:1043380070470120704700BFA0090020E0EE020886
:10434800714A2DE9F84FD2F88039DFF8C4B113F07B
:104358000403924600F0C6809BF8BC366B495BB1FB
:104368009BF8BD3643B19BF8E026062303FB0212F7
:1043780092F8FD39002B70D19AF808509AF8076026
:1043880045B19AF80930022B37D19AF80B50003D05
:1043980018BF0125BAF8082040F202239A422ED10C
:1043A8009AF80B70003F18BF01279AF800302422B2
:1043B80002FB0313B3F80E809AF8403908F400782A
:1043C80033B19AF94139002B02DDB8F1000F02D060
:1043D80000238BF8EC36DAF87C9919F0100F14D01A
:1043E800FFF718FE044680B39BF8ED0648B100239A
:1043F8008BF8ED360B20BDE8F88F0025CAE70027BB
:10440800D3E7DAF8683A1A06F5D49AF81230002B8E
:1044180071D108200FF098F830B913200FF094F8F4
:1044280058B19BF8EC3643B9B8F1000F63D125B108
:104438001FB116B119F0010F5DD10A200FF084F8F1
:1044480068B100238BF8EC3607E0DAF8683A1B0607
:10445800DBD50FF0EFFF00284BD10420CBE713206A
:104468000FF072F870B1DAF8683A190508D49BF8B9
:10447800EC3653B14DB147B13EB119F0010F04D03C
:104488000920B8E701238BF8EC3609200FF05CF817
:1044980028B1DAF8683A9A062FD405B16EBB232002
:1044A8000FF052F8044603200FF04EF884B1DAF802
:1044B800683A48B141F208029A4320D025B1002E4B
:1044C8000CBF0F20102096E703F480532B4318D11C
:1044D8000028C2D0DAF8683A1B0701D4002EBCD0F5
:1044E800052088E78BF8EC36FFF794FD8BF8ED068E
:1044F800B3E720467FE707207DE706207BE710200B
:1045080079E70F2077E700BFA0090020E0EE020856
:10451800981A0020044AD2F8803913F0040308BF1F
:10452800A2F84039704700BFA0090020054B587C0D
:1045380003F5377203F53173002814BF1046184687
:10454800704700BFA00900207FB5437803F00F042F
:1045580003F0F003802B0ED1042164F07F040023C4
:104568008DF808108DF80940ADF80A3002A8FCF75C
:1045780030FB04B070BD902B16D164F06F038DF83A
:104588000930B94B04EB44041C44062194F86935FE
:104598008DF80A3094F86A358DF80B3000238DF8C1
:1045A8000810ADF80C30E1E7A02B40F07781AF4D53
:1045B800D5F8842412F0800125D095F89F3323B3D1
:1045C800012B24D0022B14BF00260326A64B04EB94
:1045D8004400034493F86B35012B1AD195F8EE3655
:1045E800A34952074BBFC3F3400303F00103B5F9D6
:1045F800F026B5F9F22613B19142B8BF114601F57C
:10460800C87189B209E00E46E0E70126DEE7022616
:10461800DCE7072B05D1974BD9882046FCF714FB1C
:10462800A7E7032B0AD1944B93F8AA391BB10AF0D8
:10463800F5FC0146F1E70AF0ADFCFAE7052B07D1D6
:104648000AF098FC01460028E7D0B5F8F416E4E72C
:10465800062B07D10AF08EFC01460028DDD0B5F8FC
:10466800F816DAE7092B09D1FFF760FFD0ED057AD4
:10467800FDEEE77A17EE903A99B2CEE70E2B06D107
:104688007C4BB3F8981001EB81014900B9E70D2B79
:1046980004D1784BB3F996104942F4E70C2B03D1B7
:1046A800744BB3F89410EEE7122B01D10021B4E754
:1046B800152B0DD1704BD3F8801993F8AE398908B2
:1046C80013F0780F08BF81F0010101F00101A4E7A0
:1046D800162B06D10EF002F9684B184490F8151AFB
:1046E8009BE7412B06D112F0040196D0D5F820178C
:1046F8000A2370E0852B05D112F004018DD0B5F89E
:1047080018178AE7832B08D112F0040101D0D5F8D5
:1047180018172046FCF77EFA2BE7872B2ED101913C
:104728000EF0DCF8554B0199184490F8213A19B36A
:1047380095F8A01306EB8606C1EB411206EB860638
:1047480001EB8202B10001EBC2010B4499B24A4B62
:10475800D3F87C39DB0744BF01F5FA7399B24FF4FB
:104768007A72B5F8C433B3FBF2F3092B28BF0923D7
:104778000A2202FB03139BB219464EE7082B06D107
:1047880000293FF44AAF3C4BB3F8741B45E7142BA0
:1047980006D100293FF441AF374BB3F8701B3CE713
:1047A8007E2B09D1002981D0B5F8BC332421594387
:1047B8006423B1FBF3F124E7132B05D100293FF45F
:1047C8002CAFB5F8BC1328E70A2B07D100293FF412
:1047D80024AFB5F9BE1391FBF3F112E70B2B07D108
:1047E80000293FF41AAF95F8A01301EB062114E74E
:1047F800802B04D100298CD0D5F8A41389E7812B0C
:1048080004D1002985D0D5F8A81382E7882B06D1D2
:1048180000293FF402AFD5F8A413194BDBE7892B25
:1048280005D100293FF4F9AED5F8A813F5E7902B88
:104838000AD100293FF4F1AED5F8A423104B92FB1E
:10484800F3F103FB112153E7912B05D100293FF424
:10485800E4AED5F8A823F1E7822B15D191B1034B2B
:10486800D3F8AC1355E700BF00000020981A0020C9
:1048780070FEFFFF00000010A0090020E0EE020813
:10488800A0860100002144E7842B07D100293FF4CA
:10489800C4AE034BD3F8AC1364239CE7002068E64E
:1048A800981A00202DE9F8430D46904650B1037838
:1048B800303B012B06D806210130FEF7E7FABB4B47
:1048C80083F82407BA4FB94E35E096F8243733B148
:1048D800B8490620FEF738FA86F8240736E096F835
:1048E8002527B54B03EB4203B3F82E4A1CB986F8CB
:1048F80025474FF4036496F825170131C9B2B4F57A
:104908008A6F86F8251700F0498156D8B4F5806F6C
:1049180000F0048133D8B4F5007F00F0A18019D8E5
:10492800B4F5807F00F0A880B4F5887F00F0CF80D0
:10493800B8F1000F0CD02B7853B1B8F1000FC4D0E8
:10494800D7F86C3AD8F800209A42BED800232B70CA
:10495800BDE8F883B4F5047FEAD1D7F878399C0725
:10496800E6D597F8AA39002B77D00AF057FB01460D
:104978004FF40470FBF76AFC00232B70D8E7B4F5FA
:10498800866F00F0B8800DD8B4F5826F00F0C9804A
:10499800B4F5846FCCD1FBF743FC0028C8D0D7F816
:1049A800701B67E0B4F5886FC2D197F8A939002B5E
:1049B800BED0824BB3F994105CE0B4F5006F00F000
:1049C800B88025D8B4F5E26F00F09E8014D8B4F50D
:1049D800C06F5FD0B4F5E06FAAD197F8A999B9F183
:1049E800000FA5D1754B93ED0F0ADFED757A20EE18
:1049F800270A28F02DF854E0B4F5E46F98D197F819
:104A0800A999B9F1000F93D16C4B93ED110AECE71A
:104A1800B4F5046F68D014D8B4F5026F00F0B6800E
:104A2800B4F5036F84D1FBF7FBFB002880D0B6F800
:104A3800BC334FF4F36113FB01F3642193FBF1F1F1
:104A480018E0B4F5116F7FF473AFD7F878399B0786
:104A58007FF56EAF0AF0E2FA44E00AF09BFA86E7C7
:104A68000AF088FA00283FF463AFB6F9F4160A236F
:104A780091FBF3F120467DE7D6F8843458077FF59B
:104A880057AFFFF753FDD0ED027AFCEEE77A17EE49
:104A9800901AEFE797F8AD99B9F1000F08D10AF02D
:104AA80087FA01462046FBF7D1FB85F800903FE7DF
:104AB8000AF060FA00283FF43BAFB9F1010F0CBFD0
:104AC800D6F8F816D6F828174FF4C06052E7D6F88B
:104AD800843459077FF52CAFFFF728FD90ED050AC0
:104AE80027F0B6FF0146C5E7344BB3F9981001EB40
:104AF80081014900BEE797F8A939002B3FF418AFA8
:104B08002E4BB3F99610B5E797F8A999B9F1000FAC
:104B18007FF40EAF294B93ED100A66E7FEF754FCBD
:104B2800E0E7FBF77DFB00283FF402AFFEF70CFC43
:104B3800D8E7FBF775FB00283FF4FAAECA0714D58F
:104B4800D6F8A83383EAE371002BA1EBE37101EBFC
:104B580051014FF01902B1FBF2F1ACBF41F0004135
:104B680041F040414FF4006004E7D6F8A43383EAEB
:104B7800E371A1EBE371002B01EB51014FF0190236
:104B8800B1FBF2F1B8BF41F08041EBE7FBF748FB1E
:104B980000283FF4CDAED6F8AC136BE7FBF740FB2B
:104BA80000283FF4C5AEB6F9BE1363E7981A002093
:104BB800A009002001020008E0EE02080000001031
:104BC8000000C84208B50146FFF7B0FC0A4B90ED5B
:104BD800036A93EDAF7AD0ED007AD0ED046AE6EE81
:104BE800077AC1ED007AFFF7A1FCD0ED017AE7EE74
:104BF800267AC1ED017A08BDA009002008B5FFF7A3
:104C080095FC0A4A014602F5B470FBF771FC02F5FF
:104C1800D670FBF76DFC0023A2F86E394B69C2F819
:104C28001C33034B00221A6008BD00BFA0090020F6
:104C3800C4210020044B5874D3F87C39DB0601D515
:104C4800FBF762BCDAE700BFA009002008B5002026
:104C5800FFF7F0FF022008BD08B50020FFF7EAFFC4
:104C6800064B6422D3F8F43293FBF2F3044AA2F819
:104C78003837FFF771F9002008BD00BFA0090020F0
:104C8800981A0020F0B52DED028B284D284F83B0DF
:104C980008EE100A0CF024FFB5F81C3AB7F83C6788
:104CA80095EDC70AC01A04B2F61AFFF73FFCDFED0C
:104CB800217AD0ED050AB8EEC81A36B221EE271AC5
:104CC80007EE906AB8EEE72A07EE904AF7EE002A58
:104CD800F8EEE71A002105F5B4708DED011AFDF71D
:104CE800D5FBBDEEC00A07F22C7010EE103A1BB2CD
:104CF80007EE903A9DED011AA5F86E39B8EEE70A6D
:104D0800F1EE000A1EF06AF8BDEEC00A204610EE69
:104D1800103A1BB2A34203DB9E423046A8BF184696
:104D2800A5F86E0903B0BDEC028BF0BDA009002008
:104D3800981A0020BD3786353B4908B5D1EDC46ABD
:104D480007EE100AFFF7F2FBD0ED027A4A7B76EE07
:104D5800E76AD1ED287A0B4666EEA76A002A54D096
:104D6800B1F8062A514207EE901AF8EEE77AF4EE07
:104D7800E67AF1EE10FA0ADC07EE902AF8EE677A86
:104D8800F4EEE67AF1EE10FA58BFF0EE667ADFED4F
:104D9800276A93EDC76AC3ED377AB8EEC77A77EE1C
:104DA800C65A27EE267ADFED226A67EE266AB1EE4A
:104DB800665AB4EEE55AF1EE10FA29DBDFED1D6A0A
:104DC80027EE267A76EE476AF4EEE76AF1EE10FAF5
:104DD80008DC76EE076AF4EEE76AF1EE10FA58BFDF
:104DE800F0EE676AC3EDC76A93EDC70A27F030FE95
:104DF80047F6FF739842A8BF18460F4B9842B8BFB2
:104E080018460E4BA3F85C0708BDB1F8022AA9E7BB
:104E1800F4EEE56AF1EE10FA02D8DFED096ACFE7A1
:104E2800C3EDC77AE0E700BFA0090020BD3786358B
:104E38000C22C4420C2244445A80FFFF981A0020D6
:104E48008F2AF54308B50B4BB3F85E1A79B1FFF713
:104E58006DFB07EE901A90ED027AF8EEE77AF4EE21
:104E6800C77AF1EE10FA94BF0120002008BD084669
:104E7800FCE700BFA009002070B5114C114BB4F835
:104E8800522ADA8006460D46FFF7DCFFA0B9B4F8CF
:104E9800540AB4F8561A32462B460844FCF7CEF8A2
:104EA80060B930462946FBF745FAB4F85C3A9842AF
:104EB80094BF0020012070BD0120FCE70320FAE721
:104EC800A0090020000000107FB504230B70002308
:104ED800C1E90133C1E903338B82A5230C468B75E5
:104EE80078B9274BD3F87C29D20708D5D3F8642B97
:104EF8004A60D3F8682BD3F86C3B8A60E36004B04F
:104F080070BDFF280BD1FFF711FB014601A8FBF785
:104F1800C9FE019B6360029BA360039BEEE7FE282A
:104F280011D1174991F82C33002BE8D00B78154A8A
:104F3800242000FB0323DB8903F00303032BDED1CA
:104F480001F54271E2E7451EEBB23B2BD7D80C4B7B
:104F580093F941299042D2DC182202FB053505F568
:104F680068750E460FCD0FC695E8030086E8030066
:104F78002378062B02BF238A01332382BFE700BFB1
:104F8800A0090020E0EE02080C4BD3F88029520754
:104F980070B511D493F8405965B1094E01243146D2
:104FA800E0B20134FFF790FF3D2C06F11806F6D168
:104FB80024F0FCFA284670BD0025FBE7A009002074
:104FC800F8210020F8B51E4CD4F87C0910F0100028
:104FD8002FD10FF02FFA94F8F0391A4E1A4C0546D3
:104FE80043B3B4F8003DA6F89A35B6F99A750CF0B3
:104FF80077FD94F8051DB4F83C2743180A339F42FF
:1050080004DB531A0A3BBB42A8BF3B46A6F89A35B5
:105018007DB9FFF78BFAD0ED027A9FED0C7AF0EEAE
:10502800E77AF4EEC77AF1EE10FA9CBF012384F810
:105038000C3DF8BD0028D4D0054BDB88D3E700BF72
:10504800A009002000000020981A00200000484213
:105058000000001038B5144C94F941390BB394F89A
:105068004039F3B1FEF778FF0020FFF7E3FDFFF7C3
:10507800A9FF94F9411900221820D3B28B4204DB0E
:10508800002384F85439022038BD00FB0343013261
:1050980093F8A053062D04BFB3F8B253A3F8B45342
:1050A800EBE70320F0E700BFA00900202DE9F0415D
:1050B8002DED028B8046F0EE408A1EF0CCFD0546B1
:1050C8000F46FFF733FA254C90ED028A244EB8F1CB
:1050D800000F07D1C4E9005186EDC48ABDEC028BEC
:1050E800BDE8F081D6F87C39DB062ED5D4E900017D
:1050F800281A67EB010127F0F1F8DFED1A7A07EEBD
:10510800100A67EE277A9FED187AF4EEC77AF1EE67
:1051180010FA17D896EDC47ADFED146AA8EEA77ACC
:1051280078EE667AB4EEE77AF1EE10FA08D478EE03
:10513800267AB4EEE77AF1EE10FAD8BFF0EE477AA5
:10514800C6EDC47AC4E90057C8E796ED287AC8EED8
:10515800877A37EE888A86EDC48AF3E7A827002085
:10516800A0090020BD378635CDCC4C3E0000FA435F
:1051780008B50B4BD3F87C2992020CD5B3F8083A42
:10518800DFED087A00EE103AB8EEC00A012020EEF2
:10519800270AFFF78BFF0CF043FB002008BD00BF78
:1051A800A00900209A9999BE38B52DED028B07EE1B
:1051B800901A08EE102A0446FFF7B8F99FED157A01
:1051C800F8EEE77A0546C7EE878ADFED137A68EED0
:1051D800A78AB8EEC88AB0EE680A23F03BFED5ED80
:1051E800007AE8EE007AC4ED007AFFF79FF9B0EE96
:1051F800680A054623F0CCFDD5ED017AE8EE007A81
:10520800C4ED017AFFF792F9BDEC028B8368A360C5
:1052180038BD00BF0000C84235FA8E3C074BD3F8B2
:105228007C39DB0610B5044605D5FFF77FF907C8BA
:1052380084E8070010BDBDE81040C3E4A0090020C1
:1052480008B50146FFF772F990ED007AD0ED017AC2
:10525800D1ED000A91ED010A70EEC70A30EE670A37
:1052680023F024FDDFED0B7A9FED0B7A20EE270A61
:1052780048F6A043C0EE077AFDEEE77A17EE900AEB
:10528800984203DDA0F50C40A03808BD0028B8BF3F
:10529800C018FAE70000C84235FA8E3C10B50A4C2F
:1052A80004F64410FFF7CCFFD4F85039C01A23F0A5
:1052B800ECFC0028B8BF404242F210739842D4BFB9
:1052C8000020012010BD00BFA009002070B50E46C7
:1052D800D107044615460AD51E4BD3F87C2912057A
:1052E8005FBF0268C3F808234268C3F80C23A80705
:1052F80008D59FED190A0020FFF7D8FE154BA268C4
:10530800C3F81023690703D5124BC3F8206370BD97
:105318002A0706D52046FFF793FF0E4BC3F8200354
:10532800F5E7EB06F3D52046FFF78AFFA0F58C4397
:10533800503B48F6A0429342C4BFA0F55243F03B0D
:10534800002BB8BF03F50C43024AB8BFA033C2F81C
:105358002033DCE7A0090020000000002DE9F04F11
:105368002DED068B10F0100FAD4C87B00746164692
:10537800984648D0AB4D0C2704F51E6994F8E839D7
:1053880007FB0353D3F85C3A1BB1304641469847B4
:1053980068BB94F8E839052B08D80CF041FAA24B01
:1053A80093F8183D022B01D10CF0C0FB94F8E919D1
:1053B800D4F8782B9D4DB2F96E006FF009034B437A
:1053C80000EE103A0026B8EEC00A2E800CF0F8F96C
:1053D80094F8E8396880012B0CBF15201420AE80A2
:1053E80007B0BDEC068BBDE8F04F0BF0BDBB94F8E1
:1053F800E83907FB03531844C9E9006890F8603A94
:1054080084F8E839BAE710F0080947D0D4F8786B7F
:10541800854CB6F96C00B4F9223D844D00EE103A83
:10542800B8EEC00A0CF0CCF9B4F9243D288000EE9F
:10543800103AB6F96E00B8EEC00A0CF0C1F9D4F80B
:10544800303D68801B7B07EE903AB4F9263DF8EEB4
:10545800E77A06EE903AB2EE047A67EE877AF8EECB
:10546800E66A9FED737A76EEA76A77EEA77A66EE1C
:10547800876A86EEA77ADFED6F7A77EE677AF1EEC4
:10548800677AFDEEE77A17EE903AAB80B4F81A3DEA
:10549800EB8007B0BDEC068BBDE8F08F10F0010380
:1054A80004930DD00EF0F4FF002840F0D380FBF7F2
:1054B8002BF8FFF73BF8D4F8F4120222FFF706FFA7
:1054C80017F00203019300F05882237A564D002BFF
:1054D80000F02184A378002B00F04982D5F8502DE4
:1054E800554BC5F8506DA6EB02099945C5F8548D82
:1054F80000F30E84FFF71AF894EDC38AD0ED017A11
:10550800D4EDC28AD0ED000ADFED4C9A38EE678AF6
:1055180078EEE08A28EE080AA8EEA80A27F044FEEA
:105528002378404A94EDC1AADFED457A242101FB96
:105538000323B4EEE7AADB89F1EE10FAD8BFB0EE88
:1055480067AA59052AEE29AA40F1038194F941294D
:1055580062B194F95439013A934207D0182202FBF8
:10556800034393F8B633A52B40F0F680B4F8463AD7
:10557800DFED346A07EE903AF8EEE77A87EEA67A1E
:10558800B4EEC70AF1EE10FA00F2EB80DFED2E7AE6
:10559800B4EEE70AF1EE10FA40F3E380D4F8683A83
:1055A800DB0400F1DE80F1EE680AB1EE480A23F070
:1055B8007DFBB0EE409AFBF723FC07EE900A9FEDC7
:1055C800237AB4F8463AD4EDC28AF8EEE77A0AEEBE
:1055D800903A67EE877A9FED1E7AA7EE879AF8EEE3
:1055E800EAAAB0EE490A23F035FCEAEE808AB0EE6A
:1055F800490A23F0CDFB94EDC38AAAEE808AFEF710
:1056080095FFD0ED017AD0ED000A38EE678A78EE82
:10561800E08A28EE080AA8EEA80A27F0C5FDA0E04F
:10562800A0090020E0EE0208981A002000000010EF
:1056380000007A440000FA433F0D0300CDCCCC3E75
:105648000000C842BE30893E000048420000344293
:1056580035FA8E3CE379002B75D0E378002B71D0B6
:105668006C4D6D4BD5F8381DC5F83C8D711A9942B3
:10567800C5F8386D6ADCFEF759FF94F8333A94F8A8
:10568800342A9FED667AD4EDC46A03EB83035B008A
:1056980007EE903A6FF009035343F8EEE78A07EEF6
:1056A800903AB8EEE78A07EE901AB8EEE71ADFEDFF
:1056B8005C7A21EE271AD0ED027A8DED011AC7EE39
:1056C800870A494604F5F87086EE870ADFED557AB1
:1056D800F7EE002A60EEA70A20EE270AB0EE682A45
:1056E800F0EE481AFCF7D2FE94F83A3A9FED4E7A5B
:1056F800DFED4E0A9DED011AC3F10A039BB203FBCD
:1057080003F2534307EE903AF8EEE77A05F5546052
:10571800E7EE870A1DF062FBB4EEC08AF1EE10FADC
:1057280008DCF4EEC08AF1EE10FA54BFB0EE408AFD
:10573800B0EE688ABDEEC88A18EE103AA4F86A3945
:105748000123A371012384F8703AB9E6FAF7DCFE65
:10575800F6E79A073FF50AAF95F8593D042B3FF451
:1057680005AFFEF7E3FE8AEE007ADFF8CCA0D0EDB5
:10577800007AE7EE287AF0EE678ACAED007AFEF73B
:10578800D5FED0ED017A227BE7EE087AB0EE678A83
:10579800CAED017A0AB3264A95F8041DB2F9000049
:1057A80023F064FA00B2C0B1B4F8042ADFED216A2C
:1057B800504307EE900AF8EEE77A87EEA67AD4ED22
:1057C800BE7A67EE299AE9EEE78AD4EDBF7ACAED88
:1057D800008AA9EEA78A8AED018A1748FFF730FDEB
:1057E800D4F8F432C01A23F050FA80EAE073A3EB3D
:1057F800E07344F268229342C5F8600D1EDD012271
:1058080085F8642D0593FBF7FBFA059B5843C5F80B
:10581800600D1EE0981A00203F0D03000000C842EA
:10582800BD3786350AE81C416F12033BCDCCCC3D11
:10583800000000100000FA432421002042F2273122
:105848008B4295F8642D00F35F8212B1002385F82E
:10585800643DD848D5F8601DD0E90032F31A0293A8
:1058680068EB02030393DDE902ABD34A00235B45EF
:1058780008BF524512D2D5F8743DC5F8741D002BE7
:1058880081EAE172B8BF5B42A2EBE1729342C0E9E0
:105898000068D4BF0023012385F8703D95F8703D5A
:1058A80094F8320AC54D6422002B10FB02F302EE75
:1058B800103A6FF0630303FB00F307EE909A01EED2
:1058C800903AD4F8F432BE48B8EEE71ADFEDBD7A64
:1058D8000B4421EE271A00EE103AD4EDBD7A8DED77
:1058E800021AF8EEE70A14BF05210121B8EEC22A10
:1058F800F8EEE11AF7EE002AB8EEC00AFCF7C6FD8A
:1059080094F83A3A9FEDB07ADFEDB00A9DED021AAD
:10591800C3F10A039BB203FB03F2534307EE903A29
:10592800F8EEE77A05F29C60E7EE870A1DF056FA72
:10593800B2EE047AC0EE077AFDEEE77A17EE903AF7
:10594800A4F86839D4F87C3913F080730AD095F834
:10595800702DD5F8601D4846FEF75CFABDEEC00A0A
:1059680010EE103AA4F86C39994B01225A71934BF6
:10597800012283F8982683F89926954BD3F8682A4C
:1059880012F4805F9B460AD01A7B42B1914D8B4A34
:10599800B5F9000092F8041D23F068F92880BD07C6
:1059A8003FF477AD854ABBF83C3A92F89816BBF8B5
:1059B800369ABBF83E5A0293F9B1019BEBB19BF8BA
:1059C800321ABBF968096FF0090C0CFB01FC604541
:1059D80006DB01EB810C4FEA4C0C8445A8BF8446DA
:1059E800DBF8781B07EE90CAB1F96C00B8EEE70A4D
:1059F8000BF0E6FE7749714A088092F899262AB199
:105A0800019B1BB1734ABBF86C1991809BF8702AF3
:105A1800002A00F03481049B002B00F030819BF8B1
:105A2800341ABBF96A299BF8333A6FF0090A0AFB62
:105A380001FA524506DB03EB830A4FEA4A0A92450C
:105A4800A8BF924607EE90AAD4F8783BDFF884B155
:105A5800B3F96E009FED5B8AB8EEE70A0FFA8AF297
:105A680004928DED010A0BF0ABFE54499FED5A7A72
:105A7800D1F8783DDFED590A9DED010AC1F8786D3E
:105A8800F31A01EE103AB4F8423AC1F87C8DC3F12A
:105A98000A0340429BB2ABF8020003FB03F0434306
:105AA80007EE903AB8EEC11AF8EEE77A01F55860B9
:105AB800E7EE870AA5EB09052DB221EE081A1DF0BD
:105AC8008DF9BDEEC00A3D4910EE103A18B2AAEBA6
