:020000040800F2
:10000000F0FF0120912D0508E5C1040815FF010846
:10001000092E0508092E0508092E05080000000014
:10002000000000000000000000000000E9C104081A
:10003000EDC1040800000000F1C1040805BA010880
:10004000092E0508092E0508092E0508092E0508A0
:10005000092E0508092E0508F1A70108F9A70108CE
:1000600001A8010809A8010811A8010835D0000855
:1000700049D000085DD0000871D0000885D0000884
:1000800099D00008ADD00008092E05080000000036
:1000900000000000000000000000000019A8010896
:1000A0005DFB0108F5FA01086DFB0108E5FA01089E
:1000B0001DFB01082DFB01083DFB010859C3000889
:1000C00021C8000861C3000825C80008092E0508DA
:1000D000092E05087DB9010889B901080000000052
:1000E00021A80108092E0508711B05080000000061
:1000F000000000000000000000000000C1D0000867
:1001000000000000092E05084DFB0108092E050816
:1001100000000000000000000000000000000000DF
:10012000D5D00008E9D00008FDD0000811D10008A2
:1001300025D10008000000000000000000000000C1
:10014000000000000000000000000000F5C10408ED
:1001500039D100084DD1000861D1000895B90108D6
:1001600069C3000829C80008000000000000000062
:10017000000000000000000000000000000000007F
:1001800000000000092E050800000000000000002B
:08019000092E0508092E0508DF
:08019800E4280500010000004D
:1001A000FA0101000400000008500020984F0020D0
:1001B0000000000051FC0008944F002005300100B1
:1001C00008000000B84A0020A04F002000000000F6
:1001D000C84006089C4F00201302010004000000E4
:1001E000B44A0020AC4F002000000000D0400608B8
:1001F000A84F00200A90010024000000602C00207D
:10020000B84F00200000000001270308B44F002071
:100210000610010026000000F82D0020E04F00200D
:100220000000000069FC0008DC4F002021020100F2
:10023000F0000000CC940020049600200000000094
:10024000E9F70308009600202C00040010000000CD
:10025000BC940020F896002000000000E121030873
:10026000F496002025201E002C0100009093002011
:100270000C970020000000000000000008970020FC
:100280002B00120024000000489300203C9800201E
:1002900000000000F1210308389800202700010029
:1002A00004000000B08200206498002000000000DC
:1002B000D4400608609800200C5004008000000024
:1002C0005C7500206C980020000000000D80020882
:1002D00068980020031101000A0000002C81002012
:1002E000F09800200000000009430408EC9800206A
:1002F0002920140078000000CC7E00200099002006
:100300000000000000000000FC9800200120010017
:100310000C000000C07E00207C990020000000003E
:10032000D840060878990020232001001000000022
:10033000787E00208C99002000000000ED26030844
:10034000889900200B3001001A000000407E002038
:10035000A099002000000000E44006089C990020BD
:100360000E50040058020000DC750020C0990020E7
:100370000000000089200308BC9900201E10010025
:10038000090000002C7E00201C9C002000000000C2
:10039000FE400608189C00200D1001004C000000D3
:1003A000DC7D00202C9C0020000000009D13020832
:1003B000289C0020220201001C010000388100203E
:1003C0007C9C00200000000089120108789C00201D
:1003D000160215003F000000C09500209C9D0020E3
:1003E0000000000055FD0008989D00201F02080035
:1003F00010000000F09D0020E09D002000000000A3
:1004000031FD0008DC9D002018400100380000008C
:10041000887E0020049E0020000000009504010852
:10042000009E00201B02010010000000509E0020D2
:10043000409E0020000000001DFD00083C9E0020A2
:100440002802040004000000689E0020649E002032
:100450000000000011FD0008609E0020270204003B
:1004600004000000749E0020709E00200000000028
:1004700005FD00086C9E00201A0201003C000000EF
:10048000B89E00207C9E002000000000350401087A
:10049000789E00200400080080000000EC8400200A
:1004A000F89E00200000000000000000F49E0020E4
:1004B0001C0202001C0000005C7E00207C9F0020CB
:1004C00000000000A9030108789F002026300100E9
:1004D000080000008C8500209C9F00200000000088
:1004E0007D400408989F0020081203000F000000C0
:1004F0007C850020A89F002000000000E5FB00088C
:10050000A49F0020031201003D0000002C86002063
:10051000BC9F00200000000008410608B89F002092
:10052000010201000A0000003489002000A0002020
:100530000000000041FC0008FC9F00200C020100AC
:10054000040000009485002010A00020000000009E
:1005500059FC00080CA00020FD1701009A000000C3
:100560004489002018A0002000000000613E04081B
:1005700014A000201310010004000000387E0020A9
:10058000B8A000200000000048410608B4A00020E8
:10059000020201000300000030890020C0A00020FA
:1005A0000000000000000000BCA00020F5C1010018
:1005B00074000000B8800020C8A0002000000000E7
:1005C00015480408C4A00020F62101000C0000001A
:1005D000607F002040A10020000000004C41060880
:1005E0003CA100201212010004000000B4B200205F
:1005F00050A1002000000000584106084CA1002036
:100600001102010008000000B8B2002058A100202B
:10061000000000005C41060854A10020F8310100F0
:1006200006000000C47D002064A10020000000003E
:100630006441060860A10020020001000C000000D7
:10064000E485002070A100200000000000000000F0
:100650006CA10020FE01010014000000447F002076
:1006600080A1002000000000CDFB00087CA100203C
:100670000612030012000000D085002098A100207F
:10068000000000003103010894A10020F7010100DF
:1006900006000000587F0020B0A1002000000000EC
:1006A0006A410608ACA100201A0001000E000000FB
:1006B0006C850020BCA100200000000070410608ED
:1006C000B8A100201400010005000000D47D002026
:1006D000D0A10020000000007E410608CCA100202F
:1006E000FD010100240000005E840020DCA1002048
:1006F00000000000BB7A0108D8A100201D02020002
:10070000060000005884002004A200200000000021
:100710000000000000A20020F90101000400000018
:10072000C0B2002010A2002000000000757A01086D
:100730000CA2002012300100100000009C74002068
:1007400018A20020000000008441060814A2002026
:100750003840010006000000D8B3002058BF002038
:10076000000000009441060854BF002037400100FB
:100770002800000014BD002064BF0020000000001D
:100780009A41060860BF00201B2001000C000000F9
:100790005CB8002090BF0020000000001DD90308B5
:1007A0008CBF002016200100060000006CB800205D
:1007B000A0BF002000000000C24106089CBF00202E
:1007C00010100100020000001CB60020ACBF002089
:1007D00000000000C8410608A8BF00201900010061
:1007E0000500000008BC0020B4BF0020000000008D
:1007F000CA410608B0BF00200E020100020000003E
:1008000068BD0020C0BF002000000000D0410608E5
:10081000BCBF00202F20010022000000C8BF002024
:1008200000B4002000000000D2410608C4BF002030
:10083000010101000400000030C50020E0C50020D7
:100840000000000000000000DCC5002000010100E5
:10085000040000002CC50020E8C5002000000000B6
:10086000F4410608E4C50020020101000300000075
:1008700028C50020F0C5002000000000FD7F020810
:10088000ECC500202052010008000000F0C3002049
:10089000F8C5002000000000F8410608F4C500205B
:1008A0002A12010008000000E8C3002004C600204E
:1008B000000000000042060800C600201F50010092
:1008C0002400000044C2002010C6002000000000E8
:1008D000084206080CC600200502010004000000C2
:1008E00090C700204CDA0020000000002C420608CF
:1008F00048DA00202C020100040000005CC7002040
:1009000074DA0020000000003042060870DA00208F
:100910002D02010001000000E4C600207CDA002066
:10092000000000000000000078DA00202902010029
:100930004000000084C6002084DA0020000000008F
:100940003442060880DA002023320100140000003F
:1009500084EC0020CCEC002000000000744206086B
:10096000C8EC0020001201000A00000094F10020F1
:1009700028F70020000000000000000024F70020FD
:100980000902010001000000C42A01203C2B0120C3
:0C0990000000000088420608382B0120FF
:10099C0001000000120100020000004083042057F7
:1009AC000002010203010000040309041A03000001
:1009BC00000000000000000000000000000000002B
:1009CC000000000000000000D80000000000000043
:1009DC0005000000060000000200000000000000FE
:1009EC00A0050020B04F0020020000000100000014
:1009FC00018A00089C050020000000000100000096
:100A0C0001000000E1890008E00100200000000066
:100A1C0000000000000000000000000000000000CA
:100A2C0000000000000000000100000000000000B9
:100A3C0000000000000000000000000001000000A9
:100A4C00000000000000000000000000000000009A
:100A5C000100000000000000030000000000000086
:100A6C0005000000A40000000000000000000000D1
:100A7C00050000000000040100000200010000025B
:100A8C00100000000700FF000060024010600240F0
:100A9C00000000000000000000000000000B00003F
:100AAC000000000000000000000000000060024098
:100ABC00286002400100000000000000000000005F
:100ACC00060C000000000000000000000000000008
:100ADC000060024040600240020000000000000084
:100AEC0000000000100D00000000000000000000DD
:100AFC00000000000060024058600240030000004B
:100B0C000000000000000000160E000000000000B5
:100B1C000000000000000000006002407060024015
:100B2C00040000000000000000000000200F000086
:100B3C000000000000000000000000000060024007
:100B4C00886002400500000000000000000000006A
:100B5C002610000000000000000000000000000053
:100B6C0000600240A060024006000000000000008F
:100B7C000000000030110000000000000000000028
:100B8C000000000000600240B86002400700000056
:100B9C000000000000000000362F000000000000E4
:100BAC0000000000000000000064024010640240DD
:100BBC0000000000000000000000000000380000F1
:100BCC000000000000000000000000000064024073
:100BDC00286402400100000000000000000000003A
:100BEC0006390000000000000000000000000000BA
:100BFC00006402404064024002000000000000005B
:100C0C0000000000103A000000000000000000008E
:100C1C000000000000640240586402400300000021
:100C2C000000000000000000163B00000000000067
:100C3C0000000000000000000064024070640240EC
:100C4C00040000000000000000000000203C000038
:100C5C0000000000000000000000000000640240E2
:100C6C008864024005000000000000000000000045
:100C7C0026440000000000000000000000000000FE
:100C8C0000640240A0640240060000000000000066
:100C9C0000000000304500000000000000000000D3
:100CAC000000000000640240B8640240070000002D
:100CBC0000000000000000003646000000000000AC
:100CCC000000000000000000FF08E001F40100003B
:100CDC000000000000000000000000000100000007
:100CEC00D189000800000000000000000000000096
:100CFC000100000000000000B98B0008E58B000823
:100D0C00FD8B0008018C000809BD0008058C00084B
:100D1C00098C00087C4805088101050849A40408D1
:100D2C00390205080000000000000000F909050860
:100D3C00350A05080000000000000000000000005B
:100D4C0089A40408C98A0008D58A0008B5BC000823
:100D5C008DBC0008E18A0008D1BC0008EDBC00087D
:100D6C001F0000001C0000001F0000001E000000FF
:100D7C001F0000001E0000001F0000001F000000EC
:100D8C001E0000001F0000001E0000001F000000DD
:100D9C000068214C0600000005000000C5A40408F2
:100DAC00C9A40408CDA40408D9A40408DDA404082B
:100DBC00D1A40408D5A40408FFFF0000FFFFFFFF27
:100DCC00010101FF645D0508985D0508CC5D05080F
:100DDC00FFFFFFFF0001010100000000FFFFFFFF0C
:100DEC0008C5050800000802050303000000000008
:100DFC0014C50508010008020504030000000000EA
:100E0C0020C50508000008020503030000000000CF
:100E1C0028C50508010008020504030000000000B5
:100E2C00342506080200FE0101100300000000003A
:100E3C00D4BF0508030014020003000000000000EA
:100E4C0030C5050804001F02020008000000000065
:100E5C0038C5050805001F0202010800000000004B
:100E6C000000803F000000000000000000000000B7
:100E7C000000803F000000000000000000000000A7
:100E8C000000803F00000000000000000000000097
:100E9C00010102007D000000FFFFFFFFC4C5050833
:100EAC0028C9050800000000617F0208A086010027
:100EBC0004000000C4C50508E82006080000000076
:100ECC00E9B50108E803000004000000A0BC050817
:100EDC000000000000000000498B02087D000000AB
:100EEC00FF00000090C0050800000000000000009A
:100EFC0065AE02087D000000FF000000982E060879
:100F0C000000000000000000D96803087D0000000C
:100F1C00FF000000BCC90508000000000000000034
:100F2C009D8F0108E80300000300000074C205084F
:100F3C000000000000000000CD5303081027000043
:100F4C00030000002CC505080000000081230308E5
:100F5C00BDBD01085F76000005000000A8CB0508A8
:100F6C000000000000000000C9000208102700006B
:100F7C0002000000F0200608000000000000000045
:100F8C00217C0108E803000005000000FC20060895
:100F9C00000000000000000009860208204E00003E
:100FAC00030000000C2106080000000000000000F7
:100FBC0081A30208204E0000030000001C2106083B
:100FCC000000000000000000D58B0108400D03005C
:100FDC0003000000A0C6050800000000000000008F
:100FEC00A17B0208102700000200000050C9050870
:100FFC000000000000000000C90C040810270000CD
:10100C00030000002C210608000000000000000076
:10101C00B1E10108102700000300000038C10508E9
:10102C0000000000000000002DEA0108A86100008B
:10103C0002000000E0BE05080000000000000000F7
:10104C004D7C01081027000002000000B0CB050801
:10105C00000000000000000039050208A00F00008D
:10106C00020000003821060800000000000000000B
:10107C00817504081027000002000000A8C60508AE
:10108C00000000008F3E04081D8504088545010002
:10109C0002000000A0BE05080000000000000000D7
:1010AC00DD40040810270000020000003CC90508C0
:1010BC00000000000000000059E5030850C30000C8
:1010CC00020000004421060800000000000000009F
:1010DC00E5680408400D0300010000004C210608DF
:1010EC000000000000000000952C040850C3000014
:1010FC00030000005821060800000000000000005A
:10110C00C5A0020840420F0001000000642106083F
:10111C000000000000000000E513020850C30000AE
:10112C000100000070210608000000000000000013
:10113C00918004081027000002000000FFFFFFFF51
:10114C007114020800000000000000000000000004
:10115C005D14020800000000000000000000000008
:10116C0031FE0408F5A30408A1B104080000000036
:10117C0025A4040805FF04085900050831000508DA
:10118C00000000000000000019A4040895A4040845
:10119C00B9A4040875C1040859C1040891C1040814
:1011AC00ADC10408C9C1040889FD0408D1A3040811
:1011BC0091AF0408000000003DA3040861FE040880
:1011CC0019FF0408090005080000000000000000D9
:1011DC0061A30408010000000000000060DA002098
:1011EC00080000000000000050DA00200800000099
:1011FC007EFF7EFFE2FFE2FFFFFFFFFF01F11F3FDB
:10120C00ACEC0020BAEC00200000FA430000FA43DA
:10121C000000803F00000000000000000000000003
:10122C0000000000000000000000000000000000B2
:10123C0000000000000000000000803F257B020839
:10124C0000000000000000000000000000FF000093
:10125C0000000000000000009DD403080000000006
:10126C0000000000049805080100000000000000C8
:10127C000000000000000000549D05080000000064
:10128C0000000000000000000C9E0508000000009B
:10129C000000000000000000B89D0508C1230408F0
:1012AC000000000000000000B89C0508CDAB04084D
:1012BC0000000000000000002C9C0508E5ED030870
:1012CC000000000000000000E49B0508CDF30308BB
:1012DC000000000000000000E4B10508010000005F
:1012EC00FA000000010000000100000000000000F6
:1012FC0000000000A5ED030848F10020FF012D209F
:10130C002D2D202D2D2D2D202D2D2D0000000000FC
:10131C00000000000000000000000000000101FFC0
:10132C00FFFFFFFF0000803F60EE002088136F1767
:10133C000100000062EE002088136F17000000000F
:10134C0064EE002088136F170100000066EE002089
:10135C0088136F17000000004DD403080000000034
:10136C00000000004C99050890F1002001000000DD
:10137C00A099050869EE002001000000AC99050851
:10138C0010EF002002000000B499050875D4030882
:10139C000000000000000000C099050800000000DB
:1013AC000000000000000000149A05080000000076
:1013BC000000000000000000849A05085EEE00208A
:1013CC0002000000CC9A0508F8F50020E0150C1777
:1013DC0000000000C01200003EF7002000000000DA
:1013EC00000000003CF7002000000000000000009E
:1013FC003AF70020000000000000000038F7002041
:10140C00000000000000000036F700200000000083
:10141C000000000034F70020000000000000000075
:10142C00DC0B0020000000000000000068EE002033
:10143C0003000000BC9A050800000000000000003A
:10144C0000000000D89A050842F70020E0150C17A0
:10145C000000000044F7002002000000CC9A0508B0
:10146C002D202D2D202D2D2D2D202D2D2D2D000021
:10147C000000000000000000000000000000000060
:10148C00000000000000000000000000109B050898
:10149C0046F700209CFF2C0100000000D2F5002034
:1014AC00E0150C17000000003CF5002002000000C5
:1014BC00CC9A05082D202D2D202D2D2D2D202D2DB8
:1014CC002D2D0000000000000000000000000000B6
:1014DC000000000000000000000000000000000000
:1014EC00489B050807ED00200AFF010006ED0020CF
:1014FC0000FF010005ED002000FF010004ED0020BD
:10150C0000FF010003ED002000FF010002ED0020B0
:10151C0000FF010001ED002000FF010000ED0020A4
:10152C0000FF010001CC03083DCC030800000000C3
:10153C00549E050820ED0020053201001EED002010
:10154C00E803D007010000001CED0020E803D007E1
:10155C00010000001AED0020E803D0070100000094
:10156C0018ED0020030F010016ED00201900F40106
:10157C000100000014ED00200500F4010100000042
:10158C0012ED0020003C010010ED00200000B80B13
:10159C00010000000EED002002FF01000CED002008
:1015AC003200C409010000000BED002000640100B2
:1015BC000AED002002000000E057050808ED0020AD
:1015CC001400E8030100000056ED002000C80100E3
:1015DC0055ED00200050010054ED0020005A010090
:1015EC0052ED00200200000018540508002A0608DD
:1015FC00082A06088EF100200100C4090000000032
:10160C008CF100200100C409000000008AF10020C8
:10161C000100C4090000000088F100200100C40989
:10162C000000000084F100200100C409000000004B
:10163C0086F100200100C4090000000082F10020A6
:10164C000100C4090000000080F100200100C40961
:10165C00000000003FEE002000C801003EEE00201C
:10166C0000C801003CEE00200000FFFF0A00000053
:10167C003AEE00200100C8000100000038EE002006
:10168C00320030753200000036EE0020E2FF14000C
:10169C000500000034EE00207EFF14000500000061
:1016AC0032EE002005002C010500000030EE002079
:1016BC00055A050045EE002000FF010043EE002016
:1016CC0002000000F40D002041EE00200300000099
:1016DC00F09E050844EE002000FF010042EE0020C1
:1016EC0002000000F40D002040EE0020030000007A
:1016FC00F09E050820EF0020FF7F01001CEF00206A
:10170C0000000000FFFFFFFF0100000018EF0020A9
:10171C0000000000FFFFFFFF0100000014EF00209D
:10172C0000000000FFFFFFFF0100000079CC030860
:10173C00D5CC030800000000009F0508FAEC00203F
:10174C00EE02CA0801000000F9EC002000C80100FC
:10175C0064000000F8EC002002C8010064000000E6
:10176C00F7EC002002000000445505085CEE002058
:10177C000000803E050000005AEE002080C1803E33
:10178C000500000058EE00200083007D05000000DD
:10179C0056EE002080C1803E0500000054EE002073
:1017AC0000FF010052EE00206400F4010100000073
:1017BC0050EE00206400F401010000004EEE002009
:1017CC006400F401010000004CEE00200400000055
:1017DC009C5705084BEE00200200000090570508AE
:1017EC008FED00200D000000CC5305088CED00207F
:1017FC00006401008AED0020320010270A0000006E
:10180C0089ED00200D000000CC53050888ED002068
:10181C000D000000CC53050887ED002002000000ED
:10182C000454050800000000000000000000000047
:10183C000CA00508F6EC00204F00000088550508A8
:10184C00F4EC00200300000044A00508F5EC002097
:10185C0004000000B057050885ED002003000000CF
:10186C0054A0050884ED00200300000054A00508D6
:10187C0078ED0020000A010076ED00200000E8035E
:10188C000100000074ED00200000E80301000000DE
:10189C0072ED0020000A010070ED00200000E8034A
:1018AC00010000006EED00200000E80301000000C4
:1018BC0066ED0020C800E803010000006CED00207C
:1018CC001400FA00010000006AED00200100E8039A
:1018DC000100000068ED00200005010064ED00200F
:1018EC0002000000C854050862ED00200000F4015D
:1018FC000100000060ED00200000F4010100000078
:10190C005EED00200000F401010000005CED002001
:10191C000000F401010000005AED00200000E80373
:10192C000100000058ED00200000E8030100000059
:10193C0051ED0020006401000A00000050ED002071
:10194C00006401000A0000003FED00201964010052
:10195C003EED002002000000BC54050833ED0020D1
:10196C000064010032ED0020006401003AED00201B
:10197C00006401000A00000039ED00200064010041
:10198C000A00000038ED0020006401000A0000008D
:10199C003DED002000FF01000A0000003CED00209E
:1019AC0000FF01000A0000003BED002000FF0100D9
:1019BC000A00000037ED002001FF01000A000000C2
:1019CC0036ED002001FF01000A00000035ED00207B
:1019DC0001FF01000A00000082ED00200000F4016C
:1019EC000100000080ED00200000E8030100000071
:1019FC007EED00200000E803010000007CED0020DB
:101A0C000000E803010000007AED00200000E8036C
:101A1C000100000046F10020E803D0070A00000096
:101A2C0045F10020006401000A00000044F1002090
:101A3C00009601003BF1002000C801003AF10020A3
:101A4C000064010039F100200064010038F100202D
:101A5C000064010037F100200064010036F1002021
:101A6C00FF08010035F1002001640100E9CD0308F5
:101A7C002DCE03080000000064A005083EF10020F4
:101A8C00013201003DF100200100000090540508D6
:101A9C003CF10020040000009854050834F10020AB
:101AAC000096010033F100200064010032F10020A7
:101ABC0000FA01006400000031F100200A5A010014
:101ACC0030F1002000C801002FF1002000C80100F7
:101ADC002EF1002000C8010041F10020003201006D
:101AEC0043F100200014010042F10020005F0100CE
:101AFC0040F1002004000000985305083FF100203D
:101B0C00006401000A0000002DED00200AC8050049
:101B1C000A0000002CED0020010000005C580508B4
:101B2C002FED00200AC805000A0000002EED002051
:101B3C00010000005C58050824ED002000C80500D9
:101B4C000A0000002BED002000C805000A00000070
:101B5C0025ED002000C805000A00000026ED00203D
:101B6C0000C805000A00000029ED002000C805008F
:101B7C000A0000002AED002000C805000A00000041
:101B8C0028ED002000C805000A00000027ED002009
:101B9C0000C805000A00000023ED00200200000030
:101BAC00685305082CF100200000D007010000004C
:101BBC0027F1002000C8010026F1002000C8010018
:101BCC0025F1002000C801002AF100200000D007F8
:101BDC000100000024F1002000C8010023F10020C6
:101BEC0000C8010022F1002000C8010028F10020EB
:101BFC000000D0070100000021F1002000C8010006
:101C0C0020F1002000C801001FF1002000C80100D5
:101C1C007436060800000000000008F7002080362B
:101C2C00060807080000000010140020883606087B
:101C3C00070800000000081400209036060807086A
:101C4C000000000000140020983606080808000068
:101C5C000000F4130020A03606080708000000005E
:101C6C00EC130020A8360608070800000000E41357
:101C7C000020B0360608070800000000DC13002026
:101C8C00B8360608080800000000D0130020C03643
:101C9C000608071000000000C8130020C83606080C
:101CAC00071000000000C0130020D03606080710F3
:101CBC0000000000B8130020D836060808100000F9
:101CCC000000AC130020BC27060801000000000037
:101CDC0000000000000000001000000000000000E8
:101CEC000000000011D1030821D103081DF50308E1
:101CFC00D4A0050895ED0020005A010094ED0020B9
:101D0C0000C8010092ED0020E803D007010000009C
:101D1C00000000000000000091F0030870A105080D
:101D2C004AEE0020030000005853050849EE00203D
:101D3C000003010048EE002000030100B5D10308A8
:101D4C0009D2030800000000C4A105085DD20308F5
:101D5C009DD20308000000006CA205089DD1030869
:101D6C0041F5030800000000ECA2050846EE002037
:101D7C000103010051D5030879D5030800000000C8
:101D8C006CA6050835CB030855CB030800000000F2
:101D9C00ECA605081DD303087DD303080000000042
:101DAC005CA70508C1D00308E51C0408000000006E
:101DBC0014A8050821EF0308FDCA03080000000061
:101DCC00BCA8050829D00308000000000000000092
:101DDC0058A90508E9CE030855CF030800000000F8
:101DEC00BCA9050871CE0308ADCE030800000000A5
:101DFC0074AA050841380408B9CD03080000000096
:101E0C0000AB05081DF1002003000000F8F60020CF
:101E1C00B9CF0308F5CF030800000000FCAB0508A0
:101E2C0085380408DDF20308000000006CAC0508DE
:101E3C0031CD0308B9F103080000000004AE050819
:101E4C00E537040879F1030800000000181400209D
:101E5C001EF1002003000000B4F600203DD1030861
:101E6C006DD103080000000010AF050829E5030838
:101E7C00000000000000000074AF0508E5D2030864
:101E8C005DF503080000000010B00508000000001C
:101E9C000000000000000000ACB005085937040831
:101EAC0045F10308000000002CB1050800000101F9
:101EBC0001AA550701000014AA550501000008FFEE
:101ECC000101AA550902000000AA5503009F000059
:101EDC0001000000AA550B010000AA5505010000E5
:101EEC00FF00000001000000FF0000000902430099
:101EFC00020100C0320904000001020201000524A5
:101F0C00001001052401000104240202052406002E
:101F1C0001070582030800FF09040100020A000002
:101F2C000007050102400000070581024000000087
:101F3C0009026400030100C032090400000103001F
:101F4C000000092111010001223600070583030955
:101F5C00000A080B0102020201000904010001023F
:101F6C0002010005240010010524010002042402D2
:101F7C00020524060102070582030800FF0904027A
:101F8C0000020A000000070501024000000705815D
:101F9C000240000009022000010104C032090400C3
:101FAC0000020806500507058102400000070501E4
:101FBC000240000012010002EF020140830456327D
:101FCC0000020102030100001201000202020040A3
:101FDC0083044057000201020301000004030904BA
:101FEC000101000005010905A101A100050109304D
:101FFC000931093209330935093409360937158194
:10200C00257F750895088102050919012908150015
:10201C002501950875018102C0C00000090222004B
:10202C00010100E032090400000103010200092152
:10203C00110100012236000705830309000A000084
:10204C000000000001020304010203040607080952
:10205C002DB7040845AE040809B204080DA3040802
:10206C0031AA0408F1A20408D9A204081DA304088B
:10207C002DA3040800000000000000000000000078
:10208C00000000000102030406070809C700000055
:10209C000500000006000000A4180020000000004D
:1020AC000000000000000000000000000000000024
:1020BC000000000000000000000000000000000014
:1020CC000000000000000000000000000000000004
:1020DC0000000000000000000000000000000000F4
:1020EC0000000000000000000000000000000000E4
:0C20FC00000000000000000000000000D8
:08280000082800080040000850
:1080000082B01E4B002201920193019B1C4A043353
:108010000193019B1968936803F00C03042B06D0AD
:10802000082B08D0174B184A1A6002B07047154B3E
:10803000196002B070475368506813F4800F00F065
:108040003F00536812D1C3F388130F49B1FBF0F11D
:1080500001FB03F30A4A0B495268C2F301420132A1
:108060005200B3FBF2F30B6002B07047C3F3881306
:10807000B1FBF0F101FB03F3ECE700BF5028004037
:1080800000380240081900200024F400074BD0F803
:10809000E4105B68D0F8F0205B1A9A42B8BFC0F8D1
:1080A000F030012380F81C3100207047001000E000
:1080B000B84B00EB800103EBC10170B54A68526810
:1080C000B2F814E01EF0010F4FEA800C6ED15FFA97
:1080D0008EF4A60742D5BFF35F8F91F82040012CA4
:1080E000E5B200F0D180118BBFF35F8F0CEB000184
:1080F00003EBC10191F82040022C00F0E7800CEB6B
:10810000000103EBC10191F82040032C07D191F845
:10811000221021B193F87D10002940F0E78091886A
:1081200089B241F48061918093F97C100CEB000ED0
:1081300003EBCE0E9EF820E00EF1010E8E450CD121
:10814000002183F87D1093F87E10002940F0B7805D
:10815000604403EBC00300225A7770BD65075DD40D
:1081600014F0400400F0CB80148A93F97C508E6A9E
:10817000E4B274555FFA85FE0EF1010464B291F821
:10818000206083F87C40E51CAE42214600F025814A
:108190000CEB000503EBC50595F82050AC42C5D1AA
:1081A0000EF1020149B283F87C10BFE7B2F800E09B
:1081B0002EF4006E4FEA0E4E4FEA1E4EA2F800E07B
:1081C0001488A4B244F48064148091F822400025FD
:1081D00083F87C50002C48D093F87D40002C41D08F
:1081E000012183F87D100CEB000103EBC10191F834
:1081F0002010022904D1118889B241F40061118054
:108200000CEB000103EBC101897F41F001011182F8
:10821000604403EBC00393F8203070BD91F8224016
:10822000012583F87E50002C70D093F87D40002CFF
:1082300071D10CEB000103EBC10191F82110002971
:1082400000F0AA80118889B241F40071118093F87E
:108250007C1001314CB283F87C401188CE05FCD4EF
:10826000214663E7C97FFF29BAD00CEB000103EB7D
:10827000C1018C7F04F0FE041482CA7FFF2AC7D09C
:10828000FF2283F87C20C3E791F8221000293FF4F5
:108290002AAF93F87D1000293FF425AF118821F40F
:1082A00080610904090C1180BFF35F8F118B118865
:1082B00083F87E5089B241F4007111802FE79188D4
:1082C00021F440710904090C918041E791F82210D2
:1082D00000293FF414AF93F87D1000293FF40FAF4D
:1082E000118821F480610904090C1180918821F41E
:1082F00080610904090C918093F97C1016E71FFA3C
:108300008EF52D062DD493F97C100FE793F87D1090
:1083100000298ED096E791F82040022C148846D987
:1083200024F480642404240C1480158A8E6A93F942
:108330007C40EDB235558E6A118889B241F40071E6
:108340001180E4B2158A611C49B2EDB2755491886E
:10835000023489B264B241F4806183F87C40918038
:108360007BE793F97C506E1C3ED04C6A665D1682AA
:108370006C1C91F8205064B2A54283F87C402146E1
:108380007FF4D4AE948824F480642404240C948074
:10839000CCE600BF08190020118893F97C4089B20F
:1083A00041F480711180012183F87D1055E7A4B25A
:1083B00044F400741480158A8E6A93F97C40EDB2FF
:1083C0003555E4B28E6A158A611C49B20334EDB2A8
:1083D00064B2755483F87C403FE7958825F4806546
:1083E0002D042D0C9580D3E683F87C40CC7F14823D
:1083F00091F8224024B991F8201000297FF408AFA9
:10840000918821F480610904090C918000E700BF84
:1084100030B5EAB18E464FEA014C034600F1C00583
:10842000002419689A6841EA0C0142EA0E029A6037
:10843000C3E900140C33AB42F3D1D0F8C030C0F81C
:10844000C44043EA0E03C0F8C030C0F8C84030BD95
:108450004FEA014E8C46E0E783691969B3F80CC016
:108460000A6830B49C6822F0010224680A60A2897C
:1084700092B222EA0C02A281027D04681F2A06D968
:108480006568203A08209040284246D0FEE72568DB
:10849000082090402842F9D1202000FA02F2A26080
:1084A000274A92F87F20002A35D01A7E012A39D037
:1084B000D3F8F4200132C3F8F420EFF311815022F5
:1084C00082F3128858685C6C026822EA04029C6C91
:1084D0002243C9B2026081F31188D3E90C401A69C2
:1084E00099681D6C096814605061D3E90E405460AE
:1084F00090600024B3F8A800D5604C62C862106890
:108500000124204310601C7683F8F1408A899B89FE
:1085100013439BB28B8130BC7047202000FA02F2DB
:10852000E260BDE7002283F8F120D3F8F8000A6882
:10853000013022F00102C3F8F8000A60EBE700BF47
:108540000819002010B40D4CD4F88030002B12DD37
:10855000002004F1840C0146DCF8A03003F1C002D5
:1085600059600C339342FBD1D4F880300130834200
:108570000CF5807CF0DC5DF8044B70470819002096
:10858000704700BF024B03EB401090F8A104704706
:10859000081900204368B0F8502010B41A83EFF394
:1085A0001182502383F312884168446C0B6823EADC
:1085B0000403C46C2343D2B20B6082F31188D0E968
:1085C00007418268036912681C605961D0E909415A
:1085D0005C60C46A9960B0F86010DC600023D1620E
:1085E0005DF8044B03767047037D1F2B30B54FF0C9
:1085F0002002046816D9A3F120056168AA400A4246
:108600000FD00C4A002182F8841541680A681F2B9C
:1086100022F001020A604FF0200206D9203B9A4066
:10862000E26030BD21689A40E9E702FA03F3A360F3
:10863000F7E700BF08190020084B10B5D3F88835BC
:1086400018440C46007E12F01FFF18B103688288A0
:108650000CB11A8310BD5A83FCE700BF0819002033
:10866000074BD0F8E4105B68D0F8F0205B1A934217
:10867000C8BFC0F8F030012380F81C3100207047DB
:10868000001000E04FF40063838170474FF40063F3
:10869000838170474FF400638381704770470120E6
:1086A00070470120704702681378012B134B06D1E5
:1086B00092F90420282101FB0232527FDAB993F8A3
:1086C000912593F89015120142EA013293F8921520
:1086D00042EA1112C3F88C2593F8942593F8931568
:1086E000120142EA013293F8951542EA1112C3F8D9
:1086F0009825012070470020704700BF081900200E
:108700002DE9F047DFF87C81D8F89855B8F89C251A
:10871000B8F8A295C2EB25135200C2EBE502B8F9F6
:108720009E556A4303FB03F5B8F9A0352D135D434D
:10873000AD1305EBE225B8F9A635C8F8B4550E46D9
:10874000A5F5FA31074681FB010C4FEAE37E03FBF6
:108750000CF200FB0E22A3FB003E9644B8F9A425C0
:1087600082FB01421B0A120343EA0E6342EA1452DF
:1087700024031B1942EB2E2202F50042A3FB093E03
:1087800009FB02EE4FEAEE734FEA6E0253EA6E0EF9
:108790004FF000046BD0B8F9AC954FEAE97E09FBC5
:1087A0000CFC00FB0ECCA9FB00908444B8F9AA0590
:1087B00080FB01E148044FEA4E4111EB0909D8F86A
:1087C0008C1540EADE304CEB0000C1F5801C0CF04B
:1087D000004AB8F9A81514EB09044AEA5C0A4FEA02
:1087E000CC7C00EBC10140F63549BCEB04006AEBE0
:1087F000010AA0FB090109FB0A114AF0A5F8B8F922
:10880000B2454FEA613E430B43EAC14304FB0EF21B
:108810004FEAE47C03FB0C2CA4FB0342624404FB00
:108820000EFE03FB02EEA4FB0343B8F9B0259E4401
:10883000640E44EACE1414EB000C02FB01F34FEA81
:10884000E274814641EB6E6EA2FB092904FB003104
:108850004944D40C44EA41341CEB0404B8F9AE3565
:108860004EEBE141240A44EA016404EB03140FB126
:10887000240A3C6026B105EB850580352D12356054
:10888000BDE8F087081900203D4B9FED3E4A93F864
:10889000B91593F8B80593F8BA2593F8BBC5090242
:1088A00001EB00410A44090248BF02F17F4207EE92
:1088B000902AB3F9D42593F8BC0593F8BD1506EEBC
:1088C000102AB3F9D025F8EEE77A06EE902A67EE83
:1088D000847AB3F9D225B8EEC66AF8EEE66A0002E9
:1088E000E7EE866A00EB0C40014406EE102AB3F96D
:1088F000CE2505EE102AD3F8C825000207EE102A6F
:10890000B3F9CC2548BF01F17F41F8EEC75A04EE18
:10891000902A07EE101AD3F8C425B8EEC66AB8EE4E
:10892000C55AE6EEA75A012006EE902AB8EEC77A9D
:10893000A7EE865AB3F9C225B3F9C03527EE047AFB
:10894000F8EEE44AB8EEE66A06EE902AA7EE246A4C
:10895000E5EE075AF8EEE66A05EE103A26EE877A5B
:10896000B8EEC55AF6EE004AF0EE466AE7EEA56AA2
:10897000054BA5EE247AC3ED066A83ED077A7047AE
:108980000819002008218436C81E002030B10A4B87
:10899000D3ED067AFDEEE77AC0ED007A51B1064BD1
:1089A0009FED067AD3ED077A67EE877AFDEEE77AD8
:1089B000C1ED007A704700BFC81E00200000C84209
:1089C000704700BF0120704701207047704700BF0B
:1089D000024B002083F8E005704700BF0819002013
:1089E0000123437700207047D0E90B2108B5836944
:1089F0000B4483610AB108469047002008BD00BFC0
:108A0000436A1B681B6A5B685B78024613F00100CF
:108A100008BF5077704700BFC2628161704700BFD6
:108A2000704700BF043070470C4B93F8E825D3F82B
:108A3000E4150244D2B283F8E82593F8E825084407
:108A40001206C3F8E40505D593F8E82582F0800204
:108A500083F8E825024B01221A707047081900209C
:108A6000980100202DE9F047144FD7F8EC55ED0A96
:108A70001ED00026B04607F22469D7F8F03510481A
:108A8000D3F828A0C7F81C86AC19641010234A46F6
:108A9000E102D0470F280BDD0A4B03F1100C53F80D
:108AA000041B013107D16345F9D12546B542E4DC09
:108AB000E802BDE8F087661CF8E700BF081900204F
:108AC000F81E00202C1F0020122301480B80704745
:108AD0009C010020042301480B807047B001002056
:108AE0002048D0F8E837D0F8EC2730B59B184FF085
:108AF0001A040C8001D11C4830BD1B4AD0F8EA177B
:108B00004FF0000E10467546B3F1204F4FEA137C2C
:108B10000CF130040EF1020E2ABF0CF1370C8470F8
:108B200080F802C0BEF1100FC5704FEA031300F1C8
:108B30000200E9D100200446B1F1204F4FEA117341
:108B400003F1300C00F102002ABF373382F812C063
:108B500093740828D4744FEA011102F10202EBD198
:108B6000014830BD00F0FF1FB401002010B5114CCA
:108B7000D4F83426D4F83836D31A322B12D8D4F895
:108B80003C36934200D310BDD4F8403633B1196857
:108B90009B884869034214BF4B830B833232C4F86D
:108BA0003C2610BD0021084612F0FEFC0023C4F84C
:108BB0003C3610BD08190020094A92F84C36D2F80C
:108BC000402603F001031AB123B9136892881A836F
:108BD00000207047136892885A830020704700BFB6
:108BE000081900204FF40070034B1060D3F858367A
:108BF0000B600020704700BF08190020002070475C
:108C0000012070470120704700207047164BD0F8B4
:108C1000E0105A6810B50446D0F8D80071B1131AA4
:108C200099420BDC94F8D030C4F8D820012B10D036
:108C3000D4F8D4300133C4F8D43010BDD4F8E430C3
:108C4000C4F8D8200344C4F8DC3094F8D030012BA9
:108C5000EED104F1E801201D11F090F8D4F8D430E1
:108C60000133C4F8D43010BD001000E010B5044644
:108C70000E49D0F8D83094F8D020D0F8E4004968F4
:108C80000344012AC4E9361305D0D4F8D4300133A3
:108C9000C4F8D43010BD04F1E801201D11F06EF8C5
:108CA000D4F8D4300133C4F8D43010BD001000E043
:108CB00070B5866996F8DC30012B8AB0054629D05C
:108CC000023B012B31D8D6F89C301D4C8C221A70F7
:108CD0000FCCEC46ACE80F00D6F89C300093D6F8E9
:108CE000A03001930FCCACE80F0094E80300AB690F
:108CF0008CE8030003F11000694611F03FF8AA69FF
:108D00001369596A103299B18A4200D0FEE71A6A93
:108D1000002AFCD1D6F8A030B3F90220EA81B3F9D9
:108D200004202A82B3F906306B8201200AB070BD9C
:108D30001A6A002AEED01A6A002AF9D1EAE700BFBF
:108D40001844050870B5214B214C94B0CDE900437F
:108D5000022302931F4B04930546231D0122059312
:108D60000023CDE90632CDE90E33CDE910330B9364
:108D700013932B7F406A8DF80C20002B14BF052322
:108D800004230C93144B0993A4F108030A930E4691
:108D90008DF820208DF834208DF8482010F068FFE1
:108DA0002B7F8BB1330E04F8073C063C320C330AA0
:108DB00022706370A670686A694610F0DFFF686A07
:108DC00010F056FF14B070BD073CEFE7901F002075
:108DD000D8010020018A0008E189000810B5044686
:108DE00094B05022064968464BF060FA606A6946C2
:108DF00010F0C4FF606A10F03BFF14B010BD00BF5C
:108E0000404405082DE9F0410446406A1E460F46DD
:108E1000904610F02DFF237F002B40D02A4DA069F3
:108E20000523C5F88030030E85F8493005F14A0363
:108E30009870020C000A58701A703B68C5F88C30A4
:108E40000020D8F80030C5F89430012E2363C5F80F
:108E5000A4002CD0022E20D1D8F80420C5F89C0004
:108E6000796885F89800C5F8A01013441749C5F82B
:108E7000A8200120236385F8AC00C5F8B010144B7E
:108E8000617F606A03F11402002914BF194611467C
:108E900010F074FFE36A93B1206BBDE8F0810A4DD6
:108EA000A0690423C5F8803005F14903C0E7074BEA
:108EB00085F89860C5E92730C5F8A800DFE7606A43
:108EC00010F0D6FEE8E700BF98010020E98900080D
:108ED000E801002000B583B081610192049A0093FB
:108EE000C26201236A4601A9FFF78CFF03B05DF857
:108EF00004FB00BF2DE9F043044695B0406A334DB2
:108F00000E469146984610F0B3FE314B0193314B1B
:108F1000049305F1D0030093217F0223029305F10E
:108F2000C802012300278DF80C300592069700290E
:108F300035D08DF834308DF84830CDE90977330ECF
:108F4000CDE90E77CDE9107785F8C9300523CDF846
:108F50002C908DF82070CDF830801397CA35079388
:108F6000330C1D4F2B70330A6B70AE70D7F8900620
:108F7000656A10F08BFE637FA8802BBB05A928468D
:108F800010F0FCFE606A10F073FED7F8940610F043
:108F90007DFE636A9880404615B0BDE8F0838DF889
:108FA00034308DF848300423CDE90911CDE90E1194
:108FB000CDE91011CDF82C908DF82010CDF830802F
:108FC0001391C9350793CBE76946D8E7980100208C
:108FD000941F0020018A000808190020F0B50446FB
:108FE00090F8210183B008B903B0F0BD12F04CFA3B
:108FF0000546002857D083882C4AB3FA83F32621EC
:10900000202BC180E260C3F11F02EDD0284E294B16
:10901000134406EB82020C34C2F8984693F8787039
:1090200011F0D4FB0021284611F0FEFBA988286826
:10903000B1FA81F100F13F40C1F11F0100F57E005E
:10904000C9B2C0F3872042F037FFAA884FF000432F
:10905000B2FA82F2D3403E444FF400620093684675
:1090600001238DF80630ADF8042046F021FA96F879
:10907000D836F02B0DD8AB884FF00042B3FA83F30B
:1090800032FA03F3B0D00C490A6813430B6003B003
:10909000F0BD0A4AF023D05D86F8D83600220321BD
:1090A00046F03AFAE7E7014BE3609DE70D8C0008D4
:1090B0000819002018440508003C01406CB9050857
:1090C000F0B5836993F8DC20012A8BB005462ED0D9
:1090D000023A012A36D893F84C21D3F89C101E4C42
:1090E00062F07F030B708669D6F8A0305F1C0FCC4E
:1090F000EC46ACE80F00D6F89C30CDE900370FCC39
:10910000ACE80F0094E803008CE80300694606F120
:10911000100010F033FEAB691A69516A03F11000B8
:1091200099B1884200D0FEE7116A0029FCD1D3F83A
:10913000A0305A8852BAEA819A8852BA2A82DB88C9
:109140005BBA6B8201200BB0F0BD116A0029EED032
:10915000116A0029F9D1EAE7A04405082DE9F04198
:1091600090F8DC30D0F8A060012B8AB0044653D0D0
:1091700016D8D0F89C304FF0FF321A605A609A60CF
:10918000DA60D0F8E0300522B3F57A7FC0F8F0203D
:1091900064D8032380F8DC3001200AB0BDE8F081F8
:1091A000023B012BF8D890F84D31D0F89C20424D6D
:1091B00063F07F031370D0F8A03000F110085F1C3B
:1091C0000FCDEC46ACE80F00D4F89C30CDE9003769
:1091D0000FCDACE80F0095E803008CE8030069466A
:1091E000404610F0CBFD23695A6A12B190452ED04B
:1091F000FEE71A6A002AFCD173885BBAA4F8D03063
:10920000B3885BBAA4F8D230F38801205BBAA4F823
:10921000D4300AB0BDE8F08190F84C2190F84D317F
:109220009B1A5B100133DBB206EB430236F81330B6
:109230005BBAA0F8D03053885BBAA0F8D2309388DC
:109240005BBAA0F8D43001200AB0BDE8F0811A6AF8
:10925000002AD1D01A6A002AF9D1CDE703691A7B16
:109260002AB35B691BB390F8983003B390F84C3184
:10927000D0F89C20C4F8A40063F07F03137090F82A
:109280004C1190F84D31D0F8A0200C48C4F80401DE
:109290005B1A07330121C4F8FC30D4F89C3084F801
:1092A00000110A44C4E93D3284F8DC1074E702235B
:1092B00084F8DC3070E700BFA04405088D8000080A
:1092C000274B5B68C3F308032DE9F041002B3BD12A
:1092D000EFF31183C3BB12F015FD0546214F204E5D
:1092E0004FF00008D7F88040002C29DD00231A46F3
:1092F00007EB0321013391F875119C4242EA010208
:10930000F6D142EA0804E4B290467368C3F3080356
:109310009BB9EFF3118383B912F0F4FC431BB3F54F
:10932000FA6F02DCB8F1000FDCD11CB197F8DF3620
:109330004F2B0DD02046BDE8F08112F083FBEDE706
:1093400044464FF00008E0E712F07CFB0546C5E715
:10935000B7F8E4360133A7F8E4362046BDE8F081DB
:1093600000ED00E0081900202DE9F04F2DED028BF3
:10937000BE4C83B094F87F3001932BB9012003B029
:10938000BDEC028BBDE8F08FD4F8343608EE103A0D
:1093900004F2844704F5DD6B4FF0000AD4F8383B43
:1093A000534540F3C0807B68BA694FEA8309D2E92C
:1093B0003A3109F1085909EB431901F1806094F839
:1093C000F037393809EB831309EB8010984240F2EB
:1093D0003C811A68002A00F010811A6C002A00F003
:1093E0000E81D3F88020002A00F00B81D3F8C02032
:1093F00003F58073002AE9D194F8DF66A3EB09092D
:109400004F2E4FEAA912C9F3871900F0EB8098425A
:109410007FD9891A452928BF4521002503EB8111F1
:109420009E4628464FF001080DE01A6C002A40F0D5
:109430008380D3F88020002A40F0AA80D3F8C0208F
:1094400003F580732AB9994205D91A68002AECD02D
:109450004033994273D8112D40F20581C5F11503AF
:10946000002BC0F20081A9F10A0984F8F09708D016
:1094700000FA03F3C5F11405012000FA05F545EAE9
:1094800003007B4DC0F3C43305EB8303D3F8B01066
:1094900000F01F0305EB8303D3F8B02042EA01324A
:1094A000C0F3441105EB8101C0F3842305EB830372
:1094B000D1F8B010D3F8B03042EA011242EA0323E7
:1094C00083EA132282EA121202F00F020F2A7BD1E2
:1094D000B3F5803F78D24F2E4FEA131304D1B4F87E
:1094E000E0260132A4F8E026D4F8F026B3F5606F48
:1094F00002F10102C4F8F02600F096800199ABF861
:109500000C305C4B5C2018EE102A00FB0A3010F087
:1095100067F90AF1010ABAF1080F07F120070BF108
:10952000140B7FF43BAF0123012084F8EE3703B026
:10953000BDEC028BBDE8F08F803399428BD9A3EB51
:109540000E02921102F1010C4B4A82FB0CE2A2EBDB
:10955000EC72012AB8BF012290401544013A08FA82
:1095600002F210439C46DCF800209AB1DCF840205F
:10957000002A48D0DCF88020002A47D0DCF8C02040
:109580000CF5807C42B16145EDD89E4663465AE7B2
:10959000C0335EE70CF1400C6145F6D9ACEB030338
:1095A0009B115A1C344B83FB02E3A3EBE273012BA8
:1095B000B8BF012398401D44013B08FA03F3184348
:1095C00063469E4663463EE74F2E22D0D4F8F036DF
:1095D0000133C4F8F036D4F8EC360133C4F8EC3675
:1095E00000218EE79842A4F8E6963FF612AFB4F851
:1095F000E2360133A4F8E2368BE74033FCE68033F1
:10960000FAE6C033F8E60CF1800CC5E70CF1C00CAB
:10961000C2E7B4F8E0360133A4F8E036D4F8F03607
:109620000133C4F8F036D6E794F8542802EB42022E
:1096300004EBC202524492F801280D2A7FF45EAF77
:10964000802301998BF81E305BE794F8DF66A3EB6B
:1096500009094F2E4FEAA912C9F387197FF4D7AE33
:10966000A4F8E696C3E74F2EC1D052E708190020B0
:109670001844050860210020565555552DE9F04144
:109680002F4F07EB401898F8A0340BB9BDE8F081D4
:109690008C2303FB00730E4693F83E2B88F8862438
:1096A000002183F83E1B0446450110F089FAC0BB37
:1096B0003D442448A5F8846400EB44100FF044FEB8
:1096C00097F87F30D5F89C24A3B1D5F88814D2F848
:1096D000A03001248C4003F1C001420010F4004F7F
:1096E00090B202D15A6822435A600C339942F4D1A5
:1096F000BDE8F081D5F88844D2F8A03004F110021A
:109700000124944003F1C001420010F4004F90B2D4
:1097100002D15A6822435A600C339942F4D1BDE811
:10972000F08197F8543803EB430307EBC30323445A
:1097300093F80168002EBBD0012388F88634B7E780
:10974000081900208C1D002010B504464AF036F997
:1097500081B22046BDE8104090E700BF2DE9F041FE
:109760001E4D95F89C2F95F854389A422FD1D5F874
:109770008060002E12DD002495F87F701848A04606
:10978000013417B1037E012B1CD002691368B44267
:1097900043F0010300F580701360F1D112F0D6FAA6
:1097A000D5F8A04F002C0BDD0E4A02EBC404116863
:1097B00093888889083203439BB294428B81F6D107
:1097C000BDE8F08180F8F080FEF7E4FEDDE745F0CB
:1097D00031F90028CBD1BDE8F08100BF0819002085
:1097E0008C190020AC28002038B56F4C94F89C2FC1
:1097F00094F854389A4240F0708194F8C42F002AAB
:1098000000F0D18094F8C53F002B40F0D180D4F80F
:10981000C81F088820F080000004000C0880B4F8FD
:10982000CC0FC862088880B240F0800008804B628C
:109830008D89B4F8DC0F284380B2012A8881A4F80E
:10984000DC3F00F0B080D4F8E01F088820F08000F2
:109850000004000C0880B4F8E40FC862088880B2E5
:1098600040F0800008804B628D89B4F8F40F2843E3
:1098700080B2022A8881A4F8F43F00F09480D4F8E2
:10988000F80FB4F8FC4F018821F080010904090C9D
:109890000180C46204884549A4B244F08004048075
:1098A000436285898C892C43A4B2032A84818B81ED
:1098B00079D00869048824F080042404240C0480EE
:1098C0008C8AC4620488A4B244F080040480436299
:1098D00085898C8C2C43A4B2042A84818B8462D029
:1098E000886A048824F080042404240C04808C8D6D
:1098F000C4620488A4B244F0800404804362858971
:109900008C8F2C43A4B2052A84818B874BD0086CA2
:10991000048824F080042404240C0480B1F844401A
:10992000C4620488A4B244F0800404804362858940
:10993000B1F854402C43A4B2062A8481A1F85430D3
:1099400031D0886D048824F080042404240C048021
:10995000B1F85C40C4620488A4B244F0800404807E
:1099600043628589B1F86C402C43A4B2072A8481F4
:10997000A1F86C3017D00A6FB1F87440108820F04D
:1099800080000004000C1080D4621488B1F88400B8
:10999000A4B244F08004148053629489204380B2BE
:1099A0009081A1F8843038BD0819002008290020D2
:1099B000D4F8D03FB4F8D41F59601968D4F8C80F50
:1099C00041F00101196040F20D31A0F8481083897F
:1099D0009BB243F48073012A8381E4D0D4F8E83F3A
:1099E000B4F8EC0F5860186840F001001860D4F823
:1099F000E00FA0F8481083899BB243F48073022AD9
:109A00008381D0D0384BD4F8F84F18689D884560D2
:109A1000056845F001050560A4F84810A08980B2EA
:109A200040F48070032AA081BDD098699C8B44606B
:109A3000046844F0010404601C69A4F84810A0897B
:109A400080B240F48070042AA081ACD0186B9C8E48
:109A50004460046844F0010404609C6AA4F848105F
:109A6000A08980B240F48070052AA0819BD0986CB8
:109A7000B3F84C404460046844F0010404601C6C7A
:109A8000A4F84810A08980B240F48070062AA08112
:109A900089D0186EB3F864404460046844F001044F
:109AA00004609C6DA4F84810A08980B240F48070D6
:109AB000072AA0813FF477AF986FB3F87C2042600B
:109AC00004681A6F44F001040460A2F848109389F6
:109AD0009BB243F48073938138BD44F0ABFF002800
:109AE0007FF48BAE38BD00BF0829002070B5104E42
:109AF000D6F8383B002B19DD06F28444002505E03A
:109B0000D6F8383BAB4204F120040FDD237F01354A
:109B1000002BF5D0E0680028F2D0217D11F024F868
:109B2000D6F8383BAB4204F12004EFDC012070BDD5
:109B300008190020F0B5D0F8805087682B68584984
:109B40003E6823F001032B6000232B608D426B6085
:109B5000AB60EB602B614FF0210383B0044600F152
:109B600060026B6100F097804E4B9D425ED02846AC
:109B7000019242F093F8019A002384F854307979E5
:109B80000C290ED8DFE801F0650D0D0D5E0D0D0DF1
:109B9000570D0D0D0700B38B23F400631B041B0C42
:109BA000B383304616F05AF87B790C2B10D8DFE8D7
:109BB00003F0690F0F0F600F0F0F570F0F0F070004
:109BC000B38B23F400631B041B0C43F40063B383C7
:109BD00040222968A369E06A6262334A03430A406B
:109BE000216B13430B43D4E90D120B431343D4E908
:109BF0000F120B431343D4E913120B43134343F0E7
:109C000040032B60D4E911316A690B4322F007024B
:109C10001343A16A6B61D4E907236960AA60EB6012
:109C20002B6843F010032B6003B0F0BD4FF4746158
:109C300043F8201CA0E7B38B23F008031B041B0C84
:109C4000B383AEE7338B23F400631B041B0C338315
:109C5000A7E7338B23F008031B041B0C3383A0E717
:109C6000B38B23F008031B041B0C43F00803B383DE
:109C7000AEE7338B23F400631B041B0C43F4006337
:109C80003383A5E7338B23F008031B041B0C43F03D
:109C9000080333839CE7054B3D2199606CE700BFC7
:109CA00010600240286002403F801CF000600240CB
:109CB0002DE9F04F6A4F2DED028B97F87F4085B06C
:109CC00034B90124204605B0BDEC028BBDE8F08F0D
:109CD000D7F83436DFF890B108EE103A12F036F8C3
:109CE0001BF83C3C0290002B00F0B48107F5DD63CB
:109CF00007F63C3507F6580A002699460EE0284636
:109D0000FFF718FF1BF83C3C01369E4205F18C051D
:109D10000AF15C0A09F1140980F2A8805BF8343C6E
:109D2000029AD31A03D4AA6D9342C0F27C818C2389
:109D300003FB067393F8903B03F0FF020192002BA4
:109D4000DDD0AB68A9891A68D5F880305B681FFA46
:109D500083FE9389CEF1160E9BB223EA0103BEF176
:109D6000070F9381CBD9D7F8F0360133C7F8F03617
:109D7000D5F8883003939C4600225CF8044B0121FF
:109D800090461BE0DCF80000B8F1140FA0EB0403D0
:109D90001DDC13F1080448BF03F11704231108EB7D
:109DA00024180446581E013102FA03F301228240AE
:109DB0008E4542EA03020CF1040C08D38E45E1D82B
:109DC000C8F11503DCF800404FF01508EAE7B8F1D8
:109DD000150F39D12348C2F38423C2F3441100EB99
:109DE000830300EB8101D3F83031D1F830111B022D
:109DF00043EA011302F01F0100EB8101C2F3C432F8
:109E000000EB8202D1F83011D2F830210B4343EA43
:109E1000023383EA132282EA121202F00F020F2A9F
:109E200012D1C3F30F134FF6FF7293420CD0B3F568
:109E3000606F00F0FF80A9F80C30019918EE102A2D
:109E400050460FF0CDFC5AE7D7F8EC360133C7F88F
:109E5000EC36002E00F0E08000230193EDE700BF18
:109E60000819002018440508002A002001220021BA
:109E700087F8EE274BF8341C002B3FF422AF97F8FD
:109E80004C1B890700F1BE80D7F8441B086849794C
:109E90008A40018C92B289B221EA02010184018CCC
:109EA00089B20A43012B02843FF40BAF97F8D82BF9
:109EB00012F0020FD7F8D02B10685479018C0CBF28
:109EC00001220422A24092B289B221EA0201018455
:109ED000018C89B20A43022B02843FF4F2AE97F858
:109EE000642C12F0020FD7F85C2C10685479018CA6
:109EF0000CBF01220422A24092B289B221EA0201DF
:109F00000184018C89B20A43032B02843FF4D9AE49
:109F100097F8F02C12F0020FD7F8E82C106854795B
:109F2000018C0CBF01220422A24092B289B221EA24
:109F300002010184018C89B20A43042B02843FF49C
:109F4000C0AE97F87C2D12F0020FD7F8742D106870
:109F50005479018C0CBF01220422A24092B289B232
:109F600021EA02010184018C89B20A43052B028493
:109F70003FF4A7AE97F8082E12F0020FD7F8002E84
:109F800010685479018C0CBF01220422A24092B2C5
:109F900089B221EA02010184018C89B20A43062BAD
:109FA00002843FF48EAE97F8942E12F0020FD7F889
:109FB0008C2E10685479018C0CBF01220422A2401F
:109FC00092B289B221EA02010184018C89B20A436A
:109FD000082B02847FF475AED7F8182F97F8203F2E
:109FE000116850790A8C9B074CBF042301238340DE
:109FF0009BB292B222EA03020A840A8C92B2134301
:10A000000B845EE6D7F8442B10685479018C042247
:10A01000A24089B292B23FE70399114858224AF010
:10A0200045F9019609E70024204605B0BDEC028BF6
:10A03000BDE8F08F97F8542802EB420207EBC2020A
:10A04000324492F801280D2A7FF4F5AE802389F876
:10A050001E30F2E6012287F8EE274BF8343C31E659
:10A060009C2000202DE9F843037D01681F2B044646
:10A0700008D94868A3F120052022AA40024206D14F
:10A08000BDE8F883086820229A400242F8D0714A5D
:10A09000714EDFF8DC81526846F8302C98F8C52FF5
:10A0A000A56912BB8C2202FB0582D2F8440BD2F8C0
:10A0B000BC7BD0F800903868B2F848CB20F00100A3
:10A0C0003860B9F80C2092B222EA0C02A9F80C20F0
:10A0D00098F87F200ABB1F2B40F2A880A3F1200232
:10A0E00020239340CB60BDE8F8838C2202FB0582DD
:10A0F000D2F8442B5069D2F80090026822F0010295
:10A100000260B9F80C2022F480721204120CA9F833
:10A110000C2098F87F20002ADDD08C2303FB0583D8
:10A120004E4AD3F8BC7B3B6823F001033B6000231D
:10A130003B6097427B60BB60FB603B614FF021035B
:10A140007B617ED0464B9F427FD0384641F0A6FDD2
:10A150008C2303FB058356F8342C012183F8901BD4
:10A16000002A69D0B9F800303E499BB243F0800321
:10A17000A9F800308C2303FB05F54FF0FF33294489
:10A18000C9F82C30484641F0FBFE08EB05030022DD
:10A19000D3F8680BC3F8602BD3F8542B396802430B
:10A1A000D3F86C0B0243D3F8700B0243D3F8740B53
:10A1B0000243D3F8780B0243D3F87C0B0243D3F865
:10A1C000880B0243D3F88C0B024327480840024314
:10A1D0003A607969D3F8802BD3F8840B21F007011A
:10A1E00002430A437A61D3F8642B7A60D3F8582B80
:10A1F000BA60D3F85C2BFA60D3F8BC2B16215160FF
:10A20000116841F001011160D3F8442BB3F8483BC9
:10A21000126891890B439BB20E4993814B6846F8B3
:10A220002C3C237D21681F2B3FF658AF202202FAD9
:10A2300003F38B60BDE8F88311F088FD46F8340C19
:10A2400090E70A4B3D229A6082E74FF4746243F82C
:10A25000202C7DE7001000E0002A00201060024062
:10A2600028600240B82400203F801CF000600240BB
:10A2700008190020F8B590F871301C09013C042C35
:10A280000FD8184E06EB44020546B2F8B00103F0B1
:10A290000F0340FA03F2D20703D595F87C70012F23
:10A2A00001D00120F8BD07FA03F3013B1840344404
:10A2B00048F09AFB94F8BC210B4C104454F8302021
:10A2C00004EBC0041069A3881840EBD0EB6E0022A9
:10A2D00085F87C20204693F82120022110F030FEE2
:10A2E0003846F8BD18440508D82900202DE9F04764
:10A2F000836882B0804613B11A689B885383614B90
:10A300005B68C3F30803002B40F0B880EFF31183C0
:10A31000002B40F0B38011F0F5FC0546594F5A4E22
:10A320005A4C05E011F0EEFC431BB3F57A7F30D2B6
:10A330007B68C3F308031BB9EFF31183002BF1D043
:10A34000EFF31182102383F312884FF0E0210120F4
:10A35000D1F818C00B69DB0303D5C6F85802D1F851
:10A3600018C0D4F834E6D6F85802D2B282F3118875
:10A37000D6F85C124FF47A7202FB01F37044A3EB3F
:10A380000C03B3FBF1F302FB0030431BB3F57A7F00
:10A39000CED3D8F8083013B11A689B881383394C90
:10A3A0003A4EDFF8E4A00A2710256368C3F30803D8
:10A3B000002B5FD1EFF31183002B5BD111F0A2FCD6
:10A3C000814606E011F09EFCA0EB0903B3F57A7F0D
:10A3D00030D26368C3F308031BB9EFF31183002B7A
:10A3E000F0D0EFF3118285F312884FF0E0210120C5
:10A3F000D1F818C00B69DB0344BFCAF85802D1F882
:10A4000018C0D6F834E6DAF85802D2B282F31188CE
:10A41000DAF85C124FF47A7202FB01F37044A3EB9A
:10A420000C03B3FBF1F302FB0030A0EB0903B3F51F
:10A430007A7FCED3013FB8D1D8F80020ADF80470B0
:10A44000536A2BB1984503D0002002B0BDE8F087D5
:10A45000136A002BF8D14046022301AA80210FF095
:10A4600021FD9DF80530242B14BF00200F2002B0E1
:10A47000BDE8F08711F0E6FA8146AAE711F0E2FAAA
:10A4800005464BE700ED00E0002A002008190020F7
:10A490002DE9F04F2DED028B034695B000F110062B
:10A4A00093F81E310090B6227E21304601930FF0C2
:10A4B000C3FCBB4CBB4DBC4F08EE106A4FF06409A7
:10A4C0004FF010087B68C3F30803002B40F0D381E2
:10A4D000EFF31183002B40F0CE8111F013FC824684
:10A4E0004FF0E02B06E011F00DFCA0EB0A00B0F5F8
:10A4F0007A7F30D27B68C3F308031BB9EFF3118373
:10A50000002BF0D0EFF3118388F31288DBF81800EA
:10A51000DBF8102012F4803F4FF001021CBFC4F89A
:10A520005822DBF81800D5F83426D4F858C2DBB22C
:10A5300083F31188D4F85C624FF47A7101FB06F35F
:10A540006244181AB0FBF6F001FB0200A0EB0A000F
:10A55000B0F57A7FCED3B9F10109B3D1009B9B69E5
:10A5600018EE106A13B11A689B8853838E4B5B6890
:10A57000C3F30803002B40F0B085EFF31183002BE9
:10A5800040F0AB8511F0BEFB8046DFF81CA210271F
:10A590004FF0E02906E011F0B5FBA0EB0800B0F5A4
:10A5A0007A7F32D2DAF80430C3F308031BB9EFF331
:10A5B0001183002BEFD0EFF3118387F31288D9F8C2
:10A5C00018E0D9F81020D2034FF0010103D5C4F8E8
:10A5D0005812D9F818E0D5F834B6D4F85822DBB2BE
:10A5E00083F31188D4F85CC24FF47A7101FB0CF04C
:10A5F00002EB0B03A0EB0E00B0FBFCF001FB030031
:10A60000A0EB0800B0F57A7FCCD3009B9B6913B117
:10A610001A689B881383644F08EE106A4FF00A098A
:10A620004FF010087B68C3F30803002B40F027812C
:10A63000EFF31183002B40F0228111F063FB82467F
:10A640004FF0E02B06E011F05DFBA0EB0A00B0F547
:10A650007A7F30D27B68C3F308031BB9EFF3118311
:10A66000002BF0D0EFF3118388F31288DBF8180089
:10A67000DBF8102012F4803F4FF001021CBFC4F839
:10A680005822DBF81800D5F83426D4F858C2DBB2CB
:10A6900083F31188D4F85C624FF47A7101FB06F3FE
:10A6A0006244181AB0FBF6F001FB0200A0EB0A00AE
:10A6B000B0F57A7FCED3B9F10109B3D118EE100A03
:10A6C0004A467C210FF0B8FB374B5B68C3F30803A5
:10A6D00018EE106A002B40F0FB84EFF31183002B7F
:10A6E00040F0F68411F00EFB8046DFF8BCA0102786
:10A6F0004FF0E02906E011F005FBA0EB0800B0F5F3
:10A700007A7F32D2DAF80430C3F308031BB9EFF3CF
:10A710001183002BEFD0EFF3118387F31288D9F860
:10A7200018E0D9F81020D0034FF0010103D5C4F888
:10A730005812D9F818E0D5F834B6D4F85822DBB25C
:10A7400083F31188D4F85CC24FF47A7101FB0CF0EA
:10A7500002EB0B03A0EB0E00B0FBFCF001FB0300CF
:10A76000A0EB0800B0F57A7FCCD300225921304607
:10A770000FF062FB0C4B5B68C3F30803002B40F047
:10A78000A284EFF31183002B40F09D8411F0BAFAFC
:10A790008046DFF814A010274FF0E0290DE000BF3D
:10A7A000002A00200819002000ED00E011F0AAFAAC
:10A7B000A0EB0800B0F57A7F32D2DAF80430C3F3A8
:10A7C00008031BB9EFF31183002BEFD0EFF31183D4
:10A7D00087F31288D9F818E0D9F81020D2034FF087
:10A7E000010103D5C4F85812D9F818E0D5F834B6E9
:10A7F000D4F85822DBB283F31188D4F85CC24FF44A
:10A800007A7101FB0CF002EB0B03A0EB0E00B0FB26
:10A81000FCF001FB0300A0EB0800B0F57A7FCCD37D
:10A82000002305938DF81C3008930A930D93109321
:10A830001293012306938DF830308DF84430A14BEC
:10A8400009935E238DF80F300DF10F0304934FF43D
:10A85000A47300220B9304A900233046CDE90E23F4
:10A860000FF08CFA009B1B695A6A002A00F0F983EA
:10A87000964208D0FEE711F0E5F8824630E611F086
:10A88000E1F88246DCE61A6A002AFCD18E4F08EE17
:10A89000106A4FF00A094FF010087B68C3F30803F1
:10A8A000002B40F0E683EFF31183002B40F0E183AF
:10A8B00011F028FA82464FF0E02B06E011F022FA60
:10A8C000A0EB0A00B0F57A7F30D27B68C3F30803AF
:10A8D0001BB9EFF31183002BF0D0EFF3118388F352
:10A8E0001288DBF81800DBF8102012F4803F4FF0DC
:10A8F00001021CBFC4F85822DBF81800D5F8342632
:10A90000D4F858C2DBB283F31188D4F85C624FF4F8
:10A910007A7101FB06F36244181AB0FBF6F001FBF2
:10A920000200A0EB0A00B0F57A7FCED3B9F101099D
:10A93000B3D118EE100A012259210FF07DFA624BB3
:10A940005B68C3F3080318EE106A002B40F0B7836E
:10A95000EFF31183002B40F0B28311F0D3F980465E
:10A96000DFF864A110274FF0E02906E011F0CAF9E2
:10A97000A0EB0800B0F57A7F32D2DAF80430C3F3E6
:10A9800008031BB9EFF31183002BEFD0EFF3118312
:10A9900087F31288D9F818E0D9F81020D0034FF0C7
:10A9A000010103D5C4F85812D9F818E0D5F834B627
:10A9B000D4F85822DBB283F31188D4F85CC24FF488
:10A9C0007A7101FB0CF002EB0B03A0EB0E00B0FB65
:10A9D000FCF001FB0300A0EB0800B0F57A7FCCD3BC
:10A9E000019B032B00F0CE839B22402130460FF0C9
:10A9F00023FA354B5B68C3F30803002B40F05B83FD
:10AA0000EFF31183002B40F0568311F07BF9804661
:10AA1000DFF8B4A010274FF0E02906E011F072F93A
:10AA2000A0EB0800B0F57A7F32D2DAF80430C3F335
:10AA300008031BB9EFF31183002BEFD0EFF3118361
:10AA400087F31288D9F818E0D9F81020D0034FF016
:10AA5000010103D5C4F85812D9F818E0D5F834B676
:10AA6000D4F85822DBB283F31188D4F85CC24FF4D7
:10AA70007A7101FB0CF002EB0B03A0EB0E00B0FBB4
:10AA8000FCF001FB0300A0EB0800B0F57A7FCCD30B
:10AA90000322412130460FF0CFF90B4B5B68C3F323
:10AAA0000803002B40F00383EFF31183002B40F0E9
:10AAB000FE8211F027F98046DFF80CA010274FF036
:10AAC000E0290AE0DC45050800ED00E011F01AF984
:10AAD000A0EB0800B0F57A7F32D2DAF80430C3F385
:10AAE00008031BB9EFF31183002BEFD0EFF31183B1
:10AAF00087F31288D9F818E0D9F81020D2034FF064
:10AB0000010103D5C4F85812D9F818E0D5F834B6C5
:10AB1000D4F85822DBB283F31188D4F85CC24FF426
:10AB20007A7101FB0CF002EB0B03A0EB0E00B0FB03
:10AB3000FCF001FB0300A0EB0800B0F57A7FCCD35A
:10AB400094F86132013BDBB2022B00F29682BA4AE2
:10AB5000134493F80C23120162F03202D2B2422164
:10AB600030460FF069F9B54B5B68C3F30803002B5F
:10AB700040F09982EFF31183002B40F0948211F0A2
:10AB8000C1F88046DFF8B4A210274FF0E02906E0B4
:10AB900011F0B8F8A0EB0800B0F57A7F32D2DAF8FD
:10ABA0000430C3F308031BB9EFF31183002BEFD07C
:10ABB000EFF3118387F31288D9F818E0D9F8102041
:10ABC000D0034FF0010103D5C4F85812D9F818E0AA
:10ABD000D5F834B6D4F85822DBB283F31188D4F810
:10ABE0005CC24FF47A7101FB0CF002EB0B03A0EB9B
:10ABF0000E00B0FBFCF001FB0300A0EB0800B0F579
:10AC00007A7FCCD30822432130460FF015F98B4BC5
:10AC10005B68C3F30803002B40F04182EFF311831C
:10AC2000002B40F03C8211F06DF88046DFF80CA25A
:10AC300010274FF0E02906E011F064F8A0EB0800BF
:10AC4000B0F57A7F32D2DAF80430C3F308031BB9C7
:10AC5000EFF31183002BEFD0EFF3118387F312880A
:10AC6000D9F818E0D9F81020D2034FF0010103D52C
:10AC7000C4F85812D9F818E0D5F834B6D4F85822E8
:10AC8000DBB283F31188D4F85CC24FF47A7101FB14
:10AC90000CF002EB0B03A0EB0E00B0FBFCF001FB91
:10ACA0000300A0EB0800B0F57A7FCCD3019B032B07
:10ACB00000F018820422582130460FF0BDF85F4B97
:10ACC0005B68C3F30803002B40F0D981EFF31183D5
:10ACD000002B40F0D48111F015F88046DFF85CA11C
:10ACE00010274FF0E02906E011F00CF8A0EB080067
:10ACF000B0F57A7F31D2DAF80430C3F308031BB918
:10AD0000EFF31183002BEFD0EFF3118387F3128859
:10AD1000D9F818C0D9F81020D2034FF0010103D59B
:10AD2000C4F85812D9F818C0D5F83426D4F8580207
:10AD3000DBB283F31188D4F85C1283184FF47A7273
:10AD400002FB01F0A0EB0C00B0FBF1F002FB0300F2
:10AD5000A0EB0800B0F57A7FCDD30A22532130460C
:10AD60000FF06AF8354B5B68C3F30803002B40F023
:10AD70009281EFF31183002B40F08D8110F0C2FF20
:10AD80008046DFF8B8A010274FF0E02906E010F069
:10AD9000B9FFA0EB0800B0F57A7F32D2DAF80430C0
:10ADA000C3F308031BB9EFF31183002BEFD0EFF3CC
:10ADB000118387F31288D9F818E0D9F81020D0034E
:10ADC0004FF0010103D5C4F85812D9F818E0D5F8AE
:10ADD00034B6D4F85822DBB283F31188D4F85CC2BD
:10ADE0004FF47A7101FB0CF002EB0B03A0EB0E00A9
:10ADF000B0FBFCF001FB0300A0EB0800B0F57A7F8C
:10AE0000CCD302227C2130460FF016F80B4B5B6846
:10AE1000C3F30803002B40F03A81EFF31183002BBA
:10AE200040F0358110F06EFF8046DFF810A010274B
:10AE30004FF0E0290BE000BF1844050800ED00E0EA
:10AE400010F060FFA0EB0800B0F57A7F32D2DAF89C
:10AE50000430C3F308031BB9EFF31183002BEFD0C9
:10AE6000EFF3118387F31288D9F818E0D9F810208E
:10AE7000D2034FF0010103D5C4F85812D9F818E0F5
:10AE8000D5F834B6D4F85822DBB283F31188D4F85D
:10AE90005CC24FF47A7101FB0CF002EB0B03A0EBE8
:10AEA0000E00B0FBFCF001FB0300A0EB0800B0F5C6
:10AEB0007A7FCCD30E227D2130460EF0BDFFBE4BF3
:10AEC0005B68C3F30803002B40F0DD80EFF31183D0
:10AED000002B40F0D88010F015FF8046DFF8D8A294
:10AEE00010274FF0E02906E010F00CFFA0EB08005F
:10AEF000B0F57A7F32D2DAF80430C3F308031BB915
:10AF0000EFF31183002BEFD0EFF3118387F3128857
:10AF1000D9F818E0D9F81020D0034FF0010103D57B
:10AF2000C4F85812D9F818E0D5F834B6D4F8582235
:10AF3000DBB283F31188D4F85CC24FF47A7101FB61
:10AF40000CF002EB0B03A0EB0E00B0FBFCF001FBDE
:10AF50000300A0EB0800B0F57A7FCCD3019B032B54
:10AF600000F0B682009B93F82101002852D010F027
:10AF70008BFA0446002800F02F8383888F4A26210D
:10AF8000B3FA83F3C1800099202BCA60C3F11F027A
:10AF900040D08B4B134405EB820293F8786001F1AB
:10AFA0000C03C2F898360FF011FC002120460FF078
:10AFB0003BFCA1882068B1FA81F100F13F40C1F16A
:10AFC0001F0100F57E00C9B2C0F3872040F074FF76
:10AFD000A388B3FA83F24FF00043D34004934FF4B5
:10AFE0000063ADF8143004A801238DF8163044F046
:10AFF0005FFAAB1993F8D826F02A00F2BA82A28839
:10B000004FF00043B2FA82F2D34003D06D490A6890
:10B0100013430B602A686C4BB3EB920F80F0D28223
:10B02000B3EBD20F80F0CC82B3EB121F80F0CC8256
:10B03000B3EB521F80F0CE82B3EB921F80F0C6823A
:10B04000B3EBD21F80F0C482B3EB122F34BF4FF4A6
:10B0500080738023009A938215B0BDEC028BBDE80B
:10B06000F08F1A6A002A3FF411AC1A6A002AF8D14C
:10B070000CE410F0E7FC82461DE4CD226FE510F0F1
:10B08000E1FC80462AE610F0DDFC804626E710F061
:10B09000D9FC8046C9E610F0D5FC804671E610F078
:10B0A000D1FC8046C2E510F0CDFC80466AE510F088
:10B0B000C9FC804600E510F0C5FC8046A8E410F00D
:10B0C000C1FC80464CE410F0BDFC8046FFF761BB3C
:10B0D00010F0B8FC8046FFF708BB10F0B3FC8046C8
:10B0E000FFF753BA0222582130460EF0A5FE324B2C
:10B0F0005B68C3F30803002B40F03782EFF3118342
:10B10000002B40F0328210F0FDFD8046DFF8A8A051
:10B1100010274FF0E02907E010F0F4FDA0EB080342
:10B12000B3F57A7FBFF419AEDAF80430C3F308033D
:10B130001BB9EFF31183002BEED0EFF3118287F3ED
:10B140001288D9F818C0D9F81030D8034FF001018F
:10B1500003D5C4F85812D9F818C0D5F83436D4F845
:10B160005802D2B282F31188D4F85C124FF47A728A
:10B17000184402FB01F3A3EB0C03B3FBF1F302FB56
:10B180000030CBE70022482130460EF055FE0A4B36
:10B190005B68C3F30803002B40F0FA81EFF31183DF
:10B1A000002B40F0F58110F0ADFD8046DFF808A0DF
:10B1B00010274FF0E02910E000ED00E06D8C000852
:10B1C00018440508003C01408096980010F09AFD54
:10B1D000A0EB0803B3F57A7F31D2DAF80430C3F379
:10B1E00008031BB9EFF31183002BEFD0EFF31183AA
:10B1F00087F31288D9F818C0D9F81020D2034FF07D
:10B20000010103D5C4F85812D9F818C0D5F834266E
:10B21000D4F85802DBB283F31188D4F85C121044DE
:10B220004FF47A7202FB01F3A3EB0C03B3FBF1F3CF
:10B2300002FB0030A0EB0803B3F57A7FCDD3802268
:10B24000492130460EF0F8FDCF4B5B68C3F308038D
:10B25000002B40F0B181EFF31183002B40F0AC8163
:10B2600010F050FD8046DFF820A310274FF0E029B2
:10B2700006E010F047FDA0EB0803B3F57A7F31D26A
:10B28000DAF80430C3F308031BB9EFF31183002B82
:10B29000EFD0EFF3118387F31288D9F818C0D9F8EB
:10B2A0001020D0034FF0010103D5C4F85812D9F88B
:10B2B00018C0D5F83426D4F85802DBB283F31188CD
:10B2C000D4F85C1210444FF47A7202FB01F3A3EB42
:10B2D0000C03B3FBF1F302FB0030A0EB0803B3F562
:10B2E0007A7FCDD30022452130460EF0A5FDA64B36
:10B2F0005B68C3F30803002B40F05A81EFF311831E
:10B30000002B40F0558110F0FDFC8046DFF878A25C
:10B3100010274FF0E02906E010F0F4FCA0EB080342
:10B32000B3F57A7F31D2DAF80430C3F308031BB9DE
:10B33000EFF31183002BEFD0EFF3118387F3128823
:10B34000D9F818C0D9F81020D2034FF0010103D565
:10B35000C4F85812D9F818C0D5F83426D4F85802D1
:10B36000DBB283F31188D4F85C1210444FF47A7284
:10B3700002FB01F3A3EB0C03B3FBF1F302FB003080
:10B38000A0EB0803B3F57A7FCDD3062246213046E1
:10B390000EF052FD7C4B5B68C3F30803002B40F0BA
:10B3A0000381EFF31183002B40F0FE8010F0AAFC24
:10B3B0008046DFF8D4A110274FF0E02906E010F016
:10B3C000A1FCA0EB0803B3F57A7F31D2DAF80430A0
:10B3D000C3F308031BB9EFF31183002BEFD0EFF396
:10B3E000118387F31288D9F818C0D9F81020D00338
:10B3F0004FF0010103D5C4F85812D9F818C0D5F898
:10B400003426D4F85802DBB283F31188D4F85C12E6
:10B4100010444FF47A7202FB01F3A3EB0C03B3FB6D
:10B42000F1F302FB0030A0EB0803B3F57A7FCDD334
:10B430000022472130460EF0FFFC534B5B68C3F3FC
:10B440000803002B40F0AC80EFF31183002B40F099
:10B45000A78010F057FC8046DFF82CA110274FF092
:10B46000E02907E010F04EFCA0EB0803B3F57A7F6B
:10B47000BFF4BAAADAF80430C3F308031BB9EFF338
:10B480001183002BEED0EFF3118387F31288D9F8E4
:10B4900018C0D9F81020D2034FF0010103D5C4F829
:10B4A0005812D9F818C0D5F83426D4F85802DBB2AF
:10B4B00083F31188D4F85C1210444FF47A7202FBC3
:10B4C00001F3A3EB0C03B3FBF1F302FB0030CBE77A
:10B4D0003046B0227E210EF0AFFC2B4B5B68C3F3ED
:10B4E0000803002B58D1EFF31183002B54D110F037
:10B4F00009FC0746DFF8909010264FF0E02806E0A0
:10B5000010F000FCC31BB3F57A7FBFF42BADD9F864
:10B510000430C3F308031BB9EFF31183002BEFD002
:10B52000EFF3118386F31288D8F818C0D8F81020EA
:10B53000D2034FF0010103D5C4F85812D8F818C04F
:10B54000D5F83426D4F85802DBB283F31188D4F846
:10B550005C1210444FF47A7202FB01F3A3EB0C036C
:10B56000B3FBF1F302FB0030CCE710F06BFA80463E
:10B57000CCE5064A905DF02283F8D826032100220C
:10B5800043F0CAFF3BE500BF00ED00E06CB90508E1
:10B5900010F058FA804609E610F054FA0746A9E779
:10B5A00010F050FA804657E710F04CFA804600E75A
:10B5B00010F048FA8046A9E610F044FA804652E6B8
:10B5C000042347E5022345E5082343E5202341E51D
:10B5D00040233FE510233DE5009A014BD36019E578
:10B5E0006D8C00082DE9F04190F81E31032B8CB0D2
:10B5F00004464ED090F8DC00D4F8A070012800F08A
:10B600008E8016D8D4F89C3000221A605A609A6056
:10B610009A81D4F8E0300522B3F57A7FC4F8F0209F
:10B620002BD801250323284684F8DC300CB0BDE874
:10B63000F0810238012827D8D4F89C30554E922248
:10B640001A700FCE02AD0FC5D4F89C300293D4F817
:10B65000A03003930FCE0FC596E8030004F1100845
:10B6600085E8030002A940460EF088FB23695A6A68
:10B67000002A4BD0904535D0FEE723691A7B002A7B
:10B6800066D1022384F8DC30012528460CB0BDE8E1
:10B69000F081414D414910300A2305F52172019096
:10B6A0000EF0A2FBB5F886320198052B35DDB5F911
:10B6B0008812D5F88862B5F98A72B5F98C2211F52D
:10B6C000004F3DD0C4F8D060A4F8D4200125063B3B
:10B6D000002BDAD0B0227E210EF0AEFB28460CB053
:10B6E000BDE8F0811A6A002AFCD1B7F90230A4F84B
:10B6F000D030B7F90430A4F8D230B7F90630A4F846
:10B70000D430012528460CB0BDE8F0811A6A002A21
:10B71000EBD01A6A002AF9D1E7E70025D8E7B7F994
:10B720000830A4F8D030B7F90A30A4F8D230B7F90D
:10B730000C30A4F8D430054628460CB0BDE8F081A2
:10B7400017F5004FBED112F5004FBBD10025BEE763
:10B750005B69002B95D094F89850002D91D0D4F8C7
:10B760009C30C4F8A4408C221A70D4F8A020C4F8ED
:10B77000F8200E2201230A49C4F8FC20D4F89C20AA
:10B78000C4F80411C4F8F42084F8003184F8DC30E3
:10B790007BE700BF18440508002A00206C02002047
:10B7A0006186000838B590F82820012A04464FF039
:10B7B000000307D0427F5AB103F00100607780F0A8
:10B7C000010038BD406A0268117B69B9637F0BB91B
:10B7D000012038BD094D0A49022305F524720EF0F7
:10B7E00003FB95F89132E7E7516A19B1884201D01D
:10B7F000002038BD136A002BE8D0F9E7002A0020AA
:10B800007802002010B504462046FFF7CBFF002841
:10B81000FAD0012010BD00BFF0B511F0010583B0D2
:10B820000AD190F82860012E044607D0C368B3F10E
:10B83000807F01D90123237703B0F0BD0A4B476A0B
:10B84000D3F890060EF022FAE368B880B3F1807F57
:10B85000F2D9B7218DF80410267733462A463846A8
:10B8600001A90EF0C1FAE7E70819002038B5002257
:10B870004E2105460EF0E0FA1524962013F02EFC1A
:10B88000F52128460EF074FB422807D0472807D040
:10B89000013C14F0FF04F0D1204638BD0C24FBE736
:10B8A0000D24F9E72DE9F743054600F1100475482A
:10B8B0000EF0ECF944F23B33A882A5F84C3128464F
:10B8C000FDF78CFB42F21F53A5F84C310022762184
:10B8D00020460EF0B1FA00224E2120460EF0ACFABE
:10B8E00095F8D890684BB9F10C0F93F8613240F09D
:10B8F000A180012B00F0AE80022B15BF0626032687
:10B900004FF4DC774FF4786714BF4FF015084FF011
:10B910003F080122762120460EF08EFA42460C2185
:10B9200020460EF089FA07F0FC020D2120460EF0A9
:10B9300083FA320142EA17220E2120460EF07CFAE9
:10B94000B9F10C0F14BF4FF006084FF015084FF077
:10B9500002024FF07601204615BF24274FF4DC7712
:10B960000A2606260EF068FA4FEA4802032120460E
:10B970000EF062FA07F0BC02042120460EF05CFAD9
:10B98000320142EA1722052120460EF055FA002224
:10B99000762120460EF050FAFF22522120460EF06A
:10B9A0004BFA0322142120460EF046FA00226321AE
:10B9B00020460EF041FA0822652120460EF03CFA9E
